{"contracts/MarketplaceStorage.sol":{"MarketplaceStorage":{"abi":[{"inputs":[],"name":"BASIS_POINTS","outputs":[{"internalType":"uint256","name":"","type":"uint256"}],"stateMutability":"view","type":"function"},{"inputs":[],"name":"BLOCKS_PER_DAY","outputs":[{"internalType":"uint256","name":"","type":"uint256"}],"stateMutability":"view","type":"function"},{"inputs":[],"name":"CONTENT_MANAGER_ROLE","outputs":[{"internalType":"bytes32","name":"","type":"bytes32"}],"stateMutability":"view","type":"function"},{"inputs":[],"name":"EMERGENCY_ROLE","outputs":[{"internalType":"bytes32","name":"","type":"bytes32"}],"stateMutability":"view","type":"function"},{"inputs":[],"name":"MAX_BATCH_SIZE","outputs":[{"internalType":"uint256","name":"","type":"uint256"}],"stateMutability":"view","type":"function"},{"inputs":[],"name":"MAX_TITLE_LENGTH","outputs":[{"internalType":"uint256","name":"","type":"uint256"}],"stateMutability":"view","type":"function"},{"inputs":[],"name":"MIN_TITLE_LENGTH","outputs":[{"internalType":"uint256","name":"","type":"uint256"}],"stateMutability":"view","type":"function"},{"inputs":[],"name":"MODERATOR_ROLE","outputs":[{"internalType":"bytes32","name":"","type":"bytes32"}],"stateMutability":"view","type":"function"},{"inputs":[{"internalType":"address","name":"","type":"address"}],"name":"blacklistedUsers","outputs":[{"internalType":"bool","name":"","type":"bool"}],"stateMutability":"view","type":"function"},{"inputs":[{"internalType":"uint256","name":"","type":"uint256"},{"internalType":"uint256","name":"","type":"uint256"}],"name":"contentCollaborators","outputs":[{"internalType":"address","name":"collaboratorAddress","type":"address"},{"internalType":"uint256","name":"sharePercent","type":"uint256"},{"internalType":"bytes32","name":"roleHash","type":"bytes32"}],"stateMutability":"view","type":"function"},{"inputs":[{"internalType":"uint256","name":"","type":"uint256"}],"name":"contentItems","outputs":[{"internalType":"uint256","name":"contentId","type":"uint256"},{"internalType":"string","name":"title","type":"string"},{"internalType":"string","name":"description","type":"string"},{"internalType":"enum IEducationalMarketplace.ContentCategory","name":"category","type":"uint8"},{"internalType":"bytes32","name":"contentHash","type":"bytes32"},{"internalType":"uint256","name":"price","type":"uint256"},{"internalType":"uint256","name":"royaltyPercent","type":"uint256"},{"internalType":"enum IEducationalMarketplace.ContentStatus","name":"status","type":"uint8"},{"internalType":"address payable","name":"creator","type":"address"},{"internalType":"address payable","name":"currentOwner","type":"address"},{"internalType":"uint256","name":"createdAtBlock","type":"uint256"},{"internalType":"uint32","name":"totalSales","type":"uint32"},{"internalType":"uint32","name":"totalViews","type":"uint32"},{"internalType":"uint256","name":"totalEarnings","type":"uint256"}],"stateMutability":"view","type":"function"},{"inputs":[],"name":"creationCooldownBlocks","outputs":[{"internalType":"uint256","name":"","type":"uint256"}],"stateMutability":"view","type":"function"},{"inputs":[{"internalType":"address","name":"","type":"address"},{"internalType":"uint256","name":"","type":"uint256"}],"name":"creatorContent","outputs":[{"internalType":"uint256","name":"","type":"uint256"}],"stateMutability":"view","type":"function"},{"inputs":[{"internalType":"address","name":"","type":"address"}],"name":"creators","outputs":[{"internalType":"uint256","name":"totalContent","type":"uint256"},{"internalType":"uint256","name":"totalSales","type":"uint256"},{"internalType":"uint256","name":"totalEarnings","type":"uint256"},{"internalType":"uint256","name":"averageRating","type":"uint256"},{"internalType":"uint256","name":"lastContentBlock","type":"uint256"}],"stateMutability":"view","type":"function"},{"inputs":[],"name":"dailyUploadLimit","outputs":[{"internalType":"uint256","name":"","type":"uint256"}],"stateMutability":"view","type":"function"},{"inputs":[{"internalType":"address","name":"","type":"address"},{"internalType":"uint256","name":"","type":"uint256"}],"name":"dailyUploads","outputs":[{"internalType":"uint256","name":"","type":"uint256"}],"stateMutability":"view","type":"function"},{"inputs":[],"name":"defaultRoyaltyPercent","outputs":[{"internalType":"uint256","name":"","type":"uint256"}],"stateMutability":"view","type":"function"},{"inputs":[],"name":"emergencyStop","outputs":[{"internalType":"bool","name":"","type":"bool"}],"stateMutability":"view","type":"function"},{"inputs":[],"name":"maxCollaborators","outputs":[{"internalType":"uint256","name":"","type":"uint256"}],"stateMutability":"view","type":"function"},{"inputs":[],"name":"maxContentPrice","outputs":[{"internalType":"uint256","name":"","type":"uint256"}],"stateMutability":"view","type":"function"},{"inputs":[],"name":"maxDescriptionLength","outputs":[{"internalType":"uint256","name":"","type":"uint256"}],"stateMutability":"view","type":"function"},{"inputs":[],"name":"maxRoyaltyPercent","outputs":[{"internalType":"uint256","name":"","type":"uint256"}],"stateMutability":"view","type":"function"},{"inputs":[],"name":"minContentPrice","outputs":[{"internalType":"uint256","name":"","type":"uint256"}],"stateMutability":"view","type":"function"},{"inputs":[],"name":"minDescriptionLength","outputs":[{"internalType":"uint256","name":"","type":"uint256"}],"stateMutability":"view","type":"function"},{"inputs":[],"name":"nextContentId","outputs":[{"internalType":"uint256","name":"","type":"uint256"}],"stateMutability":"view","type":"function"},{"inputs":[],"name":"platformFeePercent","outputs":[{"internalType":"uint256","name":"","type":"uint256"}],"stateMutability":"view","type":"function"},{"inputs":[{"internalType":"uint256","name":"","type":"uint256"}],"name":"purchases","outputs":[{"internalType":"address","name":"buyer","type":"address"},{"internalType":"uint256","name":"contentId","type":"uint256"},{"internalType":"uint256","name":"blockNumber","type":"uint256"},{"internalType":"uint256","name":"pricePaid","type":"uint256"},{"internalType":"uint256","name":"royaltyPaid","type":"uint256"},{"internalType":"uint256","name":"platformFeePaid","type":"uint256"},{"internalType":"bytes32","name":"purchaseHash","type":"bytes32"}],"stateMutability":"view","type":"function"},{"inputs":[],"name":"totalActiveContent","outputs":[{"internalType":"uint256","name":"","type":"uint256"}],"stateMutability":"view","type":"function"},{"inputs":[],"name":"totalRevenue","outputs":[{"internalType":"uint256","name":"","type":"uint256"}],"stateMutability":"view","type":"function"},{"inputs":[],"name":"totalSales","outputs":[{"internalType":"uint256","name":"","type":"uint256"}],"stateMutability":"view","type":"function"},{"inputs":[{"internalType":"address","name":"","type":"address"},{"internalType":"uint256","name":"","type":"uint256"}],"name":"userPurchaseHistory","outputs":[{"internalType":"uint256","name":"","type":"uint256"}],"stateMutability":"view","type":"function"},{"inputs":[{"internalType":"address","name":"","type":"address"},{"internalType":"uint256","name":"","type":"uint256"}],"name":"userPurchases","outputs":[{"internalType":"bool","name":"","type":"bool"}],"stateMutability":"view","type":"function"}],"evm":{"bytecode":{"linkReferences":{},"object":"608080604052346100605760fa600c556103e880600d55611388600e5566038d7ea4c68000600f55678ac7230489e80000601055600a6011556032601255601355600a601455600a60155560ff1960175416601755610a4290816100668239f35b600080fdfe60808060405260048036101561001457600080fd5b60003560e01c9182630a248d7f1461087b575081630e73afdf146107325781630eea65f81461071457816318d1c9ee146106f657816320df4359146106bb57816322c0aec71461067c5781632c5572581461065e5781632ef9a160146106425781633b13d732146106245781633f8bf08614610606578163452517c7146105e85781634e42f6ae146105ca57816359941d42146105ac57816363a599a4146105895781636605ff661461056b5781636a480eb8146105215781636bb987fe14610504578163797669c9146104c95781638392fe311461044657816389de54001461040b5781638c639a85146103ed5781638f94bc68146103a5578163933166e11461033e578163a61a9d0314610320578163abc1b50e146102bc57508063bf2d9e0b1461029e578063c520571c14610280578063cf2c033414610233578063cfdbf25414610217578063e1f1c4a7146101fa578063eed3e097146101a25763f7f29f0c1461018157600080fd5b3461019d57600036600319011261019d57602060405160058152f35b600080fd5b3461019d57604036600319011261019d576101bb6109c8565b6001600160a01b031660009081526006602052604090208054602435919082101561019d576020916101ec916109de565b90546040519160031b1c8152f35b3461019d57600036600319011261019d5760206040516127108152f35b3461019d57600036600319011261019d57602060405160148152f35b3461019d57604036600319011261019d576001600160a01b036102546109c8565b1660005260026020526040600020602435600052602052602060ff604060002054166040519015158152f35b3461019d57600036600319011261019d576020601154604051908152f35b3461019d57600036600319011261019d576020600b54604051908152f35b3461019d57604036600319011261019d57602435908035600052602052604060002090815481101561019d576060916000526003602060002091020160018060a01b0381541690600260018201549101549060405192835260208301526040820152f35b3461019d57600036600319011261019d576020600954604051908152f35b3461019d57602036600319011261019d5760a0906001600160a01b036103626109c8565b1660005260016020526040600020908154916001810154916002820154906003830154920154926040519485526020850152604084015260608301526080820152f35b3461019d57604036600319011261019d576001600160a01b036103c66109c8565b16600052601660205260406000206024356000526020526020604060002054604051908152f35b3461019d57600036600319011261019d576020600c54604051908152f35b3461019d57600036600319011261019d5760206040517f39db794a90dad1f6f1eb43938a38164ffcb808bce7e11fb138c898d32d58d6d78152f35b3461019d57602036600319011261019d5780359060075482101561019d5760e0916007600052600760206000209102019060018060a01b0382541691600181015491600282015490600383015490830154916006600585015494015494604051968752602087015260408601526060850152608084015260a083015260c0820152f35b3461019d57600036600319011261019d5760206040517f71f3d55856e4058ed06ee057d79ada615f65cdf5f9ee88181b914225088f834f8152f35b3461019d57600036600319011261019d5760206040516116808152f35b3461019d57604036600319011261019d5761053a6109c8565b6001600160a01b031660009081526005602052604090208054602435919082101561019d576020916101ec916109de565b3461019d57600036600319011261019d576020600a54604051908152f35b3461019d57600036600319011261019d57602060ff601754166040519015158152f35b3461019d57600036600319011261019d576020600e54604051908152f35b3461019d57600036600319011261019d576020600d54604051908152f35b3461019d57600036600319011261019d576020601054604051908152f35b3461019d57600036600319011261019d576020601254604051908152f35b3461019d57600036600319011261019d576020601354604051908152f35b3461019d57600036600319011261019d57602060405160648152f35b3461019d57600036600319011261019d576020601554604051908152f35b3461019d57602036600319011261019d576001600160a01b0361069d6109c8565b166000526003602052602060ff604060002054166040519015158152f35b3461019d57600036600319011261019d5760206040517fbf233dd2aafeb4d50879c4aa5c81e96d92f6e6945c906a58f9f2d1c1631b4b268152f35b3461019d57600036600319011261019d576020601454604051908152f35b3461019d57600036600319011261019d576020600f54604051908152f35b3461019d57602036600319011261019d578035600052600060205260406000209081549061076260018401610896565b8361076f60028201610896565b60ff60038301541693808301549060058401546006850154906007860154936107d860018060a01b03600889015416966107ca600b600a60098c01549b01549e01549a6040519d8e6101c09181528160208201520190610988565b8c810360408e015290610988565b9860078110156108665760608b015260808a015260a089015260c0880152600360ff831610156108515750918596918360ff63ffffffff951660e089015260018060a01b039060081c1661010088015261012087015261014086015281811661016086015260201c166101808401526101a08301520390f35b602190634e487b7160e01b6000525260246000fd5b602185634e487b7160e01b6000525260246000fd5b3461019d57600036600319011261019d576020906008548152f35b906040519160009080549060018260011c916001841693841561097e575b602094858510811461096a5784895290811561094c5750600114610910575b50505050829003601f01601f191682016001600160401b038111838210176108fa57604052565b634e487b7160e01b600052604160045260246000fd5b909293506000528260002091836000935b8385106109385750505050830101388080806108d3565b805488860183015293019284908201610921565b60ff191688860152505050151560051b8401019050388080806108d3565b634e487b7160e01b87526022600452602487fd5b92607f16926108b4565b919082519283825260005b8481106109b4575050826000602080949584010152601f8019910116010190565b602081830181015184830182015201610993565b600435906001600160a01b038216820361019d57565b80548210156109f65760005260206000200190600090565b634e487b7160e01b600052603260045260246000fdfea26469706673582212209e8378b2dcb7efbde206107e9d42aeb5f6760168441131a0863d429f3356aa8964736f6c63430008160033","opcodes":"PUSH1 0x80 DUP1 PUSH1 0x40 MSTORE CALLVALUE PUSH2 0x60 JUMPI PUSH1 0xFA PUSH1 0xC SSTORE PUSH2 0x3E8 DUP1 PUSH1 0xD SSTORE PUSH2 0x1388 PUSH1 0xE SSTORE PUSH7 0x38D7EA4C68000 PUSH1 0xF SSTORE PUSH8 0x8AC7230489E80000 PUSH1 0x10 SSTORE PUSH1 0xA PUSH1 0x11 SSTORE PUSH1 0x32 PUSH1 0x12 SSTORE PUSH1 0x13 SSTORE PUSH1 0xA PUSH1 0x14 SSTORE PUSH1 0xA PUSH1 0x15 SSTORE PUSH1 0xFF NOT PUSH1 0x17 SLOAD AND PUSH1 0x17 SSTORE PUSH2 0xA42 SWAP1 DUP2 PUSH2 0x66 DUP3 CODECOPY RETURN JUMPDEST PUSH1 0x0 DUP1 REVERT INVALID PUSH1 0x80 DUP1 PUSH1 0x40 MSTORE PUSH1 0x4 DUP1 CALLDATASIZE LT ISZERO PUSH2 0x14 JUMPI PUSH1 0x0 DUP1 REVERT JUMPDEST PUSH1 0x0 CALLDATALOAD PUSH1 0xE0 SHR SWAP2 DUP3 PUSH4 0xA248D7F EQ PUSH2 0x87B JUMPI POP DUP2 PUSH4 0xE73AFDF EQ PUSH2 0x732 JUMPI DUP2 PUSH4 0xEEA65F8 EQ PUSH2 0x714 JUMPI DUP2 PUSH4 0x18D1C9EE EQ PUSH2 0x6F6 JUMPI DUP2 PUSH4 0x20DF4359 EQ PUSH2 0x6BB JUMPI DUP2 PUSH4 0x22C0AEC7 EQ PUSH2 0x67C JUMPI DUP2 PUSH4 0x2C557258 EQ PUSH2 0x65E JUMPI DUP2 PUSH4 0x2EF9A160 EQ PUSH2 0x642 JUMPI DUP2 PUSH4 0x3B13D732 EQ PUSH2 0x624 JUMPI DUP2 PUSH4 0x3F8BF086 EQ PUSH2 0x606 JUMPI DUP2 PUSH4 0x452517C7 EQ PUSH2 0x5E8 JUMPI DUP2 PUSH4 0x4E42F6AE EQ PUSH2 0x5CA JUMPI DUP2 PUSH4 0x59941D42 EQ PUSH2 0x5AC JUMPI DUP2 PUSH4 0x63A599A4 EQ PUSH2 0x589 JUMPI DUP2 PUSH4 0x6605FF66 EQ PUSH2 0x56B JUMPI DUP2 PUSH4 0x6A480EB8 EQ PUSH2 0x521 JUMPI DUP2 PUSH4 0x6BB987FE EQ PUSH2 0x504 JUMPI DUP2 PUSH4 0x797669C9 EQ PUSH2 0x4C9 JUMPI DUP2 PUSH4 0x8392FE31 EQ PUSH2 0x446 JUMPI DUP2 PUSH4 0x89DE5400 EQ PUSH2 0x40B JUMPI DUP2 PUSH4 0x8C639A85 EQ PUSH2 0x3ED JUMPI DUP2 PUSH4 0x8F94BC68 EQ PUSH2 0x3A5 JUMPI DUP2 PUSH4 0x933166E1 EQ PUSH2 0x33E JUMPI DUP2 PUSH4 0xA61A9D03 EQ PUSH2 0x320 JUMPI DUP2 PUSH4 0xABC1B50E EQ PUSH2 0x2BC JUMPI POP DUP1 PUSH4 0xBF2D9E0B EQ PUSH2 0x29E JUMPI DUP1 PUSH4 0xC520571C EQ PUSH2 0x280 JUMPI DUP1 PUSH4 0xCF2C0334 EQ PUSH2 0x233 JUMPI DUP1 PUSH4 0xCFDBF254 EQ PUSH2 0x217 JUMPI DUP1 PUSH4 0xE1F1C4A7 EQ PUSH2 0x1FA JUMPI DUP1 PUSH4 0xEED3E097 EQ PUSH2 0x1A2 JUMPI PUSH4 0xF7F29F0C EQ PUSH2 0x181 JUMPI PUSH1 0x0 DUP1 REVERT JUMPDEST CALLVALUE PUSH2 0x19D JUMPI PUSH1 0x0 CALLDATASIZE PUSH1 0x3 NOT ADD SLT PUSH2 0x19D JUMPI PUSH1 0x20 PUSH1 0x40 MLOAD PUSH1 0x5 DUP2 MSTORE RETURN JUMPDEST PUSH1 0x0 DUP1 REVERT JUMPDEST CALLVALUE PUSH2 0x19D JUMPI PUSH1 0x40 CALLDATASIZE PUSH1 0x3 NOT ADD SLT PUSH2 0x19D JUMPI PUSH2 0x1BB PUSH2 0x9C8 JUMP JUMPDEST PUSH1 0x1 PUSH1 0x1 PUSH1 0xA0 SHL SUB AND PUSH1 0x0 SWAP1 DUP2 MSTORE PUSH1 0x6 PUSH1 0x20 MSTORE PUSH1 0x40 SWAP1 KECCAK256 DUP1 SLOAD PUSH1 0x24 CALLDATALOAD SWAP2 SWAP1 DUP3 LT ISZERO PUSH2 0x19D JUMPI PUSH1 0x20 SWAP2 PUSH2 0x1EC SWAP2 PUSH2 0x9DE JUMP JUMPDEST SWAP1 SLOAD PUSH1 0x40 MLOAD SWAP2 PUSH1 0x3 SHL SHR DUP2 MSTORE RETURN JUMPDEST CALLVALUE PUSH2 0x19D JUMPI PUSH1 0x0 CALLDATASIZE PUSH1 0x3 NOT ADD SLT PUSH2 0x19D JUMPI PUSH1 0x20 PUSH1 0x40 MLOAD PUSH2 0x2710 DUP2 MSTORE RETURN JUMPDEST CALLVALUE PUSH2 0x19D JUMPI PUSH1 0x0 CALLDATASIZE PUSH1 0x3 NOT ADD SLT PUSH2 0x19D JUMPI PUSH1 0x20 PUSH1 0x40 MLOAD PUSH1 0x14 DUP2 MSTORE RETURN JUMPDEST CALLVALUE PUSH2 0x19D JUMPI PUSH1 0x40 CALLDATASIZE PUSH1 0x3 NOT ADD SLT PUSH2 0x19D JUMPI PUSH1 0x1 PUSH1 0x1 PUSH1 0xA0 SHL SUB PUSH2 0x254 PUSH2 0x9C8 JUMP JUMPDEST AND PUSH1 0x0 MSTORE PUSH1 0x2 PUSH1 0x20 MSTORE PUSH1 0x40 PUSH1 0x0 KECCAK256 PUSH1 0x24 CALLDATALOAD PUSH1 0x0 MSTORE PUSH1 0x20 MSTORE PUSH1 0x20 PUSH1 0xFF PUSH1 0x40 PUSH1 0x0 KECCAK256 SLOAD AND PUSH1 0x40 MLOAD SWAP1 ISZERO ISZERO DUP2 MSTORE RETURN JUMPDEST CALLVALUE PUSH2 0x19D JUMPI PUSH1 0x0 CALLDATASIZE PUSH1 0x3 NOT ADD SLT PUSH2 0x19D JUMPI PUSH1 0x20 PUSH1 0x11 SLOAD PUSH1 0x40 MLOAD SWAP1 DUP2 MSTORE RETURN JUMPDEST CALLVALUE PUSH2 0x19D JUMPI PUSH1 0x0 CALLDATASIZE PUSH1 0x3 NOT ADD SLT PUSH2 0x19D JUMPI PUSH1 0x20 PUSH1 0xB SLOAD PUSH1 0x40 MLOAD SWAP1 DUP2 MSTORE RETURN JUMPDEST CALLVALUE PUSH2 0x19D JUMPI PUSH1 0x40 CALLDATASIZE PUSH1 0x3 NOT ADD SLT PUSH2 0x19D JUMPI PUSH1 0x24 CALLDATALOAD SWAP1 DUP1 CALLDATALOAD PUSH1 0x0 MSTORE PUSH1 0x20 MSTORE PUSH1 0x40 PUSH1 0x0 KECCAK256 SWAP1 DUP2 SLOAD DUP2 LT ISZERO PUSH2 0x19D JUMPI PUSH1 0x60 SWAP2 PUSH1 0x0 MSTORE PUSH1 0x3 PUSH1 0x20 PUSH1 0x0 KECCAK256 SWAP2 MUL ADD PUSH1 0x1 DUP1 PUSH1 0xA0 SHL SUB DUP2 SLOAD AND SWAP1 PUSH1 0x2 PUSH1 0x1 DUP3 ADD SLOAD SWAP2 ADD SLOAD SWAP1 PUSH1 0x40 MLOAD SWAP3 DUP4 MSTORE PUSH1 0x20 DUP4 ADD MSTORE PUSH1 0x40 DUP3 ADD MSTORE RETURN JUMPDEST CALLVALUE PUSH2 0x19D JUMPI PUSH1 0x0 CALLDATASIZE PUSH1 0x3 NOT ADD SLT PUSH2 0x19D JUMPI PUSH1 0x20 PUSH1 0x9 SLOAD PUSH1 0x40 MLOAD SWAP1 DUP2 MSTORE RETURN JUMPDEST CALLVALUE PUSH2 0x19D JUMPI PUSH1 0x20 CALLDATASIZE PUSH1 0x3 NOT ADD SLT PUSH2 0x19D JUMPI PUSH1 0xA0 SWAP1 PUSH1 0x1 PUSH1 0x1 PUSH1 0xA0 SHL SUB PUSH2 0x362 PUSH2 0x9C8 JUMP JUMPDEST AND PUSH1 0x0 MSTORE PUSH1 0x1 PUSH1 0x20 MSTORE PUSH1 0x40 PUSH1 0x0 KECCAK256 SWAP1 DUP2 SLOAD SWAP2 PUSH1 0x1 DUP2 ADD SLOAD SWAP2 PUSH1 0x2 DUP3 ADD SLOAD SWAP1 PUSH1 0x3 DUP4 ADD SLOAD SWAP3 ADD SLOAD SWAP3 PUSH1 0x40 MLOAD SWAP5 DUP6 MSTORE PUSH1 0x20 DUP6 ADD MSTORE PUSH1 0x40 DUP5 ADD MSTORE PUSH1 0x60 DUP4 ADD MSTORE PUSH1 0x80 DUP3 ADD MSTORE RETURN JUMPDEST CALLVALUE PUSH2 0x19D JUMPI PUSH1 0x40 CALLDATASIZE PUSH1 0x3 NOT ADD SLT PUSH2 0x19D JUMPI PUSH1 0x1 PUSH1 0x1 PUSH1 0xA0 SHL SUB PUSH2 0x3C6 PUSH2 0x9C8 JUMP JUMPDEST AND PUSH1 0x0 MSTORE PUSH1 0x16 PUSH1 0x20 MSTORE PUSH1 0x40 PUSH1 0x0 KECCAK256 PUSH1 0x24 CALLDATALOAD PUSH1 0x0 MSTORE PUSH1 0x20 MSTORE PUSH1 0x20 PUSH1 0x40 PUSH1 0x0 KECCAK256 SLOAD PUSH1 0x40 MLOAD SWAP1 DUP2 MSTORE RETURN JUMPDEST CALLVALUE PUSH2 0x19D JUMPI PUSH1 0x0 CALLDATASIZE PUSH1 0x3 NOT ADD SLT PUSH2 0x19D JUMPI PUSH1 0x20 PUSH1 0xC SLOAD PUSH1 0x40 MLOAD SWAP1 DUP2 MSTORE RETURN JUMPDEST CALLVALUE PUSH2 0x19D JUMPI PUSH1 0x0 CALLDATASIZE PUSH1 0x3 NOT ADD SLT PUSH2 0x19D JUMPI PUSH1 0x20 PUSH1 0x40 MLOAD PUSH32 0x39DB794A90DAD1F6F1EB43938A38164FFCB808BCE7E11FB138C898D32D58D6D7 DUP2 MSTORE RETURN JUMPDEST CALLVALUE PUSH2 0x19D JUMPI PUSH1 0x20 CALLDATASIZE PUSH1 0x3 NOT ADD SLT PUSH2 0x19D JUMPI DUP1 CALLDATALOAD SWAP1 PUSH1 0x7 SLOAD DUP3 LT ISZERO PUSH2 0x19D JUMPI PUSH1 0xE0 SWAP2 PUSH1 0x7 PUSH1 0x0 MSTORE PUSH1 0x7 PUSH1 0x20 PUSH1 0x0 KECCAK256 SWAP2 MUL ADD SWAP1 PUSH1 0x1 DUP1 PUSH1 0xA0 SHL SUB DUP3 SLOAD AND SWAP2 PUSH1 0x1 DUP2 ADD SLOAD SWAP2 PUSH1 0x2 DUP3 ADD SLOAD SWAP1 PUSH1 0x3 DUP4 ADD SLOAD SWAP1 DUP4 ADD SLOAD SWAP2 PUSH1 0x6 PUSH1 0x5 DUP6 ADD SLOAD SWAP5 ADD SLOAD SWAP5 PUSH1 0x40 MLOAD SWAP7 DUP8 MSTORE PUSH1 0x20 DUP8 ADD MSTORE PUSH1 0x40 DUP7 ADD MSTORE PUSH1 0x60 DUP6 ADD MSTORE PUSH1 0x80 DUP5 ADD MSTORE PUSH1 0xA0 DUP4 ADD MSTORE PUSH1 0xC0 DUP3 ADD MSTORE RETURN JUMPDEST CALLVALUE PUSH2 0x19D JUMPI PUSH1 0x0 CALLDATASIZE PUSH1 0x3 NOT ADD SLT PUSH2 0x19D JUMPI PUSH1 0x20 PUSH1 0x40 MLOAD PUSH32 0x71F3D55856E4058ED06EE057D79ADA615F65CDF5F9EE88181B914225088F834F DUP2 MSTORE RETURN JUMPDEST CALLVALUE PUSH2 0x19D JUMPI PUSH1 0x0 CALLDATASIZE PUSH1 0x3 NOT ADD SLT PUSH2 0x19D JUMPI PUSH1 0x20 PUSH1 0x40 MLOAD PUSH2 0x1680 DUP2 MSTORE RETURN JUMPDEST CALLVALUE PUSH2 0x19D JUMPI PUSH1 0x40 CALLDATASIZE PUSH1 0x3 NOT ADD SLT PUSH2 0x19D JUMPI PUSH2 0x53A PUSH2 0x9C8 JUMP JUMPDEST PUSH1 0x1 PUSH1 0x1 PUSH1 0xA0 SHL SUB AND PUSH1 0x0 SWAP1 DUP2 MSTORE PUSH1 0x5 PUSH1 0x20 MSTORE PUSH1 0x40 SWAP1 KECCAK256 DUP1 SLOAD PUSH1 0x24 CALLDATALOAD SWAP2 SWAP1 DUP3 LT ISZERO PUSH2 0x19D JUMPI PUSH1 0x20 SWAP2 PUSH2 0x1EC SWAP2 PUSH2 0x9DE JUMP JUMPDEST CALLVALUE PUSH2 0x19D JUMPI PUSH1 0x0 CALLDATASIZE PUSH1 0x3 NOT ADD SLT PUSH2 0x19D JUMPI PUSH1 0x20 PUSH1 0xA SLOAD PUSH1 0x40 MLOAD SWAP1 DUP2 MSTORE RETURN JUMPDEST CALLVALUE PUSH2 0x19D JUMPI PUSH1 0x0 CALLDATASIZE PUSH1 0x3 NOT ADD SLT PUSH2 0x19D JUMPI PUSH1 0x20 PUSH1 0xFF PUSH1 0x17 SLOAD AND PUSH1 0x40 MLOAD SWAP1 ISZERO ISZERO DUP2 MSTORE RETURN JUMPDEST CALLVALUE PUSH2 0x19D JUMPI PUSH1 0x0 CALLDATASIZE PUSH1 0x3 NOT ADD SLT PUSH2 0x19D JUMPI PUSH1 0x20 PUSH1 0xE SLOAD PUSH1 0x40 MLOAD SWAP1 DUP2 MSTORE RETURN JUMPDEST CALLVALUE PUSH2 0x19D JUMPI PUSH1 0x0 CALLDATASIZE PUSH1 0x3 NOT ADD SLT PUSH2 0x19D JUMPI PUSH1 0x20 PUSH1 0xD SLOAD PUSH1 0x40 MLOAD SWAP1 DUP2 MSTORE RETURN JUMPDEST CALLVALUE PUSH2 0x19D JUMPI PUSH1 0x0 CALLDATASIZE PUSH1 0x3 NOT ADD SLT PUSH2 0x19D JUMPI PUSH1 0x20 PUSH1 0x10 SLOAD PUSH1 0x40 MLOAD SWAP1 DUP2 MSTORE RETURN JUMPDEST CALLVALUE PUSH2 0x19D JUMPI PUSH1 0x0 CALLDATASIZE PUSH1 0x3 NOT ADD SLT PUSH2 0x19D JUMPI PUSH1 0x20 PUSH1 0x12 SLOAD PUSH1 0x40 MLOAD SWAP1 DUP2 MSTORE RETURN JUMPDEST CALLVALUE PUSH2 0x19D JUMPI PUSH1 0x0 CALLDATASIZE PUSH1 0x3 NOT ADD SLT PUSH2 0x19D JUMPI PUSH1 0x20 PUSH1 0x13 SLOAD PUSH1 0x40 MLOAD SWAP1 DUP2 MSTORE RETURN JUMPDEST CALLVALUE PUSH2 0x19D JUMPI PUSH1 0x0 CALLDATASIZE PUSH1 0x3 NOT ADD SLT PUSH2 0x19D JUMPI PUSH1 0x20 PUSH1 0x40 MLOAD PUSH1 0x64 DUP2 MSTORE RETURN JUMPDEST CALLVALUE PUSH2 0x19D JUMPI PUSH1 0x0 CALLDATASIZE PUSH1 0x3 NOT ADD SLT PUSH2 0x19D JUMPI PUSH1 0x20 PUSH1 0x15 SLOAD PUSH1 0x40 MLOAD SWAP1 DUP2 MSTORE RETURN JUMPDEST CALLVALUE PUSH2 0x19D JUMPI PUSH1 0x20 CALLDATASIZE PUSH1 0x3 NOT ADD SLT PUSH2 0x19D JUMPI PUSH1 0x1 PUSH1 0x1 PUSH1 0xA0 SHL SUB PUSH2 0x69D PUSH2 0x9C8 JUMP JUMPDEST AND PUSH1 0x0 MSTORE PUSH1 0x3 PUSH1 0x20 MSTORE PUSH1 0x20 PUSH1 0xFF PUSH1 0x40 PUSH1 0x0 KECCAK256 SLOAD AND PUSH1 0x40 MLOAD SWAP1 ISZERO ISZERO DUP2 MSTORE RETURN JUMPDEST CALLVALUE PUSH2 0x19D JUMPI PUSH1 0x0 CALLDATASIZE PUSH1 0x3 NOT ADD SLT PUSH2 0x19D JUMPI PUSH1 0x20 PUSH1 0x40 MLOAD PUSH32 0xBF233DD2AAFEB4D50879C4AA5C81E96D92F6E6945C906A58F9F2D1C1631B4B26 DUP2 MSTORE RETURN JUMPDEST CALLVALUE PUSH2 0x19D JUMPI PUSH1 0x0 CALLDATASIZE PUSH1 0x3 NOT ADD SLT PUSH2 0x19D JUMPI PUSH1 0x20 PUSH1 0x14 SLOAD PUSH1 0x40 MLOAD SWAP1 DUP2 MSTORE RETURN JUMPDEST CALLVALUE PUSH2 0x19D JUMPI PUSH1 0x0 CALLDATASIZE PUSH1 0x3 NOT ADD SLT PUSH2 0x19D JUMPI PUSH1 0x20 PUSH1 0xF SLOAD PUSH1 0x40 MLOAD SWAP1 DUP2 MSTORE RETURN JUMPDEST CALLVALUE PUSH2 0x19D JUMPI PUSH1 0x20 CALLDATASIZE PUSH1 0x3 NOT ADD SLT PUSH2 0x19D JUMPI DUP1 CALLDATALOAD PUSH1 0x0 MSTORE PUSH1 0x0 PUSH1 0x20 MSTORE PUSH1 0x40 PUSH1 0x0 KECCAK256 SWAP1 DUP2 SLOAD SWAP1 PUSH2 0x762 PUSH1 0x1 DUP5 ADD PUSH2 0x896 JUMP JUMPDEST DUP4 PUSH2 0x76F PUSH1 0x2 DUP3 ADD PUSH2 0x896 JUMP JUMPDEST PUSH1 0xFF PUSH1 0x3 DUP4 ADD SLOAD AND SWAP4 DUP1 DUP4 ADD SLOAD SWAP1 PUSH1 0x5 DUP5 ADD SLOAD PUSH1 0x6 DUP6 ADD SLOAD SWAP1 PUSH1 0x7 DUP7 ADD SLOAD SWAP4 PUSH2 0x7D8 PUSH1 0x1 DUP1 PUSH1 0xA0 SHL SUB PUSH1 0x8 DUP10 ADD SLOAD AND SWAP7 PUSH2 0x7CA PUSH1 0xB PUSH1 0xA PUSH1 0x9 DUP13 ADD SLOAD SWAP12 ADD SLOAD SWAP15 ADD SLOAD SWAP11 PUSH1 0x40 MLOAD SWAP14 DUP15 PUSH2 0x1C0 SWAP2 DUP2 MSTORE DUP2 PUSH1 0x20 DUP3 ADD MSTORE ADD SWAP1 PUSH2 0x988 JUMP JUMPDEST DUP13 DUP2 SUB PUSH1 0x40 DUP15 ADD MSTORE SWAP1 PUSH2 0x988 JUMP JUMPDEST SWAP9 PUSH1 0x7 DUP2 LT ISZERO PUSH2 0x866 JUMPI PUSH1 0x60 DUP12 ADD MSTORE PUSH1 0x80 DUP11 ADD MSTORE PUSH1 0xA0 DUP10 ADD MSTORE PUSH1 0xC0 DUP9 ADD MSTORE PUSH1 0x3 PUSH1 0xFF DUP4 AND LT ISZERO PUSH2 0x851 JUMPI POP SWAP2 DUP6 SWAP7 SWAP2 DUP4 PUSH1 0xFF PUSH4 0xFFFFFFFF SWAP6 AND PUSH1 0xE0 DUP10 ADD MSTORE PUSH1 0x1 DUP1 PUSH1 0xA0 SHL SUB SWAP1 PUSH1 0x8 SHR AND PUSH2 0x100 DUP9 ADD MSTORE PUSH2 0x120 DUP8 ADD MSTORE PUSH2 0x140 DUP7 ADD MSTORE DUP2 DUP2 AND PUSH2 0x160 DUP7 ADD MSTORE PUSH1 0x20 SHR AND PUSH2 0x180 DUP5 ADD MSTORE PUSH2 0x1A0 DUP4 ADD MSTORE SUB SWAP1 RETURN JUMPDEST PUSH1 0x21 SWAP1 PUSH4 0x4E487B71 PUSH1 0xE0 SHL PUSH1 0x0 MSTORE MSTORE PUSH1 0x24 PUSH1 0x0 REVERT JUMPDEST PUSH1 0x21 DUP6 PUSH4 0x4E487B71 PUSH1 0xE0 SHL PUSH1 0x0 MSTORE MSTORE PUSH1 0x24 PUSH1 0x0 REVERT JUMPDEST CALLVALUE PUSH2 0x19D JUMPI PUSH1 0x0 CALLDATASIZE PUSH1 0x3 NOT ADD SLT PUSH2 0x19D JUMPI PUSH1 0x20 SWAP1 PUSH1 0x8 SLOAD DUP2 MSTORE RETURN JUMPDEST SWAP1 PUSH1 0x40 MLOAD SWAP2 PUSH1 0x0 SWAP1 DUP1 SLOAD SWAP1 PUSH1 0x1 DUP3 PUSH1 0x1 SHR SWAP2 PUSH1 0x1 DUP5 AND SWAP4 DUP5 ISZERO PUSH2 0x97E JUMPI JUMPDEST PUSH1 0x20 SWAP5 DUP6 DUP6 LT DUP2 EQ PUSH2 0x96A JUMPI DUP5 DUP10 MSTORE SWAP1 DUP2 ISZERO PUSH2 0x94C JUMPI POP PUSH1 0x1 EQ PUSH2 0x910 JUMPI JUMPDEST POP POP POP POP DUP3 SWAP1 SUB PUSH1 0x1F ADD PUSH1 0x1F NOT AND DUP3 ADD PUSH1 0x1 PUSH1 0x1 PUSH1 0x40 SHL SUB DUP2 GT DUP4 DUP3 LT OR PUSH2 0x8FA JUMPI PUSH1 0x40 MSTORE JUMP JUMPDEST PUSH4 0x4E487B71 PUSH1 0xE0 SHL PUSH1 0x0 MSTORE PUSH1 0x41 PUSH1 0x4 MSTORE PUSH1 0x24 PUSH1 0x0 REVERT JUMPDEST SWAP1 SWAP3 SWAP4 POP PUSH1 0x0 MSTORE DUP3 PUSH1 0x0 KECCAK256 SWAP2 DUP4 PUSH1 0x0 SWAP4 JUMPDEST DUP4 DUP6 LT PUSH2 0x938 JUMPI POP POP POP POP DUP4 ADD ADD CODESIZE DUP1 DUP1 DUP1 PUSH2 0x8D3 JUMP JUMPDEST DUP1 SLOAD DUP9 DUP7 ADD DUP4 ADD MSTORE SWAP4 ADD SWAP3 DUP5 SWAP1 DUP3 ADD PUSH2 0x921 JUMP JUMPDEST PUSH1 0xFF NOT AND DUP9 DUP7 ADD MSTORE POP POP POP ISZERO ISZERO PUSH1 0x5 SHL DUP5 ADD ADD SWAP1 POP CODESIZE DUP1 DUP1 DUP1 PUSH2 0x8D3 JUMP JUMPDEST PUSH4 0x4E487B71 PUSH1 0xE0 SHL DUP8 MSTORE PUSH1 0x22 PUSH1 0x4 MSTORE PUSH1 0x24 DUP8 REVERT JUMPDEST SWAP3 PUSH1 0x7F AND SWAP3 PUSH2 0x8B4 JUMP JUMPDEST SWAP2 SWAP1 DUP3 MLOAD SWAP3 DUP4 DUP3 MSTORE PUSH1 0x0 JUMPDEST DUP5 DUP2 LT PUSH2 0x9B4 JUMPI POP POP DUP3 PUSH1 0x0 PUSH1 0x20 DUP1 SWAP5 SWAP6 DUP5 ADD ADD MSTORE PUSH1 0x1F DUP1 NOT SWAP2 ADD AND ADD ADD SWAP1 JUMP JUMPDEST PUSH1 0x20 DUP2 DUP4 ADD DUP2 ADD MLOAD DUP5 DUP4 ADD DUP3 ADD MSTORE ADD PUSH2 0x993 JUMP JUMPDEST PUSH1 0x4 CALLDATALOAD SWAP1 PUSH1 0x1 PUSH1 0x1 PUSH1 0xA0 SHL SUB DUP3 AND DUP3 SUB PUSH2 0x19D JUMPI JUMP JUMPDEST DUP1 SLOAD DUP3 LT ISZERO PUSH2 0x9F6 JUMPI PUSH1 0x0 MSTORE PUSH1 0x20 PUSH1 0x0 KECCAK256 ADD SWAP1 PUSH1 0x0 SWAP1 JUMP JUMPDEST PUSH4 0x4E487B71 PUSH1 0xE0 SHL PUSH1 0x0 MSTORE PUSH1 0x32 PUSH1 0x4 MSTORE PUSH1 0x24 PUSH1 0x0 REVERT INVALID LOG2 PUSH5 0x6970667358 0x22 SLT KECCAK256 SWAP15 DUP4 PUSH25 0xB2DCB7EFBDE206107E9D42AEB5F6760168441131A0863D429F CALLER JUMP 0xAA DUP10 PUSH5 0x736F6C6343 STOP ADDMOD AND STOP CALLER "},"methodIdentifiers":{"BASIS_POINTS()":"e1f1c4a7","BLOCKS_PER_DAY()":"6bb987fe","CONTENT_MANAGER_ROLE()":"89de5400","EMERGENCY_ROLE()":"20df4359","MAX_BATCH_SIZE()":"cfdbf254","MAX_TITLE_LENGTH()":"2ef9a160","MIN_TITLE_LENGTH()":"f7f29f0c","MODERATOR_ROLE()":"797669c9","blacklistedUsers(address)":"22c0aec7","contentCollaborators(uint256,uint256)":"abc1b50e","contentItems(uint256)":"0e73afdf","creationCooldownBlocks()":"c520571c","creatorContent(address,uint256)":"6a480eb8","creators(address)":"933166e1","dailyUploadLimit()":"18d1c9ee","dailyUploads(address,uint256)":"8f94bc68","defaultRoyaltyPercent()":"4e42f6ae","emergencyStop()":"63a599a4","maxCollaborators()":"2c557258","maxContentPrice()":"452517c7","maxDescriptionLength()":"3b13d732","maxRoyaltyPercent()":"59941d42","minContentPrice()":"0eea65f8","minDescriptionLength()":"3f8bf086","nextContentId()":"0a248d7f","platformFeePercent()":"8c639a85","purchases(uint256)":"8392fe31","totalActiveContent()":"a61a9d03","totalRevenue()":"bf2d9e0b","totalSales()":"6605ff66","userPurchaseHistory(address,uint256)":"eed3e097","userPurchases(address,uint256)":"cf2c0334"}}}}}