{"contracts/MarketplaceViews.sol":{"MarketplaceViews":{"abi":[{"inputs":[{"internalType":"uint256","name":"contentId","type":"uint256"}],"name":"ContentAlreadyPurchased","type":"error"},{"inputs":[{"internalType":"uint256","name":"contentId","type":"uint256"}],"name":"ContentNotActive","type":"error"},{"inputs":[{"internalType":"uint256","name":"contentId","type":"uint256"}],"name":"ContentNotFound","type":"error"},{"inputs":[{"internalType":"uint256","name":"remainingBlocks","type":"uint256"}],"name":"CreationCooldownActive","type":"error"},{"inputs":[{"internalType":"uint256","name":"current","type":"uint256"},{"internalType":"uint256","name":"limit","type":"uint256"}],"name":"DailyLimitExceeded","type":"error"},{"inputs":[],"name":"EmergencyStopActive","type":"error"},{"inputs":[{"internalType":"uint256","name":"required","type":"uint256"},{"internalType":"uint256","name":"provided","type":"uint256"}],"name":"InsufficientPayment","type":"error"},{"inputs":[],"name":"InvalidCollaboratorShare","type":"error"},{"inputs":[],"name":"InvalidContentData","type":"error"},{"inputs":[{"internalType":"uint256","name":"price","type":"uint256"}],"name":"InvalidPrice","type":"error"},{"inputs":[{"internalType":"uint256","name":"percent","type":"uint256"}],"name":"InvalidRoyaltyPercent","type":"error"},{"inputs":[],"name":"TooManyCollaborators","type":"error"},{"inputs":[],"name":"UnauthorizedAccess","type":"error"},{"inputs":[],"name":"UserIsBlacklisted","type":"error"},{"inputs":[],"name":"BASIS_POINTS","outputs":[{"internalType":"uint256","name":"","type":"uint256"}],"stateMutability":"view","type":"function"},{"inputs":[],"name":"BLOCKS_PER_DAY","outputs":[{"internalType":"uint256","name":"","type":"uint256"}],"stateMutability":"view","type":"function"},{"inputs":[],"name":"CONTENT_MANAGER_ROLE","outputs":[{"internalType":"bytes32","name":"","type":"bytes32"}],"stateMutability":"view","type":"function"},{"inputs":[],"name":"EMERGENCY_ROLE","outputs":[{"internalType":"bytes32","name":"","type":"bytes32"}],"stateMutability":"view","type":"function"},{"inputs":[],"name":"MAX_BATCH_SIZE","outputs":[{"internalType":"uint256","name":"","type":"uint256"}],"stateMutability":"view","type":"function"},{"inputs":[],"name":"MAX_TITLE_LENGTH","outputs":[{"internalType":"uint256","name":"","type":"uint256"}],"stateMutability":"view","type":"function"},{"inputs":[],"name":"MIN_TITLE_LENGTH","outputs":[{"internalType":"uint256","name":"","type":"uint256"}],"stateMutability":"view","type":"function"},{"inputs":[],"name":"MODERATOR_ROLE","outputs":[{"internalType":"bytes32","name":"","type":"bytes32"}],"stateMutability":"view","type":"function"},{"inputs":[{"internalType":"address","name":"","type":"address"}],"name":"blacklistedUsers","outputs":[{"internalType":"bool","name":"","type":"bool"}],"stateMutability":"view","type":"function"},{"inputs":[{"internalType":"uint256","name":"_contentId","type":"uint256"}],"name":"calculatePurchasePreview","outputs":[{"internalType":"uint256","name":"contentPrice","type":"uint256"},{"internalType":"uint256","name":"platformFee","type":"uint256"},{"internalType":"uint256","name":"royaltyAmount","type":"uint256"},{"internalType":"uint256","name":"sellerAmount","type":"uint256"},{"internalType":"uint256","name":"totalRequired","type":"uint256"}],"stateMutability":"view","type":"function"},{"inputs":[{"internalType":"address","name":"_user","type":"address"}],"name":"canUserCreateContent","outputs":[{"internalType":"bool","name":"canCreate","type":"bool"},{"internalType":"bytes32","name":"statusHash","type":"bytes32"}],"stateMutability":"view","type":"function"},{"inputs":[{"internalType":"uint256","name":"","type":"uint256"},{"internalType":"uint256","name":"","type":"uint256"}],"name":"contentCollaborators","outputs":[{"internalType":"address","name":"collaboratorAddress","type":"address"},{"internalType":"uint256","name":"sharePercent","type":"uint256"},{"internalType":"bytes32","name":"roleHash","type":"bytes32"}],"stateMutability":"view","type":"function"},{"inputs":[{"internalType":"uint256","name":"","type":"uint256"}],"name":"contentItems","outputs":[{"internalType":"uint256","name":"contentId","type":"uint256"},{"internalType":"string","name":"title","type":"string"},{"internalType":"string","name":"description","type":"string"},{"internalType":"enum IEducationalMarketplace.ContentCategory","name":"category","type":"uint8"},{"internalType":"bytes32","name":"contentHash","type":"bytes32"},{"internalType":"uint256","name":"price","type":"uint256"},{"internalType":"uint256","name":"royaltyPercent","type":"uint256"},{"internalType":"enum IEducationalMarketplace.ContentStatus","name":"status","type":"uint8"},{"internalType":"address payable","name":"creator","type":"address"},{"internalType":"address payable","name":"currentOwner","type":"address"},{"internalType":"uint256","name":"createdAtBlock","type":"uint256"},{"internalType":"uint32","name":"totalSales","type":"uint32"},{"internalType":"uint32","name":"totalViews","type":"uint32"},{"internalType":"uint256","name":"totalEarnings","type":"uint256"}],"stateMutability":"view","type":"function"},{"inputs":[],"name":"creationCooldownBlocks","outputs":[{"internalType":"uint256","name":"","type":"uint256"}],"stateMutability":"view","type":"function"},{"inputs":[{"internalType":"address","name":"","type":"address"},{"internalType":"uint256","name":"","type":"uint256"}],"name":"creatorContent","outputs":[{"internalType":"uint256","name":"","type":"uint256"}],"stateMutability":"view","type":"function"},{"inputs":[{"internalType":"address","name":"","type":"address"}],"name":"creators","outputs":[{"internalType":"uint256","name":"totalContent","type":"uint256"},{"internalType":"uint256","name":"totalSales","type":"uint256"},{"internalType":"uint256","name":"totalEarnings","type":"uint256"},{"internalType":"uint256","name":"averageRating","type":"uint256"},{"internalType":"uint256","name":"lastContentBlock","type":"uint256"}],"stateMutability":"view","type":"function"},{"inputs":[],"name":"dailyUploadLimit","outputs":[{"internalType":"uint256","name":"","type":"uint256"}],"stateMutability":"view","type":"function"},{"inputs":[{"internalType":"address","name":"","type":"address"},{"internalType":"uint256","name":"","type":"uint256"}],"name":"dailyUploads","outputs":[{"internalType":"uint256","name":"","type":"uint256"}],"stateMutability":"view","type":"function"},{"inputs":[],"name":"defaultRoyaltyPercent","outputs":[{"internalType":"uint256","name":"","type":"uint256"}],"stateMutability":"view","type":"function"},{"inputs":[],"name":"emergencyStop","outputs":[{"internalType":"bool","name":"","type":"bool"}],"stateMutability":"view","type":"function"},{"inputs":[{"internalType":"uint256","name":"_offset","type":"uint256"},{"internalType":"uint256","name":"_limit","type":"uint256"}],"name":"getActiveContentIds","outputs":[{"internalType":"uint256[]","name":"contentIds","type":"uint256[]"},{"internalType":"uint256","name":"totalActive","type":"uint256"}],"stateMutability":"view","type":"function"},{"inputs":[{"internalType":"enum IEducationalMarketplace.ContentCategory","name":"_category","type":"uint8"},{"internalType":"uint256","name":"_offset","type":"uint256"},{"internalType":"uint256","name":"_limit","type":"uint256"}],"name":"getContentByCategory","outputs":[{"internalType":"uint256[]","name":"contentIds","type":"uint256[]"},{"internalType":"uint256","name":"totalMatching","type":"uint256"}],"stateMutability":"view","type":"function"},{"inputs":[{"internalType":"uint256","name":"_minPrice","type":"uint256"},{"internalType":"uint256","name":"_maxPrice","type":"uint256"},{"internalType":"uint256","name":"_offset","type":"uint256"},{"internalType":"uint256","name":"_limit","type":"uint256"}],"name":"getContentByPriceRange","outputs":[{"internalType":"uint256[]","name":"contentIds","type":"uint256[]"},{"internalType":"uint256","name":"totalMatching","type":"uint256"}],"stateMutability":"view","type":"function"},{"inputs":[{"internalType":"uint256","name":"_contentId","type":"uint256"}],"name":"getContentCollaborators","outputs":[{"internalType":"address[]","name":"collaboratorAddresses","type":"address[]"},{"internalType":"uint256[]","name":"sharePercents","type":"uint256[]"},{"internalType":"bytes32[]","name":"roleHashes","type":"bytes32[]"}],"stateMutability":"view","type":"function"},{"inputs":[{"internalType":"uint256","name":"_contentId","type":"uint256"}],"name":"getContentDetails","outputs":[{"internalType":"string","name":"title","type":"string"},{"internalType":"string","name":"description","type":"string"},{"internalType":"enum IEducationalMarketplace.ContentCategory","name":"category","type":"uint8"},{"internalType":"bytes32","name":"contentHash","type":"bytes32"},{"internalType":"uint256","name":"price","type":"uint256"},{"internalType":"uint256","name":"royaltyPercent","type":"uint256"},{"internalType":"enum IEducationalMarketplace.ContentStatus","name":"status","type":"uint8"},{"internalType":"address","name":"creator","type":"address"},{"internalType":"address","name":"currentOwner","type":"address"},{"internalType":"uint32","name":"totalSales","type":"uint32"},{"internalType":"uint256","name":"createdAt","type":"uint256"}],"stateMutability":"view","type":"function"},{"inputs":[{"internalType":"uint256","name":"_contentId","type":"uint256"}],"name":"getContentHash","outputs":[{"internalType":"bytes32","name":"","type":"bytes32"}],"stateMutability":"view","type":"function"},{"inputs":[{"internalType":"address","name":"_creator","type":"address"}],"name":"getCreatorContent","outputs":[{"internalType":"uint256[]","name":"","type":"uint256[]"}],"stateMutability":"view","type":"function"},{"inputs":[{"internalType":"address","name":"_creator","type":"address"}],"name":"getCreatorStats","outputs":[{"internalType":"uint256","name":"totalContent","type":"uint256"},{"internalType":"uint256","name":"totalSales","type":"uint256"},{"internalType":"uint256","name":"totalEarnings","type":"uint256"},{"internalType":"uint256","name":"averageRating","type":"uint256"},{"internalType":"uint256","name":"lastContentBlock","type":"uint256"}],"stateMutability":"view","type":"function"},{"inputs":[{"internalType":"address","name":"_user","type":"address"}],"name":"getDailyUploadStatus","outputs":[{"internalType":"uint256","name":"todayUploads","type":"uint256"},{"internalType":"uint256","name":"remainingUploads","type":"uint256"}],"stateMutability":"view","type":"function"},{"inputs":[],"name":"getMarketplaceStats","outputs":[{"internalType":"uint256","name":"totalContent","type":"uint256"},{"internalType":"uint256","name":"activeContent","type":"uint256"},{"internalType":"uint256","name":"totalSalesCount","type":"uint256"},{"internalType":"uint256","name":"totalRevenueAmount","type":"uint256"},{"internalType":"uint256","name":"currentBlock","type":"uint256"}],"stateMutability":"view","type":"function"},{"inputs":[{"internalType":"uint256","name":"_limit","type":"uint256"}],"name":"getTrendingContentIds","outputs":[{"internalType":"uint256[]","name":"contentIds","type":"uint256[]"}],"stateMutability":"view","type":"function"},{"inputs":[{"internalType":"address","name":"_user","type":"address"}],"name":"getUserCooldown","outputs":[{"internalType":"uint256","name":"blocksRemaining","type":"uint256"},{"internalType":"bool","name":"canCreate","type":"bool"}],"stateMutability":"view","type":"function"},{"inputs":[{"internalType":"address","name":"_user","type":"address"}],"name":"getUserPurchaseHistory","outputs":[{"internalType":"uint256[]","name":"contentIds","type":"uint256[]"}],"stateMutability":"view","type":"function"},{"inputs":[{"internalType":"address","name":"_user","type":"address"},{"internalType":"uint256","name":"_contentId","type":"uint256"}],"name":"hasPurchased","outputs":[{"internalType":"bool","name":"","type":"bool"}],"stateMutability":"view","type":"function"},{"inputs":[],"name":"maxCollaborators","outputs":[{"internalType":"uint256","name":"","type":"uint256"}],"stateMutability":"view","type":"function"},{"inputs":[],"name":"maxContentPrice","outputs":[{"internalType":"uint256","name":"","type":"uint256"}],"stateMutability":"view","type":"function"},{"inputs":[],"name":"maxDescriptionLength","outputs":[{"internalType":"uint256","name":"","type":"uint256"}],"stateMutability":"view","type":"function"},{"inputs":[],"name":"maxRoyaltyPercent","outputs":[{"internalType":"uint256","name":"","type":"uint256"}],"stateMutability":"view","type":"function"},{"inputs":[],"name":"minContentPrice","outputs":[{"internalType":"uint256","name":"","type":"uint256"}],"stateMutability":"view","type":"function"},{"inputs":[],"name":"minDescriptionLength","outputs":[{"internalType":"uint256","name":"","type":"uint256"}],"stateMutability":"view","type":"function"},{"inputs":[],"name":"nextContentId","outputs":[{"internalType":"uint256","name":"","type":"uint256"}],"stateMutability":"view","type":"function"},{"inputs":[],"name":"platformFeePercent","outputs":[{"internalType":"uint256","name":"","type":"uint256"}],"stateMutability":"view","type":"function"},{"inputs":[{"internalType":"uint256","name":"","type":"uint256"}],"name":"purchases","outputs":[{"internalType":"address","name":"buyer","type":"address"},{"internalType":"uint256","name":"contentId","type":"uint256"},{"internalType":"uint256","name":"blockNumber","type":"uint256"},{"internalType":"uint256","name":"pricePaid","type":"uint256"},{"internalType":"uint256","name":"royaltyPaid","type":"uint256"},{"internalType":"uint256","name":"platformFeePaid","type":"uint256"},{"internalType":"bytes32","name":"purchaseHash","type":"bytes32"}],"stateMutability":"view","type":"function"},{"inputs":[],"name":"totalActiveContent","outputs":[{"internalType":"uint256","name":"","type":"uint256"}],"stateMutability":"view","type":"function"},{"inputs":[],"name":"totalRevenue","outputs":[{"internalType":"uint256","name":"","type":"uint256"}],"stateMutability":"view","type":"function"},{"inputs":[],"name":"totalSales","outputs":[{"internalType":"uint256","name":"","type":"uint256"}],"stateMutability":"view","type":"function"},{"inputs":[{"internalType":"address","name":"","type":"address"},{"internalType":"uint256","name":"","type":"uint256"}],"name":"userPurchaseHistory","outputs":[{"internalType":"uint256","name":"","type":"uint256"}],"stateMutability":"view","type":"function"},{"inputs":[{"internalType":"address","name":"","type":"address"},{"internalType":"uint256","name":"","type":"uint256"}],"name":"userPurchases","outputs":[{"internalType":"bool","name":"","type":"bool"}],"stateMutability":"view","type":"function"}],"evm":{"bytecode":{"linkReferences":{},"object":"608080604052346100605760fa600c556103e880600d55611388600e5566038d7ea4c68000600f55678ac7230489e80000601055600a6011556032601255601355600a601455600a60155560ff1960175416601755611b9890816100668239f35b600080fdfe608080604052600436101561001357600080fd5b60003560e01c908163011c6756146116cf575080630a248d7f146116b15780630e73afdf146115965780630eea65f81461157857806311923132146104ae57806318d1c9ee1461155a57806320df43591461151f57806322c0aec7146114e05780632c557258146114c25780632cd3bea61461135d5780632ef9a1601461134157806331b6c5721461111357806335c38d1e1461108857806337803e3914610f415780633b13d73214610f235780633f8bf08614610f05578063452517c714610ee75780634e42f6ae14610ec957806359941d4214610eab57806362581c7714610d6357806363a599a414610d40578063643808a814610cd15780636605ff6614610cb35780636a480eb814610c695780636bb987fe14610c4c578063797669c914610c115780637d08e16d14610a7f578063812d966a14610a505780638392fe31146109ce57806389de5400146109935780638c639a85146109755780638f94bc681461092d578063933166e1146106ef5780639dc3960b1461074a5780639f82d472146106ef578063a61a9d03146106d1578063a8e380f1146106a0578063abc1b50e14610642578063bef14aab14610537578063bf2d9e0b14610519578063c520571c146104fb578063cf2c0334146104ae578063cfdbf25414610492578063e1f1c4a714610475578063eed3e0971461041d578063f7f29f0c14610401578063fad504ff146103d05763ffbdc8cb1461022f57600080fd5b346103cb576020806003193601126103cb576004356008548110156103b3578060005260008252604060002090604051916102698361178b565b80548352610279600182016117ca565b84840152610289600282016117ca565b604084015260ff600382015416600781101561039d57606084015260048101549260808101938452600582015460a0820152600682015460c082015260078201549260ff8416600381101561039d5760e083015260018060a01b03918261010082019560081c1685526101a0600b846008870154169561012084019687526009810154610140850152600a81015463ffffffff908181166101608701528b1c1661018085015201549101523360005260028652604060002090600052855260ff6040600020541615928361038f575b5082610380575b505061036e5751604051908152f35b604051631a27eac360e11b8152600490fd5b9051163314159050388061035f565b518116331415925038610358565b634e487b7160e01b600052602160045260246000fd5b60249060405190631c1269f360e21b82526004820152fd5b600080fd5b346103cb5760203660031901126103cb5760406103f36103ee611741565b611b19565b825191825215156020820152f35b346103cb5760003660031901126103cb57602060405160058152f35b346103cb5760403660031901126103cb57610436611741565b6001600160a01b03166000908152600660205260409020805460243591908210156103cb576020916104679161191b565b90546040519160031b1c8152f35b346103cb5760003660031901126103cb5760206040516127108152f35b346103cb5760003660031901126103cb57602060405160148152f35b346103cb5760403660031901126103cb576001600160a01b036104cf611741565b1660005260026020526040600020602435600052602052602060ff604060002054166040519015158152f35b346103cb5760003660031901126103cb576020601154604051908152f35b346103cb5760003660031901126103cb576020600b54604051908152f35b346103cb5761054536611949565b61054e81611976565b91600092600090600093600854945b85811080610639575b156105e05780600052600060205260ff60076040600020015416600381101561039d571561059d575b610598906119a8565b61055d565b92848110156105bb575b6105b3610598916119a8565b93905061058f565b956105b36105d782866105d161059895886119b7565b526119a8565b979150506105a7565b8287856105ec82611976565b9160005b81811061061a576106108484604051928392604084526040840190611757565b9060208301520390f35b80610627600192876119b7565b5161063282876119b7565b52016105f0565b50818710610566565b346103cb5761065036611949565b90600052600460205260406000209081548110156103cb576060916000526003602060002091020160018060a01b0381541690600260018201549101549060405192835260208301526040820152f35b346103cb5760203660031901126103cb5760406106c36106be611741565b6119eb565b825191151582526020820152f35b346103cb5760003660031901126103cb576020600954604051908152f35b346103cb5760203660031901126103cb576001600160a01b03610710611741565b166000526001602052604060002080546107466001830154926002810154906004600382015491015491604051958695866118f7565b0390f35b346103cb5760203660031901126103cb576004356008548110156103b35760005260006020526040600020604051906107828261178b565b80548252610792600182016117ca565b60208301526107a3600282016117ca565b604083015260ff600382015416600781101561039d57606083015260048101546080830152600581015460a0830152600681015460c083015260078101549060ff821691600383101561039d57600b9260e085015260018060a01b039060081c1661010084015260018060a01b03600882015416610120840152600981015461014084015263ffffffff600a82015481811661016086015260201c1661018084015201546101a0820152602081015190604081015191606082015190600782101561039d5760808301519260a08101519360c08201519460e083015195600387101561039d576108e0966109129160018060a01b03610100870151169360018060a01b0361012088015116956108f96108ee61014063ffffffff6101608c0151169a01519a6040519e8f9e8f92610160845261016084019061189d565b91602081840391015261189d565b9a60408d01906118dd565b60608b015260808a015260a089015260c08801906118ea565b60e08601526101008501526101208401526101408301520390f35b346103cb5760403660031901126103cb576001600160a01b0361094e611741565b16600052601660205260406000206024356000526020526020604060002054604051908152f35b346103cb5760003660031901126103cb576020600c54604051908152f35b346103cb5760003660031901126103cb5760206040517f39db794a90dad1f6f1eb43938a38164ffcb808bce7e11fb138c898d32d58d6d78152f35b346103cb5760203660031901126103cb576004356007548110156103cb5760e09060076000526007602060002091020160018060a01b0381541690600181015490600281015460038201546004830154916006600585015494015494604051968752602087015260408601526060850152608084015260a083015260c0820152f35b346103cb5760003660031901126103cb57600854600954610746600a5492600b546040519485944393866118f7565b346103cb576020806003193601126103cb5760043590610aa0600954611976565b916000906000600854905b818110610bcc57505060005b828110610b1a575081811115610b1357505b610ad281611976565b9260005b828110610af457505050610746604051928284938452830190611757565b80610b01600192846119b7565b51610b0c82886119b7565b5201610ad6565b9050610ac9565b6001808201808311610bb6575b848110610b38575050600101610ab7565b8190610b4484896119b7565b516000526000875263ffffffff600a908082604060002001541691610b69848c6119b7565b5160005260008a52604060002001541611610b85575b01610b27565b610b8f84896119b7565b51610b9a828a6119b7565b51610ba5868b6119b7565b52610bb0828a6119b7565b52610b7f565b634e487b7160e01b600052601160045260246000fd5b806000526000855260ff60076040600020015416600381101561039d5715610bf7575b600101610aab565b92610c0981856105d16001948a6119b7565b939050610bef565b346103cb5760003660031901126103cb5760206040517f71f3d55856e4058ed06ee057d79ada615f65cdf5f9ee88181b914225088f834f8152f35b346103cb5760003660031901126103cb5760206040516116808152f35b346103cb5760403660031901126103cb57610c82611741565b6001600160a01b03166000908152600560205260409020805460243591908210156103cb576020916104679161191b565b346103cb5760003660031901126103cb576020600a54604051908152f35b346103cb5760203660031901126103cb576001600160a01b03610cf2611741565b16600052601660205260406000206116804304600052602052604080600020546014548181811015600014610d3257505060005b82519182526020820152f35b610d3b916119de565b610d26565b346103cb5760003660031901126103cb57602060ff601754166040519015158152f35b346103cb5760603660031901126103cb57600760043510156103cb57610d8a604435611976565b600854600080805b83811080610ea0575b15610e51578060005260206000815260ff80600760406000200154166003908181101561039d57159283610e1f575b505050610de0575b610ddb906119a8565b610d92565b90602435811015610e00575b610df8610ddb916119a8565b919050610dd2565b91610df8610e1682846105d1610ddb958a6119b7565b93915050610dec565b6000919293508482525260406000200154166007600435101561039d57600781101561039d5760043514868080610dca565b848383610e5d82611976565b9160005b818110610e81576106108484604051928392604084526040840190611757565b80610e8e600192876119b7565b51610e9982876119b7565b5201610e61565b506044358310610d9b565b346103cb5760003660031901126103cb576020600e54604051908152f35b346103cb5760003660031901126103cb576020600d54604051908152f35b346103cb5760003660031901126103cb576020601054604051908152f35b346103cb5760003660031901126103cb576020601254604051908152f35b346103cb5760003660031901126103cb576020601354604051908152f35b346103cb5760203660031901126103cb576004356008548110156103b35760005260006020526040600020604051610f788161178b565b81548152610f88600183016117ca565b6020820152610f99600283016117ca565b604082015260ff600383015416600781101561039d5760608201526004820154608082015260058201549060a0810191825260068301549260c0820193845260078101549060ff821690600382101561039d576101a092600b9260e086015260018060a01b03809160081c166101008601526008820154166101208501526009810154610140850152600a81015463ffffffff9081811661016087015260201c16610180850152015491015251906107466127106110668161105d600c54876119cb565b049351856119cb565b049261107b8461107685846119de565b6119de565b60405194859483866118f7565b346103cb576020806003193601126103cb576001600160a01b036110aa611741565b1660005260068152604060002090604051808383829554938481520190600052836000209260005b858282106110fd575050506110e9925003836117a7565b610746604051928284938452830190611757565b85548452600195860195889550930192016110d2565b346103cb576020806003193601126103cb576004356008548110156103b35760005260048152604060002090815461114a8161195f565b9261115860405194856117a7565b8184526000908152828120908385015b8382106112dc578551858761119561117f8461195f565b9361118d60405195866117a7565b80855261195f565b83830192601f19929183013685376111ad8251611976565b948251936111d36111bd8661195f565b956111cb60405197886117a7565b80875261195f565b858401910136823760005b8451811015611243576001906001600160a01b036111fc82886119b7565b51511661120982866119b7565b528461121582886119b7565b510151611222828b6119b7565b52604061122f82886119b7565b51015161123c82896119b7565b52016111de565b509086918386886040519586956060870190606088525180915260808701929060005b8181106112bc5750505081611282918786940384890152611757565b918583036040870152519182815201929160005b8281106112a557505050500390f35b835185528695509381019392810192600101611296565b82516001600160a01b031685528998509386019391860191600101611266565b604051606081016001600160401b0381118282101761132b576001926003928892604052848060a01b038754168152848701548382015260028701546040820152815201930191019091611168565b634e487b7160e01b600052604160045260246000fd5b346103cb5760003660031901126103cb57602060405160648152f35b346103cb5760803660031901126103cb576004356064356044356024803561138484611976565b90600090600093600096600854975b888110806114b9575b1561146a578060005260206000815260ff60076040600020015416600381101561145557159081611439575b8161141f575b506113e2575b6113dd906119a8565b611393565b9587811015611400575b6113f86113dd916119a8565b9690506113d4565b936113f861141682896105d16113dd958b6119b7565b959150506113ec565b60009150828252528360056040600020015411158b6113ce565b905081600052600081528a6005604060002001541015906113c8565b84634e487b7160e01b60005260216004526000fd5b85858861147682611976565b9160005b81811061149a576106108484604051928392604084526040840190611757565b806114a7600192876119b7565b516114b282876119b7565b520161147a565b5081851061139c565b346103cb5760003660031901126103cb576020601554604051908152f35b346103cb5760203660031901126103cb576001600160a01b03611501611741565b166000526003602052602060ff604060002054166040519015158152f35b346103cb5760003660031901126103cb5760206040517fbf233dd2aafeb4d50879c4aa5c81e96d92f6e6945c906a58f9f2d1c1631b4b268152f35b346103cb5760003660031901126103cb576020601454604051908152f35b346103cb5760003660031901126103cb576020600f54604051908152f35b346103cb5760203660031901126103cb57600435600052600060205260406000208054600182016115c6906117ca565b916115d3600282016117ca565b600382015460ff1691600481015460058201546006830154600784015490600160a01b6001900360088601541692600986015494600a87015496600b0154976040519b8c809c6101c09182918152602001528c016116309161189d565b8b810360408d01526116419161189d565b9860608b0161164f916118dd565b60808a015260a089015260c088015261166e60e0880160ff83166118ea565b60081c6001600160a01b031661010087015261012086015261014085015263ffffffff81811661016086015260209190911c166101808401526101a08301520390f35b346103cb5760003660031901126103cb576020600854604051908152f35b346103cb576020806003193601126103cb576001600160a01b036116f1611741565b166000526005815260406000208281549182825283820190600052836000209260005b8582821061172b575050506110e9925003836117a7565b8554845260019586019588955093019201611714565b600435906001600160a01b03821682036103cb57565b90815180825260208080930193019160005b828110611777575050505090565b835185529381019392810192600101611769565b6101c081019081106001600160401b0382111761132b57604052565b601f909101601f19168101906001600160401b0382119082101761132b57604052565b9060405190600083549060018260011c9060018416968715611893575b602094858410891461187f578798848997989952908160001461185d575060011461181e575b50505061181c925003836117a7565b565b600090815285812095935091905b81831061184557505061181c935082010138808061180d565b8554888401850152948501948794509183019161182c565b9250505061181c94925060ff191682840152151560051b82010138808061180d565b634e487b7160e01b85526022600452602485fd5b91607f16916117e7565b919082519283825260005b8481106118c9575050826000602080949584010152601f8019910116010190565b6020818301810151848301820152016118a8565b90600782101561039d5752565b90600382101561039d5752565b9192608093969594919660a084019784526020840152604083015260608201520152565b80548210156119335760005260206000200190600090565b634e487b7160e01b600052603260045260246000fd5b60409060031901126103cb576004359060243590565b6001600160401b03811161132b5760051b60200190565b906119808261195f565b61198d60405191826117a7565b828152809261199e601f199161195f565b0190602036910137565b6000198114610bb65760010190565b80518210156119335760209160051b010190565b81810292918115918404141715610bb657565b91908203918211610bb657565b60ff60175416611af1576001600160a01b031660008181526003602052604081205490919060ff16611acb576001602052611a2d6004604084200154436119de565b60115411611aa55781526016602052604081206116804304825260205260408120546014541115611a8057506001907fce5ceceb3b018dc53cd7e23daa9f08f268ec71a6dd745acc69b20cd937af550390565b907f891a3c2aae4b7e19c81c920e84ed0d4cfba7d3f4fd1ea26206fd45e59989ecfa90565b50907f9dc7cae0428a4481c8b454da165b0ac10c9a4e6bb5c5edb9a3a2bf0e0fa36bcf90565b50907f8680108df3f92337e086d074e9b72f70c5f03505474ea9f5c44282227b961ecb90565b506000907f641d89b682f2f02191994ac3c66b0b38941bdc138e6f3f87c53261cc39048d8c90565b6001600160a01b0316600090815260016020526040902060040154611b3e90436119de565b60115490818110611b53575050600090600190565b611b5c916119de565b9060009056fea2646970667358221220a28a725d514c5816a090803bed1714556d51d1e3ccb15094ff267538b35e91fa64736f6c63430008160033","opcodes":"PUSH1 0x80 DUP1 PUSH1 0x40 MSTORE CALLVALUE PUSH2 0x60 JUMPI PUSH1 0xFA PUSH1 0xC SSTORE PUSH2 0x3E8 DUP1 PUSH1 0xD SSTORE PUSH2 0x1388 PUSH1 0xE SSTORE PUSH7 0x38D7EA4C68000 PUSH1 0xF SSTORE PUSH8 0x8AC7230489E80000 PUSH1 0x10 SSTORE PUSH1 0xA PUSH1 0x11 SSTORE PUSH1 0x32 PUSH1 0x12 SSTORE PUSH1 0x13 SSTORE PUSH1 0xA PUSH1 0x14 SSTORE PUSH1 0xA PUSH1 0x15 SSTORE PUSH1 0xFF NOT PUSH1 0x17 SLOAD AND PUSH1 0x17 SSTORE PUSH2 0x1B98 SWAP1 DUP2 PUSH2 0x66 DUP3 CODECOPY RETURN JUMPDEST PUSH1 0x0 DUP1 REVERT INVALID PUSH1 0x80 DUP1 PUSH1 0x40 MSTORE PUSH1 0x4 CALLDATASIZE LT ISZERO PUSH2 0x13 JUMPI PUSH1 0x0 DUP1 REVERT JUMPDEST PUSH1 0x0 CALLDATALOAD PUSH1 0xE0 SHR SWAP1 DUP2 PUSH4 0x11C6756 EQ PUSH2 0x16CF JUMPI POP DUP1 PUSH4 0xA248D7F EQ PUSH2 0x16B1 JUMPI DUP1 PUSH4 0xE73AFDF EQ PUSH2 0x1596 JUMPI DUP1 PUSH4 0xEEA65F8 EQ PUSH2 0x1578 JUMPI DUP1 PUSH4 0x11923132 EQ PUSH2 0x4AE JUMPI DUP1 PUSH4 0x18D1C9EE EQ PUSH2 0x155A JUMPI DUP1 PUSH4 0x20DF4359 EQ PUSH2 0x151F JUMPI DUP1 PUSH4 0x22C0AEC7 EQ PUSH2 0x14E0 JUMPI DUP1 PUSH4 0x2C557258 EQ PUSH2 0x14C2 JUMPI DUP1 PUSH4 0x2CD3BEA6 EQ PUSH2 0x135D JUMPI DUP1 PUSH4 0x2EF9A160 EQ PUSH2 0x1341 JUMPI DUP1 PUSH4 0x31B6C572 EQ PUSH2 0x1113 JUMPI DUP1 PUSH4 0x35C38D1E EQ PUSH2 0x1088 JUMPI DUP1 PUSH4 0x37803E39 EQ PUSH2 0xF41 JUMPI DUP1 PUSH4 0x3B13D732 EQ PUSH2 0xF23 JUMPI DUP1 PUSH4 0x3F8BF086 EQ PUSH2 0xF05 JUMPI DUP1 PUSH4 0x452517C7 EQ PUSH2 0xEE7 JUMPI DUP1 PUSH4 0x4E42F6AE EQ PUSH2 0xEC9 JUMPI DUP1 PUSH4 0x59941D42 EQ PUSH2 0xEAB JUMPI DUP1 PUSH4 0x62581C77 EQ PUSH2 0xD63 JUMPI DUP1 PUSH4 0x63A599A4 EQ PUSH2 0xD40 JUMPI DUP1 PUSH4 0x643808A8 EQ PUSH2 0xCD1 JUMPI DUP1 PUSH4 0x6605FF66 EQ PUSH2 0xCB3 JUMPI DUP1 PUSH4 0x6A480EB8 EQ PUSH2 0xC69 JUMPI DUP1 PUSH4 0x6BB987FE EQ PUSH2 0xC4C JUMPI DUP1 PUSH4 0x797669C9 EQ PUSH2 0xC11 JUMPI DUP1 PUSH4 0x7D08E16D EQ PUSH2 0xA7F JUMPI DUP1 PUSH4 0x812D966A EQ PUSH2 0xA50 JUMPI DUP1 PUSH4 0x8392FE31 EQ PUSH2 0x9CE JUMPI DUP1 PUSH4 0x89DE5400 EQ PUSH2 0x993 JUMPI DUP1 PUSH4 0x8C639A85 EQ PUSH2 0x975 JUMPI DUP1 PUSH4 0x8F94BC68 EQ PUSH2 0x92D JUMPI DUP1 PUSH4 0x933166E1 EQ PUSH2 0x6EF JUMPI DUP1 PUSH4 0x9DC3960B EQ PUSH2 0x74A JUMPI DUP1 PUSH4 0x9F82D472 EQ PUSH2 0x6EF JUMPI DUP1 PUSH4 0xA61A9D03 EQ PUSH2 0x6D1 JUMPI DUP1 PUSH4 0xA8E380F1 EQ PUSH2 0x6A0 JUMPI DUP1 PUSH4 0xABC1B50E EQ PUSH2 0x642 JUMPI DUP1 PUSH4 0xBEF14AAB EQ PUSH2 0x537 JUMPI DUP1 PUSH4 0xBF2D9E0B EQ PUSH2 0x519 JUMPI DUP1 PUSH4 0xC520571C EQ PUSH2 0x4FB JUMPI DUP1 PUSH4 0xCF2C0334 EQ PUSH2 0x4AE JUMPI DUP1 PUSH4 0xCFDBF254 EQ PUSH2 0x492 JUMPI DUP1 PUSH4 0xE1F1C4A7 EQ PUSH2 0x475 JUMPI DUP1 PUSH4 0xEED3E097 EQ PUSH2 0x41D JUMPI DUP1 PUSH4 0xF7F29F0C EQ PUSH2 0x401 JUMPI DUP1 PUSH4 0xFAD504FF EQ PUSH2 0x3D0 JUMPI PUSH4 0xFFBDC8CB EQ PUSH2 0x22F JUMPI PUSH1 0x0 DUP1 REVERT JUMPDEST CALLVALUE PUSH2 0x3CB JUMPI PUSH1 0x20 DUP1 PUSH1 0x3 NOT CALLDATASIZE ADD SLT PUSH2 0x3CB JUMPI PUSH1 0x4 CALLDATALOAD PUSH1 0x8 SLOAD DUP2 LT ISZERO PUSH2 0x3B3 JUMPI DUP1 PUSH1 0x0 MSTORE PUSH1 0x0 DUP3 MSTORE PUSH1 0x40 PUSH1 0x0 KECCAK256 SWAP1 PUSH1 0x40 MLOAD SWAP2 PUSH2 0x269 DUP4 PUSH2 0x178B JUMP JUMPDEST DUP1 SLOAD DUP4 MSTORE PUSH2 0x279 PUSH1 0x1 DUP3 ADD PUSH2 0x17CA JUMP JUMPDEST DUP5 DUP5 ADD MSTORE PUSH2 0x289 PUSH1 0x2 DUP3 ADD PUSH2 0x17CA JUMP JUMPDEST PUSH1 0x40 DUP5 ADD MSTORE PUSH1 0xFF PUSH1 0x3 DUP3 ADD SLOAD AND PUSH1 0x7 DUP2 LT ISZERO PUSH2 0x39D JUMPI PUSH1 0x60 DUP5 ADD MSTORE PUSH1 0x4 DUP2 ADD SLOAD SWAP3 PUSH1 0x80 DUP2 ADD SWAP4 DUP5 MSTORE PUSH1 0x5 DUP3 ADD SLOAD PUSH1 0xA0 DUP3 ADD MSTORE PUSH1 0x6 DUP3 ADD SLOAD PUSH1 0xC0 DUP3 ADD MSTORE PUSH1 0x7 DUP3 ADD SLOAD SWAP3 PUSH1 0xFF DUP5 AND PUSH1 0x3 DUP2 LT ISZERO PUSH2 0x39D JUMPI PUSH1 0xE0 DUP4 ADD MSTORE PUSH1 0x1 DUP1 PUSH1 0xA0 SHL SUB SWAP2 DUP3 PUSH2 0x100 DUP3 ADD SWAP6 PUSH1 0x8 SHR AND DUP6 MSTORE PUSH2 0x1A0 PUSH1 0xB DUP5 PUSH1 0x8 DUP8 ADD SLOAD AND SWAP6 PUSH2 0x120 DUP5 ADD SWAP7 DUP8 MSTORE PUSH1 0x9 DUP2 ADD SLOAD PUSH2 0x140 DUP6 ADD MSTORE PUSH1 0xA DUP2 ADD SLOAD PUSH4 0xFFFFFFFF SWAP1 DUP2 DUP2 AND PUSH2 0x160 DUP8 ADD MSTORE DUP12 SHR AND PUSH2 0x180 DUP6 ADD MSTORE ADD SLOAD SWAP2 ADD MSTORE CALLER PUSH1 0x0 MSTORE PUSH1 0x2 DUP7 MSTORE PUSH1 0x40 PUSH1 0x0 KECCAK256 SWAP1 PUSH1 0x0 MSTORE DUP6 MSTORE PUSH1 0xFF PUSH1 0x40 PUSH1 0x0 KECCAK256 SLOAD AND ISZERO SWAP3 DUP4 PUSH2 0x38F JUMPI JUMPDEST POP DUP3 PUSH2 0x380 JUMPI JUMPDEST POP POP PUSH2 0x36E JUMPI MLOAD PUSH1 0x40 MLOAD SWAP1 DUP2 MSTORE RETURN JUMPDEST PUSH1 0x40 MLOAD PUSH4 0x1A27EAC3 PUSH1 0xE1 SHL DUP2 MSTORE PUSH1 0x4 SWAP1 REVERT JUMPDEST SWAP1 MLOAD AND CALLER EQ ISZERO SWAP1 POP CODESIZE DUP1 PUSH2 0x35F JUMP JUMPDEST MLOAD DUP2 AND CALLER EQ ISZERO SWAP3 POP CODESIZE PUSH2 0x358 JUMP JUMPDEST PUSH4 0x4E487B71 PUSH1 0xE0 SHL PUSH1 0x0 MSTORE PUSH1 0x21 PUSH1 0x4 MSTORE PUSH1 0x24 PUSH1 0x0 REVERT JUMPDEST PUSH1 0x24 SWAP1 PUSH1 0x40 MLOAD SWAP1 PUSH4 0x1C1269F3 PUSH1 0xE2 SHL DUP3 MSTORE PUSH1 0x4 DUP3 ADD MSTORE REVERT JUMPDEST PUSH1 0x0 DUP1 REVERT JUMPDEST CALLVALUE PUSH2 0x3CB JUMPI PUSH1 0x20 CALLDATASIZE PUSH1 0x3 NOT ADD SLT PUSH2 0x3CB JUMPI PUSH1 0x40 PUSH2 0x3F3 PUSH2 0x3EE PUSH2 0x1741 JUMP JUMPDEST PUSH2 0x1B19 JUMP JUMPDEST DUP3 MLOAD SWAP2 DUP3 MSTORE ISZERO ISZERO PUSH1 0x20 DUP3 ADD MSTORE RETURN JUMPDEST CALLVALUE PUSH2 0x3CB JUMPI PUSH1 0x0 CALLDATASIZE PUSH1 0x3 NOT ADD SLT PUSH2 0x3CB JUMPI PUSH1 0x20 PUSH1 0x40 MLOAD PUSH1 0x5 DUP2 MSTORE RETURN JUMPDEST CALLVALUE PUSH2 0x3CB JUMPI PUSH1 0x40 CALLDATASIZE PUSH1 0x3 NOT ADD SLT PUSH2 0x3CB JUMPI PUSH2 0x436 PUSH2 0x1741 JUMP JUMPDEST PUSH1 0x1 PUSH1 0x1 PUSH1 0xA0 SHL SUB AND PUSH1 0x0 SWAP1 DUP2 MSTORE PUSH1 0x6 PUSH1 0x20 MSTORE PUSH1 0x40 SWAP1 KECCAK256 DUP1 SLOAD PUSH1 0x24 CALLDATALOAD SWAP2 SWAP1 DUP3 LT ISZERO PUSH2 0x3CB JUMPI PUSH1 0x20 SWAP2 PUSH2 0x467 SWAP2 PUSH2 0x191B JUMP JUMPDEST SWAP1 SLOAD PUSH1 0x40 MLOAD SWAP2 PUSH1 0x3 SHL SHR DUP2 MSTORE RETURN JUMPDEST CALLVALUE PUSH2 0x3CB JUMPI PUSH1 0x0 CALLDATASIZE PUSH1 0x3 NOT ADD SLT PUSH2 0x3CB JUMPI PUSH1 0x20 PUSH1 0x40 MLOAD PUSH2 0x2710 DUP2 MSTORE RETURN JUMPDEST CALLVALUE PUSH2 0x3CB JUMPI PUSH1 0x0 CALLDATASIZE PUSH1 0x3 NOT ADD SLT PUSH2 0x3CB JUMPI PUSH1 0x20 PUSH1 0x40 MLOAD PUSH1 0x14 DUP2 MSTORE RETURN JUMPDEST CALLVALUE PUSH2 0x3CB JUMPI PUSH1 0x40 CALLDATASIZE PUSH1 0x3 NOT ADD SLT PUSH2 0x3CB JUMPI PUSH1 0x1 PUSH1 0x1 PUSH1 0xA0 SHL SUB PUSH2 0x4CF PUSH2 0x1741 JUMP JUMPDEST AND PUSH1 0x0 MSTORE PUSH1 0x2 PUSH1 0x20 MSTORE PUSH1 0x40 PUSH1 0x0 KECCAK256 PUSH1 0x24 CALLDATALOAD PUSH1 0x0 MSTORE PUSH1 0x20 MSTORE PUSH1 0x20 PUSH1 0xFF PUSH1 0x40 PUSH1 0x0 KECCAK256 SLOAD AND PUSH1 0x40 MLOAD SWAP1 ISZERO ISZERO DUP2 MSTORE RETURN JUMPDEST CALLVALUE PUSH2 0x3CB JUMPI PUSH1 0x0 CALLDATASIZE PUSH1 0x3 NOT ADD SLT PUSH2 0x3CB JUMPI PUSH1 0x20 PUSH1 0x11 SLOAD PUSH1 0x40 MLOAD SWAP1 DUP2 MSTORE RETURN JUMPDEST CALLVALUE PUSH2 0x3CB JUMPI PUSH1 0x0 CALLDATASIZE PUSH1 0x3 NOT ADD SLT PUSH2 0x3CB JUMPI PUSH1 0x20 PUSH1 0xB SLOAD PUSH1 0x40 MLOAD SWAP1 DUP2 MSTORE RETURN JUMPDEST CALLVALUE PUSH2 0x3CB JUMPI PUSH2 0x545 CALLDATASIZE PUSH2 0x1949 JUMP JUMPDEST PUSH2 0x54E DUP2 PUSH2 0x1976 JUMP JUMPDEST SWAP2 PUSH1 0x0 SWAP3 PUSH1 0x0 SWAP1 PUSH1 0x0 SWAP4 PUSH1 0x8 SLOAD SWAP5 JUMPDEST DUP6 DUP2 LT DUP1 PUSH2 0x639 JUMPI JUMPDEST ISZERO PUSH2 0x5E0 JUMPI DUP1 PUSH1 0x0 MSTORE PUSH1 0x0 PUSH1 0x20 MSTORE PUSH1 0xFF PUSH1 0x7 PUSH1 0x40 PUSH1 0x0 KECCAK256 ADD SLOAD AND PUSH1 0x3 DUP2 LT ISZERO PUSH2 0x39D JUMPI ISZERO PUSH2 0x59D JUMPI JUMPDEST PUSH2 0x598 SWAP1 PUSH2 0x19A8 JUMP JUMPDEST PUSH2 0x55D JUMP JUMPDEST SWAP3 DUP5 DUP2 LT ISZERO PUSH2 0x5BB JUMPI JUMPDEST PUSH2 0x5B3 PUSH2 0x598 SWAP2 PUSH2 0x19A8 JUMP JUMPDEST SWAP4 SWAP1 POP PUSH2 0x58F JUMP JUMPDEST SWAP6 PUSH2 0x5B3 PUSH2 0x5D7 DUP3 DUP7 PUSH2 0x5D1 PUSH2 0x598 SWAP6 DUP9 PUSH2 0x19B7 JUMP JUMPDEST MSTORE PUSH2 0x19A8 JUMP JUMPDEST SWAP8 SWAP2 POP POP PUSH2 0x5A7 JUMP JUMPDEST DUP3 DUP8 DUP6 PUSH2 0x5EC DUP3 PUSH2 0x1976 JUMP JUMPDEST SWAP2 PUSH1 0x0 JUMPDEST DUP2 DUP2 LT PUSH2 0x61A JUMPI PUSH2 0x610 DUP5 DUP5 PUSH1 0x40 MLOAD SWAP3 DUP4 SWAP3 PUSH1 0x40 DUP5 MSTORE PUSH1 0x40 DUP5 ADD SWAP1 PUSH2 0x1757 JUMP JUMPDEST SWAP1 PUSH1 0x20 DUP4 ADD MSTORE SUB SWAP1 RETURN JUMPDEST DUP1 PUSH2 0x627 PUSH1 0x1 SWAP3 DUP8 PUSH2 0x19B7 JUMP JUMPDEST MLOAD PUSH2 0x632 DUP3 DUP8 PUSH2 0x19B7 JUMP JUMPDEST MSTORE ADD PUSH2 0x5F0 JUMP JUMPDEST POP DUP2 DUP8 LT PUSH2 0x566 JUMP JUMPDEST CALLVALUE PUSH2 0x3CB JUMPI PUSH2 0x650 CALLDATASIZE PUSH2 0x1949 JUMP JUMPDEST SWAP1 PUSH1 0x0 MSTORE PUSH1 0x4 PUSH1 0x20 MSTORE PUSH1 0x40 PUSH1 0x0 KECCAK256 SWAP1 DUP2 SLOAD DUP2 LT ISZERO PUSH2 0x3CB JUMPI PUSH1 0x60 SWAP2 PUSH1 0x0 MSTORE PUSH1 0x3 PUSH1 0x20 PUSH1 0x0 KECCAK256 SWAP2 MUL ADD PUSH1 0x1 DUP1 PUSH1 0xA0 SHL SUB DUP2 SLOAD AND SWAP1 PUSH1 0x2 PUSH1 0x1 DUP3 ADD SLOAD SWAP2 ADD SLOAD SWAP1 PUSH1 0x40 MLOAD SWAP3 DUP4 MSTORE PUSH1 0x20 DUP4 ADD MSTORE PUSH1 0x40 DUP3 ADD MSTORE RETURN JUMPDEST CALLVALUE PUSH2 0x3CB JUMPI PUSH1 0x20 CALLDATASIZE PUSH1 0x3 NOT ADD SLT PUSH2 0x3CB JUMPI PUSH1 0x40 PUSH2 0x6C3 PUSH2 0x6BE PUSH2 0x1741 JUMP JUMPDEST PUSH2 0x19EB JUMP JUMPDEST DUP3 MLOAD SWAP2 ISZERO ISZERO DUP3 MSTORE PUSH1 0x20 DUP3 ADD MSTORE RETURN JUMPDEST CALLVALUE PUSH2 0x3CB JUMPI PUSH1 0x0 CALLDATASIZE PUSH1 0x3 NOT ADD SLT PUSH2 0x3CB JUMPI PUSH1 0x20 PUSH1 0x9 SLOAD PUSH1 0x40 MLOAD SWAP1 DUP2 MSTORE RETURN JUMPDEST CALLVALUE PUSH2 0x3CB JUMPI PUSH1 0x20 CALLDATASIZE PUSH1 0x3 NOT ADD SLT PUSH2 0x3CB JUMPI PUSH1 0x1 PUSH1 0x1 PUSH1 0xA0 SHL SUB PUSH2 0x710 PUSH2 0x1741 JUMP JUMPDEST AND PUSH1 0x0 MSTORE PUSH1 0x1 PUSH1 0x20 MSTORE PUSH1 0x40 PUSH1 0x0 KECCAK256 DUP1 SLOAD PUSH2 0x746 PUSH1 0x1 DUP4 ADD SLOAD SWAP3 PUSH1 0x2 DUP2 ADD SLOAD SWAP1 PUSH1 0x4 PUSH1 0x3 DUP3 ADD SLOAD SWAP2 ADD SLOAD SWAP2 PUSH1 0x40 MLOAD SWAP6 DUP7 SWAP6 DUP7 PUSH2 0x18F7 JUMP JUMPDEST SUB SWAP1 RETURN JUMPDEST CALLVALUE PUSH2 0x3CB JUMPI PUSH1 0x20 CALLDATASIZE PUSH1 0x3 NOT ADD SLT PUSH2 0x3CB JUMPI PUSH1 0x4 CALLDATALOAD PUSH1 0x8 SLOAD DUP2 LT ISZERO PUSH2 0x3B3 JUMPI PUSH1 0x0 MSTORE PUSH1 0x0 PUSH1 0x20 MSTORE PUSH1 0x40 PUSH1 0x0 KECCAK256 PUSH1 0x40 MLOAD SWAP1 PUSH2 0x782 DUP3 PUSH2 0x178B JUMP JUMPDEST DUP1 SLOAD DUP3 MSTORE PUSH2 0x792 PUSH1 0x1 DUP3 ADD PUSH2 0x17CA JUMP JUMPDEST PUSH1 0x20 DUP4 ADD MSTORE PUSH2 0x7A3 PUSH1 0x2 DUP3 ADD PUSH2 0x17CA JUMP JUMPDEST PUSH1 0x40 DUP4 ADD MSTORE PUSH1 0xFF PUSH1 0x3 DUP3 ADD SLOAD AND PUSH1 0x7 DUP2 LT ISZERO PUSH2 0x39D JUMPI PUSH1 0x60 DUP4 ADD MSTORE PUSH1 0x4 DUP2 ADD SLOAD PUSH1 0x80 DUP4 ADD MSTORE PUSH1 0x5 DUP2 ADD SLOAD PUSH1 0xA0 DUP4 ADD MSTORE PUSH1 0x6 DUP2 ADD SLOAD PUSH1 0xC0 DUP4 ADD MSTORE PUSH1 0x7 DUP2 ADD SLOAD SWAP1 PUSH1 0xFF DUP3 AND SWAP2 PUSH1 0x3 DUP4 LT ISZERO PUSH2 0x39D JUMPI PUSH1 0xB SWAP3 PUSH1 0xE0 DUP6 ADD MSTORE PUSH1 0x1 DUP1 PUSH1 0xA0 SHL SUB SWAP1 PUSH1 0x8 SHR AND PUSH2 0x100 DUP5 ADD MSTORE PUSH1 0x1 DUP1 PUSH1 0xA0 SHL SUB PUSH1 0x8 DUP3 ADD SLOAD AND PUSH2 0x120 DUP5 ADD MSTORE PUSH1 0x9 DUP2 ADD SLOAD PUSH2 0x140 DUP5 ADD MSTORE PUSH4 0xFFFFFFFF PUSH1 0xA DUP3 ADD SLOAD DUP2 DUP2 AND PUSH2 0x160 DUP7 ADD MSTORE PUSH1 0x20 SHR AND PUSH2 0x180 DUP5 ADD MSTORE ADD SLOAD PUSH2 0x1A0 DUP3 ADD MSTORE PUSH1 0x20 DUP2 ADD MLOAD SWAP1 PUSH1 0x40 DUP2 ADD MLOAD SWAP2 PUSH1 0x60 DUP3 ADD MLOAD SWAP1 PUSH1 0x7 DUP3 LT ISZERO PUSH2 0x39D JUMPI PUSH1 0x80 DUP4 ADD MLOAD SWAP3 PUSH1 0xA0 DUP2 ADD MLOAD SWAP4 PUSH1 0xC0 DUP3 ADD MLOAD SWAP5 PUSH1 0xE0 DUP4 ADD MLOAD SWAP6 PUSH1 0x3 DUP8 LT ISZERO PUSH2 0x39D JUMPI PUSH2 0x8E0 SWAP7 PUSH2 0x912 SWAP2 PUSH1 0x1 DUP1 PUSH1 0xA0 SHL SUB PUSH2 0x100 DUP8 ADD MLOAD AND SWAP4 PUSH1 0x1 DUP1 PUSH1 0xA0 SHL SUB PUSH2 0x120 DUP9 ADD MLOAD AND SWAP6 PUSH2 0x8F9 PUSH2 0x8EE PUSH2 0x140 PUSH4 0xFFFFFFFF PUSH2 0x160 DUP13 ADD MLOAD AND SWAP11 ADD MLOAD SWAP11 PUSH1 0x40 MLOAD SWAP15 DUP16 SWAP15 DUP16 SWAP3 PUSH2 0x160 DUP5 MSTORE PUSH2 0x160 DUP5 ADD SWAP1 PUSH2 0x189D JUMP JUMPDEST SWAP2 PUSH1 0x20 DUP2 DUP5 SUB SWAP2 ADD MSTORE PUSH2 0x189D JUMP JUMPDEST SWAP11 PUSH1 0x40 DUP14 ADD SWAP1 PUSH2 0x18DD JUMP JUMPDEST PUSH1 0x60 DUP12 ADD MSTORE PUSH1 0x80 DUP11 ADD MSTORE PUSH1 0xA0 DUP10 ADD MSTORE PUSH1 0xC0 DUP9 ADD SWAP1 PUSH2 0x18EA JUMP JUMPDEST PUSH1 0xE0 DUP7 ADD MSTORE PUSH2 0x100 DUP6 ADD MSTORE PUSH2 0x120 DUP5 ADD MSTORE PUSH2 0x140 DUP4 ADD MSTORE SUB SWAP1 RETURN JUMPDEST CALLVALUE PUSH2 0x3CB JUMPI PUSH1 0x40 CALLDATASIZE PUSH1 0x3 NOT ADD SLT PUSH2 0x3CB JUMPI PUSH1 0x1 PUSH1 0x1 PUSH1 0xA0 SHL SUB PUSH2 0x94E PUSH2 0x1741 JUMP JUMPDEST AND PUSH1 0x0 MSTORE PUSH1 0x16 PUSH1 0x20 MSTORE PUSH1 0x40 PUSH1 0x0 KECCAK256 PUSH1 0x24 CALLDATALOAD PUSH1 0x0 MSTORE PUSH1 0x20 MSTORE PUSH1 0x20 PUSH1 0x40 PUSH1 0x0 KECCAK256 SLOAD PUSH1 0x40 MLOAD SWAP1 DUP2 MSTORE RETURN JUMPDEST CALLVALUE PUSH2 0x3CB JUMPI PUSH1 0x0 CALLDATASIZE PUSH1 0x3 NOT ADD SLT PUSH2 0x3CB JUMPI PUSH1 0x20 PUSH1 0xC SLOAD PUSH1 0x40 MLOAD SWAP1 DUP2 MSTORE RETURN JUMPDEST CALLVALUE PUSH2 0x3CB JUMPI PUSH1 0x0 CALLDATASIZE PUSH1 0x3 NOT ADD SLT PUSH2 0x3CB JUMPI PUSH1 0x20 PUSH1 0x40 MLOAD PUSH32 0x39DB794A90DAD1F6F1EB43938A38164FFCB808BCE7E11FB138C898D32D58D6D7 DUP2 MSTORE RETURN JUMPDEST CALLVALUE PUSH2 0x3CB JUMPI PUSH1 0x20 CALLDATASIZE PUSH1 0x3 NOT ADD SLT PUSH2 0x3CB JUMPI PUSH1 0x4 CALLDATALOAD PUSH1 0x7 SLOAD DUP2 LT ISZERO PUSH2 0x3CB JUMPI PUSH1 0xE0 SWAP1 PUSH1 0x7 PUSH1 0x0 MSTORE PUSH1 0x7 PUSH1 0x20 PUSH1 0x0 KECCAK256 SWAP2 MUL ADD PUSH1 0x1 DUP1 PUSH1 0xA0 SHL SUB DUP2 SLOAD AND SWAP1 PUSH1 0x1 DUP2 ADD SLOAD SWAP1 PUSH1 0x2 DUP2 ADD SLOAD PUSH1 0x3 DUP3 ADD SLOAD PUSH1 0x4 DUP4 ADD SLOAD SWAP2 PUSH1 0x6 PUSH1 0x5 DUP6 ADD SLOAD SWAP5 ADD SLOAD SWAP5 PUSH1 0x40 MLOAD SWAP7 DUP8 MSTORE PUSH1 0x20 DUP8 ADD MSTORE PUSH1 0x40 DUP7 ADD MSTORE PUSH1 0x60 DUP6 ADD MSTORE PUSH1 0x80 DUP5 ADD MSTORE PUSH1 0xA0 DUP4 ADD MSTORE PUSH1 0xC0 DUP3 ADD MSTORE RETURN JUMPDEST CALLVALUE PUSH2 0x3CB JUMPI PUSH1 0x0 CALLDATASIZE PUSH1 0x3 NOT ADD SLT PUSH2 0x3CB JUMPI PUSH1 0x8 SLOAD PUSH1 0x9 SLOAD PUSH2 0x746 PUSH1 0xA SLOAD SWAP3 PUSH1 0xB SLOAD PUSH1 0x40 MLOAD SWAP5 DUP6 SWAP5 NUMBER SWAP4 DUP7 PUSH2 0x18F7 JUMP JUMPDEST CALLVALUE PUSH2 0x3CB JUMPI PUSH1 0x20 DUP1 PUSH1 0x3 NOT CALLDATASIZE ADD SLT PUSH2 0x3CB JUMPI PUSH1 0x4 CALLDATALOAD SWAP1 PUSH2 0xAA0 PUSH1 0x9 SLOAD PUSH2 0x1976 JUMP JUMPDEST SWAP2 PUSH1 0x0 SWAP1 PUSH1 0x0 PUSH1 0x8 SLOAD SWAP1 JUMPDEST DUP2 DUP2 LT PUSH2 0xBCC JUMPI POP POP PUSH1 0x0 JUMPDEST DUP3 DUP2 LT PUSH2 0xB1A JUMPI POP DUP2 DUP2 GT ISZERO PUSH2 0xB13 JUMPI POP JUMPDEST PUSH2 0xAD2 DUP2 PUSH2 0x1976 JUMP JUMPDEST SWAP3 PUSH1 0x0 JUMPDEST DUP3 DUP2 LT PUSH2 0xAF4 JUMPI POP POP POP PUSH2 0x746 PUSH1 0x40 MLOAD SWAP3 DUP3 DUP5 SWAP4 DUP5 MSTORE DUP4 ADD SWAP1 PUSH2 0x1757 JUMP JUMPDEST DUP1 PUSH2 0xB01 PUSH1 0x1 SWAP3 DUP5 PUSH2 0x19B7 JUMP JUMPDEST MLOAD PUSH2 0xB0C DUP3 DUP9 PUSH2 0x19B7 JUMP JUMPDEST MSTORE ADD PUSH2 0xAD6 JUMP JUMPDEST SWAP1 POP PUSH2 0xAC9 JUMP JUMPDEST PUSH1 0x1 DUP1 DUP3 ADD DUP1 DUP4 GT PUSH2 0xBB6 JUMPI JUMPDEST DUP5 DUP2 LT PUSH2 0xB38 JUMPI POP POP PUSH1 0x1 ADD PUSH2 0xAB7 JUMP JUMPDEST DUP2 SWAP1 PUSH2 0xB44 DUP5 DUP10 PUSH2 0x19B7 JUMP JUMPDEST MLOAD PUSH1 0x0 MSTORE PUSH1 0x0 DUP8 MSTORE PUSH4 0xFFFFFFFF PUSH1 0xA SWAP1 DUP1 DUP3 PUSH1 0x40 PUSH1 0x0 KECCAK256 ADD SLOAD AND SWAP2 PUSH2 0xB69 DUP5 DUP13 PUSH2 0x19B7 JUMP JUMPDEST MLOAD PUSH1 0x0 MSTORE PUSH1 0x0 DUP11 MSTORE PUSH1 0x40 PUSH1 0x0 KECCAK256 ADD SLOAD AND GT PUSH2 0xB85 JUMPI JUMPDEST ADD PUSH2 0xB27 JUMP JUMPDEST PUSH2 0xB8F DUP5 DUP10 PUSH2 0x19B7 JUMP JUMPDEST MLOAD PUSH2 0xB9A DUP3 DUP11 PUSH2 0x19B7 JUMP JUMPDEST MLOAD PUSH2 0xBA5 DUP7 DUP12 PUSH2 0x19B7 JUMP JUMPDEST MSTORE PUSH2 0xBB0 DUP3 DUP11 PUSH2 0x19B7 JUMP JUMPDEST MSTORE PUSH2 0xB7F JUMP JUMPDEST PUSH4 0x4E487B71 PUSH1 0xE0 SHL PUSH1 0x0 MSTORE PUSH1 0x11 PUSH1 0x4 MSTORE PUSH1 0x24 PUSH1 0x0 REVERT JUMPDEST DUP1 PUSH1 0x0 MSTORE PUSH1 0x0 DUP6 MSTORE PUSH1 0xFF PUSH1 0x7 PUSH1 0x40 PUSH1 0x0 KECCAK256 ADD SLOAD AND PUSH1 0x3 DUP2 LT ISZERO PUSH2 0x39D JUMPI ISZERO PUSH2 0xBF7 JUMPI JUMPDEST PUSH1 0x1 ADD PUSH2 0xAAB JUMP JUMPDEST SWAP3 PUSH2 0xC09 DUP2 DUP6 PUSH2 0x5D1 PUSH1 0x1 SWAP5 DUP11 PUSH2 0x19B7 JUMP JUMPDEST SWAP4 SWAP1 POP PUSH2 0xBEF JUMP JUMPDEST CALLVALUE PUSH2 0x3CB JUMPI PUSH1 0x0 CALLDATASIZE PUSH1 0x3 NOT ADD SLT PUSH2 0x3CB JUMPI PUSH1 0x20 PUSH1 0x40 MLOAD PUSH32 0x71F3D55856E4058ED06EE057D79ADA615F65CDF5F9EE88181B914225088F834F DUP2 MSTORE RETURN JUMPDEST CALLVALUE PUSH2 0x3CB JUMPI PUSH1 0x0 CALLDATASIZE PUSH1 0x3 NOT ADD SLT PUSH2 0x3CB JUMPI PUSH1 0x20 PUSH1 0x40 MLOAD PUSH2 0x1680 DUP2 MSTORE RETURN JUMPDEST CALLVALUE PUSH2 0x3CB JUMPI PUSH1 0x40 CALLDATASIZE PUSH1 0x3 NOT ADD SLT PUSH2 0x3CB JUMPI PUSH2 0xC82 PUSH2 0x1741 JUMP JUMPDEST PUSH1 0x1 PUSH1 0x1 PUSH1 0xA0 SHL SUB AND PUSH1 0x0 SWAP1 DUP2 MSTORE PUSH1 0x5 PUSH1 0x20 MSTORE PUSH1 0x40 SWAP1 KECCAK256 DUP1 SLOAD PUSH1 0x24 CALLDATALOAD SWAP2 SWAP1 DUP3 LT ISZERO PUSH2 0x3CB JUMPI PUSH1 0x20 SWAP2 PUSH2 0x467 SWAP2 PUSH2 0x191B JUMP JUMPDEST CALLVALUE PUSH2 0x3CB JUMPI PUSH1 0x0 CALLDATASIZE PUSH1 0x3 NOT ADD SLT PUSH2 0x3CB JUMPI PUSH1 0x20 PUSH1 0xA SLOAD PUSH1 0x40 MLOAD SWAP1 DUP2 MSTORE RETURN JUMPDEST CALLVALUE PUSH2 0x3CB JUMPI PUSH1 0x20 CALLDATASIZE PUSH1 0x3 NOT ADD SLT PUSH2 0x3CB JUMPI PUSH1 0x1 PUSH1 0x1 PUSH1 0xA0 SHL SUB PUSH2 0xCF2 PUSH2 0x1741 JUMP JUMPDEST AND PUSH1 0x0 MSTORE PUSH1 0x16 PUSH1 0x20 MSTORE PUSH1 0x40 PUSH1 0x0 KECCAK256 PUSH2 0x1680 NUMBER DIV PUSH1 0x0 MSTORE PUSH1 0x20 MSTORE PUSH1 0x40 DUP1 PUSH1 0x0 KECCAK256 SLOAD PUSH1 0x14 SLOAD DUP2 DUP2 DUP2 LT ISZERO PUSH1 0x0 EQ PUSH2 0xD32 JUMPI POP POP PUSH1 0x0 JUMPDEST DUP3 MLOAD SWAP2 DUP3 MSTORE PUSH1 0x20 DUP3 ADD MSTORE RETURN JUMPDEST PUSH2 0xD3B SWAP2 PUSH2 0x19DE JUMP JUMPDEST PUSH2 0xD26 JUMP JUMPDEST CALLVALUE PUSH2 0x3CB JUMPI PUSH1 0x0 CALLDATASIZE PUSH1 0x3 NOT ADD SLT PUSH2 0x3CB JUMPI PUSH1 0x20 PUSH1 0xFF PUSH1 0x17 SLOAD AND PUSH1 0x40 MLOAD SWAP1 ISZERO ISZERO DUP2 MSTORE RETURN JUMPDEST CALLVALUE PUSH2 0x3CB JUMPI PUSH1 0x60 CALLDATASIZE PUSH1 0x3 NOT ADD SLT PUSH2 0x3CB JUMPI PUSH1 0x7 PUSH1 0x4 CALLDATALOAD LT ISZERO PUSH2 0x3CB JUMPI PUSH2 0xD8A PUSH1 0x44 CALLDATALOAD PUSH2 0x1976 JUMP JUMPDEST PUSH1 0x8 SLOAD PUSH1 0x0 DUP1 DUP1 JUMPDEST DUP4 DUP2 LT DUP1 PUSH2 0xEA0 JUMPI JUMPDEST ISZERO PUSH2 0xE51 JUMPI DUP1 PUSH1 0x0 MSTORE PUSH1 0x20 PUSH1 0x0 DUP2 MSTORE PUSH1 0xFF DUP1 PUSH1 0x7 PUSH1 0x40 PUSH1 0x0 KECCAK256 ADD SLOAD AND PUSH1 0x3 SWAP1 DUP2 DUP2 LT ISZERO PUSH2 0x39D JUMPI ISZERO SWAP3 DUP4 PUSH2 0xE1F JUMPI JUMPDEST POP POP POP PUSH2 0xDE0 JUMPI JUMPDEST PUSH2 0xDDB SWAP1 PUSH2 0x19A8 JUMP JUMPDEST PUSH2 0xD92 JUMP JUMPDEST SWAP1 PUSH1 0x24 CALLDATALOAD DUP2 LT ISZERO PUSH2 0xE00 JUMPI JUMPDEST PUSH2 0xDF8 PUSH2 0xDDB SWAP2 PUSH2 0x19A8 JUMP JUMPDEST SWAP2 SWAP1 POP PUSH2 0xDD2 JUMP JUMPDEST SWAP2 PUSH2 0xDF8 PUSH2 0xE16 DUP3 DUP5 PUSH2 0x5D1 PUSH2 0xDDB SWAP6 DUP11 PUSH2 0x19B7 JUMP JUMPDEST SWAP4 SWAP2 POP POP PUSH2 0xDEC JUMP JUMPDEST PUSH1 0x0 SWAP2 SWAP3 SWAP4 POP DUP5 DUP3 MSTORE MSTORE PUSH1 0x40 PUSH1 0x0 KECCAK256 ADD SLOAD AND PUSH1 0x7 PUSH1 0x4 CALLDATALOAD LT ISZERO PUSH2 0x39D JUMPI PUSH1 0x7 DUP2 LT ISZERO PUSH2 0x39D JUMPI PUSH1 0x4 CALLDATALOAD EQ DUP7 DUP1 DUP1 PUSH2 0xDCA JUMP JUMPDEST DUP5 DUP4 DUP4 PUSH2 0xE5D DUP3 PUSH2 0x1976 JUMP JUMPDEST SWAP2 PUSH1 0x0 JUMPDEST DUP2 DUP2 LT PUSH2 0xE81 JUMPI PUSH2 0x610 DUP5 DUP5 PUSH1 0x40 MLOAD SWAP3 DUP4 SWAP3 PUSH1 0x40 DUP5 MSTORE PUSH1 0x40 DUP5 ADD SWAP1 PUSH2 0x1757 JUMP JUMPDEST DUP1 PUSH2 0xE8E PUSH1 0x1 SWAP3 DUP8 PUSH2 0x19B7 JUMP JUMPDEST MLOAD PUSH2 0xE99 DUP3 DUP8 PUSH2 0x19B7 JUMP JUMPDEST MSTORE ADD PUSH2 0xE61 JUMP JUMPDEST POP PUSH1 0x44 CALLDATALOAD DUP4 LT PUSH2 0xD9B JUMP JUMPDEST CALLVALUE PUSH2 0x3CB JUMPI PUSH1 0x0 CALLDATASIZE PUSH1 0x3 NOT ADD SLT PUSH2 0x3CB JUMPI PUSH1 0x20 PUSH1 0xE SLOAD PUSH1 0x40 MLOAD SWAP1 DUP2 MSTORE RETURN JUMPDEST CALLVALUE PUSH2 0x3CB JUMPI PUSH1 0x0 CALLDATASIZE PUSH1 0x3 NOT ADD SLT PUSH2 0x3CB JUMPI PUSH1 0x20 PUSH1 0xD SLOAD PUSH1 0x40 MLOAD SWAP1 DUP2 MSTORE RETURN JUMPDEST CALLVALUE PUSH2 0x3CB JUMPI PUSH1 0x0 CALLDATASIZE PUSH1 0x3 NOT ADD SLT PUSH2 0x3CB JUMPI PUSH1 0x20 PUSH1 0x10 SLOAD PUSH1 0x40 MLOAD SWAP1 DUP2 MSTORE RETURN JUMPDEST CALLVALUE PUSH2 0x3CB JUMPI PUSH1 0x0 CALLDATASIZE PUSH1 0x3 NOT ADD SLT PUSH2 0x3CB JUMPI PUSH1 0x20 PUSH1 0x12 SLOAD PUSH1 0x40 MLOAD SWAP1 DUP2 MSTORE RETURN JUMPDEST CALLVALUE PUSH2 0x3CB JUMPI PUSH1 0x0 CALLDATASIZE PUSH1 0x3 NOT ADD SLT PUSH2 0x3CB JUMPI PUSH1 0x20 PUSH1 0x13 SLOAD PUSH1 0x40 MLOAD SWAP1 DUP2 MSTORE RETURN JUMPDEST CALLVALUE PUSH2 0x3CB JUMPI PUSH1 0x20 CALLDATASIZE PUSH1 0x3 NOT ADD SLT PUSH2 0x3CB JUMPI PUSH1 0x4 CALLDATALOAD PUSH1 0x8 SLOAD DUP2 LT ISZERO PUSH2 0x3B3 JUMPI PUSH1 0x0 MSTORE PUSH1 0x0 PUSH1 0x20 MSTORE PUSH1 0x40 PUSH1 0x0 KECCAK256 PUSH1 0x40 MLOAD PUSH2 0xF78 DUP2 PUSH2 0x178B JUMP JUMPDEST DUP2 SLOAD DUP2 MSTORE PUSH2 0xF88 PUSH1 0x1 DUP4 ADD PUSH2 0x17CA JUMP JUMPDEST PUSH1 0x20 DUP3 ADD MSTORE PUSH2 0xF99 PUSH1 0x2 DUP4 ADD PUSH2 0x17CA JUMP JUMPDEST PUSH1 0x40 DUP3 ADD MSTORE PUSH1 0xFF PUSH1 0x3 DUP4 ADD SLOAD AND PUSH1 0x7 DUP2 LT ISZERO PUSH2 0x39D JUMPI PUSH1 0x60 DUP3 ADD MSTORE PUSH1 0x4 DUP3 ADD SLOAD PUSH1 0x80 DUP3 ADD MSTORE PUSH1 0x5 DUP3 ADD SLOAD SWAP1 PUSH1 0xA0 DUP2 ADD SWAP2 DUP3 MSTORE PUSH1 0x6 DUP4 ADD SLOAD SWAP3 PUSH1 0xC0 DUP3 ADD SWAP4 DUP5 MSTORE PUSH1 0x7 DUP2 ADD SLOAD SWAP1 PUSH1 0xFF DUP3 AND SWAP1 PUSH1 0x3 DUP3 LT ISZERO PUSH2 0x39D JUMPI PUSH2 0x1A0 SWAP3 PUSH1 0xB SWAP3 PUSH1 0xE0 DUP7 ADD MSTORE PUSH1 0x1 DUP1 PUSH1 0xA0 SHL SUB DUP1 SWAP2 PUSH1 0x8 SHR AND PUSH2 0x100 DUP7 ADD MSTORE PUSH1 0x8 DUP3 ADD SLOAD AND PUSH2 0x120 DUP6 ADD MSTORE PUSH1 0x9 DUP2 ADD SLOAD PUSH2 0x140 DUP6 ADD MSTORE PUSH1 0xA DUP2 ADD SLOAD PUSH4 0xFFFFFFFF SWAP1 DUP2 DUP2 AND PUSH2 0x160 DUP8 ADD MSTORE PUSH1 0x20 SHR AND PUSH2 0x180 DUP6 ADD MSTORE ADD SLOAD SWAP2 ADD MSTORE MLOAD SWAP1 PUSH2 0x746 PUSH2 0x2710 PUSH2 0x1066 DUP2 PUSH2 0x105D PUSH1 0xC SLOAD DUP8 PUSH2 0x19CB JUMP JUMPDEST DIV SWAP4 MLOAD DUP6 PUSH2 0x19CB JUMP JUMPDEST DIV SWAP3 PUSH2 0x107B DUP5 PUSH2 0x1076 DUP6 DUP5 PUSH2 0x19DE JUMP JUMPDEST PUSH2 0x19DE JUMP JUMPDEST PUSH1 0x40 MLOAD SWAP5 DUP6 SWAP5 DUP4 DUP7 PUSH2 0x18F7 JUMP JUMPDEST CALLVALUE PUSH2 0x3CB JUMPI PUSH1 0x20 DUP1 PUSH1 0x3 NOT CALLDATASIZE ADD SLT PUSH2 0x3CB JUMPI PUSH1 0x1 PUSH1 0x1 PUSH1 0xA0 SHL SUB PUSH2 0x10AA PUSH2 0x1741 JUMP JUMPDEST AND PUSH1 0x0 MSTORE PUSH1 0x6 DUP2 MSTORE PUSH1 0x40 PUSH1 0x0 KECCAK256 SWAP1 PUSH1 0x40 MLOAD DUP1 DUP4 DUP4 DUP3 SWAP6 SLOAD SWAP4 DUP5 DUP2 MSTORE ADD SWAP1 PUSH1 0x0 MSTORE DUP4 PUSH1 0x0 KECCAK256 SWAP3 PUSH1 0x0 JUMPDEST DUP6 DUP3 DUP3 LT PUSH2 0x10FD JUMPI POP POP POP PUSH2 0x10E9 SWAP3 POP SUB DUP4 PUSH2 0x17A7 JUMP JUMPDEST PUSH2 0x746 PUSH1 0x40 MLOAD SWAP3 DUP3 DUP5 SWAP4 DUP5 MSTORE DUP4 ADD SWAP1 PUSH2 0x1757 JUMP JUMPDEST DUP6 SLOAD DUP5 MSTORE PUSH1 0x1 SWAP6 DUP7 ADD SWAP6 DUP9 SWAP6 POP SWAP4 ADD SWAP3 ADD PUSH2 0x10D2 JUMP JUMPDEST CALLVALUE PUSH2 0x3CB JUMPI PUSH1 0x20 DUP1 PUSH1 0x3 NOT CALLDATASIZE ADD SLT PUSH2 0x3CB JUMPI PUSH1 0x4 CALLDATALOAD PUSH1 0x8 SLOAD DUP2 LT ISZERO PUSH2 0x3B3 JUMPI PUSH1 0x0 MSTORE PUSH1 0x4 DUP2 MSTORE PUSH1 0x40 PUSH1 0x0 KECCAK256 SWAP1 DUP2 SLOAD PUSH2 0x114A DUP2 PUSH2 0x195F JUMP JUMPDEST SWAP3 PUSH2 0x1158 PUSH1 0x40 MLOAD SWAP5 DUP6 PUSH2 0x17A7 JUMP JUMPDEST DUP2 DUP5 MSTORE PUSH1 0x0 SWAP1 DUP2 MSTORE DUP3 DUP2 KECCAK256 SWAP1 DUP4 DUP6 ADD JUMPDEST DUP4 DUP3 LT PUSH2 0x12DC JUMPI DUP6 MLOAD DUP6 DUP8 PUSH2 0x1195 PUSH2 0x117F DUP5 PUSH2 0x195F JUMP JUMPDEST SWAP4 PUSH2 0x118D PUSH1 0x40 MLOAD SWAP6 DUP7 PUSH2 0x17A7 JUMP JUMPDEST DUP1 DUP6 MSTORE PUSH2 0x195F JUMP JUMPDEST DUP4 DUP4 ADD SWAP3 PUSH1 0x1F NOT SWAP3 SWAP2 DUP4 ADD CALLDATASIZE DUP6 CALLDATACOPY PUSH2 0x11AD DUP3 MLOAD PUSH2 0x1976 JUMP JUMPDEST SWAP5 DUP3 MLOAD SWAP4 PUSH2 0x11D3 PUSH2 0x11BD DUP7 PUSH2 0x195F JUMP JUMPDEST SWAP6 PUSH2 0x11CB PUSH1 0x40 MLOAD SWAP8 DUP9 PUSH2 0x17A7 JUMP JUMPDEST DUP1 DUP8 MSTORE PUSH2 0x195F JUMP JUMPDEST DUP6 DUP5 ADD SWAP2 ADD CALLDATASIZE DUP3 CALLDATACOPY PUSH1 0x0 JUMPDEST DUP5 MLOAD DUP2 LT ISZERO PUSH2 0x1243 JUMPI PUSH1 0x1 SWAP1 PUSH1 0x1 PUSH1 0x1 PUSH1 0xA0 SHL SUB PUSH2 0x11FC DUP3 DUP9 PUSH2 0x19B7 JUMP JUMPDEST MLOAD MLOAD AND PUSH2 0x1209 DUP3 DUP7 PUSH2 0x19B7 JUMP JUMPDEST MSTORE DUP5 PUSH2 0x1215 DUP3 DUP9 PUSH2 0x19B7 JUMP JUMPDEST MLOAD ADD MLOAD PUSH2 0x1222 DUP3 DUP12 PUSH2 0x19B7 JUMP JUMPDEST MSTORE PUSH1 0x40 PUSH2 0x122F DUP3 DUP9 PUSH2 0x19B7 JUMP JUMPDEST MLOAD ADD MLOAD PUSH2 0x123C DUP3 DUP10 PUSH2 0x19B7 JUMP JUMPDEST MSTORE ADD PUSH2 0x11DE JUMP JUMPDEST POP SWAP1 DUP7 SWAP2 DUP4 DUP7 DUP9 PUSH1 0x40 MLOAD SWAP6 DUP7 SWAP6 PUSH1 0x60 DUP8 ADD SWAP1 PUSH1 0x60 DUP9 MSTORE MLOAD DUP1 SWAP2 MSTORE PUSH1 0x80 DUP8 ADD SWAP3 SWAP1 PUSH1 0x0 JUMPDEST DUP2 DUP2 LT PUSH2 0x12BC JUMPI POP POP POP DUP2 PUSH2 0x1282 SWAP2 DUP8 DUP7 SWAP5 SUB DUP5 DUP10 ADD MSTORE PUSH2 0x1757 JUMP JUMPDEST SWAP2 DUP6 DUP4 SUB PUSH1 0x40 DUP8 ADD MSTORE MLOAD SWAP2 DUP3 DUP2 MSTORE ADD SWAP3 SWAP2 PUSH1 0x0 JUMPDEST DUP3 DUP2 LT PUSH2 0x12A5 JUMPI POP POP POP POP SUB SWAP1 RETURN JUMPDEST DUP4 MLOAD DUP6 MSTORE DUP7 SWAP6 POP SWAP4 DUP2 ADD SWAP4 SWAP3 DUP2 ADD SWAP3 PUSH1 0x1 ADD PUSH2 0x1296 JUMP JUMPDEST DUP3 MLOAD PUSH1 0x1 PUSH1 0x1 PUSH1 0xA0 SHL SUB AND DUP6 MSTORE DUP10 SWAP9 POP SWAP4 DUP7 ADD SWAP4 SWAP2 DUP7 ADD SWAP2 PUSH1 0x1 ADD PUSH2 0x1266 JUMP JUMPDEST PUSH1 0x40 MLOAD PUSH1 0x60 DUP2 ADD PUSH1 0x1 PUSH1 0x1 PUSH1 0x40 SHL SUB DUP2 GT DUP3 DUP3 LT OR PUSH2 0x132B JUMPI PUSH1 0x1 SWAP3 PUSH1 0x3 SWAP3 DUP9 SWAP3 PUSH1 0x40 MSTORE DUP5 DUP1 PUSH1 0xA0 SHL SUB DUP8 SLOAD AND DUP2 MSTORE DUP5 DUP8 ADD SLOAD DUP4 DUP3 ADD MSTORE PUSH1 0x2 DUP8 ADD SLOAD PUSH1 0x40 DUP3 ADD MSTORE DUP2 MSTORE ADD SWAP4 ADD SWAP2 ADD SWAP1 SWAP2 PUSH2 0x1168 JUMP JUMPDEST PUSH4 0x4E487B71 PUSH1 0xE0 SHL PUSH1 0x0 MSTORE PUSH1 0x41 PUSH1 0x4 MSTORE PUSH1 0x24 PUSH1 0x0 REVERT JUMPDEST CALLVALUE PUSH2 0x3CB JUMPI PUSH1 0x0 CALLDATASIZE PUSH1 0x3 NOT ADD SLT PUSH2 0x3CB JUMPI PUSH1 0x20 PUSH1 0x40 MLOAD PUSH1 0x64 DUP2 MSTORE RETURN JUMPDEST CALLVALUE PUSH2 0x3CB JUMPI PUSH1 0x80 CALLDATASIZE PUSH1 0x3 NOT ADD SLT PUSH2 0x3CB JUMPI PUSH1 0x4 CALLDATALOAD PUSH1 0x64 CALLDATALOAD PUSH1 0x44 CALLDATALOAD PUSH1 0x24 DUP1 CALLDATALOAD PUSH2 0x1384 DUP5 PUSH2 0x1976 JUMP JUMPDEST SWAP1 PUSH1 0x0 SWAP1 PUSH1 0x0 SWAP4 PUSH1 0x0 SWAP7 PUSH1 0x8 SLOAD SWAP8 JUMPDEST DUP9 DUP2 LT DUP1 PUSH2 0x14B9 JUMPI JUMPDEST ISZERO PUSH2 0x146A JUMPI DUP1 PUSH1 0x0 MSTORE PUSH1 0x20 PUSH1 0x0 DUP2 MSTORE PUSH1 0xFF PUSH1 0x7 PUSH1 0x40 PUSH1 0x0 KECCAK256 ADD SLOAD AND PUSH1 0x3 DUP2 LT ISZERO PUSH2 0x1455 JUMPI ISZERO SWAP1 DUP2 PUSH2 0x1439 JUMPI JUMPDEST DUP2 PUSH2 0x141F JUMPI JUMPDEST POP PUSH2 0x13E2 JUMPI JUMPDEST PUSH2 0x13DD SWAP1 PUSH2 0x19A8 JUMP JUMPDEST PUSH2 0x1393 JUMP JUMPDEST SWAP6 DUP8 DUP2 LT ISZERO PUSH2 0x1400 JUMPI JUMPDEST PUSH2 0x13F8 PUSH2 0x13DD SWAP2 PUSH2 0x19A8 JUMP JUMPDEST SWAP7 SWAP1 POP PUSH2 0x13D4 JUMP JUMPDEST SWAP4 PUSH2 0x13F8 PUSH2 0x1416 DUP3 DUP10 PUSH2 0x5D1 PUSH2 0x13DD SWAP6 DUP12 PUSH2 0x19B7 JUMP JUMPDEST SWAP6 SWAP2 POP POP PUSH2 0x13EC JUMP JUMPDEST PUSH1 0x0 SWAP2 POP DUP3 DUP3 MSTORE MSTORE DUP4 PUSH1 0x5 PUSH1 0x40 PUSH1 0x0 KECCAK256 ADD SLOAD GT ISZERO DUP12 PUSH2 0x13CE JUMP JUMPDEST SWAP1 POP DUP2 PUSH1 0x0 MSTORE PUSH1 0x0 DUP2 MSTORE DUP11 PUSH1 0x5 PUSH1 0x40 PUSH1 0x0 KECCAK256 ADD SLOAD LT ISZERO SWAP1 PUSH2 0x13C8 JUMP JUMPDEST DUP5 PUSH4 0x4E487B71 PUSH1 0xE0 SHL PUSH1 0x0 MSTORE PUSH1 0x21 PUSH1 0x4 MSTORE PUSH1 0x0 REVERT JUMPDEST DUP6 DUP6 DUP9 PUSH2 0x1476 DUP3 PUSH2 0x1976 JUMP JUMPDEST SWAP2 PUSH1 0x0 JUMPDEST DUP2 DUP2 LT PUSH2 0x149A JUMPI PUSH2 0x610 DUP5 DUP5 PUSH1 0x40 MLOAD SWAP3 DUP4 SWAP3 PUSH1 0x40 DUP5 MSTORE PUSH1 0x40 DUP5 ADD SWAP1 PUSH2 0x1757 JUMP JUMPDEST DUP1 PUSH2 0x14A7 PUSH1 0x1 SWAP3 DUP8 PUSH2 0x19B7 JUMP JUMPDEST MLOAD PUSH2 0x14B2 DUP3 DUP8 PUSH2 0x19B7 JUMP JUMPDEST MSTORE ADD PUSH2 0x147A JUMP JUMPDEST POP DUP2 DUP6 LT PUSH2 0x139C JUMP JUMPDEST CALLVALUE PUSH2 0x3CB JUMPI PUSH1 0x0 CALLDATASIZE PUSH1 0x3 NOT ADD SLT PUSH2 0x3CB JUMPI PUSH1 0x20 PUSH1 0x15 SLOAD PUSH1 0x40 MLOAD SWAP1 DUP2 MSTORE RETURN JUMPDEST CALLVALUE PUSH2 0x3CB JUMPI PUSH1 0x20 CALLDATASIZE PUSH1 0x3 NOT ADD SLT PUSH2 0x3CB JUMPI PUSH1 0x1 PUSH1 0x1 PUSH1 0xA0 SHL SUB PUSH2 0x1501 PUSH2 0x1741 JUMP JUMPDEST AND PUSH1 0x0 MSTORE PUSH1 0x3 PUSH1 0x20 MSTORE PUSH1 0x20 PUSH1 0xFF PUSH1 0x40 PUSH1 0x0 KECCAK256 SLOAD AND PUSH1 0x40 MLOAD SWAP1 ISZERO ISZERO DUP2 MSTORE RETURN JUMPDEST CALLVALUE PUSH2 0x3CB JUMPI PUSH1 0x0 CALLDATASIZE PUSH1 0x3 NOT ADD SLT PUSH2 0x3CB JUMPI PUSH1 0x20 PUSH1 0x40 MLOAD PUSH32 0xBF233DD2AAFEB4D50879C4AA5C81E96D92F6E6945C906A58F9F2D1C1631B4B26 DUP2 MSTORE RETURN JUMPDEST CALLVALUE PUSH2 0x3CB JUMPI PUSH1 0x0 CALLDATASIZE PUSH1 0x3 NOT ADD SLT PUSH2 0x3CB JUMPI PUSH1 0x20 PUSH1 0x14 SLOAD PUSH1 0x40 MLOAD SWAP1 DUP2 MSTORE RETURN JUMPDEST CALLVALUE PUSH2 0x3CB JUMPI PUSH1 0x0 CALLDATASIZE PUSH1 0x3 NOT ADD SLT PUSH2 0x3CB JUMPI PUSH1 0x20 PUSH1 0xF SLOAD PUSH1 0x40 MLOAD SWAP1 DUP2 MSTORE RETURN JUMPDEST CALLVALUE PUSH2 0x3CB JUMPI PUSH1 0x20 CALLDATASIZE PUSH1 0x3 NOT ADD SLT PUSH2 0x3CB JUMPI PUSH1 0x4 CALLDATALOAD PUSH1 0x0 MSTORE PUSH1 0x0 PUSH1 0x20 MSTORE PUSH1 0x40 PUSH1 0x0 KECCAK256 DUP1 SLOAD PUSH1 0x1 DUP3 ADD PUSH2 0x15C6 SWAP1 PUSH2 0x17CA JUMP JUMPDEST SWAP2 PUSH2 0x15D3 PUSH1 0x2 DUP3 ADD PUSH2 0x17CA JUMP JUMPDEST PUSH1 0x3 DUP3 ADD SLOAD PUSH1 0xFF AND SWAP2 PUSH1 0x4 DUP2 ADD SLOAD PUSH1 0x5 DUP3 ADD SLOAD PUSH1 0x6 DUP4 ADD SLOAD PUSH1 0x7 DUP5 ADD SLOAD SWAP1 PUSH1 0x1 PUSH1 0xA0 SHL PUSH1 0x1 SWAP1 SUB PUSH1 0x8 DUP7 ADD SLOAD AND SWAP3 PUSH1 0x9 DUP7 ADD SLOAD SWAP5 PUSH1 0xA DUP8 ADD SLOAD SWAP7 PUSH1 0xB ADD SLOAD SWAP8 PUSH1 0x40 MLOAD SWAP12 DUP13 DUP1 SWAP13 PUSH2 0x1C0 SWAP2 DUP3 SWAP2 DUP2 MSTORE PUSH1 0x20 ADD MSTORE DUP13 ADD PUSH2 0x1630 SWAP2 PUSH2 0x189D JUMP JUMPDEST DUP12 DUP2 SUB PUSH1 0x40 DUP14 ADD MSTORE PUSH2 0x1641 SWAP2 PUSH2 0x189D JUMP JUMPDEST SWAP9 PUSH1 0x60 DUP12 ADD PUSH2 0x164F SWAP2 PUSH2 0x18DD JUMP JUMPDEST PUSH1 0x80 DUP11 ADD MSTORE PUSH1 0xA0 DUP10 ADD MSTORE PUSH1 0xC0 DUP9 ADD MSTORE PUSH2 0x166E PUSH1 0xE0 DUP9 ADD PUSH1 0xFF DUP4 AND PUSH2 0x18EA JUMP JUMPDEST PUSH1 0x8 SHR PUSH1 0x1 PUSH1 0x1 PUSH1 0xA0 SHL SUB AND PUSH2 0x100 DUP8 ADD MSTORE PUSH2 0x120 DUP7 ADD MSTORE PUSH2 0x140 DUP6 ADD MSTORE PUSH4 0xFFFFFFFF DUP2 DUP2 AND PUSH2 0x160 DUP7 ADD MSTORE PUSH1 0x20 SWAP2 SWAP1 SWAP2 SHR AND PUSH2 0x180 DUP5 ADD MSTORE PUSH2 0x1A0 DUP4 ADD MSTORE SUB SWAP1 RETURN JUMPDEST CALLVALUE PUSH2 0x3CB JUMPI PUSH1 0x0 CALLDATASIZE PUSH1 0x3 NOT ADD SLT PUSH2 0x3CB JUMPI PUSH1 0x20 PUSH1 0x8 SLOAD PUSH1 0x40 MLOAD SWAP1 DUP2 MSTORE RETURN JUMPDEST CALLVALUE PUSH2 0x3CB JUMPI PUSH1 0x20 DUP1 PUSH1 0x3 NOT CALLDATASIZE ADD SLT PUSH2 0x3CB JUMPI PUSH1 0x1 PUSH1 0x1 PUSH1 0xA0 SHL SUB PUSH2 0x16F1 PUSH2 0x1741 JUMP JUMPDEST AND PUSH1 0x0 MSTORE PUSH1 0x5 DUP2 MSTORE PUSH1 0x40 PUSH1 0x0 KECCAK256 DUP3 DUP2 SLOAD SWAP2 DUP3 DUP3 MSTORE DUP4 DUP3 ADD SWAP1 PUSH1 0x0 MSTORE DUP4 PUSH1 0x0 KECCAK256 SWAP3 PUSH1 0x0 JUMPDEST DUP6 DUP3 DUP3 LT PUSH2 0x172B JUMPI POP POP POP PUSH2 0x10E9 SWAP3 POP SUB DUP4 PUSH2 0x17A7 JUMP JUMPDEST DUP6 SLOAD DUP5 MSTORE PUSH1 0x1 SWAP6 DUP7 ADD SWAP6 DUP9 SWAP6 POP SWAP4 ADD SWAP3 ADD PUSH2 0x1714 JUMP JUMPDEST PUSH1 0x4 CALLDATALOAD SWAP1 PUSH1 0x1 PUSH1 0x1 PUSH1 0xA0 SHL SUB DUP3 AND DUP3 SUB PUSH2 0x3CB JUMPI JUMP JUMPDEST SWAP1 DUP2 MLOAD DUP1 DUP3 MSTORE PUSH1 0x20 DUP1 DUP1 SWAP4 ADD SWAP4 ADD SWAP2 PUSH1 0x0 JUMPDEST DUP3 DUP2 LT PUSH2 0x1777 JUMPI POP POP POP POP SWAP1 JUMP JUMPDEST DUP4 MLOAD DUP6 MSTORE SWAP4 DUP2 ADD SWAP4 SWAP3 DUP2 ADD SWAP3 PUSH1 0x1 ADD PUSH2 0x1769 JUMP JUMPDEST PUSH2 0x1C0 DUP2 ADD SWAP1 DUP2 LT PUSH1 0x1 PUSH1 0x1 PUSH1 0x40 SHL SUB DUP3 GT OR PUSH2 0x132B JUMPI PUSH1 0x40 MSTORE JUMP JUMPDEST PUSH1 0x1F SWAP1 SWAP2 ADD PUSH1 0x1F NOT AND DUP2 ADD SWAP1 PUSH1 0x1 PUSH1 0x1 PUSH1 0x40 SHL SUB DUP3 GT SWAP1 DUP3 LT OR PUSH2 0x132B JUMPI PUSH1 0x40 MSTORE JUMP JUMPDEST SWAP1 PUSH1 0x40 MLOAD SWAP1 PUSH1 0x0 DUP4 SLOAD SWAP1 PUSH1 0x1 DUP3 PUSH1 0x1 SHR SWAP1 PUSH1 0x1 DUP5 AND SWAP7 DUP8 ISZERO PUSH2 0x1893 JUMPI JUMPDEST PUSH1 0x20 SWAP5 DUP6 DUP5 LT DUP10 EQ PUSH2 0x187F JUMPI DUP8 SWAP9 DUP5 DUP10 SWAP8 SWAP9 SWAP10 MSTORE SWAP1 DUP2 PUSH1 0x0 EQ PUSH2 0x185D JUMPI POP PUSH1 0x1 EQ PUSH2 0x181E JUMPI JUMPDEST POP POP POP PUSH2 0x181C SWAP3 POP SUB DUP4 PUSH2 0x17A7 JUMP JUMPDEST JUMP JUMPDEST PUSH1 0x0 SWAP1 DUP2 MSTORE DUP6 DUP2 KECCAK256 SWAP6 SWAP4 POP SWAP2 SWAP1 JUMPDEST DUP2 DUP4 LT PUSH2 0x1845 JUMPI POP POP PUSH2 0x181C SWAP4 POP DUP3 ADD ADD CODESIZE DUP1 DUP1 PUSH2 0x180D JUMP JUMPDEST DUP6 SLOAD DUP9 DUP5 ADD DUP6 ADD MSTORE SWAP5 DUP6 ADD SWAP5 DUP8 SWAP5 POP SWAP2 DUP4 ADD SWAP2 PUSH2 0x182C JUMP JUMPDEST SWAP3 POP POP POP PUSH2 0x181C SWAP5 SWAP3 POP PUSH1 0xFF NOT AND DUP3 DUP5 ADD MSTORE ISZERO ISZERO PUSH1 0x5 SHL DUP3 ADD ADD CODESIZE DUP1 DUP1 PUSH2 0x180D JUMP JUMPDEST PUSH4 0x4E487B71 PUSH1 0xE0 SHL DUP6 MSTORE PUSH1 0x22 PUSH1 0x4 MSTORE PUSH1 0x24 DUP6 REVERT JUMPDEST SWAP2 PUSH1 0x7F AND SWAP2 PUSH2 0x17E7 JUMP JUMPDEST SWAP2 SWAP1 DUP3 MLOAD SWAP3 DUP4 DUP3 MSTORE PUSH1 0x0 JUMPDEST DUP5 DUP2 LT PUSH2 0x18C9 JUMPI POP POP DUP3 PUSH1 0x0 PUSH1 0x20 DUP1 SWAP5 SWAP6 DUP5 ADD ADD MSTORE PUSH1 0x1F DUP1 NOT SWAP2 ADD AND ADD ADD SWAP1 JUMP JUMPDEST PUSH1 0x20 DUP2 DUP4 ADD DUP2 ADD MLOAD DUP5 DUP4 ADD DUP3 ADD MSTORE ADD PUSH2 0x18A8 JUMP JUMPDEST SWAP1 PUSH1 0x7 DUP3 LT ISZERO PUSH2 0x39D JUMPI MSTORE JUMP JUMPDEST SWAP1 PUSH1 0x3 DUP3 LT ISZERO PUSH2 0x39D JUMPI MSTORE JUMP JUMPDEST SWAP2 SWAP3 PUSH1 0x80 SWAP4 SWAP7 SWAP6 SWAP5 SWAP2 SWAP7 PUSH1 0xA0 DUP5 ADD SWAP8 DUP5 MSTORE PUSH1 0x20 DUP5 ADD MSTORE PUSH1 0x40 DUP4 ADD MSTORE PUSH1 0x60 DUP3 ADD MSTORE ADD MSTORE JUMP JUMPDEST DUP1 SLOAD DUP3 LT ISZERO PUSH2 0x1933 JUMPI PUSH1 0x0 MSTORE PUSH1 0x20 PUSH1 0x0 KECCAK256 ADD SWAP1 PUSH1 0x0 SWAP1 JUMP JUMPDEST PUSH4 0x4E487B71 PUSH1 0xE0 SHL PUSH1 0x0 MSTORE PUSH1 0x32 PUSH1 0x4 MSTORE PUSH1 0x24 PUSH1 0x0 REVERT JUMPDEST PUSH1 0x40 SWAP1 PUSH1 0x3 NOT ADD SLT PUSH2 0x3CB JUMPI PUSH1 0x4 CALLDATALOAD SWAP1 PUSH1 0x24 CALLDATALOAD SWAP1 JUMP JUMPDEST PUSH1 0x1 PUSH1 0x1 PUSH1 0x40 SHL SUB DUP2 GT PUSH2 0x132B JUMPI PUSH1 0x5 SHL PUSH1 0x20 ADD SWAP1 JUMP JUMPDEST SWAP1 PUSH2 0x1980 DUP3 PUSH2 0x195F JUMP JUMPDEST PUSH2 0x198D PUSH1 0x40 MLOAD SWAP2 DUP3 PUSH2 0x17A7 JUMP JUMPDEST DUP3 DUP2 MSTORE DUP1 SWAP3 PUSH2 0x199E PUSH1 0x1F NOT SWAP2 PUSH2 0x195F JUMP JUMPDEST ADD SWAP1 PUSH1 0x20 CALLDATASIZE SWAP2 ADD CALLDATACOPY JUMP JUMPDEST PUSH1 0x0 NOT DUP2 EQ PUSH2 0xBB6 JUMPI PUSH1 0x1 ADD SWAP1 JUMP JUMPDEST DUP1 MLOAD DUP3 LT ISZERO PUSH2 0x1933 JUMPI PUSH1 0x20 SWAP2 PUSH1 0x5 SHL ADD ADD SWAP1 JUMP JUMPDEST DUP2 DUP2 MUL SWAP3 SWAP2 DUP2 ISZERO SWAP2 DUP5 DIV EQ OR ISZERO PUSH2 0xBB6 JUMPI JUMP JUMPDEST SWAP2 SWAP1 DUP3 SUB SWAP2 DUP3 GT PUSH2 0xBB6 JUMPI JUMP JUMPDEST PUSH1 0xFF PUSH1 0x17 SLOAD AND PUSH2 0x1AF1 JUMPI PUSH1 0x1 PUSH1 0x1 PUSH1 0xA0 SHL SUB AND PUSH1 0x0 DUP2 DUP2 MSTORE PUSH1 0x3 PUSH1 0x20 MSTORE PUSH1 0x40 DUP2 KECCAK256 SLOAD SWAP1 SWAP2 SWAP1 PUSH1 0xFF AND PUSH2 0x1ACB JUMPI PUSH1 0x1 PUSH1 0x20 MSTORE PUSH2 0x1A2D PUSH1 0x4 PUSH1 0x40 DUP5 KECCAK256 ADD SLOAD NUMBER PUSH2 0x19DE JUMP JUMPDEST PUSH1 0x11 SLOAD GT PUSH2 0x1AA5 JUMPI DUP2 MSTORE PUSH1 0x16 PUSH1 0x20 MSTORE PUSH1 0x40 DUP2 KECCAK256 PUSH2 0x1680 NUMBER DIV DUP3 MSTORE PUSH1 0x20 MSTORE PUSH1 0x40 DUP2 KECCAK256 SLOAD PUSH1 0x14 SLOAD GT ISZERO PUSH2 0x1A80 JUMPI POP PUSH1 0x1 SWAP1 PUSH32 0xCE5CECEB3B018DC53CD7E23DAA9F08F268EC71A6DD745ACC69B20CD937AF5503 SWAP1 JUMP JUMPDEST SWAP1 PUSH32 0x891A3C2AAE4B7E19C81C920E84ED0D4CFBA7D3F4FD1EA26206FD45E59989ECFA SWAP1 JUMP JUMPDEST POP SWAP1 PUSH32 0x9DC7CAE0428A4481C8B454DA165B0AC10C9A4E6BB5C5EDB9A3A2BF0E0FA36BCF SWAP1 JUMP JUMPDEST POP SWAP1 PUSH32 0x8680108DF3F92337E086D074E9B72F70C5F03505474EA9F5C44282227B961ECB SWAP1 JUMP JUMPDEST POP PUSH1 0x0 SWAP1 PUSH32 0x641D89B682F2F02191994AC3C66B0B38941BDC138E6F3F87C53261CC39048D8C SWAP1 JUMP JUMPDEST PUSH1 0x1 PUSH1 0x1 PUSH1 0xA0 SHL SUB AND PUSH1 0x0 SWAP1 DUP2 MSTORE PUSH1 0x1 PUSH1 0x20 MSTORE PUSH1 0x40 SWAP1 KECCAK256 PUSH1 0x4 ADD SLOAD PUSH2 0x1B3E SWAP1 NUMBER PUSH2 0x19DE JUMP JUMPDEST PUSH1 0x11 SLOAD SWAP1 DUP2 DUP2 LT PUSH2 0x1B53 JUMPI POP POP PUSH1 0x0 SWAP1 PUSH1 0x1 SWAP1 JUMP JUMPDEST PUSH2 0x1B5C SWAP2 PUSH2 0x19DE JUMP JUMPDEST SWAP1 PUSH1 0x0 SWAP1 JUMP INVALID LOG2 PUSH5 0x6970667358 0x22 SLT KECCAK256 LOG2 DUP11 PUSH19 0x5D514C5816A090803BED1714556D51D1E3CCB1 POP SWAP5 SELFDESTRUCT 0x26 PUSH22 0x38B35E91FA64736F6C63430008160033000000000000 "},"methodIdentifiers":{"BASIS_POINTS()":"e1f1c4a7","BLOCKS_PER_DAY()":"6bb987fe","CONTENT_MANAGER_ROLE()":"89de5400","EMERGENCY_ROLE()":"20df4359","MAX_BATCH_SIZE()":"cfdbf254","MAX_TITLE_LENGTH()":"2ef9a160","MIN_TITLE_LENGTH()":"f7f29f0c","MODERATOR_ROLE()":"797669c9","blacklistedUsers(address)":"22c0aec7","calculatePurchasePreview(uint256)":"37803e39","canUserCreateContent(address)":"a8e380f1","contentCollaborators(uint256,uint256)":"abc1b50e","contentItems(uint256)":"0e73afdf","creationCooldownBlocks()":"c520571c","creatorContent(address,uint256)":"6a480eb8","creators(address)":"933166e1","dailyUploadLimit()":"18d1c9ee","dailyUploads(address,uint256)":"8f94bc68","defaultRoyaltyPercent()":"4e42f6ae","emergencyStop()":"63a599a4","getActiveContentIds(uint256,uint256)":"bef14aab","getContentByCategory(uint8,uint256,uint256)":"62581c77","getContentByPriceRange(uint256,uint256,uint256,uint256)":"2cd3bea6","getContentCollaborators(uint256)":"31b6c572","getContentDetails(uint256)":"9dc3960b","getContentHash(uint256)":"ffbdc8cb","getCreatorContent(address)":"011c6756","getCreatorStats(address)":"9f82d472","getDailyUploadStatus(address)":"643808a8","getMarketplaceStats()":"812d966a","getTrendingContentIds(uint256)":"7d08e16d","getUserCooldown(address)":"fad504ff","getUserPurchaseHistory(address)":"35c38d1e","hasPurchased(address,uint256)":"11923132","maxCollaborators()":"2c557258","maxContentPrice()":"452517c7","maxDescriptionLength()":"3b13d732","maxRoyaltyPercent()":"59941d42","minContentPrice()":"0eea65f8","minDescriptionLength()":"3f8bf086","nextContentId()":"0a248d7f","platformFeePercent()":"8c639a85","purchases(uint256)":"8392fe31","totalActiveContent()":"a61a9d03","totalRevenue()":"bf2d9e0b","totalSales()":"6605ff66","userPurchaseHistory(address,uint256)":"eed3e097","userPurchases(address,uint256)":"cf2c0334"}}}}}