{"contracts/EducationalContentMarketplace.sol":{"EducationalContentMarketplace":{"abi":[{"inputs":[{"internalType":"address","name":"initialOwner","type":"address"}],"stateMutability":"nonpayable","type":"constructor"},{"inputs":[],"name":"AccessControlBadConfirmation","type":"error"},{"inputs":[{"internalType":"address","name":"account","type":"address"},{"internalType":"bytes32","name":"neededRole","type":"bytes32"}],"name":"AccessControlUnauthorizedAccount","type":"error"},{"inputs":[{"internalType":"uint256","name":"contentId","type":"uint256"}],"name":"ContentAlreadyPurchased","type":"error"},{"inputs":[{"internalType":"uint256","name":"contentId","type":"uint256"}],"name":"ContentNotActive","type":"error"},{"inputs":[{"internalType":"uint256","name":"contentId","type":"uint256"}],"name":"ContentNotFound","type":"error"},{"inputs":[{"internalType":"uint256","name":"remainingBlocks","type":"uint256"}],"name":"CreationCooldownActive","type":"error"},{"inputs":[{"internalType":"uint256","name":"current","type":"uint256"},{"internalType":"uint256","name":"limit","type":"uint256"}],"name":"DailyLimitExceeded","type":"error"},{"inputs":[],"name":"EmergencyStopActive","type":"error"},{"inputs":[],"name":"EnforcedPause","type":"error"},{"inputs":[],"name":"ExpectedPause","type":"error"},{"inputs":[],"name":"FailedCall","type":"error"},{"inputs":[{"internalType":"uint256","name":"balance","type":"uint256"},{"internalType":"uint256","name":"needed","type":"uint256"}],"name":"InsufficientBalance","type":"error"},{"inputs":[{"internalType":"uint256","name":"required","type":"uint256"},{"internalType":"uint256","name":"provided","type":"uint256"}],"name":"InsufficientPayment","type":"error"},{"inputs":[],"name":"InvalidCollaboratorShare","type":"error"},{"inputs":[],"name":"InvalidContentData","type":"error"},{"inputs":[{"internalType":"uint256","name":"price","type":"uint256"}],"name":"InvalidPrice","type":"error"},{"inputs":[{"internalType":"uint256","name":"percent","type":"uint256"}],"name":"InvalidRoyaltyPercent","type":"error"},{"inputs":[{"internalType":"address","name":"owner","type":"address"}],"name":"OwnableInvalidOwner","type":"error"},{"inputs":[{"internalType":"address","name":"account","type":"address"}],"name":"OwnableUnauthorizedAccount","type":"error"},{"inputs":[],"name":"ReentrancyGuardReentrantCall","type":"error"},{"inputs":[],"name":"TooManyCollaborators","type":"error"},{"inputs":[],"name":"UnauthorizedAccess","type":"error"},{"inputs":[],"name":"UserIsBlacklisted","type":"error"},{"anonymous":false,"inputs":[{"indexed":true,"internalType":"uint256","name":"contentId","type":"uint256"},{"indexed":true,"internalType":"address","name":"collaborator","type":"address"},{"indexed":false,"internalType":"uint256","name":"sharePercent","type":"uint256"},{"indexed":false,"internalType":"bytes32","name":"roleHash","type":"bytes32"}],"name":"CollaboratorAdded","type":"event"},{"anonymous":false,"inputs":[{"indexed":true,"internalType":"uint256","name":"contentId","type":"uint256"},{"indexed":true,"internalType":"address","name":"creator","type":"address"},{"indexed":true,"internalType":"bytes32","name":"titleHash","type":"bytes32"},{"indexed":false,"internalType":"uint256","name":"price","type":"uint256"},{"indexed":false,"internalType":"enum IEducationalMarketplace.ContentCategory","name":"category","type":"uint8"},{"indexed":false,"internalType":"uint256","name":"blockNumber","type":"uint256"}],"name":"ContentCreated","type":"event"},{"anonymous":false,"inputs":[{"indexed":true,"internalType":"uint256","name":"contentId","type":"uint256"},{"indexed":false,"internalType":"uint256","name":"oldPrice","type":"uint256"},{"indexed":false,"internalType":"uint256","name":"newPrice","type":"uint256"},{"indexed":true,"internalType":"address","name":"creator","type":"address"}],"name":"ContentPriceUpdated","type":"event"},{"anonymous":false,"inputs":[{"indexed":true,"internalType":"address","name":"buyer","type":"address"},{"indexed":true,"internalType":"uint256","name":"contentId","type":"uint256"},{"indexed":true,"internalType":"address","name":"seller","type":"address"},{"indexed":false,"internalType":"uint256","name":"price","type":"uint256"},{"indexed":false,"internalType":"uint256","name":"royaltyPaid","type":"uint256"},{"indexed":false,"internalType":"bytes32","name":"purchaseHash","type":"bytes32"}],"name":"ContentPurchased","type":"event"},{"anonymous":false,"inputs":[{"indexed":true,"internalType":"uint256","name":"contentId","type":"uint256"},{"indexed":false,"internalType":"enum IEducationalMarketplace.ContentStatus","name":"oldStatus","type":"uint8"},{"indexed":false,"internalType":"enum IEducationalMarketplace.ContentStatus","name":"newStatus","type":"uint8"},{"indexed":true,"internalType":"address","name":"moderator","type":"address"}],"name":"ContentStatusChanged","type":"event"},{"anonymous":false,"inputs":[{"indexed":true,"internalType":"address","name":"admin","type":"address"},{"indexed":false,"internalType":"bytes32","name":"actionHash","type":"bytes32"},{"indexed":true,"internalType":"address","name":"target","type":"address"},{"indexed":false,"internalType":"uint256","name":"blockNumber","type":"uint256"}],"name":"EmergencyAction","type":"event"},{"anonymous":false,"inputs":[{"indexed":true,"internalType":"address","name":"previousOwner","type":"address"},{"indexed":true,"internalType":"address","name":"newOwner","type":"address"}],"name":"OwnershipTransferred","type":"event"},{"anonymous":false,"inputs":[{"indexed":false,"internalType":"address","name":"account","type":"address"}],"name":"Paused","type":"event"},{"anonymous":false,"inputs":[{"indexed":true,"internalType":"address","name":"funder","type":"address"},{"indexed":false,"internalType":"uint256","name":"amount","type":"uint256"}],"name":"PlatformFunded","type":"event"},{"anonymous":false,"inputs":[{"indexed":true,"internalType":"bytes32","name":"role","type":"bytes32"},{"indexed":true,"internalType":"bytes32","name":"previousAdminRole","type":"bytes32"},{"indexed":true,"internalType":"bytes32","name":"newAdminRole","type":"bytes32"}],"name":"RoleAdminChanged","type":"event"},{"anonymous":false,"inputs":[{"indexed":true,"internalType":"bytes32","name":"role","type":"bytes32"},{"indexed":true,"internalType":"address","name":"account","type":"address"},{"indexed":true,"internalType":"address","name":"sender","type":"address"}],"name":"RoleGranted","type":"event"},{"anonymous":false,"inputs":[{"indexed":true,"internalType":"bytes32","name":"role","type":"bytes32"},{"indexed":true,"internalType":"address","name":"account","type":"address"},{"indexed":true,"internalType":"address","name":"sender","type":"address"}],"name":"RoleRevoked","type":"event"},{"anonymous":false,"inputs":[{"indexed":true,"internalType":"uint256","name":"contentId","type":"uint256"},{"indexed":true,"internalType":"address","name":"recipient","type":"address"},{"indexed":false,"internalType":"uint256","name":"amount","type":"uint256"},{"indexed":false,"internalType":"bytes32","name":"roleHash","type":"bytes32"}],"name":"RoyaltyDistributed","type":"event"},{"anonymous":false,"inputs":[{"indexed":false,"internalType":"address","name":"account","type":"address"}],"name":"Unpaused","type":"event"},{"anonymous":false,"inputs":[{"indexed":true,"internalType":"address","name":"user","type":"address"},{"indexed":false,"internalType":"bytes32","name":"reasonHash","type":"bytes32"}],"name":"UserBlacklisted","type":"event"},{"anonymous":false,"inputs":[{"indexed":true,"internalType":"address","name":"user","type":"address"}],"name":"UserWhitelisted","type":"event"},{"stateMutability":"nonpayable","type":"fallback"},{"inputs":[],"name":"BASIS_POINTS","outputs":[{"internalType":"uint256","name":"","type":"uint256"}],"stateMutability":"view","type":"function"},{"inputs":[],"name":"BLOCKS_PER_DAY","outputs":[{"internalType":"uint256","name":"","type":"uint256"}],"stateMutability":"view","type":"function"},{"inputs":[],"name":"CONTENT_MANAGER_ROLE","outputs":[{"internalType":"bytes32","name":"","type":"bytes32"}],"stateMutability":"view","type":"function"},{"inputs":[],"name":"DEFAULT_ADMIN_ROLE","outputs":[{"internalType":"bytes32","name":"","type":"bytes32"}],"stateMutability":"view","type":"function"},{"inputs":[],"name":"EMERGENCY_ROLE","outputs":[{"internalType":"bytes32","name":"","type":"bytes32"}],"stateMutability":"view","type":"function"},{"inputs":[],"name":"MAX_BATCH_SIZE","outputs":[{"internalType":"uint256","name":"","type":"uint256"}],"stateMutability":"view","type":"function"},{"inputs":[],"name":"MAX_TITLE_LENGTH","outputs":[{"internalType":"uint256","name":"","type":"uint256"}],"stateMutability":"view","type":"function"},{"inputs":[],"name":"MIN_TITLE_LENGTH","outputs":[{"internalType":"uint256","name":"","type":"uint256"}],"stateMutability":"view","type":"function"},{"inputs":[],"name":"MODERATOR_ROLE","outputs":[{"internalType":"bytes32","name":"","type":"bytes32"}],"stateMutability":"view","type":"function"},{"inputs":[],"name":"activateEmergencyStop","outputs":[],"stateMutability":"nonpayable","type":"function"},{"inputs":[{"internalType":"uint256","name":"_contentId","type":"uint256"},{"internalType":"address[]","name":"_collaborators","type":"address[]"},{"internalType":"uint256[]","name":"_sharePercents","type":"uint256[]"},{"internalType":"bytes32[]","name":"_roleHashes","type":"bytes32[]"}],"name":"addCollaborators","outputs":[],"stateMutability":"nonpayable","type":"function"},{"inputs":[{"internalType":"uint256[]","name":"_contentIds","type":"uint256[]"},{"internalType":"enum IEducationalMarketplace.ContentStatus","name":"_newStatus","type":"uint8"}],"name":"batchModerateContent","outputs":[],"stateMutability":"nonpayable","type":"function"},{"inputs":[{"internalType":"address","name":"_user","type":"address"},{"internalType":"bytes32","name":"_reasonHash","type":"bytes32"}],"name":"blacklistUser","outputs":[],"stateMutability":"nonpayable","type":"function"},{"inputs":[{"internalType":"address","name":"","type":"address"}],"name":"blacklistedUsers","outputs":[{"internalType":"bool","name":"","type":"bool"}],"stateMutability":"view","type":"function"},{"inputs":[{"internalType":"uint256","name":"_contentId","type":"uint256"}],"name":"calculatePurchasePreview","outputs":[{"internalType":"uint256","name":"contentPrice","type":"uint256"},{"internalType":"uint256","name":"platformFee","type":"uint256"},{"internalType":"uint256","name":"royaltyAmount","type":"uint256"},{"internalType":"uint256","name":"sellerAmount","type":"uint256"},{"internalType":"uint256","name":"totalRequired","type":"uint256"}],"stateMutability":"view","type":"function"},{"inputs":[{"internalType":"address","name":"_user","type":"address"}],"name":"canUserCreateContent","outputs":[{"internalType":"bool","name":"canCreate","type":"bool"},{"internalType":"bytes32","name":"statusHash","type":"bytes32"}],"stateMutability":"view","type":"function"},{"inputs":[{"internalType":"uint256","name":"","type":"uint256"},{"internalType":"uint256","name":"","type":"uint256"}],"name":"contentCollaborators","outputs":[{"internalType":"address","name":"collaboratorAddress","type":"address"},{"internalType":"uint256","name":"sharePercent","type":"uint256"},{"internalType":"bytes32","name":"roleHash","type":"bytes32"}],"stateMutability":"view","type":"function"},{"inputs":[{"internalType":"uint256","name":"","type":"uint256"}],"name":"contentItems","outputs":[{"internalType":"uint256","name":"contentId","type":"uint256"},{"internalType":"string","name":"title","type":"string"},{"internalType":"string","name":"description","type":"string"},{"internalType":"enum IEducationalMarketplace.ContentCategory","name":"category","type":"uint8"},{"internalType":"bytes32","name":"contentHash","type":"bytes32"},{"internalType":"uint256","name":"price","type":"uint256"},{"internalType":"uint256","name":"royaltyPercent","type":"uint256"},{"internalType":"enum IEducationalMarketplace.ContentStatus","name":"status","type":"uint8"},{"internalType":"address payable","name":"creator","type":"address"},{"internalType":"address payable","name":"currentOwner","type":"address"},{"internalType":"uint256","name":"createdAtBlock","type":"uint256"},{"internalType":"uint32","name":"totalSales","type":"uint32"},{"internalType":"uint32","name":"totalViews","type":"uint32"},{"internalType":"uint256","name":"totalEarnings","type":"uint256"}],"stateMutability":"view","type":"function"},{"inputs":[{"internalType":"string","name":"_title","type":"string"},{"internalType":"string","name":"_description","type":"string"},{"internalType":"enum IEducationalMarketplace.ContentCategory","name":"_category","type":"uint8"},{"internalType":"bytes32","name":"_contentHash","type":"bytes32"},{"internalType":"uint256","name":"_price","type":"uint256"},{"internalType":"uint256","name":"_customRoyaltyPercent","type":"uint256"}],"name":"createContent","outputs":[{"internalType":"uint256","name":"","type":"uint256"}],"stateMutability":"nonpayable","type":"function"},{"inputs":[],"name":"creationCooldownBlocks","outputs":[{"internalType":"uint256","name":"","type":"uint256"}],"stateMutability":"view","type":"function"},{"inputs":[{"internalType":"address","name":"","type":"address"},{"internalType":"uint256","name":"","type":"uint256"}],"name":"creatorContent","outputs":[{"internalType":"uint256","name":"","type":"uint256"}],"stateMutability":"view","type":"function"},{"inputs":[{"internalType":"address","name":"","type":"address"}],"name":"creators","outputs":[{"internalType":"uint256","name":"totalContent","type":"uint256"},{"internalType":"uint256","name":"totalSales","type":"uint256"},{"internalType":"uint256","name":"totalEarnings","type":"uint256"},{"internalType":"uint256","name":"averageRating","type":"uint256"},{"internalType":"uint256","name":"lastContentBlock","type":"uint256"}],"stateMutability":"view","type":"function"},{"inputs":[],"name":"dailyUploadLimit","outputs":[{"internalType":"uint256","name":"","type":"uint256"}],"stateMutability":"view","type":"function"},{"inputs":[{"internalType":"address","name":"","type":"address"},{"internalType":"uint256","name":"","type":"uint256"}],"name":"dailyUploads","outputs":[{"internalType":"uint256","name":"","type":"uint256"}],"stateMutability":"view","type":"function"},{"inputs":[],"name":"defaultRoyaltyPercent","outputs":[{"internalType":"uint256","name":"","type":"uint256"}],"stateMutability":"view","type":"function"},{"inputs":[],"name":"emergencyStop","outputs":[{"internalType":"bool","name":"","type":"bool"}],"stateMutability":"view","type":"function"},{"inputs":[],"name":"fundPlatform","outputs":[],"stateMutability":"payable","type":"function"},{"inputs":[{"internalType":"address","name":"_creator","type":"address"},{"internalType":"string","name":"_title","type":"string"},{"internalType":"string","name":"_description","type":"string"},{"internalType":"uint256","name":"_timestamp","type":"uint256"}],"name":"generateContentHash","outputs":[{"internalType":"bytes32","name":"","type":"bytes32"}],"stateMutability":"pure","type":"function"},{"inputs":[{"internalType":"uint256","name":"_offset","type":"uint256"},{"internalType":"uint256","name":"_limit","type":"uint256"}],"name":"getActiveContentIds","outputs":[{"internalType":"uint256[]","name":"contentIds","type":"uint256[]"},{"internalType":"uint256","name":"totalActive","type":"uint256"}],"stateMutability":"view","type":"function"},{"inputs":[{"internalType":"uint256[]","name":"_contentIds","type":"uint256[]"}],"name":"getContentBatch","outputs":[{"internalType":"bytes32[]","name":"titleHashes","type":"bytes32[]"},{"internalType":"uint256[]","name":"prices","type":"uint256[]"},{"internalType":"enum IEducationalMarketplace.ContentCategory[]","name":"categories","type":"uint8[]"},{"internalType":"enum IEducationalMarketplace.ContentStatus[]","name":"statuses","type":"uint8[]"}],"stateMutability":"view","type":"function"},{"inputs":[{"internalType":"enum IEducationalMarketplace.ContentCategory","name":"_category","type":"uint8"},{"internalType":"uint256","name":"_offset","type":"uint256"},{"internalType":"uint256","name":"_limit","type":"uint256"}],"name":"getContentByCategory","outputs":[{"internalType":"uint256[]","name":"contentIds","type":"uint256[]"},{"internalType":"uint256","name":"totalMatching","type":"uint256"}],"stateMutability":"view","type":"function"},{"inputs":[{"internalType":"uint256","name":"_minPrice","type":"uint256"},{"internalType":"uint256","name":"_maxPrice","type":"uint256"},{"internalType":"uint256","name":"_offset","type":"uint256"},{"internalType":"uint256","name":"_limit","type":"uint256"}],"name":"getContentByPriceRange","outputs":[{"internalType":"uint256[]","name":"contentIds","type":"uint256[]"},{"internalType":"uint256","name":"totalMatching","type":"uint256"}],"stateMutability":"view","type":"function"},{"inputs":[{"internalType":"uint256","name":"_contentId","type":"uint256"}],"name":"getContentCollaborators","outputs":[{"internalType":"address[]","name":"collaboratorAddresses","type":"address[]"},{"internalType":"uint256[]","name":"sharePercents","type":"uint256[]"},{"internalType":"bytes32[]","name":"roleHashes","type":"bytes32[]"}],"stateMutability":"view","type":"function"},{"inputs":[{"internalType":"uint256","name":"_contentId","type":"uint256"}],"name":"getContentDetails","outputs":[{"internalType":"string","name":"title","type":"string"},{"internalType":"string","name":"description","type":"string"},{"internalType":"enum IEducationalMarketplace.ContentCategory","name":"category","type":"uint8"},{"internalType":"bytes32","name":"contentHash","type":"bytes32"},{"internalType":"uint256","name":"price","type":"uint256"},{"internalType":"uint256","name":"royaltyPercent","type":"uint256"},{"internalType":"enum IEducationalMarketplace.ContentStatus","name":"status","type":"uint8"},{"internalType":"address","name":"creator","type":"address"},{"internalType":"address","name":"currentOwner","type":"address"},{"internalType":"uint32","name":"totalSales","type":"uint32"},{"internalType":"uint256","name":"createdAt","type":"uint256"}],"stateMutability":"view","type":"function"},{"inputs":[{"internalType":"uint256","name":"_contentId","type":"uint256"}],"name":"getContentHash","outputs":[{"internalType":"bytes32","name":"","type":"bytes32"}],"stateMutability":"view","type":"function"},{"inputs":[{"internalType":"uint256","name":"_contentId","type":"uint256"}],"name":"getContentStats","outputs":[{"internalType":"uint32","name":"totalSales","type":"uint32"},{"internalType":"uint32","name":"totalViews","type":"uint32"},{"internalType":"uint256","name":"totalEarnings","type":"uint256"},{"internalType":"uint256","name":"createdAt","type":"uint256"},{"internalType":"enum IEducationalMarketplace.ContentStatus","name":"status","type":"uint8"},{"internalType":"address","name":"creator","type":"address"}],"stateMutability":"view","type":"function"},{"inputs":[{"internalType":"address","name":"_creator","type":"address"}],"name":"getCreatorContent","outputs":[{"internalType":"uint256[]","name":"","type":"uint256[]"}],"stateMutability":"view","type":"function"},{"inputs":[{"internalType":"address","name":"_creator","type":"address"}],"name":"getCreatorMetrics","outputs":[{"internalType":"uint256","name":"totalContentCreated","type":"uint256"},{"internalType":"uint256","name":"totalSalesCount","type":"uint256"},{"internalType":"uint256","name":"totalEarningsAmount","type":"uint256"},{"internalType":"uint256","name":"averageContentPrice","type":"uint256"},{"internalType":"uint256","name":"todayUploads","type":"uint256"}],"stateMutability":"view","type":"function"},{"inputs":[{"internalType":"address","name":"_creator","type":"address"}],"name":"getCreatorStats","outputs":[{"internalType":"uint256","name":"totalContent","type":"uint256"},{"internalType":"uint256","name":"totalSales","type":"uint256"},{"internalType":"uint256","name":"totalEarnings","type":"uint256"},{"internalType":"uint256","name":"averageRating","type":"uint256"},{"internalType":"uint256","name":"lastContentBlock","type":"uint256"}],"stateMutability":"view","type":"function"},{"inputs":[{"internalType":"address","name":"_user","type":"address"}],"name":"getDailyUploadStatus","outputs":[{"internalType":"uint256","name":"todayUploads","type":"uint256"},{"internalType":"uint256","name":"remainingUploads","type":"uint256"}],"stateMutability":"view","type":"function"},{"inputs":[],"name":"getMarketplaceStats","outputs":[{"internalType":"uint256","name":"totalContent","type":"uint256"},{"internalType":"uint256","name":"activeContent","type":"uint256"},{"internalType":"uint256","name":"totalSalesCount","type":"uint256"},{"internalType":"uint256","name":"totalRevenueAmount","type":"uint256"},{"internalType":"uint256","name":"currentBlock","type":"uint256"}],"stateMutability":"view","type":"function"},{"inputs":[{"internalType":"bytes32","name":"_purchaseHash","type":"bytes32"}],"name":"getPurchaseByHash","outputs":[{"internalType":"address","name":"buyer","type":"address"},{"internalType":"uint256","name":"contentId","type":"uint256"},{"internalType":"uint256","name":"blockNumber","type":"uint256"},{"internalType":"uint256","name":"pricePaid","type":"uint256"},{"internalType":"bool","name":"found","type":"bool"}],"stateMutability":"view","type":"function"},{"inputs":[{"internalType":"uint256","name":"_offset","type":"uint256"},{"internalType":"uint256","name":"_limit","type":"uint256"}],"name":"getRecentPurchases","outputs":[{"components":[{"internalType":"address","name":"buyer","type":"address"},{"internalType":"uint256","name":"contentId","type":"uint256"},{"internalType":"uint256","name":"blockNumber","type":"uint256"},{"internalType":"uint256","name":"pricePaid","type":"uint256"},{"internalType":"uint256","name":"royaltyPaid","type":"uint256"},{"internalType":"uint256","name":"platformFeePaid","type":"uint256"},{"internalType":"bytes32","name":"purchaseHash","type":"bytes32"}],"internalType":"struct IEducationalMarketplace.Purchase[]","name":"recentPurchases","type":"tuple[]"}],"stateMutability":"view","type":"function"},{"inputs":[{"internalType":"bytes32","name":"role","type":"bytes32"}],"name":"getRoleAdmin","outputs":[{"internalType":"bytes32","name":"","type":"bytes32"}],"stateMutability":"view","type":"function"},{"inputs":[],"name":"getSecurityStatus","outputs":[{"internalType":"bool","name":"emergencyActive","type":"bool"},{"internalType":"uint256","name":"platformBalance","type":"uint256"},{"internalType":"uint256","name":"totalActiveContentCount","type":"uint256"},{"internalType":"uint256","name":"currentBlock","type":"uint256"}],"stateMutability":"view","type":"function"},{"inputs":[{"internalType":"uint256","name":"_limit","type":"uint256"}],"name":"getTrendingContentIds","outputs":[{"internalType":"uint256[]","name":"contentIds","type":"uint256[]"}],"stateMutability":"view","type":"function"},{"inputs":[{"internalType":"address","name":"_user","type":"address"}],"name":"getUserCooldown","outputs":[{"internalType":"uint256","name":"blocksRemaining","type":"uint256"},{"internalType":"bool","name":"canCreate","type":"bool"}],"stateMutability":"view","type":"function"},{"inputs":[{"internalType":"address","name":"_user","type":"address"}],"name":"getUserPurchaseHistory","outputs":[{"internalType":"uint256[]","name":"contentIds","type":"uint256[]"}],"stateMutability":"view","type":"function"},{"inputs":[{"internalType":"bytes32","name":"role","type":"bytes32"},{"internalType":"address","name":"account","type":"address"}],"name":"grantRole","outputs":[],"stateMutability":"nonpayable","type":"function"},{"inputs":[{"internalType":"address","name":"_user","type":"address"},{"internalType":"uint256","name":"_contentId","type":"uint256"}],"name":"hasPurchased","outputs":[{"internalType":"bool","name":"","type":"bool"}],"stateMutability":"view","type":"function"},{"inputs":[{"internalType":"bytes32","name":"role","type":"bytes32"},{"internalType":"address","name":"account","type":"address"}],"name":"hasRole","outputs":[{"internalType":"bool","name":"","type":"bool"}],"stateMutability":"view","type":"function"},{"inputs":[],"name":"maxCollaborators","outputs":[{"internalType":"uint256","name":"","type":"uint256"}],"stateMutability":"view","type":"function"},{"inputs":[],"name":"maxContentPrice","outputs":[{"internalType":"uint256","name":"","type":"uint256"}],"stateMutability":"view","type":"function"},{"inputs":[],"name":"maxDescriptionLength","outputs":[{"internalType":"uint256","name":"","type":"uint256"}],"stateMutability":"view","type":"function"},{"inputs":[],"name":"maxRoyaltyPercent","outputs":[{"internalType":"uint256","name":"","type":"uint256"}],"stateMutability":"view","type":"function"},{"inputs":[],"name":"minContentPrice","outputs":[{"internalType":"uint256","name":"","type":"uint256"}],"stateMutability":"view","type":"function"},{"inputs":[],"name":"minDescriptionLength","outputs":[{"internalType":"uint256","name":"","type":"uint256"}],"stateMutability":"view","type":"function"},{"inputs":[{"internalType":"uint256","name":"_contentId","type":"uint256"},{"internalType":"enum IEducationalMarketplace.ContentStatus","name":"_newStatus","type":"uint8"}],"name":"moderateContent","outputs":[],"stateMutability":"nonpayable","type":"function"},{"inputs":[],"name":"nextContentId","outputs":[{"internalType":"uint256","name":"","type":"uint256"}],"stateMutability":"view","type":"function"},{"inputs":[],"name":"owner","outputs":[{"internalType":"address","name":"","type":"address"}],"stateMutability":"view","type":"function"},{"inputs":[],"name":"pause","outputs":[],"stateMutability":"nonpayable","type":"function"},{"inputs":[],"name":"paused","outputs":[{"internalType":"bool","name":"","type":"bool"}],"stateMutability":"view","type":"function"},{"inputs":[],"name":"platformFeePercent","outputs":[{"internalType":"uint256","name":"","type":"uint256"}],"stateMutability":"view","type":"function"},{"inputs":[{"internalType":"uint256","name":"_contentId","type":"uint256"}],"name":"purchaseContent","outputs":[],"stateMutability":"payable","type":"function"},{"inputs":[{"internalType":"uint256","name":"","type":"uint256"}],"name":"purchases","outputs":[{"internalType":"address","name":"buyer","type":"address"},{"internalType":"uint256","name":"contentId","type":"uint256"},{"internalType":"uint256","name":"blockNumber","type":"uint256"},{"internalType":"uint256","name":"pricePaid","type":"uint256"},{"internalType":"uint256","name":"royaltyPaid","type":"uint256"},{"internalType":"uint256","name":"platformFeePaid","type":"uint256"},{"internalType":"bytes32","name":"purchaseHash","type":"bytes32"}],"stateMutability":"view","type":"function"},{"inputs":[],"name":"renounceOwnership","outputs":[],"stateMutability":"nonpayable","type":"function"},{"inputs":[{"internalType":"bytes32","name":"role","type":"bytes32"},{"internalType":"address","name":"callerConfirmation","type":"address"}],"name":"renounceRole","outputs":[],"stateMutability":"nonpayable","type":"function"},{"inputs":[],"name":"resetEmergencyState","outputs":[],"stateMutability":"nonpayable","type":"function"},{"inputs":[{"internalType":"bytes32","name":"role","type":"bytes32"},{"internalType":"address","name":"account","type":"address"}],"name":"revokeRole","outputs":[],"stateMutability":"nonpayable","type":"function"},{"inputs":[{"internalType":"bytes4","name":"interfaceId","type":"bytes4"}],"name":"supportsInterface","outputs":[{"internalType":"bool","name":"","type":"bool"}],"stateMutability":"view","type":"function"},{"inputs":[{"internalType":"uint256","name":"_contentId","type":"uint256"}],"name":"toggleContentStatus","outputs":[],"stateMutability":"nonpayable","type":"function"},{"inputs":[],"name":"totalActiveContent","outputs":[{"internalType":"uint256","name":"","type":"uint256"}],"stateMutability":"view","type":"function"},{"inputs":[],"name":"totalRevenue","outputs":[{"internalType":"uint256","name":"","type":"uint256"}],"stateMutability":"view","type":"function"},{"inputs":[],"name":"totalSales","outputs":[{"internalType":"uint256","name":"","type":"uint256"}],"stateMutability":"view","type":"function"},{"inputs":[{"internalType":"address","name":"newOwner","type":"address"}],"name":"transferOwnership","outputs":[],"stateMutability":"nonpayable","type":"function"},{"inputs":[],"name":"unpause","outputs":[],"stateMutability":"nonpayable","type":"function"},{"inputs":[{"internalType":"uint256","name":"_contentId","type":"uint256"},{"internalType":"uint256","name":"_newPrice","type":"uint256"}],"name":"updateContentPrice","outputs":[],"stateMutability":"nonpayable","type":"function"},{"inputs":[{"internalType":"uint256","name":"_platformFeePercent","type":"uint256"},{"internalType":"uint256","name":"_defaultRoyaltyPercent","type":"uint256"},{"internalType":"uint256","name":"_maxRoyaltyPercent","type":"uint256"},{"internalType":"uint256","name":"_creationCooldownBlocks","type":"uint256"}],"name":"updatePlatformParameters","outputs":[],"stateMutability":"nonpayable","type":"function"},{"inputs":[{"internalType":"uint256","name":"_minContentPrice","type":"uint256"},{"internalType":"uint256","name":"_maxContentPrice","type":"uint256"},{"internalType":"uint256","name":"_dailyUploadLimit","type":"uint256"},{"internalType":"uint256","name":"_maxCollaborators","type":"uint256"}],"name":"updateSecurityParameters","outputs":[],"stateMutability":"nonpayable","type":"function"},{"inputs":[{"internalType":"address","name":"","type":"address"},{"internalType":"uint256","name":"","type":"uint256"}],"name":"userPurchaseHistory","outputs":[{"internalType":"uint256","name":"","type":"uint256"}],"stateMutability":"view","type":"function"},{"inputs":[{"internalType":"address","name":"","type":"address"},{"internalType":"uint256","name":"","type":"uint256"}],"name":"userPurchases","outputs":[{"internalType":"bool","name":"","type":"bool"}],"stateMutability":"view","type":"function"},{"inputs":[{"internalType":"uint256","name":"_contentId","type":"uint256"},{"internalType":"bytes32","name":"_expectedHash","type":"bytes32"}],"name":"verifyContentIntegrity","outputs":[{"internalType":"bool","name":"isValid","type":"bool"}],"stateMutability":"view","type":"function"},{"inputs":[{"internalType":"address","name":"_user","type":"address"}],"name":"whitelistUser","outputs":[],"stateMutability":"nonpayable","type":"function"},{"inputs":[{"internalType":"uint256","name":"_amount","type":"uint256"}],"name":"withdraw","outputs":[],"stateMutability":"nonpayable","type":"function"},{"stateMutability":"payable","type":"receive"}],"evm":{"bytecode":{"linkReferences":{},"object":"6080346200014057601f6200507f38819003918201601f19168301916001600160401b0383118484101762000145578084926020946040528339810103126200014057516001600160a01b0390818116808203620001405760fa600c556103e880600d55611388600e5566038d7ea4c68000600f55678ac7230489e80000601055600a6011556032601255601355600a601455600a60155560ff196017541660175580156200012757601a80546001600160a01b0319811683179091556200011693167f8be0079c531659141344cd1fd0a4f28419497f9722a3daafe3b4186f6b6457e0600080a36001601b55620000f7816200015b565b506200010381620001dc565b506200010f816200027f565b506200031d565b50604051614ca39081620003bc8239f35b604051631e4fbdf760e01b815260006004820152602490fd5b600080fd5b634e487b7160e01b600052604160045260246000fd5b6001600160a01b031660008181527f0a51588b1664495f089dd83d2d26f247920f94a57a4a09f20cf068efc8f82bd4602052604081205490919060ff16620001d857818052601d6020526040822081835260205260408220600160ff1982541617905533916000805160206200505f8339815191528180a4600190565b5090565b6001600160a01b031660008181527f86bcecf9fd371e3b84a9388a547ab20d0a0e23adeded334f74b30c23a98a8d6c60205260408120549091907f71f3d55856e4058ed06ee057d79ada615f65cdf5f9ee88181b914225088f834f9060ff166200027a57808352601d6020526040832082845260205260408320600160ff198254161790556000805160206200505f833981519152339380a4600190565b505090565b6001600160a01b031660008181527f9f9b7692ea0734315fe23237d4e81500af36dfaeae844d545a4d6c75976544c660205260408120549091907f39db794a90dad1f6f1eb43938a38164ffcb808bce7e11fb138c898d32d58d6d79060ff166200027a57808352601d6020526040832082845260205260408320600160ff198254161790556000805160206200505f833981519152339380a4600190565b6001600160a01b031660008181527f049d714867a6a305fda778c732ea4560662689356ab93546242022a3584fa53060205260408120549091907fbf233dd2aafeb4d50879c4aa5c81e96d92f6e6945c906a58f9f2d1c1631b4b269060ff166200027a57808352601d6020526040832082845260205260408320600160ff198254161790556000805160206200505f833981519152339380a460019056fe6080806040526004361015610088575b50361561005a57346100555760405162461bcd60e51b8152602060048201526012602482015271119d5b98dd1a5bdb881b9bdd08199bdd5b9960721b6044820152606490fd5b600080fd5b6040513481527fb9db6cd07d4c34464bb104380303bddd2410e6c5436f03672a9f1e288380c6c760203392a2005b60003560e01c908163011c675614613f8c5750806301ffc9a714613f365780630a248d7f14613f185780630e73afdf14613dfd5780630eea65f814613ddf5780631192313214610a185780631725ae7d1461371257806318d1c9ee146136f457806320df4359146136cb57806321924e5d1461362157806322c0aec7146135e2578063248a9ca3146135b357806328f2ac2814612eae5780632c55725814612e905780632cd3bea614612d515780632e1a7d4d14612c995780632ef9a16014612c7d5780632f2ff15d14612c3e5780632fb6e41d14612aad57806331b6c572146128f357806335c38d1e1461286857806336568abe1461282157806337803e39146126e257806338472598146126475780633b13d732146126295780633f4ba83a146125bf5780633f8bf086146125a1578063452517c7146125835780634a4c560d146124db5780634e42f6ae146124bd5780635048b1c114612476578063542ddce81461211557806359941d42146120f75780635b8815a414611f5e5780635c975abb14611f3b5780635dc1043114611f2457806362581c7714611de357806363a599a414611dc0578063643808a814611d515780636605ff6614611d3357806366a8df0e14611b7d5780636a480eb814611b335780636bb987fe14611b16578063708b71eb1461180a578063715018a6146117bf57806373efc9f2146117875780637556f41b14611720578063786cebe914611648578063797669c91461161f5780637d08e16d1461148d578063812d966a1461145e5780638392fe31146113e25780638456cb59146113885780638596d748146112f457806387a38dbe146111ff57806389de5400146111c45780638c639a85146111a65780638da5cb5b1461117d5780638f94bc681461113557806391d14854146110e8578063933166e114610c71578063969ee14d14610f6b578063985957ab14610ea45780639dc3960b14610ccc5780639f82d47214610c71578063a217fddf14610c55578063a61a9d0314610c37578063a8e380f114610c06578063abc1b50e14610bac578063bef14aab14610aa1578063bf2d9e0b14610a83578063c520571c14610a65578063cf2c033414610a18578063cfdbf254146109fc578063d547741f146109bb578063dcacf7b51461086b578063e1f1c4a71461084e578063eed3e097146107f6578063f2fde38b14610780578063f32beaa614610755578063f595b55f14610600578063f7f29f0c146105e4578063fad504ff146105b35763ffbdc8cb14610431573861000f565b34610055576020806003193601126100555760043560085481101561059b5780600052600082526040600020906040519161046b83614098565b8054835261047b6001820161410d565b8484015261048b6002820161410d565b60408401526104a460ff60038301541660608501614435565b60048101549260808101938452600582015460a0820152600682015460c08201526007820154926104db60ff851660e08401614441565b60018060a01b03918261010082019560081c1685526101a0600b846008870154169561012084019687526009810154610140850152600a81015463ffffffff908181166101608701528b1c1661018085015201549101523360005260028652604060002090600052855260ff6040600020541615928361058d575b508261057e575b505061056c5751604051908152f35b604051631a27eac360e11b8152600490fd5b9051163314159050388061055d565b518116331415925038610556565b60249060405190631c1269f360e21b82526004820152fd5b346100555760203660031901126100555760406105d66105d1613ffe565b614808565b825191825215156020820152f35b3461005557600036600319011261005557602060405160058152f35b346100555760203660031901126100555760043560085481101561059b576000526000602052604060002060405161063781614098565b815481526106476001830161410d565b60208201526106586002830161410d565b604082015261067160ff60038401541660608301614435565b60048201546080820152600582015460a0820152600682015460c082015260078201549160e08201926106a760ff821685614441565b6101a060018060a01b03948561010086019360081c1683528560088501541661012086015260098401549081610140870152600a85015495600b63ffffffff808916988961016085015260201c169687610180840152015493849101525191600383101561073f5760c096610738945116946040519687526020870152604086015260608501526080840190614207565b60a0820152f35b634e487b7160e01b600052602160045260246000fd5b346100555760403660031901126100555760206107766024356004356147e2565b6040519015158152f35b3461005557602036600319011261005557610799613ffe565b6107a1614b4d565b6001600160a01b039081169081156107dd57601a80546001600160a01b03198116841790915516600080516020614c2e833981519152600080a3005b604051631e4fbdf760e01b815260006004820152602490fd5b346100555760403660031901126100555761080f613ffe565b6001600160a01b031660009081526006602052604090208054602435919082101561005557602091610840916142fd565b90546040519160031b1c8152f35b346100555760003660031901126100555760206040516127108152f35b34610055576040366003190112610055576004356024356003811015908161005557610895614953565b6008548310156109a25782600052600060205260076040600020019060ff82541692600384101561073f5783158080610995575b156109655750506108eb81610902936108e360095461468f565b60095561469c565b6108f86040518094614207565b6020830190614207565b81600080516020614c4e83398151915260403393a3604080517f3a26d1fb758531ff7b353755dead133d15e5f0d05dd872ef34695c74cac7d5f381524360208201526001600160a01b03909216913391600080516020614bee83398151915291a3005b159081610987575b5081610902936108eb921561469c576108e36009546143d5565b905061073f5780158161096d565b50600091508215156108c9565b604051631c1269f360e21b815260048101849052602490fd5b34610055576040366003190112610055576109fa6004356109da614014565b9080600052601d6020526109f560016040600020015461499d565b614ad6565b005b3461005557600036600319011261005557602060405160148152f35b34610055576040366003190112610055576001600160a01b03610a39613ffe565b1660005260026020526040600020602435600052602052602060ff604060002054166040519015158152f35b34610055576000366003190112610055576020601154604051908152f35b34610055576000366003190112610055576020600b54604051908152f35b3461005557610aaf366142b7565b610ab8816143a3565b91600092600090600093600854945b85811080610ba3575b15610b4a5780600052600060205260ff60076040600020015416600381101561073f5715610b07575b610b02906143d5565b610ac7565b9284811015610b25575b610b1d610b02916143d5565b939050610af9565b95610b1d610b418286610b3b610b0295886143e4565b526143d5565b97915050610b11565b828785610b56826143a3565b9160005b818110610b8457610b7a848460405192839260408452604084019061402a565b9060208301520390f35b80610b91600192876143e4565b51610b9c82876143e4565b5201610b5a565b50818710610ad0565b3461005557610bba366142b7565b9060005260046020526040600020805482101561005557606091610bdd91614363565b5060018060a01b0381541690600260018201549101549060405192835260208301526040820152f35b34610055576020366003190112610055576040610c29610c24613ffe565b6146b4565b825191151582526020820152f35b34610055576000366003190112610055576020600954604051908152f35b3461005557600036600319011261005557602060405160008152f35b34610055576020366003190112610055576001600160a01b03610c92613ffe565b16600052600160205260406000208054610cc8600183015492600281015490600460038201549101549160405195869586614293565b0390f35b346100555760203660031901126100555760043560085481101561059b5760005260006020526040600020600b60405191610d0683614098565b80548352610d166001820161410d565b6020840152610d276002820161410d565b6040840152610d4060ff60038301541660608501614435565b60048101546080840152600581015460a0840152600681015460c08401526007810154610d7360ff821660e08601614441565b6001600160a01b03600891821c811661010086015290820154166101208401526009810154610140840152600a81015463ffffffff808216610160860152602091821c166101808501529101546101a083015281015160408201516060830151909291600782101561073f5760808301519260a08101519360c08201519460e083015195600387101561073f57610e5796610e899160018060a01b03610100870151169360018060a01b036101208801511695610e70610e6561014063ffffffff6101608c0151169a01519a6040519e8f9e8f9261016084526101608401906141d5565b9160208184039101526141d5565b9a60408d01906141fa565b60608b015260808a015260a089015260c0880190614207565b60e08601526101008501526101208401526101408301520390f35b34610055576000366003190112610055573360009081527f049d714867a6a305fda778c732ea4560662689356ab93546242022a3584fa5306020526040902054600080516020614bae8339815191529060ff1615610f4d57600160ff19601754161760175560006040517f2b360512be00a461d38b01f2225a8a63b3f66a627fc69e02c0205598890af54d8152436020820152600080516020614bee83398151915260403392a3005b6044906040519063e2517d3f60e01b82523360048301526024820152fd5b3461005557602080600319360112610055576001600160a01b03610f8d613ffe565b169081600052600190818152604060002092600591600581526040600020604051808284829454938481520190600052846000209260005b89878383106110d35750505050610fde925003826140ea565b846000946000926000925b61105d575b5050811590508061104e5761103857610cc89304915b6000526016815260406000209061168043046000525260406000205490600285549486015495015460405195869586614293565b634e487b7160e01b600052601260045260246000fd5b5050610cc89250600091611004565b80518310156110ce5761107083826143e4565b5192836000526000865260ff6007604060002001541693600385101561073f578994156110a1575b50830192610fe9565b6110c1859296996110c79260005260008952856040600020015490614460565b986143d5565b9490611098565b610fee565b86548552958101958795509093019201610fc5565b3461005557604036600319011261005557611101614014565b600435600052601d60205260406000209060018060a01b0316600052602052602060ff604060002054166040519015158152f35b34610055576040366003190112610055576001600160a01b03611156613ffe565b16600052601660205260406000206024356000526020526020604060002054604051908152f35b3461005557600036600319011261005557601a546040516001600160a01b039091168152602090f35b34610055576000366003190112610055576020600c54604051908152f35b346100555760003660031901126100555760206040517f39db794a90dad1f6f1eb43938a38164ffcb808bce7e11fb138c898d32d58d6d78152f35b346100555761120d366142b7565b9060085481101561059b5780600052600060205260ff60076040600020015416600381101561073f576112dc5760008181526020819052604090206007015460081c6001600160a01b0316330361056c57600f54821080156112d1575b6112b857806000526000602052600560406000200191808354935560405192835260208301527fc1ec60939f904e35a8ed42256ffa5b2970debdefe361153dee8cabf3a258694360403393a3005b604051637cb1974360e11b815260048101839052602490fd5b50601054821161126a565b60249060405190633278696760e21b82526004820152fd5b346100555760403660031901126100555761130d613ffe565b60243590611319614953565b60018060a01b0316908160005260036020526040600020600160ff19825416179055817ff3180b5fa328e1ec92ac05766351de4a83f72e55569a638fe62a6d225dcd50446020604051848152a2604051908152436020820152600080516020614bee83398151915260403392a3005b34610055576000366003190112610055576113a1614b4d565b6113a9614874565b600160ff19601c541617601c557f62e78cea01bee320cd4e420270b5ea74000d11b0c9f74754ebdbfc544b05a2586020604051338152a1005b34610055576020366003190112610055576004356007548110156100555761140b60e09161432b565b5060018060a01b0381541690600181015490600281015460038201546004830154916006600585015494015494604051968752602087015260408601526060850152608084015260a083015260c0820152f35b3461005557600036600319011261005557600854600954610cc8600a5492600b54604051948594439386614293565b346100555760208060031936011261005557600435906114ae6009546143a3565b916000906000600854905b8181106115da57505060005b82811061152857508181111561152157505b6114e0816143a3565b9260005b82811061150257505050610cc860405192828493845283019061402a565b8061150f600192846143e4565b5161151a82886143e4565b52016114e4565b90506114d7565b60018082018083116115c4575b8481106115465750506001016114c5565b819061155284896143e4565b516000526000875263ffffffff600a908082604060002001541691611577848c6143e4565b5160005260008a52604060002001541611611593575b01611535565b61159d84896143e4565b516115a8828a6143e4565b516115b3868b6143e4565b526115be828a6143e4565b5261158d565b634e487b7160e01b600052601160045260246000fd5b806000526000855260ff60076040600020015416600381101561073f5715611605575b6001016114b9565b926116178185610b3b6001948a6143e4565b9390506115fd565b34610055576000366003190112610055576020604051600080516020614c0e8339815191528152f35b346100555760203660031901126100555760043560008181526020819052604090206007015460081c6001600160a01b0316330361056c5780600052600060205260076040600020019081549160ff831692600384101561073f576116e29160ff91856116f85750600182198254161781556116c560095461468f565b6009555b54166116d86040518095614207565b6020840190614207565b600080516020614c4e83398151915260403393a3005b60018614611707575b506116c9565b82191681556117176009546143d5565b60095585611701565b3461005557600036600319011261005557611739614919565b60ff196017541660175560006040517fa448aa3f2acc158c0ababf575e87e74d1cfa11f3d84ad26d32ee02e7bbcc8d708152436020820152600080516020614bee83398151915260403392a3005b3461005557600036600319011261005557608060ff601754164760095490604051921515835260208301526040820152436060820152f35b34610055576000366003190112610055576117d8614b4d565b601a80546001600160a01b031981169091556000906001600160a01b0316600080516020614c2e8339815191528280a3005b3461005557602080600319360112610055576004356001600160401b0381116100555761183b9036906004016142cd565b611847819392936143a3565b91611851826143a3565b9161185b8161438c565b61186860405191826140ea565b8181526118748261438c565b81840196601f199591860136893761188b8461438c565b9361189960405195866140ea565b8085526118a58161438c565b85870197013688376000600891600854915b81811061197a576118e08b8b8b8f8c8c836118ed8e604051998a9960808b5260808b019061425f565b90898203848b015261402a565b918783036040890152519182815201929060005b81811061195457505050848203606086015251808252908201929160005b82811061192e57505050500390f35b9193839550908082611944600194839751614207565b019501910191859493919261191f565b91959650919284808261196a6001948a516141fa565b0196019101918796959392611901565b998a61198a829d9b9c848861467f565b358481106119a2575b5060019150019a99989a6118b7565b60005260008a5289856040600020604051906119bd82614098565b80548252846119ce6001830161410d565b838601908152966119e16002840161410d565b604085015260ff95600398878a86015416956060810196611a029088614435565b6004860154608082015260058601549560a08201968752600681015460c0830152600798898201549060e084019b8216611a3c908d614441565b6001600160a01b0391811c8216610100850152820154166101208301526009810154610140830152600a81015463ffffffff80821661016085015290851c16610180830152600b01546101a090910152516040518151818401939192839190611aaa908290879086016141b2565b81010380835201611abb90826140ea565b51902091611ac8916143e4565b5251611ad4858c6143e4565b52519081101561073f57611af190611aec848c6143e4565b614435565b519182101561073f57611b0f600192611b0a838c6143e4565b614441565b8c91611993565b346100555760003660031901126100555760206040516116808152f35b3461005557604036600319011261005557611b4c613ffe565b6001600160a01b031660009081526005602052604090208054602435919082101561005557602091610840916142fd565b34610055576040366003190112610055576004356001600160401b03811161005557611bad9036906004016142cd565b90602491602435926003916003851015908161005557611bcb614953565b60148111611cfc5760005b818110611bdf57005b611bea81838861467f565b356008548110611bfe575b50600101611bd6565b806000526020906000825260076040600020019160ff8354169288841015611cbe578a908785158080611cd3575b15611c8357505091611c54611c69926001979695946009611c4d815461468f565b905561469c565b611c616040518095614207565b83018b614207565b600080516020614c4e83398151915260403393a390611bf5565b159081611cac575b50611c699260019796959492611c54921561469c576009611c4d81546143d5565b91925050611cbe578a90811588611c8b565b87634e487b7160e01b60005260216004526000fd5b50919250611ce75790878c92831515611c2c565b88634e487b7160e01b60005260216004526000fd5b60405162461bcd60e51b815260206004820152600f60248201526e426174636820746f6f206c6172676560881b6044820152606490fd5b34610055576000366003190112610055576020600a54604051908152f35b34610055576020366003190112610055576001600160a01b03611d72613ffe565b16600052601660205260406000206116804304600052602052604080600020546014548181811015600014611db257505060005b82519182526020820152f35b611dbb9161437f565b611da6565b3461005557600036600319011261005557602060ff601754166040519015158152f35b34610055576060366003190112610055576007600435101561005557611e0a6044356143a3565b600854600080805b83811080611f19575b15611eca5780600052600060205260ff60076040600020015416600381101561073f571580611e97575b611e58575b611e53906143d5565b611e12565b90602435811015611e78575b611e70611e53916143d5565b919050611e4a565b91611e70611e8e8284610b3b611e53958a6143e4565b93915050611e64565b5080600052600060205260ff600360406000200154166007600435101561073f57600781101561073f5760043514611e45565b848383611ed6826143a3565b9160005b818110611efa57610b7a848460405192839260408452604084019061402a565b80611f07600192876143e4565b51611f1282876143e4565b5201611eda565b506044358310611e1b565b60003660031901126100555761005a3415156143f8565b3461005557600036600319011261005557602060ff601c54166040519015158152f35b3461005557611f6c36614241565b92611f78929192614919565b80156120be5780821115612085578215158061207a575b1561203e5783151580612033575b15611ff257600f5560105560145560155560006040517fd28fef99873700106a71d66f0edd4e28c4571423448166c7ad2eec3e40eb09f18152436020820152600080516020614bee83398151915260403392a3005b60405162461bcd60e51b8152602060048201526019602482015278496e76616c6964206d617820636f6c6c61626f7261746f727360381b6044820152606490fd5b506014841115611f9d565b60405162461bcd60e51b8152602060048201526014602482015273125b9d985b1a59081d5c1b1bd859081b1a5b5a5d60621b6044820152606490fd5b506032831115611f8f565b60405162461bcd60e51b8152602060048201526011602482015270496e76616c6964206d617820707269636560781b6044820152606490fd5b60405162461bcd60e51b8152602060048201526011602482015270496e76616c6964206d696e20707269636560781b6044820152606490fd5b34610055576000366003190112610055576020600e54604051908152f35b34610055576080366003190112610055576001600160401b03602435818111610055576121469036906004016142cd565b604492919235828111610055576121619036906004016142cd565b9390926064359081116100555761217c9036906004016142cd565b939091600854600435101561245d57600435600052600060205260ff60076040600020015416600390600381101561073f576124445760043560009081526020819052604090206007015460081c6001600160a01b0316330361056c5786851480159061243a575b612428576015548511612416576004356000526004602052604060002080549060008155816123d9575b505050939291906000946000945b84861061224057612710871161222e57005b604051636d7903a960e11b8152600490fd5b90919293949560018060a01b0361226061225b89898761467f565b614b79565b161580156123c6575b61222e576004356000526004602052604060002061228b61225b89898761467f565b90612297898b8861467f565b356122a38a868a61467f565b3590604051936122b2856140cf565b6001600160a01b03168452602084015260408301528054600160401b8110156123b0576122e491600182018155614363565b92909261239a576001926002604061232c94868060a01b03815116878060a01b03198554161784556020810151878501550151910155612325898b8861467f565b3590614460565b9661233b61225b82898761467f565b612346828b8861467f565b359061235383868a61467f565b356040519283526020830152838060a01b0316907f7c3bcea2cc66defa7d3493a5b9546405b4ecf9860d8ee553352658c2a221fb22604060043592a301949392919061221c565b634e487b7160e01b600052600060045260246000fd5b634e487b7160e01b600052604160045260246000fd5b506123d287898661467f565b3515612269565b816003029160038304036115c4576000526020600020908101905b8181101561220e578060008492556000600182015560006002820155016123f4565b60405163f9232cc560e01b8152600490fd5b604051631688814960e11b8152600490fd5b50858514156121e4565b6024604051633278696760e21b81526004356004820152fd5b6024604051631c1269f360e21b81526004356004820152fd5b346100555760203660031901126100555760a061249460043561460b565b9260409291925194600180881b0316855260208501526040840152606083015215156080820152f35b34610055576000366003190112610055576020600d54604051908152f35b34610055576020366003190112610055576124f4613ffe565b6124fc614953565b6001600160a01b0316600081815260036020526040808220805460ff19169055519082907f7409cb8e690bcd1487fd4fd27dad3fa92388d201ba6f953631d6d6b26299f8499080a27f3fe0ad2aea56a8e2a5f72b5bcda9e0656c92571b92fc3f15daea4319415b0fae8152436020820152600080516020614bee83398151915260403392a3005b34610055576000366003190112610055576020601054604051908152f35b34610055576000366003190112610055576020601254604051908152f35b34610055576000366003190112610055576125d8614b4d565b601c5460ff8116156126175760ff1916601c557f5db9ee0a495bf2e6ff9c91a7834c1ba4fdd244a5e8aa4e537bd38aeae4b073aa6020604051338152a1005b604051638dfc202b60e01b8152600490fd5b34610055576000366003190112610055576020601354604051908152f35b346100555761265e612658366142b7565b906144c6565b6040516020918282018383528151809152836040840192019360005b8281106126875784840385f35b855180516001600160a01b03168552808301518584015260408082015190860152606080820151908601526080808201519086015260a0808201519086015260c090810151908501529481019460e09093019260010161267a565b346100555760203660031901126100555760043560085481101561059b576000526000602052604060002060405161271981614098565b815481526127296001830161410d565b602082015261273a6002830161410d565b604082015261275360ff60038401541660608301614435565b6004820154608082015260058201549060a081019182526101a0600b60068501549460c08401958652600781015461279160ff821660e08701614441565b60018060a01b03809160081c166101008601526008820154166101208501526009810154610140850152600a81015463ffffffff9081811661016087015260201c1661018085015201549101525190610cc86127106127ff816127f6600c548761444d565b0493518561444d565b04926128148461280f858461437f565b61437f565b6040519485948386614293565b346100555760403660031901126100555761283a614014565b336001600160a01b03821603612856576109fa90600435614ad6565b60405163334bd91960e11b8152600490fd5b3461005557602080600319360112610055576001600160a01b0361288a613ffe565b1660005260068152604060002090604051808383829554938481520190600052836000209260005b858282106128dd575050506128c9925003836140ea565b610cc860405192828493845283019061402a565b85548452600195860195889550930192016128b2565b34610055576020806003193601126100555760043560085481101561059b5760005260048152604060002090815461292a8161438c565b9261293860405194856140ea565b8184526000908152828120838086015b848410612a6e578682815161297561295f8261438c565b9161296d60405193846140ea565b80835261438c565b8183019290601f190136843761298b84516143a3565b9061299685516143a3565b9260005b86518110156129ff576001906001600160a01b036129b8828a6143e4565b5151166129c582856143e4565b52836129d1828a6143e4565b5101516129de82876143e4565b5260406129eb828a6143e4565b5101516129f882886143e4565b520161299a565b5092919390936040519485946060860190606087525180915260808601939060005b818110612a4e5750505084830390850152610cc89291612a409161402a565b90838203604085015261425f565b82516001600160a01b031686528897509483019491830191600101612a21565b600191600391604051612a80816140cf565b848060a01b0386541681528486015483820152600286015460408201528152019201920191908490612948565b3461005557612abb36614241565b92612ac7929192614919565b6103e88111612c01576109c48211612bc1576113888311612b8557600184101580612b7a575b15612b4257600c55600d55600e5560115560006040517f0e7498543e1230a1b7e29f8bad7acf7600045f6502fb2ccac22f9635970eba988152436020820152600080516020614bee83398151915260403392a3005b60405162461bcd60e51b815260206004820152601060248201526f24b73b30b634b21031b7b7b63237bbb760811b6044820152606490fd5b506064841115612aed565b60405162461bcd60e51b815260206004820152601460248201527309ac2f040e4def2c2d8e8f240e8dede40d0d2ced60631b6044820152606490fd5b60405162461bcd60e51b8152602060048201526018602482015277088caccc2ead8e840e4def2c2d8e8f240e8dede40d0d2ced60431b6044820152606490fd5b60405162461bcd60e51b81526020600482015260156024820152740a0d8c2e8ccdee4da40cccaca40e8dede40d0d2ced605b1b6044820152606490fd5b34610055576040366003190112610055576109fa600435612c5d614014565b9080600052601d602052612c7860016040600020015461499d565b614a56565b3461005557600036600319011261005557602060405160648152f35b3461005557602036600319011261005557600435612cb5614919565b612cc08115156143f8565b478111612d1557612cd190336149c3565b60006040517f5c2eed7e29b3502a726faf503ac4316b7101f3da813654e8df02c13449e03da88152436020820152600080516020614bee83398151915260403392a3005b60405162461bcd60e51b8152602060048201526014602482015273496e73756666696369656e742062616c616e636560601b6044820152606490fd5b3461005557612d5f36614241565b91612d69836143a3565b60008092600095600854965b87811080612e87575b15612e37578060005260206000815260ff60076040600020015416600381101561073f57159081612e1b575b81612e01575b50612dc4575b612dbf906143d5565b612d75565b9486811015612de2575b612dda612dbf916143d5565b959050612db6565b92612dda612df88288610b3b612dbf958a6143e4565b94915050612dce565b60009150828252528260056040600020015411158a612db0565b9050816000526000815289600560406000200154101590612daa565b50505082612e44826143a3565b9160005b818110612e6857610b7a848460405192839260408452604084019061402a565b80612e75600192876143e4565b51612e8082876143e4565b5201612e48565b50818410612d7e565b34610055576000366003190112610055576020601554604051908152f35b602036600319011261005557612ec2614851565b612eca614874565b600854600435101561245d57600435600052600060205260ff60076040600020015416600381101561073f576124445733600052600360205260ff604060002054166135a15760ff6017541661358f5760043560005260006020526040600020336000526002602052604060002060043560005260205260ff6040600020541661357657600581015480341061355857612710612f69600c548361444d565b04612710612f7b60068501548461444d565b0492612f8b8461280f848661437f565b33600052600260205260406000206004356000526020526040600020600160ff19825416179055336000526006602052612fcb60043560406000206148e4565b600a82015463ffffffff808216146115c45763ffffffff600181831601169063ffffffff191617600a830155600b8201613006858254614460565b9055613013600a546143d5565b600a5561302284600b54614460565b600b5560018060a01b03600783015460081c166000526001602052600160406000200161304f81546143d5565b905561305b8582614460565b60018060a01b03600784015460081c1660005260016020526130866002604060002001918254614460565b90556040513360601b60208201526004356034820152436054820152846074820152446094820152609481528060c081011060018060401b0360c0830111176123b05760c0810160405280516020820120936130e460c083016140b4565b3360c083015260043560e083015243610100830152856101208301528661014083015261016082015283610180820152600754600160401b8110156123b057806001613133920160075561432b565b91909161239a5761018060069160018060a01b0360c08201511660018060a01b031985541617845560e081015160018501556101008101516002850155610120810151600385015561014081015160048501556101608101516005850155015191015560043560005260006020526040600020600b604051916131b583614098565b805483526131c56001820161410d565b60208401526131d66002820161410d565b60408401526131ef60ff60038301541660608501614435565b60048101546080840152600581015460a0840152600681015460c0840152600781015461322260ff821660e08601614441565b6001600160a01b03600891821c811661010086015290820154166101208401526009810154610140840152600a81015463ffffffff808216610160860152602091821c166101808501529101546101a0830152600480356000908152915260409020805461328f8161438c565b9161329d60405193846140ea565b818352602083019060005260206000206000915b83831061351a57505050508051156000146133c1575085613363575b505b80613345575b5082341161332d575b600860018060a01b03910154169260405192835260208301526040820152600435907fcce78cd734134ee2c4e5032fb78537e08d528a411c79dde2b4f76fa7e8f4448160603392a46001601b55005b61334061333a843461437f565b336149c3565b6132de565b600882015461335d91906001600160a01b03166149c3565b846132d5565b61010081015161337d9087906001600160a01b03166149c3565b61010060018060a01b0391015116604051868152600080516020614b8e8339815191526020820152600080516020614bce833981519152604060043592a3856132cd565b9390949195926000966000975b8651891015613486576134166001918a6127106133f960206133f0848e6143e4565b5101518b61444d565b048061341e575b5061340d6020918b6143e4565b51015190614460565b9801976133ce565b61343b818c61343385898060a01b03926143e4565b5151166149c3565b604061345b8c61345185898060a01b03926143e4565b515116938d6143e4565b5101516040519182526020820152600080516020614bce833981519152604060043592a38a8c613400565b9194975092959194506127100361271081116115c4576134a9612710918861444d565b0490816134b8575b50506132cf565b6101008101516134d29083906001600160a01b03166149c3565b610100015160408051928352600080516020614b8e83398151915260208401526001600160a01b039091169160043591600080516020614bce83398151915291a385806134b1565b6003602060019260405161352d816140cf565b848060a01b0386541681528486015483820152600286015460408201528152019201920191906132b1565b6044906040519063b99e2ab760e01b82526004820152346024820152fd5b6024604051634284404160e11b81526004356004820152fd5b604051630eff07c160e21b8152600490fd5b60405163ebb6f34b60e01b8152600490fd5b3461005557602036600319011261005557600435600052601d6020526020600160406000200154604051908152f35b34610055576020366003190112610055576001600160a01b03613603613ffe565b166000526003602052602060ff604060002054166040519015158152f35b346100555760803660031901126100555761363a613ffe565b6001600160401b03906024358281116100555761365b903690600401614214565b906044359384116100555760546136c09161367c6020963690600401614214565b9081866040519788958b87019a60018060601b03199060601b168b5260348701378401916034830160008152370160643560348201520360348101845201826140ea565b519020604051908152f35b34610055576000366003190112610055576020604051600080516020614bae8339815191528152f35b34610055576000366003190112610055576020601454604051908152f35b346100555760c0366003190112610055576004356001600160401b03811161005557613742903690600401614214565b6024356001600160401b03811161005557613761903690600401614214565b9290916007604435101561005557613777614851565b61377f614874565b33600052600360205260ff604060002054166135a15760ff6017541661358f573360005260016020526137ba6004604060002001544361437f565b601154808210613dbe575050600581108015613db4575b6124285760125484108015613da9575b61242857600f54608435108015613d9c575b613d8257600e5460a43511613d68573360005260166020526040600020611680430460005260205260406000205460145480821015613d4a5750506008549261383b846143d5565b60085560a43515613d3e5761387560a435915b6040519661385b88614098565b8688526138693686886148ad565b602089015236916148ad565b604086015261388960443560608701614435565b606435608086015260843560a086015260c0850152600060e08501523361010085015233610120850152436101408501526000610160850152600061018085015260006101a0850152826000526000602052604060002084518155602085015180519060018060401b0382116123b0578190613908600185015461405e565b601f8111613ceb575b50602090601f8311600114613c7957600092613c6e575b50508160011b916000199060031b1c19161760018201555b60408501518051906001600160401b0382116123b0578190613965600285015461405e565b601f8111613c1b575b50602090601f8311600114613ba957600092613b9e575b50508160011b916000199060031b1c19161760028201555b6060850151600781101561073f5760ff801960038401541691161760038201556080850151600482015560a0850151600582015560c0850151600682015560e085015194600386101561073f576101a0600b916139ff6020986007860161469c565b610100810151600785018054610100600160a81b031916600892831b610100600160a81b031617905561012082015190850180546001600160a01b0319166001600160a01b03929092169190911790556101408101516009850155610160810151600a850180546101808401516001600160401b031990911663ffffffff9384161792168a1b919091179055015191015533600090815260018552604090208054613aa9906143d5565b90553360005260018452436004604060002001556018845260406000208360005284526040600020600160ff198254161790553360005260058452613af28360406000206148e4565b613afd6009546143d5565b60095533600052601684526040600020611680430460005284526040600020613b2681546143d5565b9055613b4b8460405183819483830196873781016000838201520380845201826140ea565b5190206040516084358152613b648482016044356141fa565b436040820152827f3fc3fe3e3ec42e4b312d04b369d66fdc3deab34ba669557232ce24f8bc9fd6ef60603393a46001601b55604051908152f35b015190508780613985565b9250600284016000526020600020906000935b601f1984168510613c00576001945083601f19811610613be7575b505050811b01600282015561399d565b015160001960f88460031b161c19169055878080613bd7565b81810151835560209485019460019093019290910190613bbc565b909150600284016000526020600020601f840160051c810160208510613c67575b90849392915b601f830160051c82018110613c5857505061396e565b60008155859450600101613c42565b5080613c3c565b015190508780613928565b9250600184016000526020600020906000935b601f1984168510613cd0576001945083601f19811610613cb7575b505050811b016001820155613940565b015160001960f88460031b161c19169055878080613ca7565b81810151835560209485019460019093019290910190613c8c565b909150600184016000526020600020601f840160051c810160208510613d37575b90849392915b601f830160051c82018110613d28575050613911565b60008155859450600101613d12565b5080613d0c565b613875600d549161384e565b60449250604051916377b326b560e11b835260048301526024820152fd5b6040516377353d4960e01b815260a4356004820152602490fd5b604051637cb1974360e11b81526084356004820152602490fd5b50601054608435116137f3565b5060135484116137e1565b50606481116137d1565b602491613dca9161437f565b6040519063044780df60e51b82526004820152fd5b34610055576000366003190112610055576020600f54604051908152f35b346100555760203660031901126100555760043560005260006020526040600020805460018201613e2d9061410d565b91613e3a6002820161410d565b600382015460ff1691600481015460058201546006830154600784015490600160a01b6001900360088601541692600986015494600a87015496600b0154976040519b8c809c6101c09182918152602001528c01613e97916141d5565b8b810360408d0152613ea8916141d5565b9860608b01613eb6916141fa565b60808a015260a089015260c0880152613ed560e0880160ff8316614207565b60081c6001600160a01b031661010087015261012086015261014085015263ffffffff81811661016086015260209190911c166101808401526101a08301520390f35b34610055576000366003190112610055576020600854604051908152f35b346100555760203660031901126100555760043563ffffffff60e01b811680910361005557602090637965db0b60e01b8114908115613f7b575b506040519015158152f35b6301ffc9a760e01b14905082613f70565b3461005557602080600319360112610055576001600160a01b03613fae613ffe565b166000526005815260406000208281549182825283820190600052836000209260005b85828210613fe8575050506128c9925003836140ea565b8554845260019586019588955093019201613fd1565b600435906001600160a01b038216820361005557565b602435906001600160a01b038216820361005557565b90815180825260208080930193019160005b82811061404a575050505090565b83518552938101939281019260010161403c565b90600182811c9216801561408e575b602083101461407857565b634e487b7160e01b600052602260045260246000fd5b91607f169161406d565b6101c081019081106001600160401b038211176123b057604052565b60e081019081106001600160401b038211176123b057604052565b606081019081106001600160401b038211176123b057604052565b601f909101601f19168101906001600160401b038211908210176123b057604052565b906040519182600082546141208161405e565b908184526020946001916001811690816000146141905750600114614151575b50505061414f925003836140ea565b565b600090815285812095935091905b81831061417857505061414f9350820101388080614140565b8554888401850152948501948794509183019161415f565b9250505061414f94925060ff191682840152151560051b820101388080614140565b60005b8381106141c55750506000910152565b81810151838201526020016141b5565b906020916141ee815180928185528580860191016141b2565b601f01601f1916010190565b90600782101561073f5752565b90600382101561073f5752565b9181601f84011215610055578235916001600160401b038311610055576020838186019501011161005557565b60809060031901126100555760043590602435906044359060643590565b90815180825260208080930193019160005b82811061427f575050505090565b835185529381019392810192600101614271565b9192608093969594919660a084019784526020840152604083015260608201520152565b6040906003190112610055576004359060243590565b9181601f84011215610055578235916001600160401b038311610055576020808501948460051b01011161005557565b80548210156143155760005260206000200190600090565b634e487b7160e01b600052603260045260246000fd5b600754811015614315576007600081815291027fa66cc928b5edb82af9bd49922954155ab7b0942694bea4ce44661d9a8736c6880191565b8054821015614315576000526003602060002091020190600090565b919082039182116115c457565b6001600160401b0381116123b05760051b60200190565b906143ad8261438c565b6143ba60405191826140ea565b82815280926143cb601f199161438c565b0190602036910137565b60001981146115c45760010190565b80518210156143155760209160051b010190565b156143ff57565b60405162461bcd60e51b815260206004820152600e60248201526d125b9d985b1a5908185b5bdd5b9d60921b6044820152606490fd5b600782101561073f5752565b600382101561073f5752565b818102929181159184041417156115c457565b919082018092116115c457565b9060405161447a816140b4565b82546001600160a01b0316815260018301546020820152600283015460408201526003830154606082015260048301546080820152600583015460a082015260069092015460c0830152565b91906007549081158015614601575b6145d9576144e39084614460565b838282116145d1575b6144f59161437f565b6144fe8161438c565b91604061450e60405194856140ea565b828452601f1961451d8461438c565b019060005b82811061458b575050508294600080198301928311905b84811061454857505050505050565b816115c4578061456f61456961456460019461280f888a61437f565b61432b565b5061446d565b61457982896143e4565b5261458481886143e4565b5001614539565b6020908251614599816140b4565b60008152826000818301526000858301526000606083015260006080830152600060a0830152600060c0830152828901015201614522565b8291506144ec565b5050604051909150602081016001600160401b038111828210176123b0576040526000815290565b50818410156144d5565b6007549060005b82811061462d57505050600090600090600090600090600090565b8160066146398361432b565b5001541461464957600101614612565b6146589250614569915061432b565b8051602082015160408301516060909301516001600160a01b039092169390929190600190565b91908110156143155760051b0190565b80156115c4576000190190565b90600381101561073f5760ff80198354169116179055565b60ff601754166147ba576001600160a01b031660008181526003602052604081205490919060ff166147945760016020526146f660046040842001544361437f565b6011541161476e578152601660205260408120611680430482526020526040812054601454111561474957506001907fce5ceceb3b018dc53cd7e23daa9f08f268ec71a6dd745acc69b20cd937af550390565b907f891a3c2aae4b7e19c81c920e84ed0d4cfba7d3f4fd1ea26206fd45e59989ecfa90565b50907f9dc7cae0428a4481c8b454da165b0ac10c9a4e6bb5c5edb9a3a2bf0e0fa36bcf90565b50907f8680108df3f92337e086d074e9b72f70c5f03505474ea9f5c44282227b961ecb90565b506000907f641d89b682f2f02191994ac3c66b0b38941bdc138e6f3f87c53261cc39048d8c90565b6008548110156148015760005260006020526004604060002001541490565b5050600090565b6001600160a01b031660009081526001602052604090206004015461482d904361437f565b60115490818110614842575050600090600190565b61484b9161437f565b90600090565b6002601b5414614862576002601b55565b604051633ee5aeb560e01b8152600490fd5b60ff601c541661488057565b60405163d93c066560e01b8152600490fd5b6001600160401b0381116123b057601f01601f191660200190565b9291926148b982614892565b916148c760405193846140ea565b829481845281830111610055578281602093846000960137010152565b8054600160401b8110156123b057614901916001820181556142fd565b819291549060031b91821b91600019901b1916179055565b3360009081527f0a51588b1664495f089dd83d2d26f247920f94a57a4a09f20cf068efc8f82bd4602052604081205460ff1615610f4d5750565b3360009081527f86bcecf9fd371e3b84a9388a547ab20d0a0e23adeded334f74b30c23a98a8d6c6020526040902054600080516020614c0e8339815191529060ff1615610f4d5750565b80600052601d60205260406000203360005260205260ff6040600020541615610f4d5750565b814710614a3757600080808094819460018060a01b03165af13d15614a2e573d6149ec81614892565b906149fa60405192836140ea565b8152809260203d92013e5b15614a0d5750565b805115614a1c57602081519101fd5b60405163d6bda27560e01b8152600490fd5b60609150614a05565b60405163cf47918160e01b815247600482015260248101839052604490fd5b90600091808352601d602052604083209160018060a01b03169182845260205260ff60408420541615600014614ad157808352601d6020526040832082845260205260408320600160ff198254161790557f2f8788117e7eff1d82e926ec794901d17c78024a50270940304540a733656f0d339380a4600190565b505090565b90600091808352601d602052604083209160018060a01b03169182845260205260ff604084205416600014614ad157808352601d602052604083208284526020526040832060ff1981541690557ff6391f5c32d9c69d2a47ea670b442974b53935d1edc7fd64eb21e047a839171b339380a4600190565b601a546001600160a01b03163303614b6157565b60405163118cdaa760e01b8152336004820152602490fd5b356001600160a01b0381168103610055579056fe5edda73b91bedfc3c4050ba08a79bcdad8ca58bfe7bc1df02a8f520b50502b27bf233dd2aafeb4d50879c4aa5c81e96d92f6e6945c906a58f9f2d1c1631b4b26b032dceb2216a55c82f3918716dbf64ab79ea8d96ab394ef64693a703043eeea962ba59df838f5107e7f98204a6013f9ed4a5175261f178929bf5aa152761bee71f3d55856e4058ed06ee057d79ada615f65cdf5f9ee88181b914225088f834f8be0079c531659141344cd1fd0a4f28419497f9722a3daafe3b4186f6b6457e03dacd7d709cea559c8b444c37c27240031885b9f2fecf3772c91c939fc230d81a2646970667358221220b9576dff011f8dc5f3b9abeeab2f82de3fcde606cbb01fd403e5fa012e8a638364736f6c634300081600332f8788117e7eff1d82e926ec794901d17c78024a50270940304540a733656f0d","opcodes":"PUSH1 0x80 CALLVALUE PUSH3 0x140 JUMPI PUSH1 0x1F PUSH3 0x507F CODESIZE DUP2 SWAP1 SUB SWAP2 DUP3 ADD PUSH1 0x1F NOT AND DUP4 ADD SWAP2 PUSH1 0x1 PUSH1 0x1 PUSH1 0x40 SHL SUB DUP4 GT DUP5 DUP5 LT OR PUSH3 0x145 JUMPI DUP1 DUP5 SWAP3 PUSH1 0x20 SWAP5 PUSH1 0x40 MSTORE DUP4 CODECOPY DUP2 ADD SUB SLT PUSH3 0x140 JUMPI MLOAD PUSH1 0x1 PUSH1 0x1 PUSH1 0xA0 SHL SUB SWAP1 DUP2 DUP2 AND DUP1 DUP3 SUB PUSH3 0x140 JUMPI PUSH1 0xFA PUSH1 0xC SSTORE PUSH2 0x3E8 DUP1 PUSH1 0xD SSTORE PUSH2 0x1388 PUSH1 0xE SSTORE PUSH7 0x38D7EA4C68000 PUSH1 0xF SSTORE PUSH8 0x8AC7230489E80000 PUSH1 0x10 SSTORE PUSH1 0xA PUSH1 0x11 SSTORE PUSH1 0x32 PUSH1 0x12 SSTORE PUSH1 0x13 SSTORE PUSH1 0xA PUSH1 0x14 SSTORE PUSH1 0xA PUSH1 0x15 SSTORE PUSH1 0xFF NOT PUSH1 0x17 SLOAD AND PUSH1 0x17 SSTORE DUP1 ISZERO PUSH3 0x127 JUMPI PUSH1 0x1A DUP1 SLOAD PUSH1 0x1 PUSH1 0x1 PUSH1 0xA0 SHL SUB NOT DUP2 AND DUP4 OR SWAP1 SWAP2 SSTORE PUSH3 0x116 SWAP4 AND PUSH32 0x8BE0079C531659141344CD1FD0A4F28419497F9722A3DAAFE3B4186F6B6457E0 PUSH1 0x0 DUP1 LOG3 PUSH1 0x1 PUSH1 0x1B SSTORE PUSH3 0xF7 DUP2 PUSH3 0x15B JUMP JUMPDEST POP PUSH3 0x103 DUP2 PUSH3 0x1DC JUMP JUMPDEST POP PUSH3 0x10F DUP2 PUSH3 0x27F JUMP JUMPDEST POP PUSH3 0x31D JUMP JUMPDEST POP PUSH1 0x40 MLOAD PUSH2 0x4CA3 SWAP1 DUP2 PUSH3 0x3BC DUP3 CODECOPY RETURN JUMPDEST PUSH1 0x40 MLOAD PUSH4 0x1E4FBDF7 PUSH1 0xE0 SHL DUP2 MSTORE PUSH1 0x0 PUSH1 0x4 DUP3 ADD MSTORE PUSH1 0x24 SWAP1 REVERT JUMPDEST PUSH1 0x0 DUP1 REVERT JUMPDEST PUSH4 0x4E487B71 PUSH1 0xE0 SHL PUSH1 0x0 MSTORE PUSH1 0x41 PUSH1 0x4 MSTORE PUSH1 0x24 PUSH1 0x0 REVERT JUMPDEST PUSH1 0x1 PUSH1 0x1 PUSH1 0xA0 SHL SUB AND PUSH1 0x0 DUP2 DUP2 MSTORE PUSH32 0xA51588B1664495F089DD83D2D26F247920F94A57A4A09F20CF068EFC8F82BD4 PUSH1 0x20 MSTORE PUSH1 0x40 DUP2 KECCAK256 SLOAD SWAP1 SWAP2 SWAP1 PUSH1 0xFF AND PUSH3 0x1D8 JUMPI DUP2 DUP1 MSTORE PUSH1 0x1D PUSH1 0x20 MSTORE PUSH1 0x40 DUP3 KECCAK256 DUP2 DUP4 MSTORE PUSH1 0x20 MSTORE PUSH1 0x40 DUP3 KECCAK256 PUSH1 0x1 PUSH1 0xFF NOT DUP3 SLOAD AND OR SWAP1 SSTORE CALLER SWAP2 PUSH1 0x0 DUP1 MLOAD PUSH1 0x20 PUSH3 0x505F DUP4 CODECOPY DUP2 MLOAD SWAP2 MSTORE DUP2 DUP1 LOG4 PUSH1 0x1 SWAP1 JUMP JUMPDEST POP SWAP1 JUMP JUMPDEST PUSH1 0x1 PUSH1 0x1 PUSH1 0xA0 SHL SUB AND PUSH1 0x0 DUP2 DUP2 MSTORE PUSH32 0x86BCECF9FD371E3B84A9388A547AB20D0A0E23ADEDED334F74B30C23A98A8D6C PUSH1 0x20 MSTORE PUSH1 0x40 DUP2 KECCAK256 SLOAD SWAP1 SWAP2 SWAP1 PUSH32 0x71F3D55856E4058ED06EE057D79ADA615F65CDF5F9EE88181B914225088F834F SWAP1 PUSH1 0xFF AND PUSH3 0x27A JUMPI DUP1 DUP4 MSTORE PUSH1 0x1D PUSH1 0x20 MSTORE PUSH1 0x40 DUP4 KECCAK256 DUP3 DUP5 MSTORE PUSH1 0x20 MSTORE PUSH1 0x40 DUP4 KECCAK256 PUSH1 0x1 PUSH1 0xFF NOT DUP3 SLOAD AND OR SWAP1 SSTORE PUSH1 0x0 DUP1 MLOAD PUSH1 0x20 PUSH3 0x505F DUP4 CODECOPY DUP2 MLOAD SWAP2 MSTORE CALLER SWAP4 DUP1 LOG4 PUSH1 0x1 SWAP1 JUMP JUMPDEST POP POP SWAP1 JUMP JUMPDEST PUSH1 0x1 PUSH1 0x1 PUSH1 0xA0 SHL SUB AND PUSH1 0x0 DUP2 DUP2 MSTORE PUSH32 0x9F9B7692EA0734315FE23237D4E81500AF36DFAEAE844D545A4D6C75976544C6 PUSH1 0x20 MSTORE PUSH1 0x40 DUP2 KECCAK256 SLOAD SWAP1 SWAP2 SWAP1 PUSH32 0x39DB794A90DAD1F6F1EB43938A38164FFCB808BCE7E11FB138C898D32D58D6D7 SWAP1 PUSH1 0xFF AND PUSH3 0x27A JUMPI DUP1 DUP4 MSTORE PUSH1 0x1D PUSH1 0x20 MSTORE PUSH1 0x40 DUP4 KECCAK256 DUP3 DUP5 MSTORE PUSH1 0x20 MSTORE PUSH1 0x40 DUP4 KECCAK256 PUSH1 0x1 PUSH1 0xFF NOT DUP3 SLOAD AND OR SWAP1 SSTORE PUSH1 0x0 DUP1 MLOAD PUSH1 0x20 PUSH3 0x505F DUP4 CODECOPY DUP2 MLOAD SWAP2 MSTORE CALLER SWAP4 DUP1 LOG4 PUSH1 0x1 SWAP1 JUMP JUMPDEST PUSH1 0x1 PUSH1 0x1 PUSH1 0xA0 SHL SUB AND PUSH1 0x0 DUP2 DUP2 MSTORE PUSH32 0x49D714867A6A305FDA778C732EA4560662689356AB93546242022A3584FA530 PUSH1 0x20 MSTORE PUSH1 0x40 DUP2 KECCAK256 SLOAD SWAP1 SWAP2 SWAP1 PUSH32 0xBF233DD2AAFEB4D50879C4AA5C81E96D92F6E6945C906A58F9F2D1C1631B4B26 SWAP1 PUSH1 0xFF AND PUSH3 0x27A JUMPI DUP1 DUP4 MSTORE PUSH1 0x1D PUSH1 0x20 MSTORE PUSH1 0x40 DUP4 KECCAK256 DUP3 DUP5 MSTORE PUSH1 0x20 MSTORE PUSH1 0x40 DUP4 KECCAK256 PUSH1 0x1 PUSH1 0xFF NOT DUP3 SLOAD AND OR SWAP1 SSTORE PUSH1 0x0 DUP1 MLOAD PUSH1 0x20 PUSH3 0x505F DUP4 CODECOPY DUP2 MLOAD SWAP2 MSTORE CALLER SWAP4 DUP1 LOG4 PUSH1 0x1 SWAP1 JUMP INVALID PUSH1 0x80 DUP1 PUSH1 0x40 MSTORE PUSH1 0x4 CALLDATASIZE LT ISZERO PUSH2 0x88 JUMPI JUMPDEST POP CALLDATASIZE ISZERO PUSH2 0x5A JUMPI CALLVALUE PUSH2 0x55 JUMPI PUSH1 0x40 MLOAD PUSH3 0x461BCD PUSH1 0xE5 SHL DUP2 MSTORE PUSH1 0x20 PUSH1 0x4 DUP3 ADD MSTORE PUSH1 0x12 PUSH1 0x24 DUP3 ADD MSTORE PUSH18 0x119D5B98DD1A5BDB881B9BDD08199BDD5B99 PUSH1 0x72 SHL PUSH1 0x44 DUP3 ADD MSTORE PUSH1 0x64 SWAP1 REVERT JUMPDEST PUSH1 0x0 DUP1 REVERT JUMPDEST PUSH1 0x40 MLOAD CALLVALUE DUP2 MSTORE PUSH32 0xB9DB6CD07D4C34464BB104380303BDDD2410E6C5436F03672A9F1E288380C6C7 PUSH1 0x20 CALLER SWAP3 LOG2 STOP JUMPDEST PUSH1 0x0 CALLDATALOAD PUSH1 0xE0 SHR SWAP1 DUP2 PUSH4 0x11C6756 EQ PUSH2 0x3F8C JUMPI POP DUP1 PUSH4 0x1FFC9A7 EQ PUSH2 0x3F36 JUMPI DUP1 PUSH4 0xA248D7F EQ PUSH2 0x3F18 JUMPI DUP1 PUSH4 0xE73AFDF EQ PUSH2 0x3DFD JUMPI DUP1 PUSH4 0xEEA65F8 EQ PUSH2 0x3DDF JUMPI DUP1 PUSH4 0x11923132 EQ PUSH2 0xA18 JUMPI DUP1 PUSH4 0x1725AE7D EQ PUSH2 0x3712 JUMPI DUP1 PUSH4 0x18D1C9EE EQ PUSH2 0x36F4 JUMPI DUP1 PUSH4 0x20DF4359 EQ PUSH2 0x36CB JUMPI DUP1 PUSH4 0x21924E5D EQ PUSH2 0x3621 JUMPI DUP1 PUSH4 0x22C0AEC7 EQ PUSH2 0x35E2 JUMPI DUP1 PUSH4 0x248A9CA3 EQ PUSH2 0x35B3 JUMPI DUP1 PUSH4 0x28F2AC28 EQ PUSH2 0x2EAE JUMPI DUP1 PUSH4 0x2C557258 EQ PUSH2 0x2E90 JUMPI DUP1 PUSH4 0x2CD3BEA6 EQ PUSH2 0x2D51 JUMPI DUP1 PUSH4 0x2E1A7D4D EQ PUSH2 0x2C99 JUMPI DUP1 PUSH4 0x2EF9A160 EQ PUSH2 0x2C7D JUMPI DUP1 PUSH4 0x2F2FF15D EQ PUSH2 0x2C3E JUMPI DUP1 PUSH4 0x2FB6E41D EQ PUSH2 0x2AAD JUMPI DUP1 PUSH4 0x31B6C572 EQ PUSH2 0x28F3 JUMPI DUP1 PUSH4 0x35C38D1E EQ PUSH2 0x2868 JUMPI DUP1 PUSH4 0x36568ABE EQ PUSH2 0x2821 JUMPI DUP1 PUSH4 0x37803E39 EQ PUSH2 0x26E2 JUMPI DUP1 PUSH4 0x38472598 EQ PUSH2 0x2647 JUMPI DUP1 PUSH4 0x3B13D732 EQ PUSH2 0x2629 JUMPI DUP1 PUSH4 0x3F4BA83A EQ PUSH2 0x25BF JUMPI DUP1 PUSH4 0x3F8BF086 EQ PUSH2 0x25A1 JUMPI DUP1 PUSH4 0x452517C7 EQ PUSH2 0x2583 JUMPI DUP1 PUSH4 0x4A4C560D EQ PUSH2 0x24DB JUMPI DUP1 PUSH4 0x4E42F6AE EQ PUSH2 0x24BD JUMPI DUP1 PUSH4 0x5048B1C1 EQ PUSH2 0x2476 JUMPI DUP1 PUSH4 0x542DDCE8 EQ PUSH2 0x2115 JUMPI DUP1 PUSH4 0x59941D42 EQ PUSH2 0x20F7 JUMPI DUP1 PUSH4 0x5B8815A4 EQ PUSH2 0x1F5E JUMPI DUP1 PUSH4 0x5C975ABB EQ PUSH2 0x1F3B JUMPI DUP1 PUSH4 0x5DC10431 EQ PUSH2 0x1F24 JUMPI DUP1 PUSH4 0x62581C77 EQ PUSH2 0x1DE3 JUMPI DUP1 PUSH4 0x63A599A4 EQ PUSH2 0x1DC0 JUMPI DUP1 PUSH4 0x643808A8 EQ PUSH2 0x1D51 JUMPI DUP1 PUSH4 0x6605FF66 EQ PUSH2 0x1D33 JUMPI DUP1 PUSH4 0x66A8DF0E EQ PUSH2 0x1B7D JUMPI DUP1 PUSH4 0x6A480EB8 EQ PUSH2 0x1B33 JUMPI DUP1 PUSH4 0x6BB987FE EQ PUSH2 0x1B16 JUMPI DUP1 PUSH4 0x708B71EB EQ PUSH2 0x180A JUMPI DUP1 PUSH4 0x715018A6 EQ PUSH2 0x17BF JUMPI DUP1 PUSH4 0x73EFC9F2 EQ PUSH2 0x1787 JUMPI DUP1 PUSH4 0x7556F41B EQ PUSH2 0x1720 JUMPI DUP1 PUSH4 0x786CEBE9 EQ PUSH2 0x1648 JUMPI DUP1 PUSH4 0x797669C9 EQ PUSH2 0x161F JUMPI DUP1 PUSH4 0x7D08E16D EQ PUSH2 0x148D JUMPI DUP1 PUSH4 0x812D966A EQ PUSH2 0x145E JUMPI DUP1 PUSH4 0x8392FE31 EQ PUSH2 0x13E2 JUMPI DUP1 PUSH4 0x8456CB59 EQ PUSH2 0x1388 JUMPI DUP1 PUSH4 0x8596D748 EQ PUSH2 0x12F4 JUMPI DUP1 PUSH4 0x87A38DBE EQ PUSH2 0x11FF JUMPI DUP1 PUSH4 0x89DE5400 EQ PUSH2 0x11C4 JUMPI DUP1 PUSH4 0x8C639A85 EQ PUSH2 0x11A6 JUMPI DUP1 PUSH4 0x8DA5CB5B EQ PUSH2 0x117D JUMPI DUP1 PUSH4 0x8F94BC68 EQ PUSH2 0x1135 JUMPI DUP1 PUSH4 0x91D14854 EQ PUSH2 0x10E8 JUMPI DUP1 PUSH4 0x933166E1 EQ PUSH2 0xC71 JUMPI DUP1 PUSH4 0x969EE14D EQ PUSH2 0xF6B JUMPI DUP1 PUSH4 0x985957AB EQ PUSH2 0xEA4 JUMPI DUP1 PUSH4 0x9DC3960B EQ PUSH2 0xCCC JUMPI DUP1 PUSH4 0x9F82D472 EQ PUSH2 0xC71 JUMPI DUP1 PUSH4 0xA217FDDF EQ PUSH2 0xC55 JUMPI DUP1 PUSH4 0xA61A9D03 EQ PUSH2 0xC37 JUMPI DUP1 PUSH4 0xA8E380F1 EQ PUSH2 0xC06 JUMPI DUP1 PUSH4 0xABC1B50E EQ PUSH2 0xBAC JUMPI DUP1 PUSH4 0xBEF14AAB EQ PUSH2 0xAA1 JUMPI DUP1 PUSH4 0xBF2D9E0B EQ PUSH2 0xA83 JUMPI DUP1 PUSH4 0xC520571C EQ PUSH2 0xA65 JUMPI DUP1 PUSH4 0xCF2C0334 EQ PUSH2 0xA18 JUMPI DUP1 PUSH4 0xCFDBF254 EQ PUSH2 0x9FC JUMPI DUP1 PUSH4 0xD547741F EQ PUSH2 0x9BB JUMPI DUP1 PUSH4 0xDCACF7B5 EQ PUSH2 0x86B JUMPI DUP1 PUSH4 0xE1F1C4A7 EQ PUSH2 0x84E JUMPI DUP1 PUSH4 0xEED3E097 EQ PUSH2 0x7F6 JUMPI DUP1 PUSH4 0xF2FDE38B EQ PUSH2 0x780 JUMPI DUP1 PUSH4 0xF32BEAA6 EQ PUSH2 0x755 JUMPI DUP1 PUSH4 0xF595B55F EQ PUSH2 0x600 JUMPI DUP1 PUSH4 0xF7F29F0C EQ PUSH2 0x5E4 JUMPI DUP1 PUSH4 0xFAD504FF EQ PUSH2 0x5B3 JUMPI PUSH4 0xFFBDC8CB EQ PUSH2 0x431 JUMPI CODESIZE PUSH2 0xF JUMP JUMPDEST CALLVALUE PUSH2 0x55 JUMPI PUSH1 0x20 DUP1 PUSH1 0x3 NOT CALLDATASIZE ADD SLT PUSH2 0x55 JUMPI PUSH1 0x4 CALLDATALOAD PUSH1 0x8 SLOAD DUP2 LT ISZERO PUSH2 0x59B JUMPI DUP1 PUSH1 0x0 MSTORE PUSH1 0x0 DUP3 MSTORE PUSH1 0x40 PUSH1 0x0 KECCAK256 SWAP1 PUSH1 0x40 MLOAD SWAP2 PUSH2 0x46B DUP4 PUSH2 0x4098 JUMP JUMPDEST DUP1 SLOAD DUP4 MSTORE PUSH2 0x47B PUSH1 0x1 DUP3 ADD PUSH2 0x410D JUMP JUMPDEST DUP5 DUP5 ADD MSTORE PUSH2 0x48B PUSH1 0x2 DUP3 ADD PUSH2 0x410D JUMP JUMPDEST PUSH1 0x40 DUP5 ADD MSTORE PUSH2 0x4A4 PUSH1 0xFF PUSH1 0x3 DUP4 ADD SLOAD AND PUSH1 0x60 DUP6 ADD PUSH2 0x4435 JUMP JUMPDEST PUSH1 0x4 DUP2 ADD SLOAD SWAP3 PUSH1 0x80 DUP2 ADD SWAP4 DUP5 MSTORE PUSH1 0x5 DUP3 ADD SLOAD PUSH1 0xA0 DUP3 ADD MSTORE PUSH1 0x6 DUP3 ADD SLOAD PUSH1 0xC0 DUP3 ADD MSTORE PUSH1 0x7 DUP3 ADD SLOAD SWAP3 PUSH2 0x4DB PUSH1 0xFF DUP6 AND PUSH1 0xE0 DUP5 ADD PUSH2 0x4441 JUMP JUMPDEST PUSH1 0x1 DUP1 PUSH1 0xA0 SHL SUB SWAP2 DUP3 PUSH2 0x100 DUP3 ADD SWAP6 PUSH1 0x8 SHR AND DUP6 MSTORE PUSH2 0x1A0 PUSH1 0xB DUP5 PUSH1 0x8 DUP8 ADD SLOAD AND SWAP6 PUSH2 0x120 DUP5 ADD SWAP7 DUP8 MSTORE PUSH1 0x9 DUP2 ADD SLOAD PUSH2 0x140 DUP6 ADD MSTORE PUSH1 0xA DUP2 ADD SLOAD PUSH4 0xFFFFFFFF SWAP1 DUP2 DUP2 AND PUSH2 0x160 DUP8 ADD MSTORE DUP12 SHR AND PUSH2 0x180 DUP6 ADD MSTORE ADD SLOAD SWAP2 ADD MSTORE CALLER PUSH1 0x0 MSTORE PUSH1 0x2 DUP7 MSTORE PUSH1 0x40 PUSH1 0x0 KECCAK256 SWAP1 PUSH1 0x0 MSTORE DUP6 MSTORE PUSH1 0xFF PUSH1 0x40 PUSH1 0x0 KECCAK256 SLOAD AND ISZERO SWAP3 DUP4 PUSH2 0x58D JUMPI JUMPDEST POP DUP3 PUSH2 0x57E JUMPI JUMPDEST POP POP PUSH2 0x56C JUMPI MLOAD PUSH1 0x40 MLOAD SWAP1 DUP2 MSTORE RETURN JUMPDEST PUSH1 0x40 MLOAD PUSH4 0x1A27EAC3 PUSH1 0xE1 SHL DUP2 MSTORE PUSH1 0x4 SWAP1 REVERT JUMPDEST SWAP1 MLOAD AND CALLER EQ ISZERO SWAP1 POP CODESIZE DUP1 PUSH2 0x55D JUMP JUMPDEST MLOAD DUP2 AND CALLER EQ ISZERO SWAP3 POP CODESIZE PUSH2 0x556 JUMP JUMPDEST PUSH1 0x24 SWAP1 PUSH1 0x40 MLOAD SWAP1 PUSH4 0x1C1269F3 PUSH1 0xE2 SHL DUP3 MSTORE PUSH1 0x4 DUP3 ADD MSTORE REVERT JUMPDEST CALLVALUE PUSH2 0x55 JUMPI PUSH1 0x20 CALLDATASIZE PUSH1 0x3 NOT ADD SLT PUSH2 0x55 JUMPI PUSH1 0x40 PUSH2 0x5D6 PUSH2 0x5D1 PUSH2 0x3FFE JUMP JUMPDEST PUSH2 0x4808 JUMP JUMPDEST DUP3 MLOAD SWAP2 DUP3 MSTORE ISZERO ISZERO PUSH1 0x20 DUP3 ADD MSTORE RETURN JUMPDEST CALLVALUE PUSH2 0x55 JUMPI PUSH1 0x0 CALLDATASIZE PUSH1 0x3 NOT ADD SLT PUSH2 0x55 JUMPI PUSH1 0x20 PUSH1 0x40 MLOAD PUSH1 0x5 DUP2 MSTORE RETURN JUMPDEST CALLVALUE PUSH2 0x55 JUMPI PUSH1 0x20 CALLDATASIZE PUSH1 0x3 NOT ADD SLT PUSH2 0x55 JUMPI PUSH1 0x4 CALLDATALOAD PUSH1 0x8 SLOAD DUP2 LT ISZERO PUSH2 0x59B JUMPI PUSH1 0x0 MSTORE PUSH1 0x0 PUSH1 0x20 MSTORE PUSH1 0x40 PUSH1 0x0 KECCAK256 PUSH1 0x40 MLOAD PUSH2 0x637 DUP2 PUSH2 0x4098 JUMP JUMPDEST DUP2 SLOAD DUP2 MSTORE PUSH2 0x647 PUSH1 0x1 DUP4 ADD PUSH2 0x410D JUMP JUMPDEST PUSH1 0x20 DUP3 ADD MSTORE PUSH2 0x658 PUSH1 0x2 DUP4 ADD PUSH2 0x410D JUMP JUMPDEST PUSH1 0x40 DUP3 ADD MSTORE PUSH2 0x671 PUSH1 0xFF PUSH1 0x3 DUP5 ADD SLOAD AND PUSH1 0x60 DUP4 ADD PUSH2 0x4435 JUMP JUMPDEST PUSH1 0x4 DUP3 ADD SLOAD PUSH1 0x80 DUP3 ADD MSTORE PUSH1 0x5 DUP3 ADD SLOAD PUSH1 0xA0 DUP3 ADD MSTORE PUSH1 0x6 DUP3 ADD SLOAD PUSH1 0xC0 DUP3 ADD MSTORE PUSH1 0x7 DUP3 ADD SLOAD SWAP2 PUSH1 0xE0 DUP3 ADD SWAP3 PUSH2 0x6A7 PUSH1 0xFF DUP3 AND DUP6 PUSH2 0x4441 JUMP JUMPDEST PUSH2 0x1A0 PUSH1 0x1 DUP1 PUSH1 0xA0 SHL SUB SWAP5 DUP6 PUSH2 0x100 DUP7 ADD SWAP4 PUSH1 0x8 SHR AND DUP4 MSTORE DUP6 PUSH1 0x8 DUP6 ADD SLOAD AND PUSH2 0x120 DUP7 ADD MSTORE PUSH1 0x9 DUP5 ADD SLOAD SWAP1 DUP2 PUSH2 0x140 DUP8 ADD MSTORE PUSH1 0xA DUP6 ADD SLOAD SWAP6 PUSH1 0xB PUSH4 0xFFFFFFFF DUP1 DUP10 AND SWAP9 DUP10 PUSH2 0x160 DUP6 ADD MSTORE PUSH1 0x20 SHR AND SWAP7 DUP8 PUSH2 0x180 DUP5 ADD MSTORE ADD SLOAD SWAP4 DUP5 SWAP2 ADD MSTORE MLOAD SWAP2 PUSH1 0x3 DUP4 LT ISZERO PUSH2 0x73F JUMPI PUSH1 0xC0 SWAP7 PUSH2 0x738 SWAP5 MLOAD AND SWAP5 PUSH1 0x40 MLOAD SWAP7 DUP8 MSTORE PUSH1 0x20 DUP8 ADD MSTORE PUSH1 0x40 DUP7 ADD MSTORE PUSH1 0x60 DUP6 ADD MSTORE PUSH1 0x80 DUP5 ADD SWAP1 PUSH2 0x4207 JUMP JUMPDEST PUSH1 0xA0 DUP3 ADD MSTORE RETURN JUMPDEST PUSH4 0x4E487B71 PUSH1 0xE0 SHL PUSH1 0x0 MSTORE PUSH1 0x21 PUSH1 0x4 MSTORE PUSH1 0x24 PUSH1 0x0 REVERT JUMPDEST CALLVALUE PUSH2 0x55 JUMPI PUSH1 0x40 CALLDATASIZE PUSH1 0x3 NOT ADD SLT PUSH2 0x55 JUMPI PUSH1 0x20 PUSH2 0x776 PUSH1 0x24 CALLDATALOAD PUSH1 0x4 CALLDATALOAD PUSH2 0x47E2 JUMP JUMPDEST PUSH1 0x40 MLOAD SWAP1 ISZERO ISZERO DUP2 MSTORE RETURN JUMPDEST CALLVALUE PUSH2 0x55 JUMPI PUSH1 0x20 CALLDATASIZE PUSH1 0x3 NOT ADD SLT PUSH2 0x55 JUMPI PUSH2 0x799 PUSH2 0x3FFE JUMP JUMPDEST PUSH2 0x7A1 PUSH2 0x4B4D JUMP JUMPDEST PUSH1 0x1 PUSH1 0x1 PUSH1 0xA0 SHL SUB SWAP1 DUP2 AND SWAP1 DUP2 ISZERO PUSH2 0x7DD JUMPI PUSH1 0x1A DUP1 SLOAD PUSH1 0x1 PUSH1 0x1 PUSH1 0xA0 SHL SUB NOT DUP2 AND DUP5 OR SWAP1 SWAP2 SSTORE AND PUSH1 0x0 DUP1 MLOAD PUSH1 0x20 PUSH2 0x4C2E DUP4 CODECOPY DUP2 MLOAD SWAP2 MSTORE PUSH1 0x0 DUP1 LOG3 STOP JUMPDEST PUSH1 0x40 MLOAD PUSH4 0x1E4FBDF7 PUSH1 0xE0 SHL DUP2 MSTORE PUSH1 0x0 PUSH1 0x4 DUP3 ADD MSTORE PUSH1 0x24 SWAP1 REVERT JUMPDEST CALLVALUE PUSH2 0x55 JUMPI PUSH1 0x40 CALLDATASIZE PUSH1 0x3 NOT ADD SLT PUSH2 0x55 JUMPI PUSH2 0x80F PUSH2 0x3FFE JUMP JUMPDEST PUSH1 0x1 PUSH1 0x1 PUSH1 0xA0 SHL SUB AND PUSH1 0x0 SWAP1 DUP2 MSTORE PUSH1 0x6 PUSH1 0x20 MSTORE PUSH1 0x40 SWAP1 KECCAK256 DUP1 SLOAD PUSH1 0x24 CALLDATALOAD SWAP2 SWAP1 DUP3 LT ISZERO PUSH2 0x55 JUMPI PUSH1 0x20 SWAP2 PUSH2 0x840 SWAP2 PUSH2 0x42FD JUMP JUMPDEST SWAP1 SLOAD PUSH1 0x40 MLOAD SWAP2 PUSH1 0x3 SHL SHR DUP2 MSTORE RETURN JUMPDEST CALLVALUE PUSH2 0x55 JUMPI PUSH1 0x0 CALLDATASIZE PUSH1 0x3 NOT ADD SLT PUSH2 0x55 JUMPI PUSH1 0x20 PUSH1 0x40 MLOAD PUSH2 0x2710 DUP2 MSTORE RETURN JUMPDEST CALLVALUE PUSH2 0x55 JUMPI PUSH1 0x40 CALLDATASIZE PUSH1 0x3 NOT ADD SLT PUSH2 0x55 JUMPI PUSH1 0x4 CALLDATALOAD PUSH1 0x24 CALLDATALOAD PUSH1 0x3 DUP2 LT ISZERO SWAP1 DUP2 PUSH2 0x55 JUMPI PUSH2 0x895 PUSH2 0x4953 JUMP JUMPDEST PUSH1 0x8 SLOAD DUP4 LT ISZERO PUSH2 0x9A2 JUMPI DUP3 PUSH1 0x0 MSTORE PUSH1 0x0 PUSH1 0x20 MSTORE PUSH1 0x7 PUSH1 0x40 PUSH1 0x0 KECCAK256 ADD SWAP1 PUSH1 0xFF DUP3 SLOAD AND SWAP3 PUSH1 0x3 DUP5 LT ISZERO PUSH2 0x73F JUMPI DUP4 ISZERO DUP1 DUP1 PUSH2 0x995 JUMPI JUMPDEST ISZERO PUSH2 0x965 JUMPI POP POP PUSH2 0x8EB DUP2 PUSH2 0x902 SWAP4 PUSH2 0x8E3 PUSH1 0x9 SLOAD PUSH2 0x468F JUMP JUMPDEST PUSH1 0x9 SSTORE PUSH2 0x469C JUMP JUMPDEST PUSH2 0x8F8 PUSH1 0x40 MLOAD DUP1 SWAP5 PUSH2 0x4207 JUMP JUMPDEST PUSH1 0x20 DUP4 ADD SWAP1 PUSH2 0x4207 JUMP JUMPDEST DUP2 PUSH1 0x0 DUP1 MLOAD PUSH1 0x20 PUSH2 0x4C4E DUP4 CODECOPY DUP2 MLOAD SWAP2 MSTORE PUSH1 0x40 CALLER SWAP4 LOG3 PUSH1 0x40 DUP1 MLOAD PUSH32 0x3A26D1FB758531FF7B353755DEAD133D15E5F0D05DD872EF34695C74CAC7D5F3 DUP2 MSTORE NUMBER PUSH1 0x20 DUP3 ADD MSTORE PUSH1 0x1 PUSH1 0x1 PUSH1 0xA0 SHL SUB SWAP1 SWAP3 AND SWAP2 CALLER SWAP2 PUSH1 0x0 DUP1 MLOAD PUSH1 0x20 PUSH2 0x4BEE DUP4 CODECOPY DUP2 MLOAD SWAP2 MSTORE SWAP2 LOG3 STOP JUMPDEST ISZERO SWAP1 DUP2 PUSH2 0x987 JUMPI JUMPDEST POP DUP2 PUSH2 0x902 SWAP4 PUSH2 0x8EB SWAP3 ISZERO PUSH2 0x469C JUMPI PUSH2 0x8E3 PUSH1 0x9 SLOAD PUSH2 0x43D5 JUMP JUMPDEST SWAP1 POP PUSH2 0x73F JUMPI DUP1 ISZERO DUP2 PUSH2 0x96D JUMP JUMPDEST POP PUSH1 0x0 SWAP2 POP DUP3 ISZERO ISZERO PUSH2 0x8C9 JUMP JUMPDEST PUSH1 0x40 MLOAD PUSH4 0x1C1269F3 PUSH1 0xE2 SHL DUP2 MSTORE PUSH1 0x4 DUP2 ADD DUP5 SWAP1 MSTORE PUSH1 0x24 SWAP1 REVERT JUMPDEST CALLVALUE PUSH2 0x55 JUMPI PUSH1 0x40 CALLDATASIZE PUSH1 0x3 NOT ADD SLT PUSH2 0x55 JUMPI PUSH2 0x9FA PUSH1 0x4 CALLDATALOAD PUSH2 0x9DA PUSH2 0x4014 JUMP JUMPDEST SWAP1 DUP1 PUSH1 0x0 MSTORE PUSH1 0x1D PUSH1 0x20 MSTORE PUSH2 0x9F5 PUSH1 0x1 PUSH1 0x40 PUSH1 0x0 KECCAK256 ADD SLOAD PUSH2 0x499D JUMP JUMPDEST PUSH2 0x4AD6 JUMP JUMPDEST STOP JUMPDEST CALLVALUE PUSH2 0x55 JUMPI PUSH1 0x0 CALLDATASIZE PUSH1 0x3 NOT ADD SLT PUSH2 0x55 JUMPI PUSH1 0x20 PUSH1 0x40 MLOAD PUSH1 0x14 DUP2 MSTORE RETURN JUMPDEST CALLVALUE PUSH2 0x55 JUMPI PUSH1 0x40 CALLDATASIZE PUSH1 0x3 NOT ADD SLT PUSH2 0x55 JUMPI PUSH1 0x1 PUSH1 0x1 PUSH1 0xA0 SHL SUB PUSH2 0xA39 PUSH2 0x3FFE JUMP JUMPDEST AND PUSH1 0x0 MSTORE PUSH1 0x2 PUSH1 0x20 MSTORE PUSH1 0x40 PUSH1 0x0 KECCAK256 PUSH1 0x24 CALLDATALOAD PUSH1 0x0 MSTORE PUSH1 0x20 MSTORE PUSH1 0x20 PUSH1 0xFF PUSH1 0x40 PUSH1 0x0 KECCAK256 SLOAD AND PUSH1 0x40 MLOAD SWAP1 ISZERO ISZERO DUP2 MSTORE RETURN JUMPDEST CALLVALUE PUSH2 0x55 JUMPI PUSH1 0x0 CALLDATASIZE PUSH1 0x3 NOT ADD SLT PUSH2 0x55 JUMPI PUSH1 0x20 PUSH1 0x11 SLOAD PUSH1 0x40 MLOAD SWAP1 DUP2 MSTORE RETURN JUMPDEST CALLVALUE PUSH2 0x55 JUMPI PUSH1 0x0 CALLDATASIZE PUSH1 0x3 NOT ADD SLT PUSH2 0x55 JUMPI PUSH1 0x20 PUSH1 0xB SLOAD PUSH1 0x40 MLOAD SWAP1 DUP2 MSTORE RETURN JUMPDEST CALLVALUE PUSH2 0x55 JUMPI PUSH2 0xAAF CALLDATASIZE PUSH2 0x42B7 JUMP JUMPDEST PUSH2 0xAB8 DUP2 PUSH2 0x43A3 JUMP JUMPDEST SWAP2 PUSH1 0x0 SWAP3 PUSH1 0x0 SWAP1 PUSH1 0x0 SWAP4 PUSH1 0x8 SLOAD SWAP5 JUMPDEST DUP6 DUP2 LT DUP1 PUSH2 0xBA3 JUMPI JUMPDEST ISZERO PUSH2 0xB4A JUMPI DUP1 PUSH1 0x0 MSTORE PUSH1 0x0 PUSH1 0x20 MSTORE PUSH1 0xFF PUSH1 0x7 PUSH1 0x40 PUSH1 0x0 KECCAK256 ADD SLOAD AND PUSH1 0x3 DUP2 LT ISZERO PUSH2 0x73F JUMPI ISZERO PUSH2 0xB07 JUMPI JUMPDEST PUSH2 0xB02 SWAP1 PUSH2 0x43D5 JUMP JUMPDEST PUSH2 0xAC7 JUMP JUMPDEST SWAP3 DUP5 DUP2 LT ISZERO PUSH2 0xB25 JUMPI JUMPDEST PUSH2 0xB1D PUSH2 0xB02 SWAP2 PUSH2 0x43D5 JUMP JUMPDEST SWAP4 SWAP1 POP PUSH2 0xAF9 JUMP JUMPDEST SWAP6 PUSH2 0xB1D PUSH2 0xB41 DUP3 DUP7 PUSH2 0xB3B PUSH2 0xB02 SWAP6 DUP9 PUSH2 0x43E4 JUMP JUMPDEST MSTORE PUSH2 0x43D5 JUMP JUMPDEST SWAP8 SWAP2 POP POP PUSH2 0xB11 JUMP JUMPDEST DUP3 DUP8 DUP6 PUSH2 0xB56 DUP3 PUSH2 0x43A3 JUMP JUMPDEST SWAP2 PUSH1 0x0 JUMPDEST DUP2 DUP2 LT PUSH2 0xB84 JUMPI PUSH2 0xB7A DUP5 DUP5 PUSH1 0x40 MLOAD SWAP3 DUP4 SWAP3 PUSH1 0x40 DUP5 MSTORE PUSH1 0x40 DUP5 ADD SWAP1 PUSH2 0x402A JUMP JUMPDEST SWAP1 PUSH1 0x20 DUP4 ADD MSTORE SUB SWAP1 RETURN JUMPDEST DUP1 PUSH2 0xB91 PUSH1 0x1 SWAP3 DUP8 PUSH2 0x43E4 JUMP JUMPDEST MLOAD PUSH2 0xB9C DUP3 DUP8 PUSH2 0x43E4 JUMP JUMPDEST MSTORE ADD PUSH2 0xB5A JUMP JUMPDEST POP DUP2 DUP8 LT PUSH2 0xAD0 JUMP JUMPDEST CALLVALUE PUSH2 0x55 JUMPI PUSH2 0xBBA CALLDATASIZE PUSH2 0x42B7 JUMP JUMPDEST SWAP1 PUSH1 0x0 MSTORE PUSH1 0x4 PUSH1 0x20 MSTORE PUSH1 0x40 PUSH1 0x0 KECCAK256 DUP1 SLOAD DUP3 LT ISZERO PUSH2 0x55 JUMPI PUSH1 0x60 SWAP2 PUSH2 0xBDD SWAP2 PUSH2 0x4363 JUMP JUMPDEST POP PUSH1 0x1 DUP1 PUSH1 0xA0 SHL SUB DUP2 SLOAD AND SWAP1 PUSH1 0x2 PUSH1 0x1 DUP3 ADD SLOAD SWAP2 ADD SLOAD SWAP1 PUSH1 0x40 MLOAD SWAP3 DUP4 MSTORE PUSH1 0x20 DUP4 ADD MSTORE PUSH1 0x40 DUP3 ADD MSTORE RETURN JUMPDEST CALLVALUE PUSH2 0x55 JUMPI PUSH1 0x20 CALLDATASIZE PUSH1 0x3 NOT ADD SLT PUSH2 0x55 JUMPI PUSH1 0x40 PUSH2 0xC29 PUSH2 0xC24 PUSH2 0x3FFE JUMP JUMPDEST PUSH2 0x46B4 JUMP JUMPDEST DUP3 MLOAD SWAP2 ISZERO ISZERO DUP3 MSTORE PUSH1 0x20 DUP3 ADD MSTORE RETURN JUMPDEST CALLVALUE PUSH2 0x55 JUMPI PUSH1 0x0 CALLDATASIZE PUSH1 0x3 NOT ADD SLT PUSH2 0x55 JUMPI PUSH1 0x20 PUSH1 0x9 SLOAD PUSH1 0x40 MLOAD SWAP1 DUP2 MSTORE RETURN JUMPDEST CALLVALUE PUSH2 0x55 JUMPI PUSH1 0x0 CALLDATASIZE PUSH1 0x3 NOT ADD SLT PUSH2 0x55 JUMPI PUSH1 0x20 PUSH1 0x40 MLOAD PUSH1 0x0 DUP2 MSTORE RETURN JUMPDEST CALLVALUE PUSH2 0x55 JUMPI PUSH1 0x20 CALLDATASIZE PUSH1 0x3 NOT ADD SLT PUSH2 0x55 JUMPI PUSH1 0x1 PUSH1 0x1 PUSH1 0xA0 SHL SUB PUSH2 0xC92 PUSH2 0x3FFE JUMP JUMPDEST AND PUSH1 0x0 MSTORE PUSH1 0x1 PUSH1 0x20 MSTORE PUSH1 0x40 PUSH1 0x0 KECCAK256 DUP1 SLOAD PUSH2 0xCC8 PUSH1 0x1 DUP4 ADD SLOAD SWAP3 PUSH1 0x2 DUP2 ADD SLOAD SWAP1 PUSH1 0x4 PUSH1 0x3 DUP3 ADD SLOAD SWAP2 ADD SLOAD SWAP2 PUSH1 0x40 MLOAD SWAP6 DUP7 SWAP6 DUP7 PUSH2 0x4293 JUMP JUMPDEST SUB SWAP1 RETURN JUMPDEST CALLVALUE PUSH2 0x55 JUMPI PUSH1 0x20 CALLDATASIZE PUSH1 0x3 NOT ADD SLT PUSH2 0x55 JUMPI PUSH1 0x4 CALLDATALOAD PUSH1 0x8 SLOAD DUP2 LT ISZERO PUSH2 0x59B JUMPI PUSH1 0x0 MSTORE PUSH1 0x0 PUSH1 0x20 MSTORE PUSH1 0x40 PUSH1 0x0 KECCAK256 PUSH1 0xB PUSH1 0x40 MLOAD SWAP2 PUSH2 0xD06 DUP4 PUSH2 0x4098 JUMP JUMPDEST DUP1 SLOAD DUP4 MSTORE PUSH2 0xD16 PUSH1 0x1 DUP3 ADD PUSH2 0x410D JUMP JUMPDEST PUSH1 0x20 DUP5 ADD MSTORE PUSH2 0xD27 PUSH1 0x2 DUP3 ADD PUSH2 0x410D JUMP JUMPDEST PUSH1 0x40 DUP5 ADD MSTORE PUSH2 0xD40 PUSH1 0xFF PUSH1 0x3 DUP4 ADD SLOAD AND PUSH1 0x60 DUP6 ADD PUSH2 0x4435 JUMP JUMPDEST PUSH1 0x4 DUP2 ADD SLOAD PUSH1 0x80 DUP5 ADD MSTORE PUSH1 0x5 DUP2 ADD SLOAD PUSH1 0xA0 DUP5 ADD MSTORE PUSH1 0x6 DUP2 ADD SLOAD PUSH1 0xC0 DUP5 ADD MSTORE PUSH1 0x7 DUP2 ADD SLOAD PUSH2 0xD73 PUSH1 0xFF DUP3 AND PUSH1 0xE0 DUP7 ADD PUSH2 0x4441 JUMP JUMPDEST PUSH1 0x1 PUSH1 0x1 PUSH1 0xA0 SHL SUB PUSH1 0x8 SWAP2 DUP3 SHR DUP2 AND PUSH2 0x100 DUP7 ADD MSTORE SWAP1 DUP3 ADD SLOAD AND PUSH2 0x120 DUP5 ADD MSTORE PUSH1 0x9 DUP2 ADD SLOAD PUSH2 0x140 DUP5 ADD MSTORE PUSH1 0xA DUP2 ADD SLOAD PUSH4 0xFFFFFFFF DUP1 DUP3 AND PUSH2 0x160 DUP7 ADD MSTORE PUSH1 0x20 SWAP2 DUP3 SHR AND PUSH2 0x180 DUP6 ADD MSTORE SWAP2 ADD SLOAD PUSH2 0x1A0 DUP4 ADD MSTORE DUP2 ADD MLOAD PUSH1 0x40 DUP3 ADD MLOAD PUSH1 0x60 DUP4 ADD MLOAD SWAP1 SWAP3 SWAP2 PUSH1 0x7 DUP3 LT ISZERO PUSH2 0x73F JUMPI PUSH1 0x80 DUP4 ADD MLOAD SWAP3 PUSH1 0xA0 DUP2 ADD MLOAD SWAP4 PUSH1 0xC0 DUP3 ADD MLOAD SWAP5 PUSH1 0xE0 DUP4 ADD MLOAD SWAP6 PUSH1 0x3 DUP8 LT ISZERO PUSH2 0x73F JUMPI PUSH2 0xE57 SWAP7 PUSH2 0xE89 SWAP2 PUSH1 0x1 DUP1 PUSH1 0xA0 SHL SUB PUSH2 0x100 DUP8 ADD MLOAD AND SWAP4 PUSH1 0x1 DUP1 PUSH1 0xA0 SHL SUB PUSH2 0x120 DUP9 ADD MLOAD AND SWAP6 PUSH2 0xE70 PUSH2 0xE65 PUSH2 0x140 PUSH4 0xFFFFFFFF PUSH2 0x160 DUP13 ADD MLOAD AND SWAP11 ADD MLOAD SWAP11 PUSH1 0x40 MLOAD SWAP15 DUP16 SWAP15 DUP16 SWAP3 PUSH2 0x160 DUP5 MSTORE PUSH2 0x160 DUP5 ADD SWAP1 PUSH2 0x41D5 JUMP JUMPDEST SWAP2 PUSH1 0x20 DUP2 DUP5 SUB SWAP2 ADD MSTORE PUSH2 0x41D5 JUMP JUMPDEST SWAP11 PUSH1 0x40 DUP14 ADD SWAP1 PUSH2 0x41FA JUMP JUMPDEST PUSH1 0x60 DUP12 ADD MSTORE PUSH1 0x80 DUP11 ADD MSTORE PUSH1 0xA0 DUP10 ADD MSTORE PUSH1 0xC0 DUP9 ADD SWAP1 PUSH2 0x4207 JUMP JUMPDEST PUSH1 0xE0 DUP7 ADD MSTORE PUSH2 0x100 DUP6 ADD MSTORE PUSH2 0x120 DUP5 ADD MSTORE PUSH2 0x140 DUP4 ADD MSTORE SUB SWAP1 RETURN JUMPDEST CALLVALUE PUSH2 0x55 JUMPI PUSH1 0x0 CALLDATASIZE PUSH1 0x3 NOT ADD SLT PUSH2 0x55 JUMPI CALLER PUSH1 0x0 SWAP1 DUP2 MSTORE PUSH32 0x49D714867A6A305FDA778C732EA4560662689356AB93546242022A3584FA530 PUSH1 0x20 MSTORE PUSH1 0x40 SWAP1 KECCAK256 SLOAD PUSH1 0x0 DUP1 MLOAD PUSH1 0x20 PUSH2 0x4BAE DUP4 CODECOPY DUP2 MLOAD SWAP2 MSTORE SWAP1 PUSH1 0xFF AND ISZERO PUSH2 0xF4D JUMPI PUSH1 0x1 PUSH1 0xFF NOT PUSH1 0x17 SLOAD AND OR PUSH1 0x17 SSTORE PUSH1 0x0 PUSH1 0x40 MLOAD PUSH32 0x2B360512BE00A461D38B01F2225A8A63B3F66A627FC69E02C0205598890AF54D DUP2 MSTORE NUMBER PUSH1 0x20 DUP3 ADD MSTORE PUSH1 0x0 DUP1 MLOAD PUSH1 0x20 PUSH2 0x4BEE DUP4 CODECOPY DUP2 MLOAD SWAP2 MSTORE PUSH1 0x40 CALLER SWAP3 LOG3 STOP JUMPDEST PUSH1 0x44 SWAP1 PUSH1 0x40 MLOAD SWAP1 PUSH4 0xE2517D3F PUSH1 0xE0 SHL DUP3 MSTORE CALLER PUSH1 0x4 DUP4 ADD MSTORE PUSH1 0x24 DUP3 ADD MSTORE REVERT JUMPDEST CALLVALUE PUSH2 0x55 JUMPI PUSH1 0x20 DUP1 PUSH1 0x3 NOT CALLDATASIZE ADD SLT PUSH2 0x55 JUMPI PUSH1 0x1 PUSH1 0x1 PUSH1 0xA0 SHL SUB PUSH2 0xF8D PUSH2 0x3FFE JUMP JUMPDEST AND SWAP1 DUP2 PUSH1 0x0 MSTORE PUSH1 0x1 SWAP1 DUP2 DUP2 MSTORE PUSH1 0x40 PUSH1 0x0 KECCAK256 SWAP3 PUSH1 0x5 SWAP2 PUSH1 0x5 DUP2 MSTORE PUSH1 0x40 PUSH1 0x0 KECCAK256 PUSH1 0x40 MLOAD DUP1 DUP3 DUP5 DUP3 SWAP5 SLOAD SWAP4 DUP5 DUP2 MSTORE ADD SWAP1 PUSH1 0x0 MSTORE DUP5 PUSH1 0x0 KECCAK256 SWAP3 PUSH1 0x0 JUMPDEST DUP10 DUP8 DUP4 DUP4 LT PUSH2 0x10D3 JUMPI POP POP POP POP PUSH2 0xFDE SWAP3 POP SUB DUP3 PUSH2 0x40EA JUMP JUMPDEST DUP5 PUSH1 0x0 SWAP5 PUSH1 0x0 SWAP3 PUSH1 0x0 SWAP3 JUMPDEST PUSH2 0x105D JUMPI JUMPDEST POP POP DUP2 ISZERO SWAP1 POP DUP1 PUSH2 0x104E JUMPI PUSH2 0x1038 JUMPI PUSH2 0xCC8 SWAP4 DIV SWAP2 JUMPDEST PUSH1 0x0 MSTORE PUSH1 0x16 DUP2 MSTORE PUSH1 0x40 PUSH1 0x0 KECCAK256 SWAP1 PUSH2 0x1680 NUMBER DIV PUSH1 0x0 MSTORE MSTORE PUSH1 0x40 PUSH1 0x0 KECCAK256 SLOAD SWAP1 PUSH1 0x2 DUP6 SLOAD SWAP5 DUP7 ADD SLOAD SWAP6 ADD SLOAD PUSH1 0x40 MLOAD SWAP6 DUP7 SWAP6 DUP7 PUSH2 0x4293 JUMP JUMPDEST PUSH4 0x4E487B71 PUSH1 0xE0 SHL PUSH1 0x0 MSTORE PUSH1 0x12 PUSH1 0x4 MSTORE PUSH1 0x24 PUSH1 0x0 REVERT JUMPDEST POP POP PUSH2 0xCC8 SWAP3 POP PUSH1 0x0 SWAP2 PUSH2 0x1004 JUMP JUMPDEST DUP1 MLOAD DUP4 LT ISZERO PUSH2 0x10CE JUMPI PUSH2 0x1070 DUP4 DUP3 PUSH2 0x43E4 JUMP JUMPDEST MLOAD SWAP3 DUP4 PUSH1 0x0 MSTORE PUSH1 0x0 DUP7 MSTORE PUSH1 0xFF PUSH1 0x7 PUSH1 0x40 PUSH1 0x0 KECCAK256 ADD SLOAD AND SWAP4 PUSH1 0x3 DUP6 LT ISZERO PUSH2 0x73F JUMPI DUP10 SWAP5 ISZERO PUSH2 0x10A1 JUMPI JUMPDEST POP DUP4 ADD SWAP3 PUSH2 0xFE9 JUMP JUMPDEST PUSH2 0x10C1 DUP6 SWAP3 SWAP7 SWAP10 PUSH2 0x10C7 SWAP3 PUSH1 0x0 MSTORE PUSH1 0x0 DUP10 MSTORE DUP6 PUSH1 0x40 PUSH1 0x0 KECCAK256 ADD SLOAD SWAP1 PUSH2 0x4460 JUMP JUMPDEST SWAP9 PUSH2 0x43D5 JUMP JUMPDEST SWAP5 SWAP1 PUSH2 0x1098 JUMP JUMPDEST PUSH2 0xFEE JUMP JUMPDEST DUP7 SLOAD DUP6 MSTORE SWAP6 DUP2 ADD SWAP6 DUP8 SWAP6 POP SWAP1 SWAP4 ADD SWAP3 ADD PUSH2 0xFC5 JUMP JUMPDEST CALLVALUE PUSH2 0x55 JUMPI PUSH1 0x40 CALLDATASIZE PUSH1 0x3 NOT ADD SLT PUSH2 0x55 JUMPI PUSH2 0x1101 PUSH2 0x4014 JUMP JUMPDEST PUSH1 0x4 CALLDATALOAD PUSH1 0x0 MSTORE PUSH1 0x1D PUSH1 0x20 MSTORE PUSH1 0x40 PUSH1 0x0 KECCAK256 SWAP1 PUSH1 0x1 DUP1 PUSH1 0xA0 SHL SUB AND PUSH1 0x0 MSTORE PUSH1 0x20 MSTORE PUSH1 0x20 PUSH1 0xFF PUSH1 0x40 PUSH1 0x0 KECCAK256 SLOAD AND PUSH1 0x40 MLOAD SWAP1 ISZERO ISZERO DUP2 MSTORE RETURN JUMPDEST CALLVALUE PUSH2 0x55 JUMPI PUSH1 0x40 CALLDATASIZE PUSH1 0x3 NOT ADD SLT PUSH2 0x55 JUMPI PUSH1 0x1 PUSH1 0x1 PUSH1 0xA0 SHL SUB PUSH2 0x1156 PUSH2 0x3FFE JUMP JUMPDEST AND PUSH1 0x0 MSTORE PUSH1 0x16 PUSH1 0x20 MSTORE PUSH1 0x40 PUSH1 0x0 KECCAK256 PUSH1 0x24 CALLDATALOAD PUSH1 0x0 MSTORE PUSH1 0x20 MSTORE PUSH1 0x20 PUSH1 0x40 PUSH1 0x0 KECCAK256 SLOAD PUSH1 0x40 MLOAD SWAP1 DUP2 MSTORE RETURN JUMPDEST CALLVALUE PUSH2 0x55 JUMPI PUSH1 0x0 CALLDATASIZE PUSH1 0x3 NOT ADD SLT PUSH2 0x55 JUMPI PUSH1 0x1A SLOAD PUSH1 0x40 MLOAD PUSH1 0x1 PUSH1 0x1 PUSH1 0xA0 SHL SUB SWAP1 SWAP2 AND DUP2 MSTORE PUSH1 0x20 SWAP1 RETURN JUMPDEST CALLVALUE PUSH2 0x55 JUMPI PUSH1 0x0 CALLDATASIZE PUSH1 0x3 NOT ADD SLT PUSH2 0x55 JUMPI PUSH1 0x20 PUSH1 0xC SLOAD PUSH1 0x40 MLOAD SWAP1 DUP2 MSTORE RETURN JUMPDEST CALLVALUE PUSH2 0x55 JUMPI PUSH1 0x0 CALLDATASIZE PUSH1 0x3 NOT ADD SLT PUSH2 0x55 JUMPI PUSH1 0x20 PUSH1 0x40 MLOAD PUSH32 0x39DB794A90DAD1F6F1EB43938A38164FFCB808BCE7E11FB138C898D32D58D6D7 DUP2 MSTORE RETURN JUMPDEST CALLVALUE PUSH2 0x55 JUMPI PUSH2 0x120D CALLDATASIZE PUSH2 0x42B7 JUMP JUMPDEST SWAP1 PUSH1 0x8 SLOAD DUP2 LT ISZERO PUSH2 0x59B JUMPI DUP1 PUSH1 0x0 MSTORE PUSH1 0x0 PUSH1 0x20 MSTORE PUSH1 0xFF PUSH1 0x7 PUSH1 0x40 PUSH1 0x0 KECCAK256 ADD SLOAD AND PUSH1 0x3 DUP2 LT ISZERO PUSH2 0x73F JUMPI PUSH2 0x12DC JUMPI PUSH1 0x0 DUP2 DUP2 MSTORE PUSH1 0x20 DUP2 SWAP1 MSTORE PUSH1 0x40 SWAP1 KECCAK256 PUSH1 0x7 ADD SLOAD PUSH1 0x8 SHR PUSH1 0x1 PUSH1 0x1 PUSH1 0xA0 SHL SUB AND CALLER SUB PUSH2 0x56C JUMPI PUSH1 0xF SLOAD DUP3 LT DUP1 ISZERO PUSH2 0x12D1 JUMPI JUMPDEST PUSH2 0x12B8 JUMPI DUP1 PUSH1 0x0 MSTORE PUSH1 0x0 PUSH1 0x20 MSTORE PUSH1 0x5 PUSH1 0x40 PUSH1 0x0 KECCAK256 ADD SWAP2 DUP1 DUP4 SLOAD SWAP4 SSTORE PUSH1 0x40 MLOAD SWAP3 DUP4 MSTORE PUSH1 0x20 DUP4 ADD MSTORE PUSH32 0xC1EC60939F904E35A8ED42256FFA5B2970DEBDEFE361153DEE8CABF3A2586943 PUSH1 0x40 CALLER SWAP4 LOG3 STOP JUMPDEST PUSH1 0x40 MLOAD PUSH4 0x7CB19743 PUSH1 0xE1 SHL DUP2 MSTORE PUSH1 0x4 DUP2 ADD DUP4 SWAP1 MSTORE PUSH1 0x24 SWAP1 REVERT JUMPDEST POP PUSH1 0x10 SLOAD DUP3 GT PUSH2 0x126A JUMP JUMPDEST PUSH1 0x24 SWAP1 PUSH1 0x40 MLOAD SWAP1 PUSH4 0x32786967 PUSH1 0xE2 SHL DUP3 MSTORE PUSH1 0x4 DUP3 ADD MSTORE REVERT JUMPDEST CALLVALUE PUSH2 0x55 JUMPI PUSH1 0x40 CALLDATASIZE PUSH1 0x3 NOT ADD SLT PUSH2 0x55 JUMPI PUSH2 0x130D PUSH2 0x3FFE JUMP JUMPDEST PUSH1 0x24 CALLDATALOAD SWAP1 PUSH2 0x1319 PUSH2 0x4953 JUMP JUMPDEST PUSH1 0x1 DUP1 PUSH1 0xA0 SHL SUB AND SWAP1 DUP2 PUSH1 0x0 MSTORE PUSH1 0x3 PUSH1 0x20 MSTORE PUSH1 0x40 PUSH1 0x0 KECCAK256 PUSH1 0x1 PUSH1 0xFF NOT DUP3 SLOAD AND OR SWAP1 SSTORE DUP2 PUSH32 0xF3180B5FA328E1EC92AC05766351DE4A83F72E55569A638FE62A6D225DCD5044 PUSH1 0x20 PUSH1 0x40 MLOAD DUP5 DUP2 MSTORE LOG2 PUSH1 0x40 MLOAD SWAP1 DUP2 MSTORE NUMBER PUSH1 0x20 DUP3 ADD MSTORE PUSH1 0x0 DUP1 MLOAD PUSH1 0x20 PUSH2 0x4BEE DUP4 CODECOPY DUP2 MLOAD SWAP2 MSTORE PUSH1 0x40 CALLER SWAP3 LOG3 STOP JUMPDEST CALLVALUE PUSH2 0x55 JUMPI PUSH1 0x0 CALLDATASIZE PUSH1 0x3 NOT ADD SLT PUSH2 0x55 JUMPI PUSH2 0x13A1 PUSH2 0x4B4D JUMP JUMPDEST PUSH2 0x13A9 PUSH2 0x4874 JUMP JUMPDEST PUSH1 0x1 PUSH1 0xFF NOT PUSH1 0x1C SLOAD AND OR PUSH1 0x1C SSTORE PUSH32 0x62E78CEA01BEE320CD4E420270B5EA74000D11B0C9F74754EBDBFC544B05A258 PUSH1 0x20 PUSH1 0x40 MLOAD CALLER DUP2 MSTORE LOG1 STOP JUMPDEST CALLVALUE PUSH2 0x55 JUMPI PUSH1 0x20 CALLDATASIZE PUSH1 0x3 NOT ADD SLT PUSH2 0x55 JUMPI PUSH1 0x4 CALLDATALOAD PUSH1 0x7 SLOAD DUP2 LT ISZERO PUSH2 0x55 JUMPI PUSH2 0x140B PUSH1 0xE0 SWAP2 PUSH2 0x432B JUMP JUMPDEST POP PUSH1 0x1 DUP1 PUSH1 0xA0 SHL SUB DUP2 SLOAD AND SWAP1 PUSH1 0x1 DUP2 ADD SLOAD SWAP1 PUSH1 0x2 DUP2 ADD SLOAD PUSH1 0x3 DUP3 ADD SLOAD PUSH1 0x4 DUP4 ADD SLOAD SWAP2 PUSH1 0x6 PUSH1 0x5 DUP6 ADD SLOAD SWAP5 ADD SLOAD SWAP5 PUSH1 0x40 MLOAD SWAP7 DUP8 MSTORE PUSH1 0x20 DUP8 ADD MSTORE PUSH1 0x40 DUP7 ADD MSTORE PUSH1 0x60 DUP6 ADD MSTORE PUSH1 0x80 DUP5 ADD MSTORE PUSH1 0xA0 DUP4 ADD MSTORE PUSH1 0xC0 DUP3 ADD MSTORE RETURN JUMPDEST CALLVALUE PUSH2 0x55 JUMPI PUSH1 0x0 CALLDATASIZE PUSH1 0x3 NOT ADD SLT PUSH2 0x55 JUMPI PUSH1 0x8 SLOAD PUSH1 0x9 SLOAD PUSH2 0xCC8 PUSH1 0xA SLOAD SWAP3 PUSH1 0xB SLOAD PUSH1 0x40 MLOAD SWAP5 DUP6 SWAP5 NUMBER SWAP4 DUP7 PUSH2 0x4293 JUMP JUMPDEST CALLVALUE PUSH2 0x55 JUMPI PUSH1 0x20 DUP1 PUSH1 0x3 NOT CALLDATASIZE ADD SLT PUSH2 0x55 JUMPI PUSH1 0x4 CALLDATALOAD SWAP1 PUSH2 0x14AE PUSH1 0x9 SLOAD PUSH2 0x43A3 JUMP JUMPDEST SWAP2 PUSH1 0x0 SWAP1 PUSH1 0x0 PUSH1 0x8 SLOAD SWAP1 JUMPDEST DUP2 DUP2 LT PUSH2 0x15DA JUMPI POP POP PUSH1 0x0 JUMPDEST DUP3 DUP2 LT PUSH2 0x1528 JUMPI POP DUP2 DUP2 GT ISZERO PUSH2 0x1521 JUMPI POP JUMPDEST PUSH2 0x14E0 DUP2 PUSH2 0x43A3 JUMP JUMPDEST SWAP3 PUSH1 0x0 JUMPDEST DUP3 DUP2 LT PUSH2 0x1502 JUMPI POP POP POP PUSH2 0xCC8 PUSH1 0x40 MLOAD SWAP3 DUP3 DUP5 SWAP4 DUP5 MSTORE DUP4 ADD SWAP1 PUSH2 0x402A JUMP JUMPDEST DUP1 PUSH2 0x150F PUSH1 0x1 SWAP3 DUP5 PUSH2 0x43E4 JUMP JUMPDEST MLOAD PUSH2 0x151A DUP3 DUP9 PUSH2 0x43E4 JUMP JUMPDEST MSTORE ADD PUSH2 0x14E4 JUMP JUMPDEST SWAP1 POP PUSH2 0x14D7 JUMP JUMPDEST PUSH1 0x1 DUP1 DUP3 ADD DUP1 DUP4 GT PUSH2 0x15C4 JUMPI JUMPDEST DUP5 DUP2 LT PUSH2 0x1546 JUMPI POP POP PUSH1 0x1 ADD PUSH2 0x14C5 JUMP JUMPDEST DUP2 SWAP1 PUSH2 0x1552 DUP5 DUP10 PUSH2 0x43E4 JUMP JUMPDEST MLOAD PUSH1 0x0 MSTORE PUSH1 0x0 DUP8 MSTORE PUSH4 0xFFFFFFFF PUSH1 0xA SWAP1 DUP1 DUP3 PUSH1 0x40 PUSH1 0x0 KECCAK256 ADD SLOAD AND SWAP2 PUSH2 0x1577 DUP5 DUP13 PUSH2 0x43E4 JUMP JUMPDEST MLOAD PUSH1 0x0 MSTORE PUSH1 0x0 DUP11 MSTORE PUSH1 0x40 PUSH1 0x0 KECCAK256 ADD SLOAD AND GT PUSH2 0x1593 JUMPI JUMPDEST ADD PUSH2 0x1535 JUMP JUMPDEST PUSH2 0x159D DUP5 DUP10 PUSH2 0x43E4 JUMP JUMPDEST MLOAD PUSH2 0x15A8 DUP3 DUP11 PUSH2 0x43E4 JUMP JUMPDEST MLOAD PUSH2 0x15B3 DUP7 DUP12 PUSH2 0x43E4 JUMP JUMPDEST MSTORE PUSH2 0x15BE DUP3 DUP11 PUSH2 0x43E4 JUMP JUMPDEST MSTORE PUSH2 0x158D JUMP JUMPDEST PUSH4 0x4E487B71 PUSH1 0xE0 SHL PUSH1 0x0 MSTORE PUSH1 0x11 PUSH1 0x4 MSTORE PUSH1 0x24 PUSH1 0x0 REVERT JUMPDEST DUP1 PUSH1 0x0 MSTORE PUSH1 0x0 DUP6 MSTORE PUSH1 0xFF PUSH1 0x7 PUSH1 0x40 PUSH1 0x0 KECCAK256 ADD SLOAD AND PUSH1 0x3 DUP2 LT ISZERO PUSH2 0x73F JUMPI ISZERO PUSH2 0x1605 JUMPI JUMPDEST PUSH1 0x1 ADD PUSH2 0x14B9 JUMP JUMPDEST SWAP3 PUSH2 0x1617 DUP2 DUP6 PUSH2 0xB3B PUSH1 0x1 SWAP5 DUP11 PUSH2 0x43E4 JUMP JUMPDEST SWAP4 SWAP1 POP PUSH2 0x15FD JUMP JUMPDEST CALLVALUE PUSH2 0x55 JUMPI PUSH1 0x0 CALLDATASIZE PUSH1 0x3 NOT ADD SLT PUSH2 0x55 JUMPI PUSH1 0x20 PUSH1 0x40 MLOAD PUSH1 0x0 DUP1 MLOAD PUSH1 0x20 PUSH2 0x4C0E DUP4 CODECOPY DUP2 MLOAD SWAP2 MSTORE DUP2 MSTORE RETURN JUMPDEST CALLVALUE PUSH2 0x55 JUMPI PUSH1 0x20 CALLDATASIZE PUSH1 0x3 NOT ADD SLT PUSH2 0x55 JUMPI PUSH1 0x4 CALLDATALOAD PUSH1 0x0 DUP2 DUP2 MSTORE PUSH1 0x20 DUP2 SWAP1 MSTORE PUSH1 0x40 SWAP1 KECCAK256 PUSH1 0x7 ADD SLOAD PUSH1 0x8 SHR PUSH1 0x1 PUSH1 0x1 PUSH1 0xA0 SHL SUB AND CALLER SUB PUSH2 0x56C JUMPI DUP1 PUSH1 0x0 MSTORE PUSH1 0x0 PUSH1 0x20 MSTORE PUSH1 0x7 PUSH1 0x40 PUSH1 0x0 KECCAK256 ADD SWAP1 DUP2 SLOAD SWAP2 PUSH1 0xFF DUP4 AND SWAP3 PUSH1 0x3 DUP5 LT ISZERO PUSH2 0x73F JUMPI PUSH2 0x16E2 SWAP2 PUSH1 0xFF SWAP2 DUP6 PUSH2 0x16F8 JUMPI POP PUSH1 0x1 DUP3 NOT DUP3 SLOAD AND OR DUP2 SSTORE PUSH2 0x16C5 PUSH1 0x9 SLOAD PUSH2 0x468F JUMP JUMPDEST PUSH1 0x9 SSTORE JUMPDEST SLOAD AND PUSH2 0x16D8 PUSH1 0x40 MLOAD DUP1 SWAP6 PUSH2 0x4207 JUMP JUMPDEST PUSH1 0x20 DUP5 ADD SWAP1 PUSH2 0x4207 JUMP JUMPDEST PUSH1 0x0 DUP1 MLOAD PUSH1 0x20 PUSH2 0x4C4E DUP4 CODECOPY DUP2 MLOAD SWAP2 MSTORE PUSH1 0x40 CALLER SWAP4 LOG3 STOP JUMPDEST PUSH1 0x1 DUP7 EQ PUSH2 0x1707 JUMPI JUMPDEST POP PUSH2 0x16C9 JUMP JUMPDEST DUP3 NOT AND DUP2 SSTORE PUSH2 0x1717 PUSH1 0x9 SLOAD PUSH2 0x43D5 JUMP JUMPDEST PUSH1 0x9 SSTORE DUP6 PUSH2 0x1701 JUMP JUMPDEST CALLVALUE PUSH2 0x55 JUMPI PUSH1 0x0 CALLDATASIZE PUSH1 0x3 NOT ADD SLT PUSH2 0x55 JUMPI PUSH2 0x1739 PUSH2 0x4919 JUMP JUMPDEST PUSH1 0xFF NOT PUSH1 0x17 SLOAD AND PUSH1 0x17 SSTORE PUSH1 0x0 PUSH1 0x40 MLOAD PUSH32 0xA448AA3F2ACC158C0ABABF575E87E74D1CFA11F3D84AD26D32EE02E7BBCC8D70 DUP2 MSTORE NUMBER PUSH1 0x20 DUP3 ADD MSTORE PUSH1 0x0 DUP1 MLOAD PUSH1 0x20 PUSH2 0x4BEE DUP4 CODECOPY DUP2 MLOAD SWAP2 MSTORE PUSH1 0x40 CALLER SWAP3 LOG3 STOP JUMPDEST CALLVALUE PUSH2 0x55 JUMPI PUSH1 0x0 CALLDATASIZE PUSH1 0x3 NOT ADD SLT PUSH2 0x55 JUMPI PUSH1 0x80 PUSH1 0xFF PUSH1 0x17 SLOAD AND SELFBALANCE PUSH1 0x9 SLOAD SWAP1 PUSH1 0x40 MLOAD SWAP3 ISZERO ISZERO DUP4 MSTORE PUSH1 0x20 DUP4 ADD MSTORE PUSH1 0x40 DUP3 ADD MSTORE NUMBER PUSH1 0x60 DUP3 ADD MSTORE RETURN JUMPDEST CALLVALUE PUSH2 0x55 JUMPI PUSH1 0x0 CALLDATASIZE PUSH1 0x3 NOT ADD SLT PUSH2 0x55 JUMPI PUSH2 0x17D8 PUSH2 0x4B4D JUMP JUMPDEST PUSH1 0x1A DUP1 SLOAD PUSH1 0x1 PUSH1 0x1 PUSH1 0xA0 SHL SUB NOT DUP2 AND SWAP1 SWAP2 SSTORE PUSH1 0x0 SWAP1 PUSH1 0x1 PUSH1 0x1 PUSH1 0xA0 SHL SUB AND PUSH1 0x0 DUP1 MLOAD PUSH1 0x20 PUSH2 0x4C2E DUP4 CODECOPY DUP2 MLOAD SWAP2 MSTORE DUP3 DUP1 LOG3 STOP JUMPDEST CALLVALUE PUSH2 0x55 JUMPI PUSH1 0x20 DUP1 PUSH1 0x3 NOT CALLDATASIZE ADD SLT PUSH2 0x55 JUMPI PUSH1 0x4 CALLDATALOAD PUSH1 0x1 PUSH1 0x1 PUSH1 0x40 SHL SUB DUP2 GT PUSH2 0x55 JUMPI PUSH2 0x183B SWAP1 CALLDATASIZE SWAP1 PUSH1 0x4 ADD PUSH2 0x42CD JUMP JUMPDEST PUSH2 0x1847 DUP2 SWAP4 SWAP3 SWAP4 PUSH2 0x43A3 JUMP JUMPDEST SWAP2 PUSH2 0x1851 DUP3 PUSH2 0x43A3 JUMP JUMPDEST SWAP2 PUSH2 0x185B DUP2 PUSH2 0x438C JUMP JUMPDEST PUSH2 0x1868 PUSH1 0x40 MLOAD SWAP2 DUP3 PUSH2 0x40EA JUMP JUMPDEST DUP2 DUP2 MSTORE PUSH2 0x1874 DUP3 PUSH2 0x438C JUMP JUMPDEST DUP2 DUP5 ADD SWAP7 PUSH1 0x1F NOT SWAP6 SWAP2 DUP7 ADD CALLDATASIZE DUP10 CALLDATACOPY PUSH2 0x188B DUP5 PUSH2 0x438C JUMP JUMPDEST SWAP4 PUSH2 0x1899 PUSH1 0x40 MLOAD SWAP6 DUP7 PUSH2 0x40EA JUMP JUMPDEST DUP1 DUP6 MSTORE PUSH2 0x18A5 DUP2 PUSH2 0x438C JUMP JUMPDEST DUP6 DUP8 ADD SWAP8 ADD CALLDATASIZE DUP9 CALLDATACOPY PUSH1 0x0 PUSH1 0x8 SWAP2 PUSH1 0x8 SLOAD SWAP2 JUMPDEST DUP2 DUP2 LT PUSH2 0x197A JUMPI PUSH2 0x18E0 DUP12 DUP12 DUP12 DUP16 DUP13 DUP13 DUP4 PUSH2 0x18ED DUP15 PUSH1 0x40 MLOAD SWAP10 DUP11 SWAP10 PUSH1 0x80 DUP12 MSTORE PUSH1 0x80 DUP12 ADD SWAP1 PUSH2 0x425F JUMP JUMPDEST SWAP1 DUP10 DUP3 SUB DUP5 DUP12 ADD MSTORE PUSH2 0x402A JUMP JUMPDEST SWAP2 DUP8 DUP4 SUB PUSH1 0x40 DUP10 ADD MSTORE MLOAD SWAP2 DUP3 DUP2 MSTORE ADD SWAP3 SWAP1 PUSH1 0x0 JUMPDEST DUP2 DUP2 LT PUSH2 0x1954 JUMPI POP POP POP DUP5 DUP3 SUB PUSH1 0x60 DUP7 ADD MSTORE MLOAD DUP1 DUP3 MSTORE SWAP1 DUP3 ADD SWAP3 SWAP2 PUSH1 0x0 JUMPDEST DUP3 DUP2 LT PUSH2 0x192E JUMPI POP POP POP POP SUB SWAP1 RETURN JUMPDEST SWAP2 SWAP4 DUP4 SWAP6 POP SWAP1 DUP1 DUP3 PUSH2 0x1944 PUSH1 0x1 SWAP5 DUP4 SWAP8 MLOAD PUSH2 0x4207 JUMP JUMPDEST ADD SWAP6 ADD SWAP2 ADD SWAP2 DUP6 SWAP5 SWAP4 SWAP2 SWAP3 PUSH2 0x191F JUMP JUMPDEST SWAP2 SWAP6 SWAP7 POP SWAP2 SWAP3 DUP5 DUP1 DUP3 PUSH2 0x196A PUSH1 0x1 SWAP5 DUP11 MLOAD PUSH2 0x41FA JUMP JUMPDEST ADD SWAP7 ADD SWAP2 ADD SWAP2 DUP8 SWAP7 SWAP6 SWAP4 SWAP3 PUSH2 0x1901 JUMP JUMPDEST SWAP10 DUP11 PUSH2 0x198A DUP3 SWAP14 SWAP12 SWAP13 DUP5 DUP9 PUSH2 0x467F JUMP JUMPDEST CALLDATALOAD DUP5 DUP2 LT PUSH2 0x19A2 JUMPI JUMPDEST POP PUSH1 0x1 SWAP2 POP ADD SWAP11 SWAP10 SWAP9 SWAP11 PUSH2 0x18B7 JUMP JUMPDEST PUSH1 0x0 MSTORE PUSH1 0x0 DUP11 MSTORE DUP10 DUP6 PUSH1 0x40 PUSH1 0x0 KECCAK256 PUSH1 0x40 MLOAD SWAP1 PUSH2 0x19BD DUP3 PUSH2 0x4098 JUMP JUMPDEST DUP1 SLOAD DUP3 MSTORE DUP5 PUSH2 0x19CE PUSH1 0x1 DUP4 ADD PUSH2 0x410D JUMP JUMPDEST DUP4 DUP7 ADD SWAP1 DUP2 MSTORE SWAP7 PUSH2 0x19E1 PUSH1 0x2 DUP5 ADD PUSH2 0x410D JUMP JUMPDEST PUSH1 0x40 DUP6 ADD MSTORE PUSH1 0xFF SWAP6 PUSH1 0x3 SWAP9 DUP8 DUP11 DUP7 ADD SLOAD AND SWAP6 PUSH1 0x60 DUP2 ADD SWAP7 PUSH2 0x1A02 SWAP1 DUP9 PUSH2 0x4435 JUMP JUMPDEST PUSH1 0x4 DUP7 ADD SLOAD PUSH1 0x80 DUP3 ADD MSTORE PUSH1 0x5 DUP7 ADD SLOAD SWAP6 PUSH1 0xA0 DUP3 ADD SWAP7 DUP8 MSTORE PUSH1 0x6 DUP2 ADD SLOAD PUSH1 0xC0 DUP4 ADD MSTORE PUSH1 0x7 SWAP9 DUP10 DUP3 ADD SLOAD SWAP1 PUSH1 0xE0 DUP5 ADD SWAP12 DUP3 AND PUSH2 0x1A3C SWAP1 DUP14 PUSH2 0x4441 JUMP JUMPDEST PUSH1 0x1 PUSH1 0x1 PUSH1 0xA0 SHL SUB SWAP2 DUP2 SHR DUP3 AND PUSH2 0x100 DUP6 ADD MSTORE DUP3 ADD SLOAD AND PUSH2 0x120 DUP4 ADD MSTORE PUSH1 0x9 DUP2 ADD SLOAD PUSH2 0x140 DUP4 ADD MSTORE PUSH1 0xA DUP2 ADD SLOAD PUSH4 0xFFFFFFFF DUP1 DUP3 AND PUSH2 0x160 DUP6 ADD MSTORE SWAP1 DUP6 SHR AND PUSH2 0x180 DUP4 ADD MSTORE PUSH1 0xB ADD SLOAD PUSH2 0x1A0 SWAP1 SWAP2 ADD MSTORE MLOAD PUSH1 0x40 MLOAD DUP2 MLOAD DUP2 DUP5 ADD SWAP4 SWAP2 SWAP3 DUP4 SWAP2 SWAP1 PUSH2 0x1AAA SWAP1 DUP3 SWAP1 DUP8 SWAP1 DUP7 ADD PUSH2 0x41B2 JUMP JUMPDEST DUP2 ADD SUB DUP1 DUP4 MSTORE ADD PUSH2 0x1ABB SWAP1 DUP3 PUSH2 0x40EA JUMP JUMPDEST MLOAD SWAP1 KECCAK256 SWAP2 PUSH2 0x1AC8 SWAP2 PUSH2 0x43E4 JUMP JUMPDEST MSTORE MLOAD PUSH2 0x1AD4 DUP6 DUP13 PUSH2 0x43E4 JUMP JUMPDEST MSTORE MLOAD SWAP1 DUP2 LT ISZERO PUSH2 0x73F JUMPI PUSH2 0x1AF1 SWAP1 PUSH2 0x1AEC DUP5 DUP13 PUSH2 0x43E4 JUMP JUMPDEST PUSH2 0x4435 JUMP JUMPDEST MLOAD SWAP2 DUP3 LT ISZERO PUSH2 0x73F JUMPI PUSH2 0x1B0F PUSH1 0x1 SWAP3 PUSH2 0x1B0A DUP4 DUP13 PUSH2 0x43E4 JUMP JUMPDEST PUSH2 0x4441 JUMP JUMPDEST DUP13 SWAP2 PUSH2 0x1993 JUMP JUMPDEST CALLVALUE PUSH2 0x55 JUMPI PUSH1 0x0 CALLDATASIZE PUSH1 0x3 NOT ADD SLT PUSH2 0x55 JUMPI PUSH1 0x20 PUSH1 0x40 MLOAD PUSH2 0x1680 DUP2 MSTORE RETURN JUMPDEST CALLVALUE PUSH2 0x55 JUMPI PUSH1 0x40 CALLDATASIZE PUSH1 0x3 NOT ADD SLT PUSH2 0x55 JUMPI PUSH2 0x1B4C PUSH2 0x3FFE JUMP JUMPDEST PUSH1 0x1 PUSH1 0x1 PUSH1 0xA0 SHL SUB AND PUSH1 0x0 SWAP1 DUP2 MSTORE PUSH1 0x5 PUSH1 0x20 MSTORE PUSH1 0x40 SWAP1 KECCAK256 DUP1 SLOAD PUSH1 0x24 CALLDATALOAD SWAP2 SWAP1 DUP3 LT ISZERO PUSH2 0x55 JUMPI PUSH1 0x20 SWAP2 PUSH2 0x840 SWAP2 PUSH2 0x42FD JUMP JUMPDEST CALLVALUE PUSH2 0x55 JUMPI PUSH1 0x40 CALLDATASIZE PUSH1 0x3 NOT ADD SLT PUSH2 0x55 JUMPI PUSH1 0x4 CALLDATALOAD PUSH1 0x1 PUSH1 0x1 PUSH1 0x40 SHL SUB DUP2 GT PUSH2 0x55 JUMPI PUSH2 0x1BAD SWAP1 CALLDATASIZE SWAP1 PUSH1 0x4 ADD PUSH2 0x42CD JUMP JUMPDEST SWAP1 PUSH1 0x24 SWAP2 PUSH1 0x24 CALLDATALOAD SWAP3 PUSH1 0x3 SWAP2 PUSH1 0x3 DUP6 LT ISZERO SWAP1 DUP2 PUSH2 0x55 JUMPI PUSH2 0x1BCB PUSH2 0x4953 JUMP JUMPDEST PUSH1 0x14 DUP2 GT PUSH2 0x1CFC JUMPI PUSH1 0x0 JUMPDEST DUP2 DUP2 LT PUSH2 0x1BDF JUMPI STOP JUMPDEST PUSH2 0x1BEA DUP2 DUP4 DUP9 PUSH2 0x467F JUMP JUMPDEST CALLDATALOAD PUSH1 0x8 SLOAD DUP2 LT PUSH2 0x1BFE JUMPI JUMPDEST POP PUSH1 0x1 ADD PUSH2 0x1BD6 JUMP JUMPDEST DUP1 PUSH1 0x0 MSTORE PUSH1 0x20 SWAP1 PUSH1 0x0 DUP3 MSTORE PUSH1 0x7 PUSH1 0x40 PUSH1 0x0 KECCAK256 ADD SWAP2 PUSH1 0xFF DUP4 SLOAD AND SWAP3 DUP9 DUP5 LT ISZERO PUSH2 0x1CBE JUMPI DUP11 SWAP1 DUP8 DUP6 ISZERO DUP1 DUP1 PUSH2 0x1CD3 JUMPI JUMPDEST ISZERO PUSH2 0x1C83 JUMPI POP POP SWAP2 PUSH2 0x1C54 PUSH2 0x1C69 SWAP3 PUSH1 0x1 SWAP8 SWAP7 SWAP6 SWAP5 PUSH1 0x9 PUSH2 0x1C4D DUP2 SLOAD PUSH2 0x468F JUMP JUMPDEST SWAP1 SSTORE PUSH2 0x469C JUMP JUMPDEST PUSH2 0x1C61 PUSH1 0x40 MLOAD DUP1 SWAP6 PUSH2 0x4207 JUMP JUMPDEST DUP4 ADD DUP12 PUSH2 0x4207 JUMP JUMPDEST PUSH1 0x0 DUP1 MLOAD PUSH1 0x20 PUSH2 0x4C4E DUP4 CODECOPY DUP2 MLOAD SWAP2 MSTORE PUSH1 0x40 CALLER SWAP4 LOG3 SWAP1 PUSH2 0x1BF5 JUMP JUMPDEST ISZERO SWAP1 DUP2 PUSH2 0x1CAC JUMPI JUMPDEST POP PUSH2 0x1C69 SWAP3 PUSH1 0x1 SWAP8 SWAP7 SWAP6 SWAP5 SWAP3 PUSH2 0x1C54 SWAP3 ISZERO PUSH2 0x469C JUMPI PUSH1 0x9 PUSH2 0x1C4D DUP2 SLOAD PUSH2 0x43D5 JUMP JUMPDEST SWAP2 SWAP3 POP POP PUSH2 0x1CBE JUMPI DUP11 SWAP1 DUP2 ISZERO DUP9 PUSH2 0x1C8B JUMP JUMPDEST DUP8 PUSH4 0x4E487B71 PUSH1 0xE0 SHL PUSH1 0x0 MSTORE PUSH1 0x21 PUSH1 0x4 MSTORE PUSH1 0x0 REVERT JUMPDEST POP SWAP2 SWAP3 POP PUSH2 0x1CE7 JUMPI SWAP1 DUP8 DUP13 SWAP3 DUP4 ISZERO ISZERO PUSH2 0x1C2C JUMP JUMPDEST DUP9 PUSH4 0x4E487B71 PUSH1 0xE0 SHL PUSH1 0x0 MSTORE PUSH1 0x21 PUSH1 0x4 MSTORE PUSH1 0x0 REVERT JUMPDEST PUSH1 0x40 MLOAD PUSH3 0x461BCD PUSH1 0xE5 SHL DUP2 MSTORE PUSH1 0x20 PUSH1 0x4 DUP3 ADD MSTORE PUSH1 0xF PUSH1 0x24 DUP3 ADD MSTORE PUSH15 0x426174636820746F6F206C61726765 PUSH1 0x88 SHL PUSH1 0x44 DUP3 ADD MSTORE PUSH1 0x64 SWAP1 REVERT JUMPDEST CALLVALUE PUSH2 0x55 JUMPI PUSH1 0x0 CALLDATASIZE PUSH1 0x3 NOT ADD SLT PUSH2 0x55 JUMPI PUSH1 0x20 PUSH1 0xA SLOAD PUSH1 0x40 MLOAD SWAP1 DUP2 MSTORE RETURN JUMPDEST CALLVALUE PUSH2 0x55 JUMPI PUSH1 0x20 CALLDATASIZE PUSH1 0x3 NOT ADD SLT PUSH2 0x55 JUMPI PUSH1 0x1 PUSH1 0x1 PUSH1 0xA0 SHL SUB PUSH2 0x1D72 PUSH2 0x3FFE JUMP JUMPDEST AND PUSH1 0x0 MSTORE PUSH1 0x16 PUSH1 0x20 MSTORE PUSH1 0x40 PUSH1 0x0 KECCAK256 PUSH2 0x1680 NUMBER DIV PUSH1 0x0 MSTORE PUSH1 0x20 MSTORE PUSH1 0x40 DUP1 PUSH1 0x0 KECCAK256 SLOAD PUSH1 0x14 SLOAD DUP2 DUP2 DUP2 LT ISZERO PUSH1 0x0 EQ PUSH2 0x1DB2 JUMPI POP POP PUSH1 0x0 JUMPDEST DUP3 MLOAD SWAP2 DUP3 MSTORE PUSH1 0x20 DUP3 ADD MSTORE RETURN JUMPDEST PUSH2 0x1DBB SWAP2 PUSH2 0x437F JUMP JUMPDEST PUSH2 0x1DA6 JUMP JUMPDEST CALLVALUE PUSH2 0x55 JUMPI PUSH1 0x0 CALLDATASIZE PUSH1 0x3 NOT ADD SLT PUSH2 0x55 JUMPI PUSH1 0x20 PUSH1 0xFF PUSH1 0x17 SLOAD AND PUSH1 0x40 MLOAD SWAP1 ISZERO ISZERO DUP2 MSTORE RETURN JUMPDEST CALLVALUE PUSH2 0x55 JUMPI PUSH1 0x60 CALLDATASIZE PUSH1 0x3 NOT ADD SLT PUSH2 0x55 JUMPI PUSH1 0x7 PUSH1 0x4 CALLDATALOAD LT ISZERO PUSH2 0x55 JUMPI PUSH2 0x1E0A PUSH1 0x44 CALLDATALOAD PUSH2 0x43A3 JUMP JUMPDEST PUSH1 0x8 SLOAD PUSH1 0x0 DUP1 DUP1 JUMPDEST DUP4 DUP2 LT DUP1 PUSH2 0x1F19 JUMPI JUMPDEST ISZERO PUSH2 0x1ECA JUMPI DUP1 PUSH1 0x0 MSTORE PUSH1 0x0 PUSH1 0x20 MSTORE PUSH1 0xFF PUSH1 0x7 PUSH1 0x40 PUSH1 0x0 KECCAK256 ADD SLOAD AND PUSH1 0x3 DUP2 LT ISZERO PUSH2 0x73F JUMPI ISZERO DUP1 PUSH2 0x1E97 JUMPI JUMPDEST PUSH2 0x1E58 JUMPI JUMPDEST PUSH2 0x1E53 SWAP1 PUSH2 0x43D5 JUMP JUMPDEST PUSH2 0x1E12 JUMP JUMPDEST SWAP1 PUSH1 0x24 CALLDATALOAD DUP2 LT ISZERO PUSH2 0x1E78 JUMPI JUMPDEST PUSH2 0x1E70 PUSH2 0x1E53 SWAP2 PUSH2 0x43D5 JUMP JUMPDEST SWAP2 SWAP1 POP PUSH2 0x1E4A JUMP JUMPDEST SWAP2 PUSH2 0x1E70 PUSH2 0x1E8E DUP3 DUP5 PUSH2 0xB3B PUSH2 0x1E53 SWAP6 DUP11 PUSH2 0x43E4 JUMP JUMPDEST SWAP4 SWAP2 POP POP PUSH2 0x1E64 JUMP JUMPDEST POP DUP1 PUSH1 0x0 MSTORE PUSH1 0x0 PUSH1 0x20 MSTORE PUSH1 0xFF PUSH1 0x3 PUSH1 0x40 PUSH1 0x0 KECCAK256 ADD SLOAD AND PUSH1 0x7 PUSH1 0x4 CALLDATALOAD LT ISZERO PUSH2 0x73F JUMPI PUSH1 0x7 DUP2 LT ISZERO PUSH2 0x73F JUMPI PUSH1 0x4 CALLDATALOAD EQ PUSH2 0x1E45 JUMP JUMPDEST DUP5 DUP4 DUP4 PUSH2 0x1ED6 DUP3 PUSH2 0x43A3 JUMP JUMPDEST SWAP2 PUSH1 0x0 JUMPDEST DUP2 DUP2 LT PUSH2 0x1EFA JUMPI PUSH2 0xB7A DUP5 DUP5 PUSH1 0x40 MLOAD SWAP3 DUP4 SWAP3 PUSH1 0x40 DUP5 MSTORE PUSH1 0x40 DUP5 ADD SWAP1 PUSH2 0x402A JUMP JUMPDEST DUP1 PUSH2 0x1F07 PUSH1 0x1 SWAP3 DUP8 PUSH2 0x43E4 JUMP JUMPDEST MLOAD PUSH2 0x1F12 DUP3 DUP8 PUSH2 0x43E4 JUMP JUMPDEST MSTORE ADD PUSH2 0x1EDA JUMP JUMPDEST POP PUSH1 0x44 CALLDATALOAD DUP4 LT PUSH2 0x1E1B JUMP JUMPDEST PUSH1 0x0 CALLDATASIZE PUSH1 0x3 NOT ADD SLT PUSH2 0x55 JUMPI PUSH2 0x5A CALLVALUE ISZERO ISZERO PUSH2 0x43F8 JUMP JUMPDEST CALLVALUE PUSH2 0x55 JUMPI PUSH1 0x0 CALLDATASIZE PUSH1 0x3 NOT ADD SLT PUSH2 0x55 JUMPI PUSH1 0x20 PUSH1 0xFF PUSH1 0x1C SLOAD AND PUSH1 0x40 MLOAD SWAP1 ISZERO ISZERO DUP2 MSTORE RETURN JUMPDEST CALLVALUE PUSH2 0x55 JUMPI PUSH2 0x1F6C CALLDATASIZE PUSH2 0x4241 JUMP JUMPDEST SWAP3 PUSH2 0x1F78 SWAP3 SWAP2 SWAP3 PUSH2 0x4919 JUMP JUMPDEST DUP1 ISZERO PUSH2 0x20BE JUMPI DUP1 DUP3 GT ISZERO PUSH2 0x2085 JUMPI DUP3 ISZERO ISZERO DUP1 PUSH2 0x207A JUMPI JUMPDEST ISZERO PUSH2 0x203E JUMPI DUP4 ISZERO ISZERO DUP1 PUSH2 0x2033 JUMPI JUMPDEST ISZERO PUSH2 0x1FF2 JUMPI PUSH1 0xF SSTORE PUSH1 0x10 SSTORE PUSH1 0x14 SSTORE PUSH1 0x15 SSTORE PUSH1 0x0 PUSH1 0x40 MLOAD PUSH32 0xD28FEF99873700106A71D66F0EDD4E28C4571423448166C7AD2EEC3E40EB09F1 DUP2 MSTORE NUMBER PUSH1 0x20 DUP3 ADD MSTORE PUSH1 0x0 DUP1 MLOAD PUSH1 0x20 PUSH2 0x4BEE DUP4 CODECOPY DUP2 MLOAD SWAP2 MSTORE PUSH1 0x40 CALLER SWAP3 LOG3 STOP JUMPDEST PUSH1 0x40 MLOAD PUSH3 0x461BCD PUSH1 0xE5 SHL DUP2 MSTORE PUSH1 0x20 PUSH1 0x4 DUP3 ADD MSTORE PUSH1 0x19 PUSH1 0x24 DUP3 ADD MSTORE PUSH25 0x496E76616C6964206D617820636F6C6C61626F7261746F7273 PUSH1 0x38 SHL PUSH1 0x44 DUP3 ADD MSTORE PUSH1 0x64 SWAP1 REVERT JUMPDEST POP PUSH1 0x14 DUP5 GT ISZERO PUSH2 0x1F9D JUMP JUMPDEST PUSH1 0x40 MLOAD PUSH3 0x461BCD PUSH1 0xE5 SHL DUP2 MSTORE PUSH1 0x20 PUSH1 0x4 DUP3 ADD MSTORE PUSH1 0x14 PUSH1 0x24 DUP3 ADD MSTORE PUSH20 0x125B9D985B1A59081D5C1B1BD859081B1A5B5A5D PUSH1 0x62 SHL PUSH1 0x44 DUP3 ADD MSTORE PUSH1 0x64 SWAP1 REVERT JUMPDEST POP PUSH1 0x32 DUP4 GT ISZERO PUSH2 0x1F8F JUMP JUMPDEST PUSH1 0x40 MLOAD PUSH3 0x461BCD PUSH1 0xE5 SHL DUP2 MSTORE PUSH1 0x20 PUSH1 0x4 DUP3 ADD MSTORE PUSH1 0x11 PUSH1 0x24 DUP3 ADD MSTORE PUSH17 0x496E76616C6964206D6178207072696365 PUSH1 0x78 SHL PUSH1 0x44 DUP3 ADD MSTORE PUSH1 0x64 SWAP1 REVERT JUMPDEST PUSH1 0x40 MLOAD PUSH3 0x461BCD PUSH1 0xE5 SHL DUP2 MSTORE PUSH1 0x20 PUSH1 0x4 DUP3 ADD MSTORE PUSH1 0x11 PUSH1 0x24 DUP3 ADD MSTORE PUSH17 0x496E76616C6964206D696E207072696365 PUSH1 0x78 SHL PUSH1 0x44 DUP3 ADD MSTORE PUSH1 0x64 SWAP1 REVERT JUMPDEST CALLVALUE PUSH2 0x55 JUMPI PUSH1 0x0 CALLDATASIZE PUSH1 0x3 NOT ADD SLT PUSH2 0x55 JUMPI PUSH1 0x20 PUSH1 0xE SLOAD PUSH1 0x40 MLOAD SWAP1 DUP2 MSTORE RETURN JUMPDEST CALLVALUE PUSH2 0x55 JUMPI PUSH1 0x80 CALLDATASIZE PUSH1 0x3 NOT ADD SLT PUSH2 0x55 JUMPI PUSH1 0x1 PUSH1 0x1 PUSH1 0x40 SHL SUB PUSH1 0x24 CALLDATALOAD DUP2 DUP2 GT PUSH2 0x55 JUMPI PUSH2 0x2146 SWAP1 CALLDATASIZE SWAP1 PUSH1 0x4 ADD PUSH2 0x42CD JUMP JUMPDEST PUSH1 0x44 SWAP3 SWAP2 SWAP3 CALLDATALOAD DUP3 DUP2 GT PUSH2 0x55 JUMPI PUSH2 0x2161 SWAP1 CALLDATASIZE SWAP1 PUSH1 0x4 ADD PUSH2 0x42CD JUMP JUMPDEST SWAP4 SWAP1 SWAP3 PUSH1 0x64 CALLDATALOAD SWAP1 DUP2 GT PUSH2 0x55 JUMPI PUSH2 0x217C SWAP1 CALLDATASIZE SWAP1 PUSH1 0x4 ADD PUSH2 0x42CD JUMP JUMPDEST SWAP4 SWAP1 SWAP2 PUSH1 0x8 SLOAD PUSH1 0x4 CALLDATALOAD LT ISZERO PUSH2 0x245D JUMPI PUSH1 0x4 CALLDATALOAD PUSH1 0x0 MSTORE PUSH1 0x0 PUSH1 0x20 MSTORE PUSH1 0xFF PUSH1 0x7 PUSH1 0x40 PUSH1 0x0 KECCAK256 ADD SLOAD AND PUSH1 0x3 SWAP1 PUSH1 0x3 DUP2 LT ISZERO PUSH2 0x73F JUMPI PUSH2 0x2444 JUMPI PUSH1 0x4 CALLDATALOAD PUSH1 0x0 SWAP1 DUP2 MSTORE PUSH1 0x20 DUP2 SWAP1 MSTORE PUSH1 0x40 SWAP1 KECCAK256 PUSH1 0x7 ADD SLOAD PUSH1 0x8 SHR PUSH1 0x1 PUSH1 0x1 PUSH1 0xA0 SHL SUB AND CALLER SUB PUSH2 0x56C JUMPI DUP7 DUP6 EQ DUP1 ISZERO SWAP1 PUSH2 0x243A JUMPI JUMPDEST PUSH2 0x2428 JUMPI PUSH1 0x15 SLOAD DUP6 GT PUSH2 0x2416 JUMPI PUSH1 0x4 CALLDATALOAD PUSH1 0x0 MSTORE PUSH1 0x4 PUSH1 0x20 MSTORE PUSH1 0x40 PUSH1 0x0 KECCAK256 DUP1 SLOAD SWAP1 PUSH1 0x0 DUP2 SSTORE DUP2 PUSH2 0x23D9 JUMPI JUMPDEST POP POP POP SWAP4 SWAP3 SWAP2 SWAP1 PUSH1 0x0 SWAP5 PUSH1 0x0 SWAP5 JUMPDEST DUP5 DUP7 LT PUSH2 0x2240 JUMPI PUSH2 0x2710 DUP8 GT PUSH2 0x222E JUMPI STOP JUMPDEST PUSH1 0x40 MLOAD PUSH4 0x6D7903A9 PUSH1 0xE1 SHL DUP2 MSTORE PUSH1 0x4 SWAP1 REVERT JUMPDEST SWAP1 SWAP2 SWAP3 SWAP4 SWAP5 SWAP6 PUSH1 0x1 DUP1 PUSH1 0xA0 SHL SUB PUSH2 0x2260 PUSH2 0x225B DUP10 DUP10 DUP8 PUSH2 0x467F JUMP JUMPDEST PUSH2 0x4B79 JUMP JUMPDEST AND ISZERO DUP1 ISZERO PUSH2 0x23C6 JUMPI JUMPDEST PUSH2 0x222E JUMPI PUSH1 0x4 CALLDATALOAD PUSH1 0x0 MSTORE PUSH1 0x4 PUSH1 0x20 MSTORE PUSH1 0x40 PUSH1 0x0 KECCAK256 PUSH2 0x228B PUSH2 0x225B DUP10 DUP10 DUP8 PUSH2 0x467F JUMP JUMPDEST SWAP1 PUSH2 0x2297 DUP10 DUP12 DUP9 PUSH2 0x467F JUMP JUMPDEST CALLDATALOAD PUSH2 0x22A3 DUP11 DUP7 DUP11 PUSH2 0x467F JUMP JUMPDEST CALLDATALOAD SWAP1 PUSH1 0x40 MLOAD SWAP4 PUSH2 0x22B2 DUP6 PUSH2 0x40CF JUMP JUMPDEST PUSH1 0x1 PUSH1 0x1 PUSH1 0xA0 SHL SUB AND DUP5 MSTORE PUSH1 0x20 DUP5 ADD MSTORE PUSH1 0x40 DUP4 ADD MSTORE DUP1 SLOAD PUSH1 0x1 PUSH1 0x40 SHL DUP2 LT ISZERO PUSH2 0x23B0 JUMPI PUSH2 0x22E4 SWAP2 PUSH1 0x1 DUP3 ADD DUP2 SSTORE PUSH2 0x4363 JUMP JUMPDEST SWAP3 SWAP1 SWAP3 PUSH2 0x239A JUMPI PUSH1 0x1 SWAP3 PUSH1 0x2 PUSH1 0x40 PUSH2 0x232C SWAP5 DUP7 DUP1 PUSH1 0xA0 SHL SUB DUP2 MLOAD AND DUP8 DUP1 PUSH1 0xA0 SHL SUB NOT DUP6 SLOAD AND OR DUP5 SSTORE PUSH1 0x20 DUP2 ADD MLOAD DUP8 DUP6 ADD SSTORE ADD MLOAD SWAP2 ADD SSTORE PUSH2 0x2325 DUP10 DUP12 DUP9 PUSH2 0x467F JUMP JUMPDEST CALLDATALOAD SWAP1 PUSH2 0x4460 JUMP JUMPDEST SWAP7 PUSH2 0x233B PUSH2 0x225B DUP3 DUP10 DUP8 PUSH2 0x467F JUMP JUMPDEST PUSH2 0x2346 DUP3 DUP12 DUP9 PUSH2 0x467F JUMP JUMPDEST CALLDATALOAD SWAP1 PUSH2 0x2353 DUP4 DUP7 DUP11 PUSH2 0x467F JUMP JUMPDEST CALLDATALOAD PUSH1 0x40 MLOAD SWAP3 DUP4 MSTORE PUSH1 0x20 DUP4 ADD MSTORE DUP4 DUP1 PUSH1 0xA0 SHL SUB AND SWAP1 PUSH32 0x7C3BCEA2CC66DEFA7D3493A5B9546405B4ECF9860D8EE553352658C2A221FB22 PUSH1 0x40 PUSH1 0x4 CALLDATALOAD SWAP3 LOG3 ADD SWAP5 SWAP4 SWAP3 SWAP2 SWAP1 PUSH2 0x221C JUMP JUMPDEST PUSH4 0x4E487B71 PUSH1 0xE0 SHL PUSH1 0x0 MSTORE PUSH1 0x0 PUSH1 0x4 MSTORE PUSH1 0x24 PUSH1 0x0 REVERT JUMPDEST PUSH4 0x4E487B71 PUSH1 0xE0 SHL PUSH1 0x0 MSTORE PUSH1 0x41 PUSH1 0x4 MSTORE PUSH1 0x24 PUSH1 0x0 REVERT JUMPDEST POP PUSH2 0x23D2 DUP8 DUP10 DUP7 PUSH2 0x467F JUMP JUMPDEST CALLDATALOAD ISZERO PUSH2 0x2269 JUMP JUMPDEST DUP2 PUSH1 0x3 MUL SWAP2 PUSH1 0x3 DUP4 DIV SUB PUSH2 0x15C4 JUMPI PUSH1 0x0 MSTORE PUSH1 0x20 PUSH1 0x0 KECCAK256 SWAP1 DUP2 ADD SWAP1 JUMPDEST DUP2 DUP2 LT ISZERO PUSH2 0x220E JUMPI DUP1 PUSH1 0x0 DUP5 SWAP3 SSTORE PUSH1 0x0 PUSH1 0x1 DUP3 ADD SSTORE PUSH1 0x0 PUSH1 0x2 DUP3 ADD SSTORE ADD PUSH2 0x23F4 JUMP JUMPDEST PUSH1 0x40 MLOAD PUSH4 0xF9232CC5 PUSH1 0xE0 SHL DUP2 MSTORE PUSH1 0x4 SWAP1 REVERT JUMPDEST PUSH1 0x40 MLOAD PUSH4 0x16888149 PUSH1 0xE1 SHL DUP2 MSTORE PUSH1 0x4 SWAP1 REVERT JUMPDEST POP DUP6 DUP6 EQ ISZERO PUSH2 0x21E4 JUMP JUMPDEST PUSH1 0x24 PUSH1 0x40 MLOAD PUSH4 0x32786967 PUSH1 0xE2 SHL DUP2 MSTORE PUSH1 0x4 CALLDATALOAD PUSH1 0x4 DUP3 ADD MSTORE REVERT JUMPDEST PUSH1 0x24 PUSH1 0x40 MLOAD PUSH4 0x1C1269F3 PUSH1 0xE2 SHL DUP2 MSTORE PUSH1 0x4 CALLDATALOAD PUSH1 0x4 DUP3 ADD MSTORE REVERT JUMPDEST CALLVALUE PUSH2 0x55 JUMPI PUSH1 0x20 CALLDATASIZE PUSH1 0x3 NOT ADD SLT PUSH2 0x55 JUMPI PUSH1 0xA0 PUSH2 0x2494 PUSH1 0x4 CALLDATALOAD PUSH2 0x460B JUMP JUMPDEST SWAP3 PUSH1 0x40 SWAP3 SWAP2 SWAP3 MLOAD SWAP5 PUSH1 0x1 DUP1 DUP9 SHL SUB AND DUP6 MSTORE PUSH1 0x20 DUP6 ADD MSTORE PUSH1 0x40 DUP5 ADD MSTORE PUSH1 0x60 DUP4 ADD MSTORE ISZERO ISZERO PUSH1 0x80 DUP3 ADD MSTORE RETURN JUMPDEST CALLVALUE PUSH2 0x55 JUMPI PUSH1 0x0 CALLDATASIZE PUSH1 0x3 NOT ADD SLT PUSH2 0x55 JUMPI PUSH1 0x20 PUSH1 0xD SLOAD PUSH1 0x40 MLOAD SWAP1 DUP2 MSTORE RETURN JUMPDEST CALLVALUE PUSH2 0x55 JUMPI PUSH1 0x20 CALLDATASIZE PUSH1 0x3 NOT ADD SLT PUSH2 0x55 JUMPI PUSH2 0x24F4 PUSH2 0x3FFE JUMP JUMPDEST PUSH2 0x24FC PUSH2 0x4953 JUMP JUMPDEST PUSH1 0x1 PUSH1 0x1 PUSH1 0xA0 SHL SUB AND PUSH1 0x0 DUP2 DUP2 MSTORE PUSH1 0x3 PUSH1 0x20 MSTORE PUSH1 0x40 DUP1 DUP3 KECCAK256 DUP1 SLOAD PUSH1 0xFF NOT AND SWAP1 SSTORE MLOAD SWAP1 DUP3 SWAP1 PUSH32 0x7409CB8E690BCD1487FD4FD27DAD3FA92388D201BA6F953631D6D6B26299F849 SWAP1 DUP1 LOG2 PUSH32 0x3FE0AD2AEA56A8E2A5F72B5BCDA9E0656C92571B92FC3F15DAEA4319415B0FAE DUP2 MSTORE NUMBER PUSH1 0x20 DUP3 ADD MSTORE PUSH1 0x0 DUP1 MLOAD PUSH1 0x20 PUSH2 0x4BEE DUP4 CODECOPY DUP2 MLOAD SWAP2 MSTORE PUSH1 0x40 CALLER SWAP3 LOG3 STOP JUMPDEST CALLVALUE PUSH2 0x55 JUMPI PUSH1 0x0 CALLDATASIZE PUSH1 0x3 NOT ADD SLT PUSH2 0x55 JUMPI PUSH1 0x20 PUSH1 0x10 SLOAD PUSH1 0x40 MLOAD SWAP1 DUP2 MSTORE RETURN JUMPDEST CALLVALUE PUSH2 0x55 JUMPI PUSH1 0x0 CALLDATASIZE PUSH1 0x3 NOT ADD SLT PUSH2 0x55 JUMPI PUSH1 0x20 PUSH1 0x12 SLOAD PUSH1 0x40 MLOAD SWAP1 DUP2 MSTORE RETURN JUMPDEST CALLVALUE PUSH2 0x55 JUMPI PUSH1 0x0 CALLDATASIZE PUSH1 0x3 NOT ADD SLT PUSH2 0x55 JUMPI PUSH2 0x25D8 PUSH2 0x4B4D JUMP JUMPDEST PUSH1 0x1C SLOAD PUSH1 0xFF DUP2 AND ISZERO PUSH2 0x2617 JUMPI PUSH1 0xFF NOT AND PUSH1 0x1C SSTORE PUSH32 0x5DB9EE0A495BF2E6FF9C91A7834C1BA4FDD244A5E8AA4E537BD38AEAE4B073AA PUSH1 0x20 PUSH1 0x40 MLOAD CALLER DUP2 MSTORE LOG1 STOP JUMPDEST PUSH1 0x40 MLOAD PUSH4 0x8DFC202B PUSH1 0xE0 SHL DUP2 MSTORE PUSH1 0x4 SWAP1 REVERT JUMPDEST CALLVALUE PUSH2 0x55 JUMPI PUSH1 0x0 CALLDATASIZE PUSH1 0x3 NOT ADD SLT PUSH2 0x55 JUMPI PUSH1 0x20 PUSH1 0x13 SLOAD PUSH1 0x40 MLOAD SWAP1 DUP2 MSTORE RETURN JUMPDEST CALLVALUE PUSH2 0x55 JUMPI PUSH2 0x265E PUSH2 0x2658 CALLDATASIZE PUSH2 0x42B7 JUMP JUMPDEST SWAP1 PUSH2 0x44C6 JUMP JUMPDEST PUSH1 0x40 MLOAD PUSH1 0x20 SWAP2 DUP3 DUP3 ADD DUP4 DUP4 MSTORE DUP2 MLOAD DUP1 SWAP2 MSTORE DUP4 PUSH1 0x40 DUP5 ADD SWAP3 ADD SWAP4 PUSH1 0x0 JUMPDEST DUP3 DUP2 LT PUSH2 0x2687 JUMPI DUP5 DUP5 SUB DUP6 RETURN JUMPDEST DUP6 MLOAD DUP1 MLOAD PUSH1 0x1 PUSH1 0x1 PUSH1 0xA0 SHL SUB AND DUP6 MSTORE DUP1 DUP4 ADD MLOAD DUP6 DUP5 ADD MSTORE PUSH1 0x40 DUP1 DUP3 ADD MLOAD SWAP1 DUP7 ADD MSTORE PUSH1 0x60 DUP1 DUP3 ADD MLOAD SWAP1 DUP7 ADD MSTORE PUSH1 0x80 DUP1 DUP3 ADD MLOAD SWAP1 DUP7 ADD MSTORE PUSH1 0xA0 DUP1 DUP3 ADD MLOAD SWAP1 DUP7 ADD MSTORE PUSH1 0xC0 SWAP1 DUP2 ADD MLOAD SWAP1 DUP6 ADD MSTORE SWAP5 DUP2 ADD SWAP5 PUSH1 0xE0 SWAP1 SWAP4 ADD SWAP3 PUSH1 0x1 ADD PUSH2 0x267A JUMP JUMPDEST CALLVALUE PUSH2 0x55 JUMPI PUSH1 0x20 CALLDATASIZE PUSH1 0x3 NOT ADD SLT PUSH2 0x55 JUMPI PUSH1 0x4 CALLDATALOAD PUSH1 0x8 SLOAD DUP2 LT ISZERO PUSH2 0x59B JUMPI PUSH1 0x0 MSTORE PUSH1 0x0 PUSH1 0x20 MSTORE PUSH1 0x40 PUSH1 0x0 KECCAK256 PUSH1 0x40 MLOAD PUSH2 0x2719 DUP2 PUSH2 0x4098 JUMP JUMPDEST DUP2 SLOAD DUP2 MSTORE PUSH2 0x2729 PUSH1 0x1 DUP4 ADD PUSH2 0x410D JUMP JUMPDEST PUSH1 0x20 DUP3 ADD MSTORE PUSH2 0x273A PUSH1 0x2 DUP4 ADD PUSH2 0x410D JUMP JUMPDEST PUSH1 0x40 DUP3 ADD MSTORE PUSH2 0x2753 PUSH1 0xFF PUSH1 0x3 DUP5 ADD SLOAD AND PUSH1 0x60 DUP4 ADD PUSH2 0x4435 JUMP JUMPDEST PUSH1 0x4 DUP3 ADD SLOAD PUSH1 0x80 DUP3 ADD MSTORE PUSH1 0x5 DUP3 ADD SLOAD SWAP1 PUSH1 0xA0 DUP2 ADD SWAP2 DUP3 MSTORE PUSH2 0x1A0 PUSH1 0xB PUSH1 0x6 DUP6 ADD SLOAD SWAP5 PUSH1 0xC0 DUP5 ADD SWAP6 DUP7 MSTORE PUSH1 0x7 DUP2 ADD SLOAD PUSH2 0x2791 PUSH1 0xFF DUP3 AND PUSH1 0xE0 DUP8 ADD PUSH2 0x4441 JUMP JUMPDEST PUSH1 0x1 DUP1 PUSH1 0xA0 SHL SUB DUP1 SWAP2 PUSH1 0x8 SHR AND PUSH2 0x100 DUP7 ADD MSTORE PUSH1 0x8 DUP3 ADD SLOAD AND PUSH2 0x120 DUP6 ADD MSTORE PUSH1 0x9 DUP2 ADD SLOAD PUSH2 0x140 DUP6 ADD MSTORE PUSH1 0xA DUP2 ADD SLOAD PUSH4 0xFFFFFFFF SWAP1 DUP2 DUP2 AND PUSH2 0x160 DUP8 ADD MSTORE PUSH1 0x20 SHR AND PUSH2 0x180 DUP6 ADD MSTORE ADD SLOAD SWAP2 ADD MSTORE MLOAD SWAP1 PUSH2 0xCC8 PUSH2 0x2710 PUSH2 0x27FF DUP2 PUSH2 0x27F6 PUSH1 0xC SLOAD DUP8 PUSH2 0x444D JUMP JUMPDEST DIV SWAP4 MLOAD DUP6 PUSH2 0x444D JUMP JUMPDEST DIV SWAP3 PUSH2 0x2814 DUP5 PUSH2 0x280F DUP6 DUP5 PUSH2 0x437F JUMP JUMPDEST PUSH2 0x437F JUMP JUMPDEST PUSH1 0x40 MLOAD SWAP5 DUP6 SWAP5 DUP4 DUP7 PUSH2 0x4293 JUMP JUMPDEST CALLVALUE PUSH2 0x55 JUMPI PUSH1 0x40 CALLDATASIZE PUSH1 0x3 NOT ADD SLT PUSH2 0x55 JUMPI PUSH2 0x283A PUSH2 0x4014 JUMP JUMPDEST CALLER PUSH1 0x1 PUSH1 0x1 PUSH1 0xA0 SHL SUB DUP3 AND SUB PUSH2 0x2856 JUMPI PUSH2 0x9FA SWAP1 PUSH1 0x4 CALLDATALOAD PUSH2 0x4AD6 JUMP JUMPDEST PUSH1 0x40 MLOAD PUSH4 0x334BD919 PUSH1 0xE1 SHL DUP2 MSTORE PUSH1 0x4 SWAP1 REVERT JUMPDEST CALLVALUE PUSH2 0x55 JUMPI PUSH1 0x20 DUP1 PUSH1 0x3 NOT CALLDATASIZE ADD SLT PUSH2 0x55 JUMPI PUSH1 0x1 PUSH1 0x1 PUSH1 0xA0 SHL SUB PUSH2 0x288A PUSH2 0x3FFE JUMP JUMPDEST AND PUSH1 0x0 MSTORE PUSH1 0x6 DUP2 MSTORE PUSH1 0x40 PUSH1 0x0 KECCAK256 SWAP1 PUSH1 0x40 MLOAD DUP1 DUP4 DUP4 DUP3 SWAP6 SLOAD SWAP4 DUP5 DUP2 MSTORE ADD SWAP1 PUSH1 0x0 MSTORE DUP4 PUSH1 0x0 KECCAK256 SWAP3 PUSH1 0x0 JUMPDEST DUP6 DUP3 DUP3 LT PUSH2 0x28DD JUMPI POP POP POP PUSH2 0x28C9 SWAP3 POP SUB DUP4 PUSH2 0x40EA JUMP JUMPDEST PUSH2 0xCC8 PUSH1 0x40 MLOAD SWAP3 DUP3 DUP5 SWAP4 DUP5 MSTORE DUP4 ADD SWAP1 PUSH2 0x402A JUMP JUMPDEST DUP6 SLOAD DUP5 MSTORE PUSH1 0x1 SWAP6 DUP7 ADD SWAP6 DUP9 SWAP6 POP SWAP4 ADD SWAP3 ADD PUSH2 0x28B2 JUMP JUMPDEST CALLVALUE PUSH2 0x55 JUMPI PUSH1 0x20 DUP1 PUSH1 0x3 NOT CALLDATASIZE ADD SLT PUSH2 0x55 JUMPI PUSH1 0x4 CALLDATALOAD PUSH1 0x8 SLOAD DUP2 LT ISZERO PUSH2 0x59B JUMPI PUSH1 0x0 MSTORE PUSH1 0x4 DUP2 MSTORE PUSH1 0x40 PUSH1 0x0 KECCAK256 SWAP1 DUP2 SLOAD PUSH2 0x292A DUP2 PUSH2 0x438C JUMP JUMPDEST SWAP3 PUSH2 0x2938 PUSH1 0x40 MLOAD SWAP5 DUP6 PUSH2 0x40EA JUMP JUMPDEST DUP2 DUP5 MSTORE PUSH1 0x0 SWAP1 DUP2 MSTORE DUP3 DUP2 KECCAK256 DUP4 DUP1 DUP7 ADD JUMPDEST DUP5 DUP5 LT PUSH2 0x2A6E JUMPI DUP7 DUP3 DUP2 MLOAD PUSH2 0x2975 PUSH2 0x295F DUP3 PUSH2 0x438C JUMP JUMPDEST SWAP2 PUSH2 0x296D PUSH1 0x40 MLOAD SWAP4 DUP5 PUSH2 0x40EA JUMP JUMPDEST DUP1 DUP4 MSTORE PUSH2 0x438C JUMP JUMPDEST DUP2 DUP4 ADD SWAP3 SWAP1 PUSH1 0x1F NOT ADD CALLDATASIZE DUP5 CALLDATACOPY PUSH2 0x298B DUP5 MLOAD PUSH2 0x43A3 JUMP JUMPDEST SWAP1 PUSH2 0x2996 DUP6 MLOAD PUSH2 0x43A3 JUMP JUMPDEST SWAP3 PUSH1 0x0 JUMPDEST DUP7 MLOAD DUP2 LT ISZERO PUSH2 0x29FF JUMPI PUSH1 0x1 SWAP1 PUSH1 0x1 PUSH1 0x1 PUSH1 0xA0 SHL SUB PUSH2 0x29B8 DUP3 DUP11 PUSH2 0x43E4 JUMP JUMPDEST MLOAD MLOAD AND PUSH2 0x29C5 DUP3 DUP6 PUSH2 0x43E4 JUMP JUMPDEST MSTORE DUP4 PUSH2 0x29D1 DUP3 DUP11 PUSH2 0x43E4 JUMP JUMPDEST MLOAD ADD MLOAD PUSH2 0x29DE DUP3 DUP8 PUSH2 0x43E4 JUMP JUMPDEST MSTORE PUSH1 0x40 PUSH2 0x29EB DUP3 DUP11 PUSH2 0x43E4 JUMP JUMPDEST MLOAD ADD MLOAD PUSH2 0x29F8 DUP3 DUP9 PUSH2 0x43E4 JUMP JUMPDEST MSTORE ADD PUSH2 0x299A JUMP JUMPDEST POP SWAP3 SWAP2 SWAP4 SWAP1 SWAP4 PUSH1 0x40 MLOAD SWAP5 DUP6 SWAP5 PUSH1 0x60 DUP7 ADD SWAP1 PUSH1 0x60 DUP8 MSTORE MLOAD DUP1 SWAP2 MSTORE PUSH1 0x80 DUP7 ADD SWAP4 SWAP1 PUSH1 0x0 JUMPDEST DUP2 DUP2 LT PUSH2 0x2A4E JUMPI POP POP POP DUP5 DUP4 SUB SWAP1 DUP6 ADD MSTORE PUSH2 0xCC8 SWAP3 SWAP2 PUSH2 0x2A40 SWAP2 PUSH2 0x402A JUMP JUMPDEST SWAP1 DUP4 DUP3 SUB PUSH1 0x40 DUP6 ADD MSTORE PUSH2 0x425F JUMP JUMPDEST DUP3 MLOAD PUSH1 0x1 PUSH1 0x1 PUSH1 0xA0 SHL SUB AND DUP7 MSTORE DUP9 SWAP8 POP SWAP5 DUP4 ADD SWAP5 SWAP2 DUP4 ADD SWAP2 PUSH1 0x1 ADD PUSH2 0x2A21 JUMP JUMPDEST PUSH1 0x1 SWAP2 PUSH1 0x3 SWAP2 PUSH1 0x40 MLOAD PUSH2 0x2A80 DUP2 PUSH2 0x40CF JUMP JUMPDEST DUP5 DUP1 PUSH1 0xA0 SHL SUB DUP7 SLOAD AND DUP2 MSTORE DUP5 DUP7 ADD SLOAD DUP4 DUP3 ADD MSTORE PUSH1 0x2 DUP7 ADD SLOAD PUSH1 0x40 DUP3 ADD MSTORE DUP2 MSTORE ADD SWAP3 ADD SWAP3 ADD SWAP2 SWAP1 DUP5 SWAP1 PUSH2 0x2948 JUMP JUMPDEST CALLVALUE PUSH2 0x55 JUMPI PUSH2 0x2ABB CALLDATASIZE PUSH2 0x4241 JUMP JUMPDEST SWAP3 PUSH2 0x2AC7 SWAP3 SWAP2 SWAP3 PUSH2 0x4919 JUMP JUMPDEST PUSH2 0x3E8 DUP2 GT PUSH2 0x2C01 JUMPI PUSH2 0x9C4 DUP3 GT PUSH2 0x2BC1 JUMPI PUSH2 0x1388 DUP4 GT PUSH2 0x2B85 JUMPI PUSH1 0x1 DUP5 LT ISZERO DUP1 PUSH2 0x2B7A JUMPI JUMPDEST ISZERO PUSH2 0x2B42 JUMPI PUSH1 0xC SSTORE PUSH1 0xD SSTORE PUSH1 0xE SSTORE PUSH1 0x11 SSTORE PUSH1 0x0 PUSH1 0x40 MLOAD PUSH32 0xE7498543E1230A1B7E29F8BAD7ACF7600045F6502FB2CCAC22F9635970EBA98 DUP2 MSTORE NUMBER PUSH1 0x20 DUP3 ADD MSTORE PUSH1 0x0 DUP1 MLOAD PUSH1 0x20 PUSH2 0x4BEE DUP4 CODECOPY DUP2 MLOAD SWAP2 MSTORE PUSH1 0x40 CALLER SWAP3 LOG3 STOP JUMPDEST PUSH1 0x40 MLOAD PUSH3 0x461BCD PUSH1 0xE5 SHL DUP2 MSTORE PUSH1 0x20 PUSH1 0x4 DUP3 ADD MSTORE PUSH1 0x10 PUSH1 0x24 DUP3 ADD MSTORE PUSH16 0x24B73B30B634B21031B7B7B63237BBB7 PUSH1 0x81 SHL PUSH1 0x44 DUP3 ADD MSTORE PUSH1 0x64 SWAP1 REVERT JUMPDEST POP PUSH1 0x64 DUP5 GT ISZERO PUSH2 0x2AED JUMP JUMPDEST PUSH1 0x40 MLOAD PUSH3 0x461BCD PUSH1 0xE5 SHL DUP2 MSTORE PUSH1 0x20 PUSH1 0x4 DUP3 ADD MSTORE PUSH1 0x14 PUSH1 0x24 DUP3 ADD MSTORE PUSH20 0x9AC2F040E4DEF2C2D8E8F240E8DEDE40D0D2CED PUSH1 0x63 SHL PUSH1 0x44 DUP3 ADD MSTORE PUSH1 0x64 SWAP1 REVERT JUMPDEST PUSH1 0x40 MLOAD PUSH3 0x461BCD PUSH1 0xE5 SHL DUP2 MSTORE PUSH1 0x20 PUSH1 0x4 DUP3 ADD MSTORE PUSH1 0x18 PUSH1 0x24 DUP3 ADD MSTORE PUSH24 0x88CACCC2EAD8E840E4DEF2C2D8E8F240E8DEDE40D0D2CED PUSH1 0x43 SHL PUSH1 0x44 DUP3 ADD MSTORE PUSH1 0x64 SWAP1 REVERT JUMPDEST PUSH1 0x40 MLOAD PUSH3 0x461BCD PUSH1 0xE5 SHL DUP2 MSTORE PUSH1 0x20 PUSH1 0x4 DUP3 ADD MSTORE PUSH1 0x15 PUSH1 0x24 DUP3 ADD MSTORE PUSH21 0xA0D8C2E8CCDEE4DA40CCCACA40E8DEDE40D0D2CED PUSH1 0x5B SHL PUSH1 0x44 DUP3 ADD MSTORE PUSH1 0x64 SWAP1 REVERT JUMPDEST CALLVALUE PUSH2 0x55 JUMPI PUSH1 0x40 CALLDATASIZE PUSH1 0x3 NOT ADD SLT PUSH2 0x55 JUMPI PUSH2 0x9FA PUSH1 0x4 CALLDATALOAD PUSH2 0x2C5D PUSH2 0x4014 JUMP JUMPDEST SWAP1 DUP1 PUSH1 0x0 MSTORE PUSH1 0x1D PUSH1 0x20 MSTORE PUSH2 0x2C78 PUSH1 0x1 PUSH1 0x40 PUSH1 0x0 KECCAK256 ADD SLOAD PUSH2 0x499D JUMP JUMPDEST PUSH2 0x4A56 JUMP JUMPDEST CALLVALUE PUSH2 0x55 JUMPI PUSH1 0x0 CALLDATASIZE PUSH1 0x3 NOT ADD SLT PUSH2 0x55 JUMPI PUSH1 0x20 PUSH1 0x40 MLOAD PUSH1 0x64 DUP2 MSTORE RETURN JUMPDEST CALLVALUE PUSH2 0x55 JUMPI PUSH1 0x20 CALLDATASIZE PUSH1 0x3 NOT ADD SLT PUSH2 0x55 JUMPI PUSH1 0x4 CALLDATALOAD PUSH2 0x2CB5 PUSH2 0x4919 JUMP JUMPDEST PUSH2 0x2CC0 DUP2 ISZERO ISZERO PUSH2 0x43F8 JUMP JUMPDEST SELFBALANCE DUP2 GT PUSH2 0x2D15 JUMPI PUSH2 0x2CD1 SWAP1 CALLER PUSH2 0x49C3 JUMP JUMPDEST PUSH1 0x0 PUSH1 0x40 MLOAD PUSH32 0x5C2EED7E29B3502A726FAF503AC4316B7101F3DA813654E8DF02C13449E03DA8 DUP2 MSTORE NUMBER PUSH1 0x20 DUP3 ADD MSTORE PUSH1 0x0 DUP1 MLOAD PUSH1 0x20 PUSH2 0x4BEE DUP4 CODECOPY DUP2 MLOAD SWAP2 MSTORE PUSH1 0x40 CALLER SWAP3 LOG3 STOP JUMPDEST PUSH1 0x40 MLOAD PUSH3 0x461BCD PUSH1 0xE5 SHL DUP2 MSTORE PUSH1 0x20 PUSH1 0x4 DUP3 ADD MSTORE PUSH1 0x14 PUSH1 0x24 DUP3 ADD MSTORE PUSH20 0x496E73756666696369656E742062616C616E6365 PUSH1 0x60 SHL PUSH1 0x44 DUP3 ADD MSTORE PUSH1 0x64 SWAP1 REVERT JUMPDEST CALLVALUE PUSH2 0x55 JUMPI PUSH2 0x2D5F CALLDATASIZE PUSH2 0x4241 JUMP JUMPDEST SWAP2 PUSH2 0x2D69 DUP4 PUSH2 0x43A3 JUMP JUMPDEST PUSH1 0x0 DUP1 SWAP3 PUSH1 0x0 SWAP6 PUSH1 0x8 SLOAD SWAP7 JUMPDEST DUP8 DUP2 LT DUP1 PUSH2 0x2E87 JUMPI JUMPDEST ISZERO PUSH2 0x2E37 JUMPI DUP1 PUSH1 0x0 MSTORE PUSH1 0x20 PUSH1 0x0 DUP2 MSTORE PUSH1 0xFF PUSH1 0x7 PUSH1 0x40 PUSH1 0x0 KECCAK256 ADD SLOAD AND PUSH1 0x3 DUP2 LT ISZERO PUSH2 0x73F JUMPI ISZERO SWAP1 DUP2 PUSH2 0x2E1B JUMPI JUMPDEST DUP2 PUSH2 0x2E01 JUMPI JUMPDEST POP PUSH2 0x2DC4 JUMPI JUMPDEST PUSH2 0x2DBF SWAP1 PUSH2 0x43D5 JUMP JUMPDEST PUSH2 0x2D75 JUMP JUMPDEST SWAP5 DUP7 DUP2 LT ISZERO PUSH2 0x2DE2 JUMPI JUMPDEST PUSH2 0x2DDA PUSH2 0x2DBF SWAP2 PUSH2 0x43D5 JUMP JUMPDEST SWAP6 SWAP1 POP PUSH2 0x2DB6 JUMP JUMPDEST SWAP3 PUSH2 0x2DDA PUSH2 0x2DF8 DUP3 DUP9 PUSH2 0xB3B PUSH2 0x2DBF SWAP6 DUP11 PUSH2 0x43E4 JUMP JUMPDEST SWAP5 SWAP2 POP POP PUSH2 0x2DCE JUMP JUMPDEST PUSH1 0x0 SWAP2 POP DUP3 DUP3 MSTORE MSTORE DUP3 PUSH1 0x5 PUSH1 0x40 PUSH1 0x0 KECCAK256 ADD SLOAD GT ISZERO DUP11 PUSH2 0x2DB0 JUMP JUMPDEST SWAP1 POP DUP2 PUSH1 0x0 MSTORE PUSH1 0x0 DUP2 MSTORE DUP10 PUSH1 0x5 PUSH1 0x40 PUSH1 0x0 KECCAK256 ADD SLOAD LT ISZERO SWAP1 PUSH2 0x2DAA JUMP JUMPDEST POP POP POP DUP3 PUSH2 0x2E44 DUP3 PUSH2 0x43A3 JUMP JUMPDEST SWAP2 PUSH1 0x0 JUMPDEST DUP2 DUP2 LT PUSH2 0x2E68 JUMPI PUSH2 0xB7A DUP5 DUP5 PUSH1 0x40 MLOAD SWAP3 DUP4 SWAP3 PUSH1 0x40 DUP5 MSTORE PUSH1 0x40 DUP5 ADD SWAP1 PUSH2 0x402A JUMP JUMPDEST DUP1 PUSH2 0x2E75 PUSH1 0x1 SWAP3 DUP8 PUSH2 0x43E4 JUMP JUMPDEST MLOAD PUSH2 0x2E80 DUP3 DUP8 PUSH2 0x43E4 JUMP JUMPDEST MSTORE ADD PUSH2 0x2E48 JUMP JUMPDEST POP DUP2 DUP5 LT PUSH2 0x2D7E JUMP JUMPDEST CALLVALUE PUSH2 0x55 JUMPI PUSH1 0x0 CALLDATASIZE PUSH1 0x3 NOT ADD SLT PUSH2 0x55 JUMPI PUSH1 0x20 PUSH1 0x15 SLOAD PUSH1 0x40 MLOAD SWAP1 DUP2 MSTORE RETURN JUMPDEST PUSH1 0x20 CALLDATASIZE PUSH1 0x3 NOT ADD SLT PUSH2 0x55 JUMPI PUSH2 0x2EC2 PUSH2 0x4851 JUMP JUMPDEST PUSH2 0x2ECA PUSH2 0x4874 JUMP JUMPDEST PUSH1 0x8 SLOAD PUSH1 0x4 CALLDATALOAD LT ISZERO PUSH2 0x245D JUMPI PUSH1 0x4 CALLDATALOAD PUSH1 0x0 MSTORE PUSH1 0x0 PUSH1 0x20 MSTORE PUSH1 0xFF PUSH1 0x7 PUSH1 0x40 PUSH1 0x0 KECCAK256 ADD SLOAD AND PUSH1 0x3 DUP2 LT ISZERO PUSH2 0x73F JUMPI PUSH2 0x2444 JUMPI CALLER PUSH1 0x0 MSTORE PUSH1 0x3 PUSH1 0x20 MSTORE PUSH1 0xFF PUSH1 0x40 PUSH1 0x0 KECCAK256 SLOAD AND PUSH2 0x35A1 JUMPI PUSH1 0xFF PUSH1 0x17 SLOAD AND PUSH2 0x358F JUMPI PUSH1 0x4 CALLDATALOAD PUSH1 0x0 MSTORE PUSH1 0x0 PUSH1 0x20 MSTORE PUSH1 0x40 PUSH1 0x0 KECCAK256 CALLER PUSH1 0x0 MSTORE PUSH1 0x2 PUSH1 0x20 MSTORE PUSH1 0x40 PUSH1 0x0 KECCAK256 PUSH1 0x4 CALLDATALOAD PUSH1 0x0 MSTORE PUSH1 0x20 MSTORE PUSH1 0xFF PUSH1 0x40 PUSH1 0x0 KECCAK256 SLOAD AND PUSH2 0x3576 JUMPI PUSH1 0x5 DUP2 ADD SLOAD DUP1 CALLVALUE LT PUSH2 0x3558 JUMPI PUSH2 0x2710 PUSH2 0x2F69 PUSH1 0xC SLOAD DUP4 PUSH2 0x444D JUMP JUMPDEST DIV PUSH2 0x2710 PUSH2 0x2F7B PUSH1 0x6 DUP6 ADD SLOAD DUP5 PUSH2 0x444D JUMP JUMPDEST DIV SWAP3 PUSH2 0x2F8B DUP5 PUSH2 0x280F DUP5 DUP7 PUSH2 0x437F JUMP JUMPDEST CALLER PUSH1 0x0 MSTORE PUSH1 0x2 PUSH1 0x20 MSTORE PUSH1 0x40 PUSH1 0x0 KECCAK256 PUSH1 0x4 CALLDATALOAD PUSH1 0x0 MSTORE PUSH1 0x20 MSTORE PUSH1 0x40 PUSH1 0x0 KECCAK256 PUSH1 0x1 PUSH1 0xFF NOT DUP3 SLOAD AND OR SWAP1 SSTORE CALLER PUSH1 0x0 MSTORE PUSH1 0x6 PUSH1 0x20 MSTORE PUSH2 0x2FCB PUSH1 0x4 CALLDATALOAD PUSH1 0x40 PUSH1 0x0 KECCAK256 PUSH2 0x48E4 JUMP JUMPDEST PUSH1 0xA DUP3 ADD SLOAD PUSH4 0xFFFFFFFF DUP1 DUP3 AND EQ PUSH2 0x15C4 JUMPI PUSH4 0xFFFFFFFF PUSH1 0x1 DUP2 DUP4 AND ADD AND SWAP1 PUSH4 0xFFFFFFFF NOT AND OR PUSH1 0xA DUP4 ADD SSTORE PUSH1 0xB DUP3 ADD PUSH2 0x3006 DUP6 DUP3 SLOAD PUSH2 0x4460 JUMP JUMPDEST SWAP1 SSTORE PUSH2 0x3013 PUSH1 0xA SLOAD PUSH2 0x43D5 JUMP JUMPDEST PUSH1 0xA SSTORE PUSH2 0x3022 DUP5 PUSH1 0xB SLOAD PUSH2 0x4460 JUMP JUMPDEST PUSH1 0xB SSTORE PUSH1 0x1 DUP1 PUSH1 0xA0 SHL SUB PUSH1 0x7 DUP4 ADD SLOAD PUSH1 0x8 SHR AND PUSH1 0x0 MSTORE PUSH1 0x1 PUSH1 0x20 MSTORE PUSH1 0x1 PUSH1 0x40 PUSH1 0x0 KECCAK256 ADD PUSH2 0x304F DUP2 SLOAD PUSH2 0x43D5 JUMP JUMPDEST SWAP1 SSTORE PUSH2 0x305B DUP6 DUP3 PUSH2 0x4460 JUMP JUMPDEST PUSH1 0x1 DUP1 PUSH1 0xA0 SHL SUB PUSH1 0x7 DUP5 ADD SLOAD PUSH1 0x8 SHR AND PUSH1 0x0 MSTORE PUSH1 0x1 PUSH1 0x20 MSTORE PUSH2 0x3086 PUSH1 0x2 PUSH1 0x40 PUSH1 0x0 KECCAK256 ADD SWAP2 DUP3 SLOAD PUSH2 0x4460 JUMP JUMPDEST SWAP1 SSTORE PUSH1 0x40 MLOAD CALLER PUSH1 0x60 SHL PUSH1 0x20 DUP3 ADD MSTORE PUSH1 0x4 CALLDATALOAD PUSH1 0x34 DUP3 ADD MSTORE NUMBER PUSH1 0x54 DUP3 ADD MSTORE DUP5 PUSH1 0x74 DUP3 ADD MSTORE PREVRANDAO PUSH1 0x94 DUP3 ADD MSTORE PUSH1 0x94 DUP2 MSTORE DUP1 PUSH1 0xC0 DUP2 ADD LT PUSH1 0x1 DUP1 PUSH1 0x40 SHL SUB PUSH1 0xC0 DUP4 ADD GT OR PUSH2 0x23B0 JUMPI PUSH1 0xC0 DUP2 ADD PUSH1 0x40 MSTORE DUP1 MLOAD PUSH1 0x20 DUP3 ADD KECCAK256 SWAP4 PUSH2 0x30E4 PUSH1 0xC0 DUP4 ADD PUSH2 0x40B4 JUMP JUMPDEST CALLER PUSH1 0xC0 DUP4 ADD MSTORE PUSH1 0x4 CALLDATALOAD PUSH1 0xE0 DUP4 ADD MSTORE NUMBER PUSH2 0x100 DUP4 ADD MSTORE DUP6 PUSH2 0x120 DUP4 ADD MSTORE DUP7 PUSH2 0x140 DUP4 ADD MSTORE PUSH2 0x160 DUP3 ADD MSTORE DUP4 PUSH2 0x180 DUP3 ADD MSTORE PUSH1 0x7 SLOAD PUSH1 0x1 PUSH1 0x40 SHL DUP2 LT ISZERO PUSH2 0x23B0 JUMPI DUP1 PUSH1 0x1 PUSH2 0x3133 SWAP3 ADD PUSH1 0x7 SSTORE PUSH2 0x432B JUMP JUMPDEST SWAP2 SWAP1 SWAP2 PUSH2 0x239A JUMPI PUSH2 0x180 PUSH1 0x6 SWAP2 PUSH1 0x1 DUP1 PUSH1 0xA0 SHL SUB PUSH1 0xC0 DUP3 ADD MLOAD AND PUSH1 0x1 DUP1 PUSH1 0xA0 SHL SUB NOT DUP6 SLOAD AND OR DUP5 SSTORE PUSH1 0xE0 DUP2 ADD MLOAD PUSH1 0x1 DUP6 ADD SSTORE PUSH2 0x100 DUP2 ADD MLOAD PUSH1 0x2 DUP6 ADD SSTORE PUSH2 0x120 DUP2 ADD MLOAD PUSH1 0x3 DUP6 ADD SSTORE PUSH2 0x140 DUP2 ADD MLOAD PUSH1 0x4 DUP6 ADD SSTORE PUSH2 0x160 DUP2 ADD MLOAD PUSH1 0x5 DUP6 ADD SSTORE ADD MLOAD SWAP2 ADD SSTORE PUSH1 0x4 CALLDATALOAD PUSH1 0x0 MSTORE PUSH1 0x0 PUSH1 0x20 MSTORE PUSH1 0x40 PUSH1 0x0 KECCAK256 PUSH1 0xB PUSH1 0x40 MLOAD SWAP2 PUSH2 0x31B5 DUP4 PUSH2 0x4098 JUMP JUMPDEST DUP1 SLOAD DUP4 MSTORE PUSH2 0x31C5 PUSH1 0x1 DUP3 ADD PUSH2 0x410D JUMP JUMPDEST PUSH1 0x20 DUP5 ADD MSTORE PUSH2 0x31D6 PUSH1 0x2 DUP3 ADD PUSH2 0x410D JUMP JUMPDEST PUSH1 0x40 DUP5 ADD MSTORE PUSH2 0x31EF PUSH1 0xFF PUSH1 0x3 DUP4 ADD SLOAD AND PUSH1 0x60 DUP6 ADD PUSH2 0x4435 JUMP JUMPDEST PUSH1 0x4 DUP2 ADD SLOAD PUSH1 0x80 DUP5 ADD MSTORE PUSH1 0x5 DUP2 ADD SLOAD PUSH1 0xA0 DUP5 ADD MSTORE PUSH1 0x6 DUP2 ADD SLOAD PUSH1 0xC0 DUP5 ADD MSTORE PUSH1 0x7 DUP2 ADD SLOAD PUSH2 0x3222 PUSH1 0xFF DUP3 AND PUSH1 0xE0 DUP7 ADD PUSH2 0x4441 JUMP JUMPDEST PUSH1 0x1 PUSH1 0x1 PUSH1 0xA0 SHL SUB PUSH1 0x8 SWAP2 DUP3 SHR DUP2 AND PUSH2 0x100 DUP7 ADD MSTORE SWAP1 DUP3 ADD SLOAD AND PUSH2 0x120 DUP5 ADD MSTORE PUSH1 0x9 DUP2 ADD SLOAD PUSH2 0x140 DUP5 ADD MSTORE PUSH1 0xA DUP2 ADD SLOAD PUSH4 0xFFFFFFFF DUP1 DUP3 AND PUSH2 0x160 DUP7 ADD MSTORE PUSH1 0x20 SWAP2 DUP3 SHR AND PUSH2 0x180 DUP6 ADD MSTORE SWAP2 ADD SLOAD PUSH2 0x1A0 DUP4 ADD MSTORE PUSH1 0x4 DUP1 CALLDATALOAD PUSH1 0x0 SWAP1 DUP2 MSTORE SWAP2 MSTORE PUSH1 0x40 SWAP1 KECCAK256 DUP1 SLOAD PUSH2 0x328F DUP2 PUSH2 0x438C JUMP JUMPDEST SWAP2 PUSH2 0x329D PUSH1 0x40 MLOAD SWAP4 DUP5 PUSH2 0x40EA JUMP JUMPDEST DUP2 DUP4 MSTORE PUSH1 0x20 DUP4 ADD SWAP1 PUSH1 0x0 MSTORE PUSH1 0x20 PUSH1 0x0 KECCAK256 PUSH1 0x0 SWAP2 JUMPDEST DUP4 DUP4 LT PUSH2 0x351A JUMPI POP POP POP POP DUP1 MLOAD ISZERO PUSH1 0x0 EQ PUSH2 0x33C1 JUMPI POP DUP6 PUSH2 0x3363 JUMPI JUMPDEST POP JUMPDEST DUP1 PUSH2 0x3345 JUMPI JUMPDEST POP DUP3 CALLVALUE GT PUSH2 0x332D JUMPI JUMPDEST PUSH1 0x8 PUSH1 0x1 DUP1 PUSH1 0xA0 SHL SUB SWAP2 ADD SLOAD AND SWAP3 PUSH1 0x40 MLOAD SWAP3 DUP4 MSTORE PUSH1 0x20 DUP4 ADD MSTORE PUSH1 0x40 DUP3 ADD MSTORE PUSH1 0x4 CALLDATALOAD SWAP1 PUSH32 0xCCE78CD734134EE2C4E5032FB78537E08D528A411C79DDE2B4F76FA7E8F44481 PUSH1 0x60 CALLER SWAP3 LOG4 PUSH1 0x1 PUSH1 0x1B SSTORE STOP JUMPDEST PUSH2 0x3340 PUSH2 0x333A DUP5 CALLVALUE PUSH2 0x437F JUMP JUMPDEST CALLER PUSH2 0x49C3 JUMP JUMPDEST PUSH2 0x32DE JUMP JUMPDEST PUSH1 0x8 DUP3 ADD SLOAD PUSH2 0x335D SWAP2 SWAP1 PUSH1 0x1 PUSH1 0x1 PUSH1 0xA0 SHL SUB AND PUSH2 0x49C3 JUMP JUMPDEST DUP5 PUSH2 0x32D5 JUMP JUMPDEST PUSH2 0x100 DUP2 ADD MLOAD PUSH2 0x337D SWAP1 DUP8 SWAP1 PUSH1 0x1 PUSH1 0x1 PUSH1 0xA0 SHL SUB AND PUSH2 0x49C3 JUMP JUMPDEST PUSH2 0x100 PUSH1 0x1 DUP1 PUSH1 0xA0 SHL SUB SWAP2 ADD MLOAD AND PUSH1 0x40 MLOAD DUP7 DUP2 MSTORE PUSH1 0x0 DUP1 MLOAD PUSH1 0x20 PUSH2 0x4B8E DUP4 CODECOPY DUP2 MLOAD SWAP2 MSTORE PUSH1 0x20 DUP3 ADD MSTORE PUSH1 0x0 DUP1 MLOAD PUSH1 0x20 PUSH2 0x4BCE DUP4 CODECOPY DUP2 MLOAD SWAP2 MSTORE PUSH1 0x40 PUSH1 0x4 CALLDATALOAD SWAP3 LOG3 DUP6 PUSH2 0x32CD JUMP JUMPDEST SWAP4 SWAP1 SWAP5 SWAP2 SWAP6 SWAP3 PUSH1 0x0 SWAP7 PUSH1 0x0 SWAP8 JUMPDEST DUP7 MLOAD DUP10 LT ISZERO PUSH2 0x3486 JUMPI PUSH2 0x3416 PUSH1 0x1 SWAP2 DUP11 PUSH2 0x2710 PUSH2 0x33F9 PUSH1 0x20 PUSH2 0x33F0 DUP5 DUP15 PUSH2 0x43E4 JUMP JUMPDEST MLOAD ADD MLOAD DUP12 PUSH2 0x444D JUMP JUMPDEST DIV DUP1 PUSH2 0x341E JUMPI JUMPDEST POP PUSH2 0x340D PUSH1 0x20 SWAP2 DUP12 PUSH2 0x43E4 JUMP JUMPDEST MLOAD ADD MLOAD SWAP1 PUSH2 0x4460 JUMP JUMPDEST SWAP9 ADD SWAP8 PUSH2 0x33CE JUMP JUMPDEST PUSH2 0x343B DUP2 DUP13 PUSH2 0x3433 DUP6 DUP10 DUP1 PUSH1 0xA0 SHL SUB SWAP3 PUSH2 0x43E4 JUMP JUMPDEST MLOAD MLOAD AND PUSH2 0x49C3 JUMP JUMPDEST PUSH1 0x40 PUSH2 0x345B DUP13 PUSH2 0x3451 DUP6 DUP10 DUP1 PUSH1 0xA0 SHL SUB SWAP3 PUSH2 0x43E4 JUMP JUMPDEST MLOAD MLOAD AND SWAP4 DUP14 PUSH2 0x43E4 JUMP JUMPDEST MLOAD ADD MLOAD PUSH1 0x40 MLOAD SWAP2 DUP3 MSTORE PUSH1 0x20 DUP3 ADD MSTORE PUSH1 0x0 DUP1 MLOAD PUSH1 0x20 PUSH2 0x4BCE DUP4 CODECOPY DUP2 MLOAD SWAP2 MSTORE PUSH1 0x40 PUSH1 0x4 CALLDATALOAD SWAP3 LOG3 DUP11 DUP13 PUSH2 0x3400 JUMP JUMPDEST SWAP2 SWAP5 SWAP8 POP SWAP3 SWAP6 SWAP2 SWAP5 POP PUSH2 0x2710 SUB PUSH2 0x2710 DUP2 GT PUSH2 0x15C4 JUMPI PUSH2 0x34A9 PUSH2 0x2710 SWAP2 DUP9 PUSH2 0x444D JUMP JUMPDEST DIV SWAP1 DUP2 PUSH2 0x34B8 JUMPI JUMPDEST POP POP PUSH2 0x32CF JUMP JUMPDEST PUSH2 0x100 DUP2 ADD MLOAD PUSH2 0x34D2 SWAP1 DUP4 SWAP1 PUSH1 0x1 PUSH1 0x1 PUSH1 0xA0 SHL SUB AND PUSH2 0x49C3 JUMP JUMPDEST PUSH2 0x100 ADD MLOAD PUSH1 0x40 DUP1 MLOAD SWAP3 DUP4 MSTORE PUSH1 0x0 DUP1 MLOAD PUSH1 0x20 PUSH2 0x4B8E DUP4 CODECOPY DUP2 MLOAD SWAP2 MSTORE PUSH1 0x20 DUP5 ADD MSTORE PUSH1 0x1 PUSH1 0x1 PUSH1 0xA0 SHL SUB SWAP1 SWAP2 AND SWAP2 PUSH1 0x4 CALLDATALOAD SWAP2 PUSH1 0x0 DUP1 MLOAD PUSH1 0x20 PUSH2 0x4BCE DUP4 CODECOPY DUP2 MLOAD SWAP2 MSTORE SWAP2 LOG3 DUP6 DUP1 PUSH2 0x34B1 JUMP JUMPDEST PUSH1 0x3 PUSH1 0x20 PUSH1 0x1 SWAP3 PUSH1 0x40 MLOAD PUSH2 0x352D DUP2 PUSH2 0x40CF JUMP JUMPDEST DUP5 DUP1 PUSH1 0xA0 SHL SUB DUP7 SLOAD AND DUP2 MSTORE DUP5 DUP7 ADD SLOAD DUP4 DUP3 ADD MSTORE PUSH1 0x2 DUP7 ADD SLOAD PUSH1 0x40 DUP3 ADD MSTORE DUP2 MSTORE ADD SWAP3 ADD SWAP3 ADD SWAP2 SWAP1 PUSH2 0x32B1 JUMP JUMPDEST PUSH1 0x44 SWAP1 PUSH1 0x40 MLOAD SWAP1 PUSH4 0xB99E2AB7 PUSH1 0xE0 SHL DUP3 MSTORE PUSH1 0x4 DUP3 ADD MSTORE CALLVALUE PUSH1 0x24 DUP3 ADD MSTORE REVERT JUMPDEST PUSH1 0x24 PUSH1 0x40 MLOAD PUSH4 0x42844041 PUSH1 0xE1 SHL DUP2 MSTORE PUSH1 0x4 CALLDATALOAD PUSH1 0x4 DUP3 ADD MSTORE REVERT JUMPDEST PUSH1 0x40 MLOAD PUSH4 0xEFF07C1 PUSH1 0xE2 SHL DUP2 MSTORE PUSH1 0x4 SWAP1 REVERT JUMPDEST PUSH1 0x40 MLOAD PUSH4 0xEBB6F34B PUSH1 0xE0 SHL DUP2 MSTORE PUSH1 0x4 SWAP1 REVERT JUMPDEST CALLVALUE PUSH2 0x55 JUMPI PUSH1 0x20 CALLDATASIZE PUSH1 0x3 NOT ADD SLT PUSH2 0x55 JUMPI PUSH1 0x4 CALLDATALOAD PUSH1 0x0 MSTORE PUSH1 0x1D PUSH1 0x20 MSTORE PUSH1 0x20 PUSH1 0x1 PUSH1 0x40 PUSH1 0x0 KECCAK256 ADD SLOAD PUSH1 0x40 MLOAD SWAP1 DUP2 MSTORE RETURN JUMPDEST CALLVALUE PUSH2 0x55 JUMPI PUSH1 0x20 CALLDATASIZE PUSH1 0x3 NOT ADD SLT PUSH2 0x55 JUMPI PUSH1 0x1 PUSH1 0x1 PUSH1 0xA0 SHL SUB PUSH2 0x3603 PUSH2 0x3FFE JUMP JUMPDEST AND PUSH1 0x0 MSTORE PUSH1 0x3 PUSH1 0x20 MSTORE PUSH1 0x20 PUSH1 0xFF PUSH1 0x40 PUSH1 0x0 KECCAK256 SLOAD AND PUSH1 0x40 MLOAD SWAP1 ISZERO ISZERO DUP2 MSTORE RETURN JUMPDEST CALLVALUE PUSH2 0x55 JUMPI PUSH1 0x80 CALLDATASIZE PUSH1 0x3 NOT ADD SLT PUSH2 0x55 JUMPI PUSH2 0x363A PUSH2 0x3FFE JUMP JUMPDEST PUSH1 0x1 PUSH1 0x1 PUSH1 0x40 SHL SUB SWAP1 PUSH1 0x24 CALLDATALOAD DUP3 DUP2 GT PUSH2 0x55 JUMPI PUSH2 0x365B SWAP1 CALLDATASIZE SWAP1 PUSH1 0x4 ADD PUSH2 0x4214 JUMP JUMPDEST SWAP1 PUSH1 0x44 CALLDATALOAD SWAP4 DUP5 GT PUSH2 0x55 JUMPI PUSH1 0x54 PUSH2 0x36C0 SWAP2 PUSH2 0x367C PUSH1 0x20 SWAP7 CALLDATASIZE SWAP1 PUSH1 0x4 ADD PUSH2 0x4214 JUMP JUMPDEST SWAP1 DUP2 DUP7 PUSH1 0x40 MLOAD SWAP8 DUP9 SWAP6 DUP12 DUP8 ADD SWAP11 PUSH1 0x1 DUP1 PUSH1 0x60 SHL SUB NOT SWAP1 PUSH1 0x60 SHL AND DUP12 MSTORE PUSH1 0x34 DUP8 ADD CALLDATACOPY DUP5 ADD SWAP2 PUSH1 0x34 DUP4 ADD PUSH1 0x0 DUP2 MSTORE CALLDATACOPY ADD PUSH1 0x64 CALLDATALOAD PUSH1 0x34 DUP3 ADD MSTORE SUB PUSH1 0x34 DUP2 ADD DUP5 MSTORE ADD DUP3 PUSH2 0x40EA JUMP JUMPDEST MLOAD SWAP1 KECCAK256 PUSH1 0x40 MLOAD SWAP1 DUP2 MSTORE RETURN JUMPDEST CALLVALUE PUSH2 0x55 JUMPI PUSH1 0x0 CALLDATASIZE PUSH1 0x3 NOT ADD SLT PUSH2 0x55 JUMPI PUSH1 0x20 PUSH1 0x40 MLOAD PUSH1 0x0 DUP1 MLOAD PUSH1 0x20 PUSH2 0x4BAE DUP4 CODECOPY DUP2 MLOAD SWAP2 MSTORE DUP2 MSTORE RETURN JUMPDEST CALLVALUE PUSH2 0x55 JUMPI PUSH1 0x0 CALLDATASIZE PUSH1 0x3 NOT ADD SLT PUSH2 0x55 JUMPI PUSH1 0x20 PUSH1 0x14 SLOAD PUSH1 0x40 MLOAD SWAP1 DUP2 MSTORE RETURN JUMPDEST CALLVALUE PUSH2 0x55 JUMPI PUSH1 0xC0 CALLDATASIZE PUSH1 0x3 NOT ADD SLT PUSH2 0x55 JUMPI PUSH1 0x4 CALLDATALOAD PUSH1 0x1 PUSH1 0x1 PUSH1 0x40 SHL SUB DUP2 GT PUSH2 0x55 JUMPI PUSH2 0x3742 SWAP1 CALLDATASIZE SWAP1 PUSH1 0x4 ADD PUSH2 0x4214 JUMP JUMPDEST PUSH1 0x24 CALLDATALOAD PUSH1 0x1 PUSH1 0x1 PUSH1 0x40 SHL SUB DUP2 GT PUSH2 0x55 JUMPI PUSH2 0x3761 SWAP1 CALLDATASIZE SWAP1 PUSH1 0x4 ADD PUSH2 0x4214 JUMP JUMPDEST SWAP3 SWAP1 SWAP2 PUSH1 0x7 PUSH1 0x44 CALLDATALOAD LT ISZERO PUSH2 0x55 JUMPI PUSH2 0x3777 PUSH2 0x4851 JUMP JUMPDEST PUSH2 0x377F PUSH2 0x4874 JUMP JUMPDEST CALLER PUSH1 0x0 MSTORE PUSH1 0x3 PUSH1 0x20 MSTORE PUSH1 0xFF PUSH1 0x40 PUSH1 0x0 KECCAK256 SLOAD AND PUSH2 0x35A1 JUMPI PUSH1 0xFF PUSH1 0x17 SLOAD AND PUSH2 0x358F JUMPI CALLER PUSH1 0x0 MSTORE PUSH1 0x1 PUSH1 0x20 MSTORE PUSH2 0x37BA PUSH1 0x4 PUSH1 0x40 PUSH1 0x0 KECCAK256 ADD SLOAD NUMBER PUSH2 0x437F JUMP JUMPDEST PUSH1 0x11 SLOAD DUP1 DUP3 LT PUSH2 0x3DBE JUMPI POP POP PUSH1 0x5 DUP2 LT DUP1 ISZERO PUSH2 0x3DB4 JUMPI JUMPDEST PUSH2 0x2428 JUMPI PUSH1 0x12 SLOAD DUP5 LT DUP1 ISZERO PUSH2 0x3DA9 JUMPI JUMPDEST PUSH2 0x2428 JUMPI PUSH1 0xF SLOAD PUSH1 0x84 CALLDATALOAD LT DUP1 ISZERO PUSH2 0x3D9C JUMPI JUMPDEST PUSH2 0x3D82 JUMPI PUSH1 0xE SLOAD PUSH1 0xA4 CALLDATALOAD GT PUSH2 0x3D68 JUMPI CALLER PUSH1 0x0 MSTORE PUSH1 0x16 PUSH1 0x20 MSTORE PUSH1 0x40 PUSH1 0x0 KECCAK256 PUSH2 0x1680 NUMBER DIV PUSH1 0x0 MSTORE PUSH1 0x20 MSTORE PUSH1 0x40 PUSH1 0x0 KECCAK256 SLOAD PUSH1 0x14 SLOAD DUP1 DUP3 LT ISZERO PUSH2 0x3D4A JUMPI POP POP PUSH1 0x8 SLOAD SWAP3 PUSH2 0x383B DUP5 PUSH2 0x43D5 JUMP JUMPDEST PUSH1 0x8 SSTORE PUSH1 0xA4 CALLDATALOAD ISZERO PUSH2 0x3D3E JUMPI PUSH2 0x3875 PUSH1 0xA4 CALLDATALOAD SWAP2 JUMPDEST PUSH1 0x40 MLOAD SWAP7 PUSH2 0x385B DUP9 PUSH2 0x4098 JUMP JUMPDEST DUP7 DUP9 MSTORE PUSH2 0x3869 CALLDATASIZE DUP7 DUP9 PUSH2 0x48AD JUMP JUMPDEST PUSH1 0x20 DUP10 ADD MSTORE CALLDATASIZE SWAP2 PUSH2 0x48AD JUMP JUMPDEST PUSH1 0x40 DUP7 ADD MSTORE PUSH2 0x3889 PUSH1 0x44 CALLDATALOAD PUSH1 0x60 DUP8 ADD PUSH2 0x4435 JUMP JUMPDEST PUSH1 0x64 CALLDATALOAD PUSH1 0x80 DUP7 ADD MSTORE PUSH1 0x84 CALLDATALOAD PUSH1 0xA0 DUP7 ADD MSTORE PUSH1 0xC0 DUP6 ADD MSTORE PUSH1 0x0 PUSH1 0xE0 DUP6 ADD MSTORE CALLER PUSH2 0x100 DUP6 ADD MSTORE CALLER PUSH2 0x120 DUP6 ADD MSTORE NUMBER PUSH2 0x140 DUP6 ADD MSTORE PUSH1 0x0 PUSH2 0x160 DUP6 ADD MSTORE PUSH1 0x0 PUSH2 0x180 DUP6 ADD MSTORE PUSH1 0x0 PUSH2 0x1A0 DUP6 ADD MSTORE DUP3 PUSH1 0x0 MSTORE PUSH1 0x0 PUSH1 0x20 MSTORE PUSH1 0x40 PUSH1 0x0 KECCAK256 DUP5 MLOAD DUP2 SSTORE PUSH1 0x20 DUP6 ADD MLOAD DUP1 MLOAD SWAP1 PUSH1 0x1 DUP1 PUSH1 0x40 SHL SUB DUP3 GT PUSH2 0x23B0 JUMPI DUP2 SWAP1 PUSH2 0x3908 PUSH1 0x1 DUP6 ADD SLOAD PUSH2 0x405E JUMP JUMPDEST PUSH1 0x1F DUP2 GT PUSH2 0x3CEB JUMPI JUMPDEST POP PUSH1 0x20 SWAP1 PUSH1 0x1F DUP4 GT PUSH1 0x1 EQ PUSH2 0x3C79 JUMPI PUSH1 0x0 SWAP3 PUSH2 0x3C6E JUMPI JUMPDEST POP POP DUP2 PUSH1 0x1 SHL SWAP2 PUSH1 0x0 NOT SWAP1 PUSH1 0x3 SHL SHR NOT AND OR PUSH1 0x1 DUP3 ADD SSTORE JUMPDEST PUSH1 0x40 DUP6 ADD MLOAD DUP1 MLOAD SWAP1 PUSH1 0x1 PUSH1 0x1 PUSH1 0x40 SHL SUB DUP3 GT PUSH2 0x23B0 JUMPI DUP2 SWAP1 PUSH2 0x3965 PUSH1 0x2 DUP6 ADD SLOAD PUSH2 0x405E JUMP JUMPDEST PUSH1 0x1F DUP2 GT PUSH2 0x3C1B JUMPI JUMPDEST POP PUSH1 0x20 SWAP1 PUSH1 0x1F DUP4 GT PUSH1 0x1 EQ PUSH2 0x3BA9 JUMPI PUSH1 0x0 SWAP3 PUSH2 0x3B9E JUMPI JUMPDEST POP POP DUP2 PUSH1 0x1 SHL SWAP2 PUSH1 0x0 NOT SWAP1 PUSH1 0x3 SHL SHR NOT AND OR PUSH1 0x2 DUP3 ADD SSTORE JUMPDEST PUSH1 0x60 DUP6 ADD MLOAD PUSH1 0x7 DUP2 LT ISZERO PUSH2 0x73F JUMPI PUSH1 0xFF DUP1 NOT PUSH1 0x3 DUP5 ADD SLOAD AND SWAP2 AND OR PUSH1 0x3 DUP3 ADD SSTORE PUSH1 0x80 DUP6 ADD MLOAD PUSH1 0x4 DUP3 ADD SSTORE PUSH1 0xA0 DUP6 ADD MLOAD PUSH1 0x5 DUP3 ADD SSTORE PUSH1 0xC0 DUP6 ADD MLOAD PUSH1 0x6 DUP3 ADD SSTORE PUSH1 0xE0 DUP6 ADD MLOAD SWAP5 PUSH1 0x3 DUP7 LT ISZERO PUSH2 0x73F JUMPI PUSH2 0x1A0 PUSH1 0xB SWAP2 PUSH2 0x39FF PUSH1 0x20 SWAP9 PUSH1 0x7 DUP7 ADD PUSH2 0x469C JUMP JUMPDEST PUSH2 0x100 DUP2 ADD MLOAD PUSH1 0x7 DUP6 ADD DUP1 SLOAD PUSH2 0x100 PUSH1 0x1 PUSH1 0xA8 SHL SUB NOT AND PUSH1 0x8 SWAP3 DUP4 SHL PUSH2 0x100 PUSH1 0x1 PUSH1 0xA8 SHL SUB AND OR SWAP1 SSTORE PUSH2 0x120 DUP3 ADD MLOAD SWAP1 DUP6 ADD DUP1 SLOAD PUSH1 0x1 PUSH1 0x1 PUSH1 0xA0 SHL SUB NOT AND PUSH1 0x1 PUSH1 0x1 PUSH1 0xA0 SHL SUB SWAP3 SWAP1 SWAP3 AND SWAP2 SWAP1 SWAP2 OR SWAP1 SSTORE PUSH2 0x140 DUP2 ADD MLOAD PUSH1 0x9 DUP6 ADD SSTORE PUSH2 0x160 DUP2 ADD MLOAD PUSH1 0xA DUP6 ADD DUP1 SLOAD PUSH2 0x180 DUP5 ADD MLOAD PUSH1 0x1 PUSH1 0x1 PUSH1 0x40 SHL SUB NOT SWAP1 SWAP2 AND PUSH4 0xFFFFFFFF SWAP4 DUP5 AND OR SWAP3 AND DUP11 SHL SWAP2 SWAP1 SWAP2 OR SWAP1 SSTORE ADD MLOAD SWAP2 ADD SSTORE CALLER PUSH1 0x0 SWAP1 DUP2 MSTORE PUSH1 0x1 DUP6 MSTORE PUSH1 0x40 SWAP1 KECCAK256 DUP1 SLOAD PUSH2 0x3AA9 SWAP1 PUSH2 0x43D5 JUMP JUMPDEST SWAP1 SSTORE CALLER PUSH1 0x0 MSTORE PUSH1 0x1 DUP5 MSTORE NUMBER PUSH1 0x4 PUSH1 0x40 PUSH1 0x0 KECCAK256 ADD SSTORE PUSH1 0x18 DUP5 MSTORE PUSH1 0x40 PUSH1 0x0 KECCAK256 DUP4 PUSH1 0x0 MSTORE DUP5 MSTORE PUSH1 0x40 PUSH1 0x0 KECCAK256 PUSH1 0x1 PUSH1 0xFF NOT DUP3 SLOAD AND OR SWAP1 SSTORE CALLER PUSH1 0x0 MSTORE PUSH1 0x5 DUP5 MSTORE PUSH2 0x3AF2 DUP4 PUSH1 0x40 PUSH1 0x0 KECCAK256 PUSH2 0x48E4 JUMP JUMPDEST PUSH2 0x3AFD PUSH1 0x9 SLOAD PUSH2 0x43D5 JUMP JUMPDEST PUSH1 0x9 SSTORE CALLER PUSH1 0x0 MSTORE PUSH1 0x16 DUP5 MSTORE PUSH1 0x40 PUSH1 0x0 KECCAK256 PUSH2 0x1680 NUMBER DIV PUSH1 0x0 MSTORE DUP5 MSTORE PUSH1 0x40 PUSH1 0x0 KECCAK256 PUSH2 0x3B26 DUP2 SLOAD PUSH2 0x43D5 JUMP JUMPDEST SWAP1 SSTORE PUSH2 0x3B4B DUP5 PUSH1 0x40 MLOAD DUP4 DUP2 SWAP5 DUP4 DUP4 ADD SWAP7 DUP8 CALLDATACOPY DUP2 ADD PUSH1 0x0 DUP4 DUP3 ADD MSTORE SUB DUP1 DUP5 MSTORE ADD DUP3 PUSH2 0x40EA JUMP JUMPDEST MLOAD SWAP1 KECCAK256 PUSH1 0x40 MLOAD PUSH1 0x84 CALLDATALOAD DUP2 MSTORE PUSH2 0x3B64 DUP5 DUP3 ADD PUSH1 0x44 CALLDATALOAD PUSH2 0x41FA JUMP JUMPDEST NUMBER PUSH1 0x40 DUP3 ADD MSTORE DUP3 PUSH32 0x3FC3FE3E3EC42E4B312D04B369D66FDC3DEAB34BA669557232CE24F8BC9FD6EF PUSH1 0x60 CALLER SWAP4 LOG4 PUSH1 0x1 PUSH1 0x1B SSTORE PUSH1 0x40 MLOAD SWAP1 DUP2 MSTORE RETURN JUMPDEST ADD MLOAD SWAP1 POP DUP8 DUP1 PUSH2 0x3985 JUMP JUMPDEST SWAP3 POP PUSH1 0x2 DUP5 ADD PUSH1 0x0 MSTORE PUSH1 0x20 PUSH1 0x0 KECCAK256 SWAP1 PUSH1 0x0 SWAP4 JUMPDEST PUSH1 0x1F NOT DUP5 AND DUP6 LT PUSH2 0x3C00 JUMPI PUSH1 0x1 SWAP5 POP DUP4 PUSH1 0x1F NOT DUP2 AND LT PUSH2 0x3BE7 JUMPI JUMPDEST POP POP POP DUP2 SHL ADD PUSH1 0x2 DUP3 ADD SSTORE PUSH2 0x399D JUMP JUMPDEST ADD MLOAD PUSH1 0x0 NOT PUSH1 0xF8 DUP5 PUSH1 0x3 SHL AND SHR NOT AND SWAP1 SSTORE DUP8 DUP1 DUP1 PUSH2 0x3BD7 JUMP JUMPDEST DUP2 DUP2 ADD MLOAD DUP4 SSTORE PUSH1 0x20 SWAP5 DUP6 ADD SWAP5 PUSH1 0x1 SWAP1 SWAP4 ADD SWAP3 SWAP1 SWAP2 ADD SWAP1 PUSH2 0x3BBC JUMP JUMPDEST SWAP1 SWAP2 POP PUSH1 0x2 DUP5 ADD PUSH1 0x0 MSTORE PUSH1 0x20 PUSH1 0x0 KECCAK256 PUSH1 0x1F DUP5 ADD PUSH1 0x5 SHR DUP2 ADD PUSH1 0x20 DUP6 LT PUSH2 0x3C67 JUMPI JUMPDEST SWAP1 DUP5 SWAP4 SWAP3 SWAP2 JUMPDEST PUSH1 0x1F DUP4 ADD PUSH1 0x5 SHR DUP3 ADD DUP2 LT PUSH2 0x3C58 JUMPI POP POP PUSH2 0x396E JUMP JUMPDEST PUSH1 0x0 DUP2 SSTORE DUP6 SWAP5 POP PUSH1 0x1 ADD PUSH2 0x3C42 JUMP JUMPDEST POP DUP1 PUSH2 0x3C3C JUMP JUMPDEST ADD MLOAD SWAP1 POP DUP8 DUP1 PUSH2 0x3928 JUMP JUMPDEST SWAP3 POP PUSH1 0x1 DUP5 ADD PUSH1 0x0 MSTORE PUSH1 0x20 PUSH1 0x0 KECCAK256 SWAP1 PUSH1 0x0 SWAP4 JUMPDEST PUSH1 0x1F NOT DUP5 AND DUP6 LT PUSH2 0x3CD0 JUMPI PUSH1 0x1 SWAP5 POP DUP4 PUSH1 0x1F NOT DUP2 AND LT PUSH2 0x3CB7 JUMPI JUMPDEST POP POP POP DUP2 SHL ADD PUSH1 0x1 DUP3 ADD SSTORE PUSH2 0x3940 JUMP JUMPDEST ADD MLOAD PUSH1 0x0 NOT PUSH1 0xF8 DUP5 PUSH1 0x3 SHL AND SHR NOT AND SWAP1 SSTORE DUP8 DUP1 DUP1 PUSH2 0x3CA7 JUMP JUMPDEST DUP2 DUP2 ADD MLOAD DUP4 SSTORE PUSH1 0x20 SWAP5 DUP6 ADD SWAP5 PUSH1 0x1 SWAP1 SWAP4 ADD SWAP3 SWAP1 SWAP2 ADD SWAP1 PUSH2 0x3C8C JUMP JUMPDEST SWAP1 SWAP2 POP PUSH1 0x1 DUP5 ADD PUSH1 0x0 MSTORE PUSH1 0x20 PUSH1 0x0 KECCAK256 PUSH1 0x1F DUP5 ADD PUSH1 0x5 SHR DUP2 ADD PUSH1 0x20 DUP6 LT PUSH2 0x3D37 JUMPI JUMPDEST SWAP1 DUP5 SWAP4 SWAP3 SWAP2 JUMPDEST PUSH1 0x1F DUP4 ADD PUSH1 0x5 SHR DUP3 ADD DUP2 LT PUSH2 0x3D28 JUMPI POP POP PUSH2 0x3911 JUMP JUMPDEST PUSH1 0x0 DUP2 SSTORE DUP6 SWAP5 POP PUSH1 0x1 ADD PUSH2 0x3D12 JUMP JUMPDEST POP DUP1 PUSH2 0x3D0C JUMP JUMPDEST PUSH2 0x3875 PUSH1 0xD SLOAD SWAP2 PUSH2 0x384E JUMP JUMPDEST PUSH1 0x44 SWAP3 POP PUSH1 0x40 MLOAD SWAP2 PUSH4 0x77B326B5 PUSH1 0xE1 SHL DUP4 MSTORE PUSH1 0x4 DUP4 ADD MSTORE PUSH1 0x24 DUP3 ADD MSTORE REVERT JUMPDEST PUSH1 0x40 MLOAD PUSH4 0x77353D49 PUSH1 0xE0 SHL DUP2 MSTORE PUSH1 0xA4 CALLDATALOAD PUSH1 0x4 DUP3 ADD MSTORE PUSH1 0x24 SWAP1 REVERT JUMPDEST PUSH1 0x40 MLOAD PUSH4 0x7CB19743 PUSH1 0xE1 SHL DUP2 MSTORE PUSH1 0x84 CALLDATALOAD PUSH1 0x4 DUP3 ADD MSTORE PUSH1 0x24 SWAP1 REVERT JUMPDEST POP PUSH1 0x10 SLOAD PUSH1 0x84 CALLDATALOAD GT PUSH2 0x37F3 JUMP JUMPDEST POP PUSH1 0x13 SLOAD DUP5 GT PUSH2 0x37E1 JUMP JUMPDEST POP PUSH1 0x64 DUP2 GT PUSH2 0x37D1 JUMP JUMPDEST PUSH1 0x24 SWAP2 PUSH2 0x3DCA SWAP2 PUSH2 0x437F JUMP JUMPDEST PUSH1 0x40 MLOAD SWAP1 PUSH4 0x44780DF PUSH1 0xE5 SHL DUP3 MSTORE PUSH1 0x4 DUP3 ADD MSTORE REVERT JUMPDEST CALLVALUE PUSH2 0x55 JUMPI PUSH1 0x0 CALLDATASIZE PUSH1 0x3 NOT ADD SLT PUSH2 0x55 JUMPI PUSH1 0x20 PUSH1 0xF SLOAD PUSH1 0x40 MLOAD SWAP1 DUP2 MSTORE RETURN JUMPDEST CALLVALUE PUSH2 0x55 JUMPI PUSH1 0x20 CALLDATASIZE PUSH1 0x3 NOT ADD SLT PUSH2 0x55 JUMPI PUSH1 0x4 CALLDATALOAD PUSH1 0x0 MSTORE PUSH1 0x0 PUSH1 0x20 MSTORE PUSH1 0x40 PUSH1 0x0 KECCAK256 DUP1 SLOAD PUSH1 0x1 DUP3 ADD PUSH2 0x3E2D SWAP1 PUSH2 0x410D JUMP JUMPDEST SWAP2 PUSH2 0x3E3A PUSH1 0x2 DUP3 ADD PUSH2 0x410D JUMP JUMPDEST PUSH1 0x3 DUP3 ADD SLOAD PUSH1 0xFF AND SWAP2 PUSH1 0x4 DUP2 ADD SLOAD PUSH1 0x5 DUP3 ADD SLOAD PUSH1 0x6 DUP4 ADD SLOAD PUSH1 0x7 DUP5 ADD SLOAD SWAP1 PUSH1 0x1 PUSH1 0xA0 SHL PUSH1 0x1 SWAP1 SUB PUSH1 0x8 DUP7 ADD SLOAD AND SWAP3 PUSH1 0x9 DUP7 ADD SLOAD SWAP5 PUSH1 0xA DUP8 ADD SLOAD SWAP7 PUSH1 0xB ADD SLOAD SWAP8 PUSH1 0x40 MLOAD SWAP12 DUP13 DUP1 SWAP13 PUSH2 0x1C0 SWAP2 DUP3 SWAP2 DUP2 MSTORE PUSH1 0x20 ADD MSTORE DUP13 ADD PUSH2 0x3E97 SWAP2 PUSH2 0x41D5 JUMP JUMPDEST DUP12 DUP2 SUB PUSH1 0x40 DUP14 ADD MSTORE PUSH2 0x3EA8 SWAP2 PUSH2 0x41D5 JUMP JUMPDEST SWAP9 PUSH1 0x60 DUP12 ADD PUSH2 0x3EB6 SWAP2 PUSH2 0x41FA JUMP JUMPDEST PUSH1 0x80 DUP11 ADD MSTORE PUSH1 0xA0 DUP10 ADD MSTORE PUSH1 0xC0 DUP9 ADD MSTORE PUSH2 0x3ED5 PUSH1 0xE0 DUP9 ADD PUSH1 0xFF DUP4 AND PUSH2 0x4207 JUMP JUMPDEST PUSH1 0x8 SHR PUSH1 0x1 PUSH1 0x1 PUSH1 0xA0 SHL SUB AND PUSH2 0x100 DUP8 ADD MSTORE PUSH2 0x120 DUP7 ADD MSTORE PUSH2 0x140 DUP6 ADD MSTORE PUSH4 0xFFFFFFFF DUP2 DUP2 AND PUSH2 0x160 DUP7 ADD MSTORE PUSH1 0x20 SWAP2 SWAP1 SWAP2 SHR AND PUSH2 0x180 DUP5 ADD MSTORE PUSH2 0x1A0 DUP4 ADD MSTORE SUB SWAP1 RETURN JUMPDEST CALLVALUE PUSH2 0x55 JUMPI PUSH1 0x0 CALLDATASIZE PUSH1 0x3 NOT ADD SLT PUSH2 0x55 JUMPI PUSH1 0x20 PUSH1 0x8 SLOAD PUSH1 0x40 MLOAD SWAP1 DUP2 MSTORE RETURN JUMPDEST CALLVALUE PUSH2 0x55 JUMPI PUSH1 0x20 CALLDATASIZE PUSH1 0x3 NOT ADD SLT PUSH2 0x55 JUMPI PUSH1 0x4 CALLDATALOAD PUSH4 0xFFFFFFFF PUSH1 0xE0 SHL DUP2 AND DUP1 SWAP2 SUB PUSH2 0x55 JUMPI PUSH1 0x20 SWAP1 PUSH4 0x7965DB0B PUSH1 0xE0 SHL DUP2 EQ SWAP1 DUP2 ISZERO PUSH2 0x3F7B JUMPI JUMPDEST POP PUSH1 0x40 MLOAD SWAP1 ISZERO ISZERO DUP2 MSTORE RETURN JUMPDEST PUSH4 0x1FFC9A7 PUSH1 0xE0 SHL EQ SWAP1 POP DUP3 PUSH2 0x3F70 JUMP JUMPDEST CALLVALUE PUSH2 0x55 JUMPI PUSH1 0x20 DUP1 PUSH1 0x3 NOT CALLDATASIZE ADD SLT PUSH2 0x55 JUMPI PUSH1 0x1 PUSH1 0x1 PUSH1 0xA0 SHL SUB PUSH2 0x3FAE PUSH2 0x3FFE JUMP JUMPDEST AND PUSH1 0x0 MSTORE PUSH1 0x5 DUP2 MSTORE PUSH1 0x40 PUSH1 0x0 KECCAK256 DUP3 DUP2 SLOAD SWAP2 DUP3 DUP3 MSTORE DUP4 DUP3 ADD SWAP1 PUSH1 0x0 MSTORE DUP4 PUSH1 0x0 KECCAK256 SWAP3 PUSH1 0x0 JUMPDEST DUP6 DUP3 DUP3 LT PUSH2 0x3FE8 JUMPI POP POP POP PUSH2 0x28C9 SWAP3 POP SUB DUP4 PUSH2 0x40EA JUMP JUMPDEST DUP6 SLOAD DUP5 MSTORE PUSH1 0x1 SWAP6 DUP7 ADD SWAP6 DUP9 SWAP6 POP SWAP4 ADD SWAP3 ADD PUSH2 0x3FD1 JUMP JUMPDEST PUSH1 0x4 CALLDATALOAD SWAP1 PUSH1 0x1 PUSH1 0x1 PUSH1 0xA0 SHL SUB DUP3 AND DUP3 SUB PUSH2 0x55 JUMPI JUMP JUMPDEST PUSH1 0x24 CALLDATALOAD SWAP1 PUSH1 0x1 PUSH1 0x1 PUSH1 0xA0 SHL SUB DUP3 AND DUP3 SUB PUSH2 0x55 JUMPI JUMP JUMPDEST SWAP1 DUP2 MLOAD DUP1 DUP3 MSTORE PUSH1 0x20 DUP1 DUP1 SWAP4 ADD SWAP4 ADD SWAP2 PUSH1 0x0 JUMPDEST DUP3 DUP2 LT PUSH2 0x404A JUMPI POP POP POP POP SWAP1 JUMP JUMPDEST DUP4 MLOAD DUP6 MSTORE SWAP4 DUP2 ADD SWAP4 SWAP3 DUP2 ADD SWAP3 PUSH1 0x1 ADD PUSH2 0x403C JUMP JUMPDEST SWAP1 PUSH1 0x1 DUP3 DUP2 SHR SWAP3 AND DUP1 ISZERO PUSH2 0x408E JUMPI JUMPDEST PUSH1 0x20 DUP4 LT EQ PUSH2 0x4078 JUMPI JUMP JUMPDEST PUSH4 0x4E487B71 PUSH1 0xE0 SHL PUSH1 0x0 MSTORE PUSH1 0x22 PUSH1 0x4 MSTORE PUSH1 0x24 PUSH1 0x0 REVERT JUMPDEST SWAP2 PUSH1 0x7F AND SWAP2 PUSH2 0x406D JUMP JUMPDEST PUSH2 0x1C0 DUP2 ADD SWAP1 DUP2 LT PUSH1 0x1 PUSH1 0x1 PUSH1 0x40 SHL SUB DUP3 GT OR PUSH2 0x23B0 JUMPI PUSH1 0x40 MSTORE JUMP JUMPDEST PUSH1 0xE0 DUP2 ADD SWAP1 DUP2 LT PUSH1 0x1 PUSH1 0x1 PUSH1 0x40 SHL SUB DUP3 GT OR PUSH2 0x23B0 JUMPI PUSH1 0x40 MSTORE JUMP JUMPDEST PUSH1 0x60 DUP2 ADD SWAP1 DUP2 LT PUSH1 0x1 PUSH1 0x1 PUSH1 0x40 SHL SUB DUP3 GT OR PUSH2 0x23B0 JUMPI PUSH1 0x40 MSTORE JUMP JUMPDEST PUSH1 0x1F SWAP1 SWAP2 ADD PUSH1 0x1F NOT AND DUP2 ADD SWAP1 PUSH1 0x1 PUSH1 0x1 PUSH1 0x40 SHL SUB DUP3 GT SWAP1 DUP3 LT OR PUSH2 0x23B0 JUMPI PUSH1 0x40 MSTORE JUMP JUMPDEST SWAP1 PUSH1 0x40 MLOAD SWAP2 DUP3 PUSH1 0x0 DUP3 SLOAD PUSH2 0x4120 DUP2 PUSH2 0x405E JUMP JUMPDEST SWAP1 DUP2 DUP5 MSTORE PUSH1 0x20 SWAP5 PUSH1 0x1 SWAP2 PUSH1 0x1 DUP2 AND SWAP1 DUP2 PUSH1 0x0 EQ PUSH2 0x4190 JUMPI POP PUSH1 0x1 EQ PUSH2 0x4151 JUMPI JUMPDEST POP POP POP PUSH2 0x414F SWAP3 POP SUB DUP4 PUSH2 0x40EA JUMP JUMPDEST JUMP JUMPDEST PUSH1 0x0 SWAP1 DUP2 MSTORE DUP6 DUP2 KECCAK256 SWAP6 SWAP4 POP SWAP2 SWAP1 JUMPDEST DUP2 DUP4 LT PUSH2 0x4178 JUMPI POP POP PUSH2 0x414F SWAP4 POP DUP3 ADD ADD CODESIZE DUP1 DUP1 PUSH2 0x4140 JUMP JUMPDEST DUP6 SLOAD DUP9 DUP5 ADD DUP6 ADD MSTORE SWAP5 DUP6 ADD SWAP5 DUP8 SWAP5 POP SWAP2 DUP4 ADD SWAP2 PUSH2 0x415F JUMP JUMPDEST SWAP3 POP POP POP PUSH2 0x414F SWAP5 SWAP3 POP PUSH1 0xFF NOT AND DUP3 DUP5 ADD MSTORE ISZERO ISZERO PUSH1 0x5 SHL DUP3 ADD ADD CODESIZE DUP1 DUP1 PUSH2 0x4140 JUMP JUMPDEST PUSH1 0x0 JUMPDEST DUP4 DUP2 LT PUSH2 0x41C5 JUMPI POP POP PUSH1 0x0 SWAP2 ADD MSTORE JUMP JUMPDEST DUP2 DUP2 ADD MLOAD DUP4 DUP3 ADD MSTORE PUSH1 0x20 ADD PUSH2 0x41B5 JUMP JUMPDEST SWAP1 PUSH1 0x20 SWAP2 PUSH2 0x41EE DUP2 MLOAD DUP1 SWAP3 DUP2 DUP6 MSTORE DUP6 DUP1 DUP7 ADD SWAP2 ADD PUSH2 0x41B2 JUMP JUMPDEST PUSH1 0x1F ADD PUSH1 0x1F NOT AND ADD ADD SWAP1 JUMP JUMPDEST SWAP1 PUSH1 0x7 DUP3 LT ISZERO PUSH2 0x73F JUMPI MSTORE JUMP JUMPDEST SWAP1 PUSH1 0x3 DUP3 LT ISZERO PUSH2 0x73F JUMPI MSTORE JUMP JUMPDEST SWAP2 DUP2 PUSH1 0x1F DUP5 ADD SLT ISZERO PUSH2 0x55 JUMPI DUP3 CALLDATALOAD SWAP2 PUSH1 0x1 PUSH1 0x1 PUSH1 0x40 SHL SUB DUP4 GT PUSH2 0x55 JUMPI PUSH1 0x20 DUP4 DUP2 DUP7 ADD SWAP6 ADD ADD GT PUSH2 0x55 JUMPI JUMP JUMPDEST PUSH1 0x80 SWAP1 PUSH1 0x3 NOT ADD SLT PUSH2 0x55 JUMPI PUSH1 0x4 CALLDATALOAD SWAP1 PUSH1 0x24 CALLDATALOAD SWAP1 PUSH1 0x44 CALLDATALOAD SWAP1 PUSH1 0x64 CALLDATALOAD SWAP1 JUMP JUMPDEST SWAP1 DUP2 MLOAD DUP1 DUP3 MSTORE PUSH1 0x20 DUP1 DUP1 SWAP4 ADD SWAP4 ADD SWAP2 PUSH1 0x0 JUMPDEST DUP3 DUP2 LT PUSH2 0x427F JUMPI POP POP POP POP SWAP1 JUMP JUMPDEST DUP4 MLOAD DUP6 MSTORE SWAP4 DUP2 ADD SWAP4 SWAP3 DUP2 ADD SWAP3 PUSH1 0x1 ADD PUSH2 0x4271 JUMP JUMPDEST SWAP2 SWAP3 PUSH1 0x80 SWAP4 SWAP7 SWAP6 SWAP5 SWAP2 SWAP7 PUSH1 0xA0 DUP5 ADD SWAP8 DUP5 MSTORE PUSH1 0x20 DUP5 ADD MSTORE PUSH1 0x40 DUP4 ADD MSTORE PUSH1 0x60 DUP3 ADD MSTORE ADD MSTORE JUMP JUMPDEST PUSH1 0x40 SWAP1 PUSH1 0x3 NOT ADD SLT PUSH2 0x55 JUMPI PUSH1 0x4 CALLDATALOAD SWAP1 PUSH1 0x24 CALLDATALOAD SWAP1 JUMP JUMPDEST SWAP2 DUP2 PUSH1 0x1F DUP5 ADD SLT ISZERO PUSH2 0x55 JUMPI DUP3 CALLDATALOAD SWAP2 PUSH1 0x1 PUSH1 0x1 PUSH1 0x40 SHL SUB DUP4 GT PUSH2 0x55 JUMPI PUSH1 0x20 DUP1 DUP6 ADD SWAP5 DUP5 PUSH1 0x5 SHL ADD ADD GT PUSH2 0x55 JUMPI JUMP JUMPDEST DUP1 SLOAD DUP3 LT ISZERO PUSH2 0x4315 JUMPI PUSH1 0x0 MSTORE PUSH1 0x20 PUSH1 0x0 KECCAK256 ADD SWAP1 PUSH1 0x0 SWAP1 JUMP JUMPDEST PUSH4 0x4E487B71 PUSH1 0xE0 SHL PUSH1 0x0 MSTORE PUSH1 0x32 PUSH1 0x4 MSTORE PUSH1 0x24 PUSH1 0x0 REVERT JUMPDEST PUSH1 0x7 SLOAD DUP2 LT ISZERO PUSH2 0x4315 JUMPI PUSH1 0x7 PUSH1 0x0 DUP2 DUP2 MSTORE SWAP2 MUL PUSH32 0xA66CC928B5EDB82AF9BD49922954155AB7B0942694BEA4CE44661D9A8736C688 ADD SWAP2 JUMP JUMPDEST DUP1 SLOAD DUP3 LT ISZERO PUSH2 0x4315 JUMPI PUSH1 0x0 MSTORE PUSH1 0x3 PUSH1 0x20 PUSH1 0x0 KECCAK256 SWAP2 MUL ADD SWAP1 PUSH1 0x0 SWAP1 JUMP JUMPDEST SWAP2 SWAP1 DUP3 SUB SWAP2 DUP3 GT PUSH2 0x15C4 JUMPI JUMP JUMPDEST PUSH1 0x1 PUSH1 0x1 PUSH1 0x40 SHL SUB DUP2 GT PUSH2 0x23B0 JUMPI PUSH1 0x5 SHL PUSH1 0x20 ADD SWAP1 JUMP JUMPDEST SWAP1 PUSH2 0x43AD DUP3 PUSH2 0x438C JUMP JUMPDEST PUSH2 0x43BA PUSH1 0x40 MLOAD SWAP2 DUP3 PUSH2 0x40EA JUMP JUMPDEST DUP3 DUP2 MSTORE DUP1 SWAP3 PUSH2 0x43CB PUSH1 0x1F NOT SWAP2 PUSH2 0x438C JUMP JUMPDEST ADD SWAP1 PUSH1 0x20 CALLDATASIZE SWAP2 ADD CALLDATACOPY JUMP JUMPDEST PUSH1 0x0 NOT DUP2 EQ PUSH2 0x15C4 JUMPI PUSH1 0x1 ADD SWAP1 JUMP JUMPDEST DUP1 MLOAD DUP3 LT ISZERO PUSH2 0x4315 JUMPI PUSH1 0x20 SWAP2 PUSH1 0x5 SHL ADD ADD SWAP1 JUMP JUMPDEST ISZERO PUSH2 0x43FF JUMPI JUMP JUMPDEST PUSH1 0x40 MLOAD PUSH3 0x461BCD PUSH1 0xE5 SHL DUP2 MSTORE PUSH1 0x20 PUSH1 0x4 DUP3 ADD MSTORE PUSH1 0xE PUSH1 0x24 DUP3 ADD MSTORE PUSH14 0x125B9D985B1A5908185B5BDD5B9D PUSH1 0x92 SHL PUSH1 0x44 DUP3 ADD MSTORE PUSH1 0x64 SWAP1 REVERT JUMPDEST PUSH1 0x7 DUP3 LT ISZERO PUSH2 0x73F JUMPI MSTORE JUMP JUMPDEST PUSH1 0x3 DUP3 LT ISZERO PUSH2 0x73F JUMPI MSTORE JUMP JUMPDEST DUP2 DUP2 MUL SWAP3 SWAP2 DUP2 ISZERO SWAP2 DUP5 DIV EQ OR ISZERO PUSH2 0x15C4 JUMPI JUMP JUMPDEST SWAP2 SWAP1 DUP3 ADD DUP1 SWAP3 GT PUSH2 0x15C4 JUMPI JUMP JUMPDEST SWAP1 PUSH1 0x40 MLOAD PUSH2 0x447A DUP2 PUSH2 0x40B4 JUMP JUMPDEST DUP3 SLOAD PUSH1 0x1 PUSH1 0x1 PUSH1 0xA0 SHL SUB AND DUP2 MSTORE PUSH1 0x1 DUP4 ADD SLOAD PUSH1 0x20 DUP3 ADD MSTORE PUSH1 0x2 DUP4 ADD SLOAD PUSH1 0x40 DUP3 ADD MSTORE PUSH1 0x3 DUP4 ADD SLOAD PUSH1 0x60 DUP3 ADD MSTORE PUSH1 0x4 DUP4 ADD SLOAD PUSH1 0x80 DUP3 ADD MSTORE PUSH1 0x5 DUP4 ADD SLOAD PUSH1 0xA0 DUP3 ADD MSTORE PUSH1 0x6 SWAP1 SWAP3 ADD SLOAD PUSH1 0xC0 DUP4 ADD MSTORE JUMP JUMPDEST SWAP2 SWAP1 PUSH1 0x7 SLOAD SWAP1 DUP2 ISZERO DUP1 ISZERO PUSH2 0x4601 JUMPI JUMPDEST PUSH2 0x45D9 JUMPI PUSH2 0x44E3 SWAP1 DUP5 PUSH2 0x4460 JUMP JUMPDEST DUP4 DUP3 DUP3 GT PUSH2 0x45D1 JUMPI JUMPDEST PUSH2 0x44F5 SWAP2 PUSH2 0x437F JUMP JUMPDEST PUSH2 0x44FE DUP2 PUSH2 0x438C JUMP JUMPDEST SWAP2 PUSH1 0x40 PUSH2 0x450E PUSH1 0x40 MLOAD SWAP5 DUP6 PUSH2 0x40EA JUMP JUMPDEST DUP3 DUP5 MSTORE PUSH1 0x1F NOT PUSH2 0x451D DUP5 PUSH2 0x438C JUMP JUMPDEST ADD SWAP1 PUSH1 0x0 JUMPDEST DUP3 DUP2 LT PUSH2 0x458B JUMPI POP POP POP DUP3 SWAP5 PUSH1 0x0 DUP1 NOT DUP4 ADD SWAP3 DUP4 GT SWAP1 JUMPDEST DUP5 DUP2 LT PUSH2 0x4548 JUMPI POP POP POP POP POP POP JUMP JUMPDEST DUP2 PUSH2 0x15C4 JUMPI DUP1 PUSH2 0x456F PUSH2 0x4569 PUSH2 0x4564 PUSH1 0x1 SWAP5 PUSH2 0x280F DUP9 DUP11 PUSH2 0x437F JUMP JUMPDEST PUSH2 0x432B JUMP JUMPDEST POP PUSH2 0x446D JUMP JUMPDEST PUSH2 0x4579 DUP3 DUP10 PUSH2 0x43E4 JUMP JUMPDEST MSTORE PUSH2 0x4584 DUP2 DUP9 PUSH2 0x43E4 JUMP JUMPDEST POP ADD PUSH2 0x4539 JUMP JUMPDEST PUSH1 0x20 SWAP1 DUP3 MLOAD PUSH2 0x4599 DUP2 PUSH2 0x40B4 JUMP JUMPDEST PUSH1 0x0 DUP2 MSTORE DUP3 PUSH1 0x0 DUP2 DUP4 ADD MSTORE PUSH1 0x0 DUP6 DUP4 ADD MSTORE PUSH1 0x0 PUSH1 0x60 DUP4 ADD MSTORE PUSH1 0x0 PUSH1 0x80 DUP4 ADD MSTORE PUSH1 0x0 PUSH1 0xA0 DUP4 ADD MSTORE PUSH1 0x0 PUSH1 0xC0 DUP4 ADD MSTORE DUP3 DUP10 ADD ADD MSTORE ADD PUSH2 0x4522 JUMP JUMPDEST DUP3 SWAP2 POP PUSH2 0x44EC JUMP JUMPDEST POP POP PUSH1 0x40 MLOAD SWAP1 SWAP2 POP PUSH1 0x20 DUP2 ADD PUSH1 0x1 PUSH1 0x1 PUSH1 0x40 SHL SUB DUP2 GT DUP3 DUP3 LT OR PUSH2 0x23B0 JUMPI PUSH1 0x40 MSTORE PUSH1 0x0 DUP2 MSTORE SWAP1 JUMP JUMPDEST POP DUP2 DUP5 LT ISZERO PUSH2 0x44D5 JUMP JUMPDEST PUSH1 0x7 SLOAD SWAP1 PUSH1 0x0 JUMPDEST DUP3 DUP2 LT PUSH2 0x462D JUMPI POP POP POP PUSH1 0x0 SWAP1 PUSH1 0x0 SWAP1 PUSH1 0x0 SWAP1 PUSH1 0x0 SWAP1 PUSH1 0x0 SWAP1 JUMP JUMPDEST DUP2 PUSH1 0x6 PUSH2 0x4639 DUP4 PUSH2 0x432B JUMP JUMPDEST POP ADD SLOAD EQ PUSH2 0x4649 JUMPI PUSH1 0x1 ADD PUSH2 0x4612 JUMP JUMPDEST PUSH2 0x4658 SWAP3 POP PUSH2 0x4569 SWAP2 POP PUSH2 0x432B JUMP JUMPDEST DUP1 MLOAD PUSH1 0x20 DUP3 ADD MLOAD PUSH1 0x40 DUP4 ADD MLOAD PUSH1 0x60 SWAP1 SWAP4 ADD MLOAD PUSH1 0x1 PUSH1 0x1 PUSH1 0xA0 SHL SUB SWAP1 SWAP3 AND SWAP4 SWAP1 SWAP3 SWAP2 SWAP1 PUSH1 0x1 SWAP1 JUMP JUMPDEST SWAP2 SWAP1 DUP2 LT ISZERO PUSH2 0x4315 JUMPI PUSH1 0x5 SHL ADD SWAP1 JUMP JUMPDEST DUP1 ISZERO PUSH2 0x15C4 JUMPI PUSH1 0x0 NOT ADD SWAP1 JUMP JUMPDEST SWAP1 PUSH1 0x3 DUP2 LT ISZERO PUSH2 0x73F JUMPI PUSH1 0xFF DUP1 NOT DUP4 SLOAD AND SWAP2 AND OR SWAP1 SSTORE JUMP JUMPDEST PUSH1 0xFF PUSH1 0x17 SLOAD AND PUSH2 0x47BA JUMPI PUSH1 0x1 PUSH1 0x1 PUSH1 0xA0 SHL SUB AND PUSH1 0x0 DUP2 DUP2 MSTORE PUSH1 0x3 PUSH1 0x20 MSTORE PUSH1 0x40 DUP2 KECCAK256 SLOAD SWAP1 SWAP2 SWAP1 PUSH1 0xFF AND PUSH2 0x4794 JUMPI PUSH1 0x1 PUSH1 0x20 MSTORE PUSH2 0x46F6 PUSH1 0x4 PUSH1 0x40 DUP5 KECCAK256 ADD SLOAD NUMBER PUSH2 0x437F JUMP JUMPDEST PUSH1 0x11 SLOAD GT PUSH2 0x476E JUMPI DUP2 MSTORE PUSH1 0x16 PUSH1 0x20 MSTORE PUSH1 0x40 DUP2 KECCAK256 PUSH2 0x1680 NUMBER DIV DUP3 MSTORE PUSH1 0x20 MSTORE PUSH1 0x40 DUP2 KECCAK256 SLOAD PUSH1 0x14 SLOAD GT ISZERO PUSH2 0x4749 JUMPI POP PUSH1 0x1 SWAP1 PUSH32 0xCE5CECEB3B018DC53CD7E23DAA9F08F268EC71A6DD745ACC69B20CD937AF5503 SWAP1 JUMP JUMPDEST SWAP1 PUSH32 0x891A3C2AAE4B7E19C81C920E84ED0D4CFBA7D3F4FD1EA26206FD45E59989ECFA SWAP1 JUMP JUMPDEST POP SWAP1 PUSH32 0x9DC7CAE0428A4481C8B454DA165B0AC10C9A4E6BB5C5EDB9A3A2BF0E0FA36BCF SWAP1 JUMP JUMPDEST POP SWAP1 PUSH32 0x8680108DF3F92337E086D074E9B72F70C5F03505474EA9F5C44282227B961ECB SWAP1 JUMP JUMPDEST POP PUSH1 0x0 SWAP1 PUSH32 0x641D89B682F2F02191994AC3C66B0B38941BDC138E6F3F87C53261CC39048D8C SWAP1 JUMP JUMPDEST PUSH1 0x8 SLOAD DUP2 LT ISZERO PUSH2 0x4801 JUMPI PUSH1 0x0 MSTORE PUSH1 0x0 PUSH1 0x20 MSTORE PUSH1 0x4 PUSH1 0x40 PUSH1 0x0 KECCAK256 ADD SLOAD EQ SWAP1 JUMP JUMPDEST POP POP PUSH1 0x0 SWAP1 JUMP JUMPDEST PUSH1 0x1 PUSH1 0x1 PUSH1 0xA0 SHL SUB AND PUSH1 0x0 SWAP1 DUP2 MSTORE PUSH1 0x1 PUSH1 0x20 MSTORE PUSH1 0x40 SWAP1 KECCAK256 PUSH1 0x4 ADD SLOAD PUSH2 0x482D SWAP1 NUMBER PUSH2 0x437F JUMP JUMPDEST PUSH1 0x11 SLOAD SWAP1 DUP2 DUP2 LT PUSH2 0x4842 JUMPI POP POP PUSH1 0x0 SWAP1 PUSH1 0x1 SWAP1 JUMP JUMPDEST PUSH2 0x484B SWAP2 PUSH2 0x437F JUMP JUMPDEST SWAP1 PUSH1 0x0 SWAP1 JUMP JUMPDEST PUSH1 0x2 PUSH1 0x1B SLOAD EQ PUSH2 0x4862 JUMPI PUSH1 0x2 PUSH1 0x1B SSTORE JUMP JUMPDEST PUSH1 0x40 MLOAD PUSH4 0x3EE5AEB5 PUSH1 0xE0 SHL DUP2 MSTORE PUSH1 0x4 SWAP1 REVERT JUMPDEST PUSH1 0xFF PUSH1 0x1C SLOAD AND PUSH2 0x4880 JUMPI JUMP JUMPDEST PUSH1 0x40 MLOAD PUSH4 0xD93C0665 PUSH1 0xE0 SHL DUP2 MSTORE PUSH1 0x4 SWAP1 REVERT JUMPDEST PUSH1 0x1 PUSH1 0x1 PUSH1 0x40 SHL SUB DUP2 GT PUSH2 0x23B0 JUMPI PUSH1 0x1F ADD PUSH1 0x1F NOT AND PUSH1 0x20 ADD SWAP1 JUMP JUMPDEST SWAP3 SWAP2 SWAP3 PUSH2 0x48B9 DUP3 PUSH2 0x4892 JUMP JUMPDEST SWAP2 PUSH2 0x48C7 PUSH1 0x40 MLOAD SWAP4 DUP5 PUSH2 0x40EA JUMP JUMPDEST DUP3 SWAP5 DUP2 DUP5 MSTORE DUP2 DUP4 ADD GT PUSH2 0x55 JUMPI DUP3 DUP2 PUSH1 0x20 SWAP4 DUP5 PUSH1 0x0 SWAP7 ADD CALLDATACOPY ADD ADD MSTORE JUMP JUMPDEST DUP1 SLOAD PUSH1 0x1 PUSH1 0x40 SHL DUP2 LT ISZERO PUSH2 0x23B0 JUMPI PUSH2 0x4901 SWAP2 PUSH1 0x1 DUP3 ADD DUP2 SSTORE PUSH2 0x42FD JUMP JUMPDEST DUP2 SWAP3 SWAP2 SLOAD SWAP1 PUSH1 0x3 SHL SWAP2 DUP3 SHL SWAP2 PUSH1 0x0 NOT SWAP1 SHL NOT AND OR SWAP1 SSTORE JUMP JUMPDEST CALLER PUSH1 0x0 SWAP1 DUP2 MSTORE PUSH32 0xA51588B1664495F089DD83D2D26F247920F94A57A4A09F20CF068EFC8F82BD4 PUSH1 0x20 MSTORE PUSH1 0x40 DUP2 KECCAK256 SLOAD PUSH1 0xFF AND ISZERO PUSH2 0xF4D JUMPI POP JUMP JUMPDEST CALLER PUSH1 0x0 SWAP1 DUP2 MSTORE PUSH32 0x86BCECF9FD371E3B84A9388A547AB20D0A0E23ADEDED334F74B30C23A98A8D6C PUSH1 0x20 MSTORE PUSH1 0x40 SWAP1 KECCAK256 SLOAD PUSH1 0x0 DUP1 MLOAD PUSH1 0x20 PUSH2 0x4C0E DUP4 CODECOPY DUP2 MLOAD SWAP2 MSTORE SWAP1 PUSH1 0xFF AND ISZERO PUSH2 0xF4D JUMPI POP JUMP JUMPDEST DUP1 PUSH1 0x0 MSTORE PUSH1 0x1D PUSH1 0x20 MSTORE PUSH1 0x40 PUSH1 0x0 KECCAK256 CALLER PUSH1 0x0 MSTORE PUSH1 0x20 MSTORE PUSH1 0xFF PUSH1 0x40 PUSH1 0x0 KECCAK256 SLOAD AND ISZERO PUSH2 0xF4D JUMPI POP JUMP JUMPDEST DUP2 SELFBALANCE LT PUSH2 0x4A37 JUMPI PUSH1 0x0 DUP1 DUP1 DUP1 SWAP5 DUP2 SWAP5 PUSH1 0x1 DUP1 PUSH1 0xA0 SHL SUB AND GAS CALL RETURNDATASIZE ISZERO PUSH2 0x4A2E JUMPI RETURNDATASIZE PUSH2 0x49EC DUP2 PUSH2 0x4892 JUMP JUMPDEST SWAP1 PUSH2 0x49FA PUSH1 0x40 MLOAD SWAP3 DUP4 PUSH2 0x40EA JUMP JUMPDEST DUP2 MSTORE DUP1 SWAP3 PUSH1 0x20 RETURNDATASIZE SWAP3 ADD RETURNDATACOPY JUMPDEST ISZERO PUSH2 0x4A0D JUMPI POP JUMP JUMPDEST DUP1 MLOAD ISZERO PUSH2 0x4A1C JUMPI PUSH1 0x20 DUP2 MLOAD SWAP2 ADD REVERT JUMPDEST PUSH1 0x40 MLOAD PUSH4 0xD6BDA275 PUSH1 0xE0 SHL DUP2 MSTORE PUSH1 0x4 SWAP1 REVERT JUMPDEST PUSH1 0x60 SWAP2 POP PUSH2 0x4A05 JUMP JUMPDEST PUSH1 0x40 MLOAD PUSH4 0xCF479181 PUSH1 0xE0 SHL DUP2 MSTORE SELFBALANCE PUSH1 0x4 DUP3 ADD MSTORE PUSH1 0x24 DUP2 ADD DUP4 SWAP1 MSTORE PUSH1 0x44 SWAP1 REVERT JUMPDEST SWAP1 PUSH1 0x0 SWAP2 DUP1 DUP4 MSTORE PUSH1 0x1D PUSH1 0x20 MSTORE PUSH1 0x40 DUP4 KECCAK256 SWAP2 PUSH1 0x1 DUP1 PUSH1 0xA0 SHL SUB AND SWAP2 DUP3 DUP5 MSTORE PUSH1 0x20 MSTORE PUSH1 0xFF PUSH1 0x40 DUP5 KECCAK256 SLOAD AND ISZERO PUSH1 0x0 EQ PUSH2 0x4AD1 JUMPI DUP1 DUP4 MSTORE PUSH1 0x1D PUSH1 0x20 MSTORE PUSH1 0x40 DUP4 KECCAK256 DUP3 DUP5 MSTORE PUSH1 0x20 MSTORE PUSH1 0x40 DUP4 KECCAK256 PUSH1 0x1 PUSH1 0xFF NOT DUP3 SLOAD AND OR SWAP1 SSTORE PUSH32 0x2F8788117E7EFF1D82E926EC794901D17C78024A50270940304540A733656F0D CALLER SWAP4 DUP1 LOG4 PUSH1 0x1 SWAP1 JUMP JUMPDEST POP POP SWAP1 JUMP JUMPDEST SWAP1 PUSH1 0x0 SWAP2 DUP1 DUP4 MSTORE PUSH1 0x1D PUSH1 0x20 MSTORE PUSH1 0x40 DUP4 KECCAK256 SWAP2 PUSH1 0x1 DUP1 PUSH1 0xA0 SHL SUB AND SWAP2 DUP3 DUP5 MSTORE PUSH1 0x20 MSTORE PUSH1 0xFF PUSH1 0x40 DUP5 KECCAK256 SLOAD AND PUSH1 0x0 EQ PUSH2 0x4AD1 JUMPI DUP1 DUP4 MSTORE PUSH1 0x1D PUSH1 0x20 MSTORE PUSH1 0x40 DUP4 KECCAK256 DUP3 DUP5 MSTORE PUSH1 0x20 MSTORE PUSH1 0x40 DUP4 KECCAK256 PUSH1 0xFF NOT DUP2 SLOAD AND SWAP1 SSTORE PUSH32 0xF6391F5C32D9C69D2A47EA670B442974B53935D1EDC7FD64EB21E047A839171B CALLER SWAP4 DUP1 LOG4 PUSH1 0x1 SWAP1 JUMP JUMPDEST PUSH1 0x1A SLOAD PUSH1 0x1 PUSH1 0x1 PUSH1 0xA0 SHL SUB AND CALLER SUB PUSH2 0x4B61 JUMPI JUMP JUMPDEST PUSH1 0x40 MLOAD PUSH4 0x118CDAA7 PUSH1 0xE0 SHL DUP2 MSTORE CALLER PUSH1 0x4 DUP3 ADD MSTORE PUSH1 0x24 SWAP1 REVERT JUMPDEST CALLDATALOAD PUSH1 0x1 PUSH1 0x1 PUSH1 0xA0 SHL SUB DUP2 AND DUP2 SUB PUSH2 0x55 JUMPI SWAP1 JUMP INVALID 0x5E 0xDD 0xA7 EXTCODESIZE SWAP2 0xBE 0xDF 0xC3 0xC4 SDIV SIGNEXTEND LOG0 DUP11 PUSH26 0xBCDAD8CA58BFE7BC1DF02A8F520B50502B27BF233DD2AAFEB4D5 ADDMOD PUSH26 0xC4AA5C81E96D92F6E6945C906A58F9F2D1C1631B4B26B032DCEB 0x22 AND 0xA5 0x5C DUP3 RETURN SWAP2 DUP8 AND 0xDB 0xF6 0x4A 0xB7 SWAP15 0xA8 0xD9 PUSH11 0xB394EF64693A703043EEEA SWAP7 0x2B 0xA5 SWAP14 0xF8 CODESIZE CREATE2 LT PUSH31 0x7F98204A6013F9ED4A5175261F178929BF5AA152761BEE71F3D55856E4058E 0xD0 PUSH15 0xE057D79ADA615F65CDF5F9EE88181B SWAP2 TIMESTAMP 0x25 ADDMOD DUP16 DUP4 0x4F DUP12 0xE0 SMOD SWAP13 MSTORE8 AND MSIZE EQ SGT PREVRANDAO 0xCD 0x1F 0xD0 LOG4 CALLCODE DUP5 NOT 0x49 PUSH32 0x9722A3DAAFE3B4186F6B6457E03DACD7D709CEA559C8B444C37C27240031885B SWAP16 0x2F 0xEC RETURN PUSH24 0x2C91C939FC230D81A2646970667358221220B9576DFF011F DUP14 0xC5 RETURN 0xB9 0xAB 0xEE 0xAB 0x2F DUP3 0xDE EXTCODEHASH 0xCD 0xE6 MOD 0xCB 0xB0 0x1F 0xD4 SUB 0xE5 STATICCALL ADD 0x2E DUP11 PUSH4 0x8364736F PUSH13 0x634300081600332F8788117E7E SELFDESTRUCT SAR DUP3 0xE9 0x26 0xEC PUSH26 0x4901D17C78024A50270940304540A733656F0D00000000000000 "},"methodIdentifiers":{"BASIS_POINTS()":"e1f1c4a7","BLOCKS_PER_DAY()":"6bb987fe","CONTENT_MANAGER_ROLE()":"89de5400","DEFAULT_ADMIN_ROLE()":"a217fddf","EMERGENCY_ROLE()":"20df4359","MAX_BATCH_SIZE()":"cfdbf254","MAX_TITLE_LENGTH()":"2ef9a160","MIN_TITLE_LENGTH()":"f7f29f0c","MODERATOR_ROLE()":"797669c9","activateEmergencyStop()":"985957ab","addCollaborators(uint256,address[],uint256[],bytes32[])":"542ddce8","batchModerateContent(uint256[],uint8)":"66a8df0e","blacklistUser(address,bytes32)":"8596d748","blacklistedUsers(address)":"22c0aec7","calculatePurchasePreview(uint256)":"37803e39","canUserCreateContent(address)":"a8e380f1","contentCollaborators(uint256,uint256)":"abc1b50e","contentItems(uint256)":"0e73afdf","createContent(string,string,uint8,bytes32,uint256,uint256)":"1725ae7d","creationCooldownBlocks()":"c520571c","creatorContent(address,uint256)":"6a480eb8","creators(address)":"933166e1","dailyUploadLimit()":"18d1c9ee","dailyUploads(address,uint256)":"8f94bc68","defaultRoyaltyPercent()":"4e42f6ae","emergencyStop()":"63a599a4","fundPlatform()":"5dc10431","generateContentHash(address,string,string,uint256)":"21924e5d","getActiveContentIds(uint256,uint256)":"bef14aab","getContentBatch(uint256[])":"708b71eb","getContentByCategory(uint8,uint256,uint256)":"62581c77","getContentByPriceRange(uint256,uint256,uint256,uint256)":"2cd3bea6","getContentCollaborators(uint256)":"31b6c572","getContentDetails(uint256)":"9dc3960b","getContentHash(uint256)":"ffbdc8cb","getContentStats(uint256)":"f595b55f","getCreatorContent(address)":"011c6756","getCreatorMetrics(address)":"969ee14d","getCreatorStats(address)":"9f82d472","getDailyUploadStatus(address)":"643808a8","getMarketplaceStats()":"812d966a","getPurchaseByHash(bytes32)":"5048b1c1","getRecentPurchases(uint256,uint256)":"38472598","getRoleAdmin(bytes32)":"248a9ca3","getSecurityStatus()":"73efc9f2","getTrendingContentIds(uint256)":"7d08e16d","getUserCooldown(address)":"fad504ff","getUserPurchaseHistory(address)":"35c38d1e","grantRole(bytes32,address)":"2f2ff15d","hasPurchased(address,uint256)":"11923132","hasRole(bytes32,address)":"91d14854","maxCollaborators()":"2c557258","maxContentPrice()":"452517c7","maxDescriptionLength()":"3b13d732","maxRoyaltyPercent()":"59941d42","minContentPrice()":"0eea65f8","minDescriptionLength()":"3f8bf086","moderateContent(uint256,uint8)":"dcacf7b5","nextContentId()":"0a248d7f","owner()":"8da5cb5b","pause()":"8456cb59","paused()":"5c975abb","platformFeePercent()":"8c639a85","purchaseContent(uint256)":"28f2ac28","purchases(uint256)":"8392fe31","renounceOwnership()":"715018a6","renounceRole(bytes32,address)":"36568abe","resetEmergencyState()":"7556f41b","revokeRole(bytes32,address)":"d547741f","supportsInterface(bytes4)":"01ffc9a7","toggleContentStatus(uint256)":"786cebe9","totalActiveContent()":"a61a9d03","totalRevenue()":"bf2d9e0b","totalSales()":"6605ff66","transferOwnership(address)":"f2fde38b","unpause()":"3f4ba83a","updateContentPrice(uint256,uint256)":"87a38dbe","updatePlatformParameters(uint256,uint256,uint256,uint256)":"2fb6e41d","updateSecurityParameters(uint256,uint256,uint256,uint256)":"5b8815a4","userPurchaseHistory(address,uint256)":"eed3e097","userPurchases(address,uint256)":"cf2c0334","verifyContentIntegrity(uint256,bytes32)":"f32beaa6","whitelistUser(address)":"4a4c560d","withdraw(uint256)":"2e1a7d4d"}}}}}