{"contracts/MarketplaceAdmin.sol":{"MarketplaceAdmin":{"abi":[{"inputs":[],"name":"AccessControlBadConfirmation","type":"error"},{"inputs":[{"internalType":"address","name":"account","type":"address"},{"internalType":"bytes32","name":"neededRole","type":"bytes32"}],"name":"AccessControlUnauthorizedAccount","type":"error"},{"inputs":[{"internalType":"uint256","name":"contentId","type":"uint256"}],"name":"ContentAlreadyPurchased","type":"error"},{"inputs":[{"internalType":"uint256","name":"contentId","type":"uint256"}],"name":"ContentNotActive","type":"error"},{"inputs":[{"internalType":"uint256","name":"contentId","type":"uint256"}],"name":"ContentNotFound","type":"error"},{"inputs":[{"internalType":"uint256","name":"remainingBlocks","type":"uint256"}],"name":"CreationCooldownActive","type":"error"},{"inputs":[{"internalType":"uint256","name":"current","type":"uint256"},{"internalType":"uint256","name":"limit","type":"uint256"}],"name":"DailyLimitExceeded","type":"error"},{"inputs":[],"name":"EmergencyStopActive","type":"error"},{"inputs":[],"name":"FailedCall","type":"error"},{"inputs":[{"internalType":"uint256","name":"balance","type":"uint256"},{"internalType":"uint256","name":"needed","type":"uint256"}],"name":"InsufficientBalance","type":"error"},{"inputs":[{"internalType":"uint256","name":"required","type":"uint256"},{"internalType":"uint256","name":"provided","type":"uint256"}],"name":"InsufficientPayment","type":"error"},{"inputs":[],"name":"InvalidCollaboratorShare","type":"error"},{"inputs":[],"name":"InvalidContentData","type":"error"},{"inputs":[{"internalType":"uint256","name":"price","type":"uint256"}],"name":"InvalidPrice","type":"error"},{"inputs":[{"internalType":"uint256","name":"percent","type":"uint256"}],"name":"InvalidRoyaltyPercent","type":"error"},{"inputs":[],"name":"TooManyCollaborators","type":"error"},{"inputs":[],"name":"UnauthorizedAccess","type":"error"},{"inputs":[],"name":"UserIsBlacklisted","type":"error"},{"anonymous":false,"inputs":[{"indexed":true,"internalType":"uint256","name":"contentId","type":"uint256"},{"indexed":false,"internalType":"enum IEducationalMarketplace.ContentStatus","name":"oldStatus","type":"uint8"},{"indexed":false,"internalType":"enum IEducationalMarketplace.ContentStatus","name":"newStatus","type":"uint8"},{"indexed":true,"internalType":"address","name":"moderator","type":"address"}],"name":"ContentStatusChanged","type":"event"},{"anonymous":false,"inputs":[{"indexed":true,"internalType":"address","name":"admin","type":"address"},{"indexed":false,"internalType":"bytes32","name":"actionHash","type":"bytes32"},{"indexed":true,"internalType":"address","name":"target","type":"address"},{"indexed":false,"internalType":"uint256","name":"blockNumber","type":"uint256"}],"name":"EmergencyAction","type":"event"},{"anonymous":false,"inputs":[{"indexed":true,"internalType":"address","name":"funder","type":"address"},{"indexed":false,"internalType":"uint256","name":"amount","type":"uint256"}],"name":"PlatformFunded","type":"event"},{"anonymous":false,"inputs":[{"indexed":true,"internalType":"bytes32","name":"role","type":"bytes32"},{"indexed":true,"internalType":"bytes32","name":"previousAdminRole","type":"bytes32"},{"indexed":true,"internalType":"bytes32","name":"newAdminRole","type":"bytes32"}],"name":"RoleAdminChanged","type":"event"},{"anonymous":false,"inputs":[{"indexed":true,"internalType":"bytes32","name":"role","type":"bytes32"},{"indexed":true,"internalType":"address","name":"account","type":"address"},{"indexed":true,"internalType":"address","name":"sender","type":"address"}],"name":"RoleGranted","type":"event"},{"anonymous":false,"inputs":[{"indexed":true,"internalType":"bytes32","name":"role","type":"bytes32"},{"indexed":true,"internalType":"address","name":"account","type":"address"},{"indexed":true,"internalType":"address","name":"sender","type":"address"}],"name":"RoleRevoked","type":"event"},{"anonymous":false,"inputs":[{"indexed":true,"internalType":"address","name":"user","type":"address"},{"indexed":false,"internalType":"bytes32","name":"reasonHash","type":"bytes32"}],"name":"UserBlacklisted","type":"event"},{"anonymous":false,"inputs":[{"indexed":true,"internalType":"address","name":"user","type":"address"}],"name":"UserWhitelisted","type":"event"},{"inputs":[],"name":"BASIS_POINTS","outputs":[{"internalType":"uint256","name":"","type":"uint256"}],"stateMutability":"view","type":"function"},{"inputs":[],"name":"BLOCKS_PER_DAY","outputs":[{"internalType":"uint256","name":"","type":"uint256"}],"stateMutability":"view","type":"function"},{"inputs":[],"name":"CONTENT_MANAGER_ROLE","outputs":[{"internalType":"bytes32","name":"","type":"bytes32"}],"stateMutability":"view","type":"function"},{"inputs":[],"name":"DEFAULT_ADMIN_ROLE","outputs":[{"internalType":"bytes32","name":"","type":"bytes32"}],"stateMutability":"view","type":"function"},{"inputs":[],"name":"EMERGENCY_ROLE","outputs":[{"internalType":"bytes32","name":"","type":"bytes32"}],"stateMutability":"view","type":"function"},{"inputs":[],"name":"MAX_BATCH_SIZE","outputs":[{"internalType":"uint256","name":"","type":"uint256"}],"stateMutability":"view","type":"function"},{"inputs":[],"name":"MAX_TITLE_LENGTH","outputs":[{"internalType":"uint256","name":"","type":"uint256"}],"stateMutability":"view","type":"function"},{"inputs":[],"name":"MIN_TITLE_LENGTH","outputs":[{"internalType":"uint256","name":"","type":"uint256"}],"stateMutability":"view","type":"function"},{"inputs":[],"name":"MODERATOR_ROLE","outputs":[{"internalType":"bytes32","name":"","type":"bytes32"}],"stateMutability":"view","type":"function"},{"inputs":[],"name":"activateEmergencyStop","outputs":[],"stateMutability":"nonpayable","type":"function"},{"inputs":[{"internalType":"uint256[]","name":"_contentIds","type":"uint256[]"},{"internalType":"enum IEducationalMarketplace.ContentStatus","name":"_newStatus","type":"uint8"}],"name":"batchModerateContent","outputs":[],"stateMutability":"nonpayable","type":"function"},{"inputs":[{"internalType":"address","name":"_user","type":"address"},{"internalType":"bytes32","name":"_reasonHash","type":"bytes32"}],"name":"blacklistUser","outputs":[],"stateMutability":"nonpayable","type":"function"},{"inputs":[{"internalType":"address","name":"","type":"address"}],"name":"blacklistedUsers","outputs":[{"internalType":"bool","name":"","type":"bool"}],"stateMutability":"view","type":"function"},{"inputs":[{"internalType":"uint256","name":"","type":"uint256"},{"internalType":"uint256","name":"","type":"uint256"}],"name":"contentCollaborators","outputs":[{"internalType":"address","name":"collaboratorAddress","type":"address"},{"internalType":"uint256","name":"sharePercent","type":"uint256"},{"internalType":"bytes32","name":"roleHash","type":"bytes32"}],"stateMutability":"view","type":"function"},{"inputs":[{"internalType":"uint256","name":"","type":"uint256"}],"name":"contentItems","outputs":[{"internalType":"uint256","name":"contentId","type":"uint256"},{"internalType":"string","name":"title","type":"string"},{"internalType":"string","name":"description","type":"string"},{"internalType":"enum IEducationalMarketplace.ContentCategory","name":"category","type":"uint8"},{"internalType":"bytes32","name":"contentHash","type":"bytes32"},{"internalType":"uint256","name":"price","type":"uint256"},{"internalType":"uint256","name":"royaltyPercent","type":"uint256"},{"internalType":"enum IEducationalMarketplace.ContentStatus","name":"status","type":"uint8"},{"internalType":"address payable","name":"creator","type":"address"},{"internalType":"address payable","name":"currentOwner","type":"address"},{"internalType":"uint256","name":"createdAtBlock","type":"uint256"},{"internalType":"uint32","name":"totalSales","type":"uint32"},{"internalType":"uint32","name":"totalViews","type":"uint32"},{"internalType":"uint256","name":"totalEarnings","type":"uint256"}],"stateMutability":"view","type":"function"},{"inputs":[],"name":"creationCooldownBlocks","outputs":[{"internalType":"uint256","name":"","type":"uint256"}],"stateMutability":"view","type":"function"},{"inputs":[{"internalType":"address","name":"","type":"address"},{"internalType":"uint256","name":"","type":"uint256"}],"name":"creatorContent","outputs":[{"internalType":"uint256","name":"","type":"uint256"}],"stateMutability":"view","type":"function"},{"inputs":[{"internalType":"address","name":"","type":"address"}],"name":"creators","outputs":[{"internalType":"uint256","name":"totalContent","type":"uint256"},{"internalType":"uint256","name":"totalSales","type":"uint256"},{"internalType":"uint256","name":"totalEarnings","type":"uint256"},{"internalType":"uint256","name":"averageRating","type":"uint256"},{"internalType":"uint256","name":"lastContentBlock","type":"uint256"}],"stateMutability":"view","type":"function"},{"inputs":[],"name":"dailyUploadLimit","outputs":[{"internalType":"uint256","name":"","type":"uint256"}],"stateMutability":"view","type":"function"},{"inputs":[{"internalType":"address","name":"","type":"address"},{"internalType":"uint256","name":"","type":"uint256"}],"name":"dailyUploads","outputs":[{"internalType":"uint256","name":"","type":"uint256"}],"stateMutability":"view","type":"function"},{"inputs":[],"name":"defaultRoyaltyPercent","outputs":[{"internalType":"uint256","name":"","type":"uint256"}],"stateMutability":"view","type":"function"},{"inputs":[],"name":"emergencyStop","outputs":[{"internalType":"bool","name":"","type":"bool"}],"stateMutability":"view","type":"function"},{"inputs":[],"name":"fundPlatform","outputs":[],"stateMutability":"payable","type":"function"},{"inputs":[{"internalType":"bytes32","name":"role","type":"bytes32"}],"name":"getRoleAdmin","outputs":[{"internalType":"bytes32","name":"","type":"bytes32"}],"stateMutability":"view","type":"function"},{"inputs":[],"name":"getSecurityStatus","outputs":[{"internalType":"bool","name":"emergencyActive","type":"bool"},{"internalType":"uint256","name":"platformBalance","type":"uint256"},{"internalType":"uint256","name":"totalActiveContentCount","type":"uint256"},{"internalType":"uint256","name":"currentBlock","type":"uint256"}],"stateMutability":"view","type":"function"},{"inputs":[{"internalType":"bytes32","name":"role","type":"bytes32"},{"internalType":"address","name":"account","type":"address"}],"name":"grantRole","outputs":[],"stateMutability":"nonpayable","type":"function"},{"inputs":[{"internalType":"bytes32","name":"role","type":"bytes32"},{"internalType":"address","name":"account","type":"address"}],"name":"hasRole","outputs":[{"internalType":"bool","name":"","type":"bool"}],"stateMutability":"view","type":"function"},{"inputs":[],"name":"maxCollaborators","outputs":[{"internalType":"uint256","name":"","type":"uint256"}],"stateMutability":"view","type":"function"},{"inputs":[],"name":"maxContentPrice","outputs":[{"internalType":"uint256","name":"","type":"uint256"}],"stateMutability":"view","type":"function"},{"inputs":[],"name":"maxDescriptionLength","outputs":[{"internalType":"uint256","name":"","type":"uint256"}],"stateMutability":"view","type":"function"},{"inputs":[],"name":"maxRoyaltyPercent","outputs":[{"internalType":"uint256","name":"","type":"uint256"}],"stateMutability":"view","type":"function"},{"inputs":[],"name":"minContentPrice","outputs":[{"internalType":"uint256","name":"","type":"uint256"}],"stateMutability":"view","type":"function"},{"inputs":[],"name":"minDescriptionLength","outputs":[{"internalType":"uint256","name":"","type":"uint256"}],"stateMutability":"view","type":"function"},{"inputs":[{"internalType":"uint256","name":"_contentId","type":"uint256"},{"internalType":"enum IEducationalMarketplace.ContentStatus","name":"_newStatus","type":"uint8"}],"name":"moderateContent","outputs":[],"stateMutability":"nonpayable","type":"function"},{"inputs":[],"name":"nextContentId","outputs":[{"internalType":"uint256","name":"","type":"uint256"}],"stateMutability":"view","type":"function"},{"inputs":[],"name":"platformFeePercent","outputs":[{"internalType":"uint256","name":"","type":"uint256"}],"stateMutability":"view","type":"function"},{"inputs":[{"internalType":"uint256","name":"","type":"uint256"}],"name":"purchases","outputs":[{"internalType":"address","name":"buyer","type":"address"},{"internalType":"uint256","name":"contentId","type":"uint256"},{"internalType":"uint256","name":"blockNumber","type":"uint256"},{"internalType":"uint256","name":"pricePaid","type":"uint256"},{"internalType":"uint256","name":"royaltyPaid","type":"uint256"},{"internalType":"uint256","name":"platformFeePaid","type":"uint256"},{"internalType":"bytes32","name":"purchaseHash","type":"bytes32"}],"stateMutability":"view","type":"function"},{"inputs":[{"internalType":"bytes32","name":"role","type":"bytes32"},{"internalType":"address","name":"callerConfirmation","type":"address"}],"name":"renounceRole","outputs":[],"stateMutability":"nonpayable","type":"function"},{"inputs":[],"name":"resetEmergencyState","outputs":[],"stateMutability":"nonpayable","type":"function"},{"inputs":[{"internalType":"bytes32","name":"role","type":"bytes32"},{"internalType":"address","name":"account","type":"address"}],"name":"revokeRole","outputs":[],"stateMutability":"nonpayable","type":"function"},{"inputs":[{"internalType":"bytes4","name":"interfaceId","type":"bytes4"}],"name":"supportsInterface","outputs":[{"internalType":"bool","name":"","type":"bool"}],"stateMutability":"view","type":"function"},{"inputs":[],"name":"totalActiveContent","outputs":[{"internalType":"uint256","name":"","type":"uint256"}],"stateMutability":"view","type":"function"},{"inputs":[],"name":"totalRevenue","outputs":[{"internalType":"uint256","name":"","type":"uint256"}],"stateMutability":"view","type":"function"},{"inputs":[],"name":"totalSales","outputs":[{"internalType":"uint256","name":"","type":"uint256"}],"stateMutability":"view","type":"function"},{"inputs":[{"internalType":"uint256","name":"_platformFeePercent","type":"uint256"},{"internalType":"uint256","name":"_defaultRoyaltyPercent","type":"uint256"},{"internalType":"uint256","name":"_maxRoyaltyPercent","type":"uint256"},{"internalType":"uint256","name":"_creationCooldownBlocks","type":"uint256"}],"name":"updatePlatformParameters","outputs":[],"stateMutability":"nonpayable","type":"function"},{"inputs":[{"internalType":"uint256","name":"_minContentPrice","type":"uint256"},{"internalType":"uint256","name":"_maxContentPrice","type":"uint256"},{"internalType":"uint256","name":"_dailyUploadLimit","type":"uint256"},{"internalType":"uint256","name":"_maxCollaborators","type":"uint256"}],"name":"updateSecurityParameters","outputs":[],"stateMutability":"nonpayable","type":"function"},{"inputs":[{"internalType":"address","name":"","type":"address"},{"internalType":"uint256","name":"","type":"uint256"}],"name":"userPurchaseHistory","outputs":[{"internalType":"uint256","name":"","type":"uint256"}],"stateMutability":"view","type":"function"},{"inputs":[{"internalType":"address","name":"","type":"address"},{"internalType":"uint256","name":"","type":"uint256"}],"name":"userPurchases","outputs":[{"internalType":"bool","name":"","type":"bool"}],"stateMutability":"view","type":"function"},{"inputs":[{"internalType":"address","name":"_user","type":"address"}],"name":"whitelistUser","outputs":[],"stateMutability":"nonpayable","type":"function"},{"inputs":[{"internalType":"uint256","name":"_amount","type":"uint256"}],"name":"withdraw","outputs":[],"stateMutability":"nonpayable","type":"function"}],"evm":{"bytecode":{"linkReferences":{},"object":"608080604052346100605760fa600c556103e880600d55611388600e5566038d7ea4c68000600f55678ac7230489e80000601055600a6011556032601255601355600a601455600a60155560ff1960175416601755611a1790816100668239f35b600080fdfe608060408181526004918236101561001657600080fd5b600092833560e01c91826301ffc9a7146114dc575081630a248d7f146114bd5781630e73afdf146113925781630eea65f81461137357816318d1c9ee1461135457816320df43591461132b57816322c0aec7146112ed578163248a9ca3146112c25781632c557258146112a35781632e1a7d4d146111515781632ef9a160146111355781632f2ff15d1461110b5781632fb6e41d14610f7f57816336568abe14610f395781633b13d73214610f1a5781633f8bf08614610efb578163452517c714610edc5781634a4c560d14610e355781634e42f6ae14610e1657816359941d4214610df75781635b8815a414610c635781635dc1043114610c1e57816363a599a414610bfa5781636605ff6614610bdb57816366a8df0e14610a005781636a480eb8146109b85781636bb987fe1461099b57816373efc9f214610962578382637556f41b146108fa57508163797669c9146108d15781638392fe31146108565781638596d748146107c757816389de54001461078c5781638c639a851461076d5781638f94bc681461072c57816391d14854146106e5578163933166e114610682578163985957ab146105d8578163a217fddf146105bd578163a61a9d031461059e578163abc1b50e1461053e578163bf2d9e0b1461051f578163c520571c14610500578163cf2c0334146104b9578163cfdbf2541461049d578163d547741f1461045d578163dcacf7b5146102df57508063e1f1c4a7146102c3578063eed3e0971461026b5763f7f29f0c1461024d57600080fd5b346102675781600319360112610267576020905160058152f35b5080fd5b503461026757806003193601126102675761028461169e565b6001600160a01b031682526006602052808220805460243593908410156102c057506020926102b2916116ed565b91905490519160031b1c8152f35b80fd5b5034610267578160031936011261026757602090516127108152f35b905034610459578160031936011261045957803590602435600381101580610455576103096117fa565b60085484101561043e57838652856020526007858720019060ff82541693600385101561042b578415808061041f575b156103d5575050509061035d816103739361035560095461177d565b60095561178a565b6103698551809461167b565b602083019061167b565b816000805160206119c2833981519152843393a381517f3a26d1fb758531ff7b353755dead133d15e5f0d05dd872ef34695c74cac7d5f381524360208201526001600160a01b039091169133916000805160206119828339815191529190a380f35b1591826103f9575b505082610373939261035d921561178a57610355600954611758565b90915061040c57508115826103736103dd565b634e487b7160e01b875260219052602486fd5b50889250841515610339565b634e487b7160e01b885260219052602487fd5b8451631c1269f360e21b8152808401859052602490fd5b8580fd5b8280fd5b91905034610459578060031936011261045957610499913561049460016104826116b9565b93838752601a60205286200154611844565b6118ea565b5080f35b5050346102675781600319360112610267576020905160148152f35b50503461026757806003193601126102675760209160ff9082906001600160a01b036104e361169e565b168152600285528181206024358252855220541690519015158152f35b5050346102675781600319360112610267576020906011549051908152f35b505034610267578160031936011261026757602090600b549051908152f35b9050346104595781600319360112610459576024359080358452602052818320805482101561059a57602084600392606096522091020160018060a01b0381541691600260018301549201549181519384526020840152820152f35b8380fd5b5050346102675781600319360112610267576020906009549051908152f35b50503461026757816003193601126102675751908152602090f35b905034610459578260031936011261045957600080516020611962833981519152808452601a60205282842033855260205260ff83852054161561066757838084600160ff1960175416176017556000805160206119828339815191528151917f2b360512be00a461d38b01f2225a8a63b3f66a627fc69e02c0205598890af54d83524360208401523392a380f35b604492519163e2517d3f60e01b835233908301526024820152fd5b919050346104595760203660031901126104595760a09281906001600160a01b036106ab61169e565b1681526001602052208054926001820154926002830154916003840154930154938151958652602086015284015260608301526080820152f35b9050346104595781600319360112610459578160209360ff926107066116b9565b90358252601a86528282206001600160a01b039091168252855220549151911615158152f35b50503461026757806003193601126102675760209181906001600160a01b0361075361169e565b168152601684528181206024358252845220549051908152f35b505034610267578160031936011261026757602090600c549051908152f35b505034610267578160031936011261026757602090517f39db794a90dad1f6f1eb43938a38164ffcb808bce7e11fb138c898d32d58d6d78152f35b5050346102675780600319360112610267576107e161169e565b600080516020611982833981519152602435916107fc6117fa565b60018060a01b0316928385526003602052808520600160ff19825416179055837ff3180b5fa328e1ec92ac05766351de4a83f72e55569a638fe62a6d225dcd504460208351868152a280519283524360208401523392a380f35b90503461045957602036600319011261045957803560075481101561059a5760076020858260e097522091020160018060a01b03815416926001820154926002830154600384015491840154926006600586015495015495815197885260208801528601526060850152608084015260a083015260c0820152f35b505034610267578160031936011261026757602090516000805160206119a28339815191528152f35b80843461095f578160031936011261095f576109146117a2565b60ff19601754166017556000805160206119828339815191528151917fa448aa3f2acc158c0ababf575e87e74d1cfa11f3d84ad26d32ee02e7bbcc8d7083524360208401523392a380f35b50fd5b50503461026757816003193601126102675760809060ff6017541690479060095491815193151584526020840152820152436060820152f35b505034610267578160031936011261026757602090516116808152f35b5050346102675780600319360112610267576109d261169e565b6001600160a01b031682526005602052808220805460243593908410156102c057506020926102b2916116ed565b9050346104595781600319360112610459576001600160401b0390803590828211610bd75736602383011215610bd75781810135928311610bd75760249060059036838660051b86010111610bd35782359160039460038410159182610bcf57610a686117fa565b60148811610b9b57895b888110610a7d578a80f35b8a8782841b850101356008548110610a9a575b5050600101610a72565b80825260078c60209380855220019160ff835416928b841015610b5f57898e91898615808091610b71575b15610b1d575050610b0192610af160019897969593610af9936009610aea815461177d565b905561178a565b51809561167b565b83018a61167b565b6000805160206119c28339815191528d3393a390508a38610a90565b159081610b4a575b5092610af160019897969593610af993610b01961561178a576009610aea8154611758565b9250509150610b5f578d908a9081158a610b25565b634e487b7160e01b8f52602189528a8ffd5b509250909250610b88578e91898c92831515610ac5565b50634e487b7160e01b8f52602189528a8ffd5b885162461bcd60e51b8152602081860152600f818801526e426174636820746f6f206c6172676560881b6044820152606490fd5b8980fd5b8680fd5b8480fd5b505034610267578160031936011261026757602090600a549051908152f35b50503461026757816003193601126102675760209060ff6017541690519015158152f35b50508160031936011261026757610c3634151561171b565b513481527fb9db6cd07d4c34464bb104380303bddd2410e6c5436f03672a9f1e288380c6c760203392a280f35b83833461026757610c73366116cf565b9295610c809291926117a2565b8615610dc05786821115610d895782151580610d7e575b15610d445783151580610d39575b15610cfa57508495600f556010556014556015556000805160206119828339815191528151917fd28fef99873700106a71d66f0edd4e28c4571423448166c7ad2eec3e40eb09f183524360208401523392a380f35b606490602086519162461bcd60e51b83528201526019602482015278496e76616c6964206d617820636f6c6c61626f7261746f727360381b6044820152fd5b506014841115610ca5565b606490602086519162461bcd60e51b83528201526014602482015273125b9d985b1a59081d5c1b1bd859081b1a5b5a5d60621b6044820152fd5b506032831115610c97565b606490602086519162461bcd60e51b83528201526011602482015270496e76616c6964206d617820707269636560781b6044820152fd5b606490602086519162461bcd60e51b83528201526011602482015270496e76616c6964206d696e20707269636560781b6044820152fd5b505034610267578160031936011261026757602090600e549051908152f35b505034610267578160031936011261026757602090600d549051908152f35b50503461026757602036600319011261026757610e5061169e565b610e586117fa565b6001600160a01b03168083526003602052818320805460ff191690558151909160008051602061198283398151915290837f7409cb8e690bcd1487fd4fd27dad3fa92388d201ba6f953631d6d6b26299f8498680a27f3fe0ad2aea56a8e2a5f72b5bcda9e0656c92571b92fc3f15daea4319415b0fae83524360208401523392a380f35b5050346102675781600319360112610267576020906010549051908152f35b5050346102675781600319360112610267576020906012549051908152f35b5050346102675781600319360112610267576020906013549051908152f35b838334610267578060031936011261026757610f536116b9565b90336001600160a01b03831603610f7057506104999192356118ea565b5163334bd91960e11b81528390fd5b83833461026757610f8f366116cf565b9295610f9c9291926117a2565b6103e887116110d0576109c482116110925761138883116110585760018410158061104d575b1561101757508495600c55600d55600e556011556000805160206119828339815191528151917f0e7498543e1230a1b7e29f8bad7acf7600045f6502fb2ccac22f9635970eba9883524360208401523392a380f35b606490602086519162461bcd60e51b8352820152601060248201526f24b73b30b634b21031b7b7b63237bbb760811b6044820152fd5b506064841115610fc2565b606490602086519162461bcd60e51b8352820152601460248201527309ac2f040e4def2c2d8e8f240e8dede40d0d2ced60631b6044820152fd5b606490602086519162461bcd60e51b83528201526018602482015277088caccc2ead8e840e4def2c2d8e8f240e8dede40d0d2ced60431b6044820152fd5b606490602086519162461bcd60e51b835282015260156024820152740a0d8c2e8ccdee4da40cccaca40e8dede40d0d2ced605b1b6044820152fd5b91905034610459578060031936011261045957610499913561113060016104826116b9565b61186a565b5050346102675781600319360112610267576020905160648152f35b8391503461026757602090816003193601126104595780356111716117a2565b61117c81151561171b565b47811161126a5780471061124d578380808093335af1903d15611245573d916001600160401b038311611232578551926111bf601f8201601f191686018561152f565b83523d858585013e5b1561121157505060008051602061198283398151915283839451927f5c2eed7e29b3502a726faf503ac4316b7101f3da813654e8df02c13449e03da8845243908401523392a380f35b815191929185901561122557505081519101fd5b5163d6bda27560e01b8152fd5b634e487b7160e01b855260418252602485fd5b6060916111c8565b60449250844790519263cf47918160e01b84528301526024820152fd5b5060649184519162461bcd60e51b83528201526014602482015273496e73756666696369656e742062616c616e636560601b6044820152fd5b5050346102675781600319360112610267576020906015549051908152f35b9050346104595760203660031901126104595781602093600192358152601a85522001549051908152f35b5050346102675760203660031901126102675760209160ff9082906001600160a01b0361131861169e565b1681526003855220541690519015158152f35b505034610267578160031936011261026757602090516000805160206119628339815191528152f35b5050346102675781600319360112610267576020906014549051908152f35b505034610267578160031936011261026757602090600f549051908152f35b8284346102c05760203660031901126102c0578235815280602052818120805490600181016113c090611568565b936113cd60028301611568565b600383015460ff16878401546005850154600686015490600787015492600160a01b60019003948560088a0154169660098a015498600a8b01549a600b01549b81519e8f916101c090835280602084015282016114299161163b565b918183039101526114399161163b565b9a60078210156114aa575060608c015260808b015260a08a015260c0890152969750879663ffffffff949392919061147760e08a0160ff831661167b565b60081c1661010088015261012087015261014086015281811661016086015260201c166101808401526101a08301520390f35b634e487b7160e01b815260218e52602490fd5b5050346102675781600319360112610267576020906008549051908152f35b849134610459576020366003190112610459573563ffffffff60e01b81168091036104595760209250637965db0b60e01b811490811561151e575b5015158152f35b6301ffc9a760e01b14905083611517565b601f909101601f19168101906001600160401b0382119082101761155257604052565b634e487b7160e01b600052604160045260246000fd5b9060405190600083549060018260011c9060018416968715611631575b602094858410891461161d57879884899798995290816000146115fb57506001146115bc575b5050506115ba9250038361152f565b565b600090815285812095935091905b8183106115e35750506115ba93508201013880806115ab565b855488840185015294850194879450918301916115ca565b925050506115ba94925060ff191682840152151560051b8201013880806115ab565b634e487b7160e01b85526022600452602485fd5b91607f1691611585565b919082519283825260005b848110611667575050826000602080949584010152601f8019910116010190565b602081830181015184830182015201611646565b9060038210156116885752565b634e487b7160e01b600052602160045260246000fd5b600435906001600160a01b03821682036116b457565b600080fd5b602435906001600160a01b03821682036116b457565b60809060031901126116b45760043590602435906044359060643590565b80548210156117055760005260206000200190600090565b634e487b7160e01b600052603260045260246000fd5b1561172257565b60405162461bcd60e51b815260206004820152600e60248201526d125b9d985b1a5908185b5bdd5b9d60921b6044820152606490fd5b60001981146117675760010190565b634e487b7160e01b600052601160045260246000fd5b8015611767576000190190565b9060038110156116885760ff80198354169116179055565b3360009081527fb75ecc04ed35f89790e98640e901bda41eceff0cb896cf2765fb697680253750602052604081205460ff16156117dc5750565b6044906040519063e2517d3f60e01b82523360048301526024820152fd5b3360009081527f5b8cce36a46b87ff4c16b7f875d488cb28c70ba538fdda7c84b3db4fe0030ed360205260409020546000805160206119a28339815191529060ff16156117dc5750565b80600052601a60205260406000203360005260205260ff60406000205416156117dc5750565b90600091808352601a602052604083209160018060a01b03169182845260205260ff604084205416156000146118e557808352601a6020526040832082845260205260408320600160ff198254161790557f2f8788117e7eff1d82e926ec794901d17c78024a50270940304540a733656f0d339380a4600190565b505090565b90600091808352601a602052604083209160018060a01b03169182845260205260ff6040842054166000146118e557808352601a602052604083208284526020526040832060ff1981541690557ff6391f5c32d9c69d2a47ea670b442974b53935d1edc7fd64eb21e047a839171b339380a460019056febf233dd2aafeb4d50879c4aa5c81e96d92f6e6945c906a58f9f2d1c1631b4b26962ba59df838f5107e7f98204a6013f9ed4a5175261f178929bf5aa152761bee71f3d55856e4058ed06ee057d79ada615f65cdf5f9ee88181b914225088f834f3dacd7d709cea559c8b444c37c27240031885b9f2fecf3772c91c939fc230d81a2646970667358221220fba75ead2eb179007b5e7d1d8f268e525fc1f23a87a14485e17a1cc065c7fb2164736f6c63430008160033","opcodes":"PUSH1 0x80 DUP1 PUSH1 0x40 MSTORE CALLVALUE PUSH2 0x60 JUMPI PUSH1 0xFA PUSH1 0xC SSTORE PUSH2 0x3E8 DUP1 PUSH1 0xD SSTORE PUSH2 0x1388 PUSH1 0xE SSTORE PUSH7 0x38D7EA4C68000 PUSH1 0xF SSTORE PUSH8 0x8AC7230489E80000 PUSH1 0x10 SSTORE PUSH1 0xA PUSH1 0x11 SSTORE PUSH1 0x32 PUSH1 0x12 SSTORE PUSH1 0x13 SSTORE PUSH1 0xA PUSH1 0x14 SSTORE PUSH1 0xA PUSH1 0x15 SSTORE PUSH1 0xFF NOT PUSH1 0x17 SLOAD AND PUSH1 0x17 SSTORE PUSH2 0x1A17 SWAP1 DUP2 PUSH2 0x66 DUP3 CODECOPY RETURN JUMPDEST PUSH1 0x0 DUP1 REVERT INVALID PUSH1 0x80 PUSH1 0x40 DUP2 DUP2 MSTORE PUSH1 0x4 SWAP2 DUP3 CALLDATASIZE LT ISZERO PUSH2 0x16 JUMPI PUSH1 0x0 DUP1 REVERT JUMPDEST PUSH1 0x0 SWAP3 DUP4 CALLDATALOAD PUSH1 0xE0 SHR SWAP2 DUP3 PUSH4 0x1FFC9A7 EQ PUSH2 0x14DC JUMPI POP DUP2 PUSH4 0xA248D7F EQ PUSH2 0x14BD JUMPI DUP2 PUSH4 0xE73AFDF EQ PUSH2 0x1392 JUMPI DUP2 PUSH4 0xEEA65F8 EQ PUSH2 0x1373 JUMPI DUP2 PUSH4 0x18D1C9EE EQ PUSH2 0x1354 JUMPI DUP2 PUSH4 0x20DF4359 EQ PUSH2 0x132B JUMPI DUP2 PUSH4 0x22C0AEC7 EQ PUSH2 0x12ED JUMPI DUP2 PUSH4 0x248A9CA3 EQ PUSH2 0x12C2 JUMPI DUP2 PUSH4 0x2C557258 EQ PUSH2 0x12A3 JUMPI DUP2 PUSH4 0x2E1A7D4D EQ PUSH2 0x1151 JUMPI DUP2 PUSH4 0x2EF9A160 EQ PUSH2 0x1135 JUMPI DUP2 PUSH4 0x2F2FF15D EQ PUSH2 0x110B JUMPI DUP2 PUSH4 0x2FB6E41D EQ PUSH2 0xF7F JUMPI DUP2 PUSH4 0x36568ABE EQ PUSH2 0xF39 JUMPI DUP2 PUSH4 0x3B13D732 EQ PUSH2 0xF1A JUMPI DUP2 PUSH4 0x3F8BF086 EQ PUSH2 0xEFB JUMPI DUP2 PUSH4 0x452517C7 EQ PUSH2 0xEDC JUMPI DUP2 PUSH4 0x4A4C560D EQ PUSH2 0xE35 JUMPI DUP2 PUSH4 0x4E42F6AE EQ PUSH2 0xE16 JUMPI DUP2 PUSH4 0x59941D42 EQ PUSH2 0xDF7 JUMPI DUP2 PUSH4 0x5B8815A4 EQ PUSH2 0xC63 JUMPI DUP2 PUSH4 0x5DC10431 EQ PUSH2 0xC1E JUMPI DUP2 PUSH4 0x63A599A4 EQ PUSH2 0xBFA JUMPI DUP2 PUSH4 0x6605FF66 EQ PUSH2 0xBDB JUMPI DUP2 PUSH4 0x66A8DF0E EQ PUSH2 0xA00 JUMPI DUP2 PUSH4 0x6A480EB8 EQ PUSH2 0x9B8 JUMPI DUP2 PUSH4 0x6BB987FE EQ PUSH2 0x99B JUMPI DUP2 PUSH4 0x73EFC9F2 EQ PUSH2 0x962 JUMPI DUP4 DUP3 PUSH4 0x7556F41B EQ PUSH2 0x8FA JUMPI POP DUP2 PUSH4 0x797669C9 EQ PUSH2 0x8D1 JUMPI DUP2 PUSH4 0x8392FE31 EQ PUSH2 0x856 JUMPI DUP2 PUSH4 0x8596D748 EQ PUSH2 0x7C7 JUMPI DUP2 PUSH4 0x89DE5400 EQ PUSH2 0x78C JUMPI DUP2 PUSH4 0x8C639A85 EQ PUSH2 0x76D JUMPI DUP2 PUSH4 0x8F94BC68 EQ PUSH2 0x72C JUMPI DUP2 PUSH4 0x91D14854 EQ PUSH2 0x6E5 JUMPI DUP2 PUSH4 0x933166E1 EQ PUSH2 0x682 JUMPI DUP2 PUSH4 0x985957AB EQ PUSH2 0x5D8 JUMPI DUP2 PUSH4 0xA217FDDF EQ PUSH2 0x5BD JUMPI DUP2 PUSH4 0xA61A9D03 EQ PUSH2 0x59E JUMPI DUP2 PUSH4 0xABC1B50E EQ PUSH2 0x53E JUMPI DUP2 PUSH4 0xBF2D9E0B EQ PUSH2 0x51F JUMPI DUP2 PUSH4 0xC520571C EQ PUSH2 0x500 JUMPI DUP2 PUSH4 0xCF2C0334 EQ PUSH2 0x4B9 JUMPI DUP2 PUSH4 0xCFDBF254 EQ PUSH2 0x49D JUMPI DUP2 PUSH4 0xD547741F EQ PUSH2 0x45D JUMPI DUP2 PUSH4 0xDCACF7B5 EQ PUSH2 0x2DF JUMPI POP DUP1 PUSH4 0xE1F1C4A7 EQ PUSH2 0x2C3 JUMPI DUP1 PUSH4 0xEED3E097 EQ PUSH2 0x26B JUMPI PUSH4 0xF7F29F0C EQ PUSH2 0x24D JUMPI PUSH1 0x0 DUP1 REVERT JUMPDEST CALLVALUE PUSH2 0x267 JUMPI DUP2 PUSH1 0x3 NOT CALLDATASIZE ADD SLT PUSH2 0x267 JUMPI PUSH1 0x20 SWAP1 MLOAD PUSH1 0x5 DUP2 MSTORE RETURN JUMPDEST POP DUP1 REVERT JUMPDEST POP CALLVALUE PUSH2 0x267 JUMPI DUP1 PUSH1 0x3 NOT CALLDATASIZE ADD SLT PUSH2 0x267 JUMPI PUSH2 0x284 PUSH2 0x169E JUMP JUMPDEST PUSH1 0x1 PUSH1 0x1 PUSH1 0xA0 SHL SUB AND DUP3 MSTORE PUSH1 0x6 PUSH1 0x20 MSTORE DUP1 DUP3 KECCAK256 DUP1 SLOAD PUSH1 0x24 CALLDATALOAD SWAP4 SWAP1 DUP5 LT ISZERO PUSH2 0x2C0 JUMPI POP PUSH1 0x20 SWAP3 PUSH2 0x2B2 SWAP2 PUSH2 0x16ED JUMP JUMPDEST SWAP2 SWAP1 SLOAD SWAP1 MLOAD SWAP2 PUSH1 0x3 SHL SHR DUP2 MSTORE RETURN JUMPDEST DUP1 REVERT JUMPDEST POP CALLVALUE PUSH2 0x267 JUMPI DUP2 PUSH1 0x3 NOT CALLDATASIZE ADD SLT PUSH2 0x267 JUMPI PUSH1 0x20 SWAP1 MLOAD PUSH2 0x2710 DUP2 MSTORE RETURN JUMPDEST SWAP1 POP CALLVALUE PUSH2 0x459 JUMPI DUP2 PUSH1 0x3 NOT CALLDATASIZE ADD SLT PUSH2 0x459 JUMPI DUP1 CALLDATALOAD SWAP1 PUSH1 0x24 CALLDATALOAD PUSH1 0x3 DUP2 LT ISZERO DUP1 PUSH2 0x455 JUMPI PUSH2 0x309 PUSH2 0x17FA JUMP JUMPDEST PUSH1 0x8 SLOAD DUP5 LT ISZERO PUSH2 0x43E JUMPI DUP4 DUP7 MSTORE DUP6 PUSH1 0x20 MSTORE PUSH1 0x7 DUP6 DUP8 KECCAK256 ADD SWAP1 PUSH1 0xFF DUP3 SLOAD AND SWAP4 PUSH1 0x3 DUP6 LT ISZERO PUSH2 0x42B JUMPI DUP5 ISZERO DUP1 DUP1 PUSH2 0x41F JUMPI JUMPDEST ISZERO PUSH2 0x3D5 JUMPI POP POP POP SWAP1 PUSH2 0x35D DUP2 PUSH2 0x373 SWAP4 PUSH2 0x355 PUSH1 0x9 SLOAD PUSH2 0x177D JUMP JUMPDEST PUSH1 0x9 SSTORE PUSH2 0x178A JUMP JUMPDEST PUSH2 0x369 DUP6 MLOAD DUP1 SWAP5 PUSH2 0x167B JUMP JUMPDEST PUSH1 0x20 DUP4 ADD SWAP1 PUSH2 0x167B JUMP JUMPDEST DUP2 PUSH1 0x0 DUP1 MLOAD PUSH1 0x20 PUSH2 0x19C2 DUP4 CODECOPY DUP2 MLOAD SWAP2 MSTORE DUP5 CALLER SWAP4 LOG3 DUP2 MLOAD PUSH32 0x3A26D1FB758531FF7B353755DEAD133D15E5F0D05DD872EF34695C74CAC7D5F3 DUP2 MSTORE NUMBER PUSH1 0x20 DUP3 ADD MSTORE PUSH1 0x1 PUSH1 0x1 PUSH1 0xA0 SHL SUB SWAP1 SWAP2 AND SWAP2 CALLER SWAP2 PUSH1 0x0 DUP1 MLOAD PUSH1 0x20 PUSH2 0x1982 DUP4 CODECOPY DUP2 MLOAD SWAP2 MSTORE SWAP2 SWAP1 LOG3 DUP1 RETURN JUMPDEST ISZERO SWAP2 DUP3 PUSH2 0x3F9 JUMPI JUMPDEST POP POP DUP3 PUSH2 0x373 SWAP4 SWAP3 PUSH2 0x35D SWAP3 ISZERO PUSH2 0x178A JUMPI PUSH2 0x355 PUSH1 0x9 SLOAD PUSH2 0x1758 JUMP JUMPDEST SWAP1 SWAP2 POP PUSH2 0x40C JUMPI POP DUP2 ISZERO DUP3 PUSH2 0x373 PUSH2 0x3DD JUMP JUMPDEST PUSH4 0x4E487B71 PUSH1 0xE0 SHL DUP8 MSTORE PUSH1 0x21 SWAP1 MSTORE PUSH1 0x24 DUP7 REVERT JUMPDEST POP DUP9 SWAP3 POP DUP5 ISZERO ISZERO PUSH2 0x339 JUMP JUMPDEST PUSH4 0x4E487B71 PUSH1 0xE0 SHL DUP9 MSTORE PUSH1 0x21 SWAP1 MSTORE PUSH1 0x24 DUP8 REVERT JUMPDEST DUP5 MLOAD PUSH4 0x1C1269F3 PUSH1 0xE2 SHL DUP2 MSTORE DUP1 DUP5 ADD DUP6 SWAP1 MSTORE PUSH1 0x24 SWAP1 REVERT JUMPDEST DUP6 DUP1 REVERT JUMPDEST DUP3 DUP1 REVERT JUMPDEST SWAP2 SWAP1 POP CALLVALUE PUSH2 0x459 JUMPI DUP1 PUSH1 0x3 NOT CALLDATASIZE ADD SLT PUSH2 0x459 JUMPI PUSH2 0x499 SWAP2 CALLDATALOAD PUSH2 0x494 PUSH1 0x1 PUSH2 0x482 PUSH2 0x16B9 JUMP JUMPDEST SWAP4 DUP4 DUP8 MSTORE PUSH1 0x1A PUSH1 0x20 MSTORE DUP7 KECCAK256 ADD SLOAD PUSH2 0x1844 JUMP JUMPDEST PUSH2 0x18EA JUMP JUMPDEST POP DUP1 RETURN JUMPDEST POP POP CALLVALUE PUSH2 0x267 JUMPI DUP2 PUSH1 0x3 NOT CALLDATASIZE ADD SLT PUSH2 0x267 JUMPI PUSH1 0x20 SWAP1 MLOAD PUSH1 0x14 DUP2 MSTORE RETURN JUMPDEST POP POP CALLVALUE PUSH2 0x267 JUMPI DUP1 PUSH1 0x3 NOT CALLDATASIZE ADD SLT PUSH2 0x267 JUMPI PUSH1 0x20 SWAP2 PUSH1 0xFF SWAP1 DUP3 SWAP1 PUSH1 0x1 PUSH1 0x1 PUSH1 0xA0 SHL SUB PUSH2 0x4E3 PUSH2 0x169E JUMP JUMPDEST AND DUP2 MSTORE PUSH1 0x2 DUP6 MSTORE DUP2 DUP2 KECCAK256 PUSH1 0x24 CALLDATALOAD DUP3 MSTORE DUP6 MSTORE KECCAK256 SLOAD AND SWAP1 MLOAD SWAP1 ISZERO ISZERO DUP2 MSTORE RETURN JUMPDEST POP POP CALLVALUE PUSH2 0x267 JUMPI DUP2 PUSH1 0x3 NOT CALLDATASIZE ADD SLT PUSH2 0x267 JUMPI PUSH1 0x20 SWAP1 PUSH1 0x11 SLOAD SWAP1 MLOAD SWAP1 DUP2 MSTORE RETURN JUMPDEST POP POP CALLVALUE PUSH2 0x267 JUMPI DUP2 PUSH1 0x3 NOT CALLDATASIZE ADD SLT PUSH2 0x267 JUMPI PUSH1 0x20 SWAP1 PUSH1 0xB SLOAD SWAP1 MLOAD SWAP1 DUP2 MSTORE RETURN JUMPDEST SWAP1 POP CALLVALUE PUSH2 0x459 JUMPI DUP2 PUSH1 0x3 NOT CALLDATASIZE ADD SLT PUSH2 0x459 JUMPI PUSH1 0x24 CALLDATALOAD SWAP1 DUP1 CALLDATALOAD DUP5 MSTORE PUSH1 0x20 MSTORE DUP2 DUP4 KECCAK256 DUP1 SLOAD DUP3 LT ISZERO PUSH2 0x59A JUMPI PUSH1 0x20 DUP5 PUSH1 0x3 SWAP3 PUSH1 0x60 SWAP7 MSTORE KECCAK256 SWAP2 MUL ADD PUSH1 0x1 DUP1 PUSH1 0xA0 SHL SUB DUP2 SLOAD AND SWAP2 PUSH1 0x2 PUSH1 0x1 DUP4 ADD SLOAD SWAP3 ADD SLOAD SWAP2 DUP2 MLOAD SWAP4 DUP5 MSTORE PUSH1 0x20 DUP5 ADD MSTORE DUP3 ADD MSTORE RETURN JUMPDEST DUP4 DUP1 REVERT JUMPDEST POP POP CALLVALUE PUSH2 0x267 JUMPI DUP2 PUSH1 0x3 NOT CALLDATASIZE ADD SLT PUSH2 0x267 JUMPI PUSH1 0x20 SWAP1 PUSH1 0x9 SLOAD SWAP1 MLOAD SWAP1 DUP2 MSTORE RETURN JUMPDEST POP POP CALLVALUE PUSH2 0x267 JUMPI DUP2 PUSH1 0x3 NOT CALLDATASIZE ADD SLT PUSH2 0x267 JUMPI MLOAD SWAP1 DUP2 MSTORE PUSH1 0x20 SWAP1 RETURN JUMPDEST SWAP1 POP CALLVALUE PUSH2 0x459 JUMPI DUP3 PUSH1 0x3 NOT CALLDATASIZE ADD SLT PUSH2 0x459 JUMPI PUSH1 0x0 DUP1 MLOAD PUSH1 0x20 PUSH2 0x1962 DUP4 CODECOPY DUP2 MLOAD SWAP2 MSTORE DUP1 DUP5 MSTORE PUSH1 0x1A PUSH1 0x20 MSTORE DUP3 DUP5 KECCAK256 CALLER DUP6 MSTORE PUSH1 0x20 MSTORE PUSH1 0xFF DUP4 DUP6 KECCAK256 SLOAD AND ISZERO PUSH2 0x667 JUMPI DUP4 DUP1 DUP5 PUSH1 0x1 PUSH1 0xFF NOT PUSH1 0x17 SLOAD AND OR PUSH1 0x17 SSTORE PUSH1 0x0 DUP1 MLOAD PUSH1 0x20 PUSH2 0x1982 DUP4 CODECOPY DUP2 MLOAD SWAP2 MSTORE DUP2 MLOAD SWAP2 PUSH32 0x2B360512BE00A461D38B01F2225A8A63B3F66A627FC69E02C0205598890AF54D DUP4 MSTORE NUMBER PUSH1 0x20 DUP5 ADD MSTORE CALLER SWAP3 LOG3 DUP1 RETURN JUMPDEST PUSH1 0x44 SWAP3 MLOAD SWAP2 PUSH4 0xE2517D3F PUSH1 0xE0 SHL DUP4 MSTORE CALLER SWAP1 DUP4 ADD MSTORE PUSH1 0x24 DUP3 ADD MSTORE REVERT JUMPDEST SWAP2 SWAP1 POP CALLVALUE PUSH2 0x459 JUMPI PUSH1 0x20 CALLDATASIZE PUSH1 0x3 NOT ADD SLT PUSH2 0x459 JUMPI PUSH1 0xA0 SWAP3 DUP2 SWAP1 PUSH1 0x1 PUSH1 0x1 PUSH1 0xA0 SHL SUB PUSH2 0x6AB PUSH2 0x169E JUMP JUMPDEST AND DUP2 MSTORE PUSH1 0x1 PUSH1 0x20 MSTORE KECCAK256 DUP1 SLOAD SWAP3 PUSH1 0x1 DUP3 ADD SLOAD SWAP3 PUSH1 0x2 DUP4 ADD SLOAD SWAP2 PUSH1 0x3 DUP5 ADD SLOAD SWAP4 ADD SLOAD SWAP4 DUP2 MLOAD SWAP6 DUP7 MSTORE PUSH1 0x20 DUP7 ADD MSTORE DUP5 ADD MSTORE PUSH1 0x60 DUP4 ADD MSTORE PUSH1 0x80 DUP3 ADD MSTORE RETURN JUMPDEST SWAP1 POP CALLVALUE PUSH2 0x459 JUMPI DUP2 PUSH1 0x3 NOT CALLDATASIZE ADD SLT PUSH2 0x459 JUMPI DUP2 PUSH1 0x20 SWAP4 PUSH1 0xFF SWAP3 PUSH2 0x706 PUSH2 0x16B9 JUMP JUMPDEST SWAP1 CALLDATALOAD DUP3 MSTORE PUSH1 0x1A DUP7 MSTORE DUP3 DUP3 KECCAK256 PUSH1 0x1 PUSH1 0x1 PUSH1 0xA0 SHL SUB SWAP1 SWAP2 AND DUP3 MSTORE DUP6 MSTORE KECCAK256 SLOAD SWAP2 MLOAD SWAP2 AND ISZERO ISZERO DUP2 MSTORE RETURN JUMPDEST POP POP CALLVALUE PUSH2 0x267 JUMPI DUP1 PUSH1 0x3 NOT CALLDATASIZE ADD SLT PUSH2 0x267 JUMPI PUSH1 0x20 SWAP2 DUP2 SWAP1 PUSH1 0x1 PUSH1 0x1 PUSH1 0xA0 SHL SUB PUSH2 0x753 PUSH2 0x169E JUMP JUMPDEST AND DUP2 MSTORE PUSH1 0x16 DUP5 MSTORE DUP2 DUP2 KECCAK256 PUSH1 0x24 CALLDATALOAD DUP3 MSTORE DUP5 MSTORE KECCAK256 SLOAD SWAP1 MLOAD SWAP1 DUP2 MSTORE RETURN JUMPDEST POP POP CALLVALUE PUSH2 0x267 JUMPI DUP2 PUSH1 0x3 NOT CALLDATASIZE ADD SLT PUSH2 0x267 JUMPI PUSH1 0x20 SWAP1 PUSH1 0xC SLOAD SWAP1 MLOAD SWAP1 DUP2 MSTORE RETURN JUMPDEST POP POP CALLVALUE PUSH2 0x267 JUMPI DUP2 PUSH1 0x3 NOT CALLDATASIZE ADD SLT PUSH2 0x267 JUMPI PUSH1 0x20 SWAP1 MLOAD PUSH32 0x39DB794A90DAD1F6F1EB43938A38164FFCB808BCE7E11FB138C898D32D58D6D7 DUP2 MSTORE RETURN JUMPDEST POP POP CALLVALUE PUSH2 0x267 JUMPI DUP1 PUSH1 0x3 NOT CALLDATASIZE ADD SLT PUSH2 0x267 JUMPI PUSH2 0x7E1 PUSH2 0x169E JUMP JUMPDEST PUSH1 0x0 DUP1 MLOAD PUSH1 0x20 PUSH2 0x1982 DUP4 CODECOPY DUP2 MLOAD SWAP2 MSTORE PUSH1 0x24 CALLDATALOAD SWAP2 PUSH2 0x7FC PUSH2 0x17FA JUMP JUMPDEST PUSH1 0x1 DUP1 PUSH1 0xA0 SHL SUB AND SWAP3 DUP4 DUP6 MSTORE PUSH1 0x3 PUSH1 0x20 MSTORE DUP1 DUP6 KECCAK256 PUSH1 0x1 PUSH1 0xFF NOT DUP3 SLOAD AND OR SWAP1 SSTORE DUP4 PUSH32 0xF3180B5FA328E1EC92AC05766351DE4A83F72E55569A638FE62A6D225DCD5044 PUSH1 0x20 DUP4 MLOAD DUP7 DUP2 MSTORE LOG2 DUP1 MLOAD SWAP3 DUP4 MSTORE NUMBER PUSH1 0x20 DUP5 ADD MSTORE CALLER SWAP3 LOG3 DUP1 RETURN JUMPDEST SWAP1 POP CALLVALUE PUSH2 0x459 JUMPI PUSH1 0x20 CALLDATASIZE PUSH1 0x3 NOT ADD SLT PUSH2 0x459 JUMPI DUP1 CALLDATALOAD PUSH1 0x7 SLOAD DUP2 LT ISZERO PUSH2 0x59A JUMPI PUSH1 0x7 PUSH1 0x20 DUP6 DUP3 PUSH1 0xE0 SWAP8 MSTORE KECCAK256 SWAP2 MUL ADD PUSH1 0x1 DUP1 PUSH1 0xA0 SHL SUB DUP2 SLOAD AND SWAP3 PUSH1 0x1 DUP3 ADD SLOAD SWAP3 PUSH1 0x2 DUP4 ADD SLOAD PUSH1 0x3 DUP5 ADD SLOAD SWAP2 DUP5 ADD SLOAD SWAP3 PUSH1 0x6 PUSH1 0x5 DUP7 ADD SLOAD SWAP6 ADD SLOAD SWAP6 DUP2 MLOAD SWAP8 DUP9 MSTORE PUSH1 0x20 DUP9 ADD MSTORE DUP7 ADD MSTORE PUSH1 0x60 DUP6 ADD MSTORE PUSH1 0x80 DUP5 ADD MSTORE PUSH1 0xA0 DUP4 ADD MSTORE PUSH1 0xC0 DUP3 ADD MSTORE RETURN JUMPDEST POP POP CALLVALUE PUSH2 0x267 JUMPI DUP2 PUSH1 0x3 NOT CALLDATASIZE ADD SLT PUSH2 0x267 JUMPI PUSH1 0x20 SWAP1 MLOAD PUSH1 0x0 DUP1 MLOAD PUSH1 0x20 PUSH2 0x19A2 DUP4 CODECOPY DUP2 MLOAD SWAP2 MSTORE DUP2 MSTORE RETURN JUMPDEST DUP1 DUP5 CALLVALUE PUSH2 0x95F JUMPI DUP2 PUSH1 0x3 NOT CALLDATASIZE ADD SLT PUSH2 0x95F JUMPI PUSH2 0x914 PUSH2 0x17A2 JUMP JUMPDEST PUSH1 0xFF NOT PUSH1 0x17 SLOAD AND PUSH1 0x17 SSTORE PUSH1 0x0 DUP1 MLOAD PUSH1 0x20 PUSH2 0x1982 DUP4 CODECOPY DUP2 MLOAD SWAP2 MSTORE DUP2 MLOAD SWAP2 PUSH32 0xA448AA3F2ACC158C0ABABF575E87E74D1CFA11F3D84AD26D32EE02E7BBCC8D70 DUP4 MSTORE NUMBER PUSH1 0x20 DUP5 ADD MSTORE CALLER SWAP3 LOG3 DUP1 RETURN JUMPDEST POP REVERT JUMPDEST POP POP CALLVALUE PUSH2 0x267 JUMPI DUP2 PUSH1 0x3 NOT CALLDATASIZE ADD SLT PUSH2 0x267 JUMPI PUSH1 0x80 SWAP1 PUSH1 0xFF PUSH1 0x17 SLOAD AND SWAP1 SELFBALANCE SWAP1 PUSH1 0x9 SLOAD SWAP2 DUP2 MLOAD SWAP4 ISZERO ISZERO DUP5 MSTORE PUSH1 0x20 DUP5 ADD MSTORE DUP3 ADD MSTORE NUMBER PUSH1 0x60 DUP3 ADD MSTORE RETURN JUMPDEST POP POP CALLVALUE PUSH2 0x267 JUMPI DUP2 PUSH1 0x3 NOT CALLDATASIZE ADD SLT PUSH2 0x267 JUMPI PUSH1 0x20 SWAP1 MLOAD PUSH2 0x1680 DUP2 MSTORE RETURN JUMPDEST POP POP CALLVALUE PUSH2 0x267 JUMPI DUP1 PUSH1 0x3 NOT CALLDATASIZE ADD SLT PUSH2 0x267 JUMPI PUSH2 0x9D2 PUSH2 0x169E JUMP JUMPDEST PUSH1 0x1 PUSH1 0x1 PUSH1 0xA0 SHL SUB AND DUP3 MSTORE PUSH1 0x5 PUSH1 0x20 MSTORE DUP1 DUP3 KECCAK256 DUP1 SLOAD PUSH1 0x24 CALLDATALOAD SWAP4 SWAP1 DUP5 LT ISZERO PUSH2 0x2C0 JUMPI POP PUSH1 0x20 SWAP3 PUSH2 0x2B2 SWAP2 PUSH2 0x16ED JUMP JUMPDEST SWAP1 POP CALLVALUE PUSH2 0x459 JUMPI DUP2 PUSH1 0x3 NOT CALLDATASIZE ADD SLT PUSH2 0x459 JUMPI PUSH1 0x1 PUSH1 0x1 PUSH1 0x40 SHL SUB SWAP1 DUP1 CALLDATALOAD SWAP1 DUP3 DUP3 GT PUSH2 0xBD7 JUMPI CALLDATASIZE PUSH1 0x23 DUP4 ADD SLT ISZERO PUSH2 0xBD7 JUMPI DUP2 DUP2 ADD CALLDATALOAD SWAP3 DUP4 GT PUSH2 0xBD7 JUMPI PUSH1 0x24 SWAP1 PUSH1 0x5 SWAP1 CALLDATASIZE DUP4 DUP7 PUSH1 0x5 SHL DUP7 ADD ADD GT PUSH2 0xBD3 JUMPI DUP3 CALLDATALOAD SWAP2 PUSH1 0x3 SWAP5 PUSH1 0x3 DUP5 LT ISZERO SWAP2 DUP3 PUSH2 0xBCF JUMPI PUSH2 0xA68 PUSH2 0x17FA JUMP JUMPDEST PUSH1 0x14 DUP9 GT PUSH2 0xB9B JUMPI DUP10 JUMPDEST DUP9 DUP2 LT PUSH2 0xA7D JUMPI DUP11 DUP1 RETURN JUMPDEST DUP11 DUP8 DUP3 DUP5 SHL DUP6 ADD ADD CALLDATALOAD PUSH1 0x8 SLOAD DUP2 LT PUSH2 0xA9A JUMPI JUMPDEST POP POP PUSH1 0x1 ADD PUSH2 0xA72 JUMP JUMPDEST DUP1 DUP3 MSTORE PUSH1 0x7 DUP13 PUSH1 0x20 SWAP4 DUP1 DUP6 MSTORE KECCAK256 ADD SWAP2 PUSH1 0xFF DUP4 SLOAD AND SWAP3 DUP12 DUP5 LT ISZERO PUSH2 0xB5F JUMPI DUP10 DUP15 SWAP2 DUP10 DUP7 ISZERO DUP1 DUP1 SWAP2 PUSH2 0xB71 JUMPI JUMPDEST ISZERO PUSH2 0xB1D JUMPI POP POP PUSH2 0xB01 SWAP3 PUSH2 0xAF1 PUSH1 0x1 SWAP9 SWAP8 SWAP7 SWAP6 SWAP4 PUSH2 0xAF9 SWAP4 PUSH1 0x9 PUSH2 0xAEA DUP2 SLOAD PUSH2 0x177D JUMP JUMPDEST SWAP1 SSTORE PUSH2 0x178A JUMP JUMPDEST MLOAD DUP1 SWAP6 PUSH2 0x167B JUMP JUMPDEST DUP4 ADD DUP11 PUSH2 0x167B JUMP JUMPDEST PUSH1 0x0 DUP1 MLOAD PUSH1 0x20 PUSH2 0x19C2 DUP4 CODECOPY DUP2 MLOAD SWAP2 MSTORE DUP14 CALLER SWAP4 LOG3 SWAP1 POP DUP11 CODESIZE PUSH2 0xA90 JUMP JUMPDEST ISZERO SWAP1 DUP2 PUSH2 0xB4A JUMPI JUMPDEST POP SWAP3 PUSH2 0xAF1 PUSH1 0x1 SWAP9 SWAP8 SWAP7 SWAP6 SWAP4 PUSH2 0xAF9 SWAP4 PUSH2 0xB01 SWAP7 ISZERO PUSH2 0x178A JUMPI PUSH1 0x9 PUSH2 0xAEA DUP2 SLOAD PUSH2 0x1758 JUMP JUMPDEST SWAP3 POP POP SWAP2 POP PUSH2 0xB5F JUMPI DUP14 SWAP1 DUP11 SWAP1 DUP2 ISZERO DUP11 PUSH2 0xB25 JUMP JUMPDEST PUSH4 0x4E487B71 PUSH1 0xE0 SHL DUP16 MSTORE PUSH1 0x21 DUP10 MSTORE DUP11 DUP16 REVERT JUMPDEST POP SWAP3 POP SWAP1 SWAP3 POP PUSH2 0xB88 JUMPI DUP15 SWAP2 DUP10 DUP13 SWAP3 DUP4 ISZERO ISZERO PUSH2 0xAC5 JUMP JUMPDEST POP PUSH4 0x4E487B71 PUSH1 0xE0 SHL DUP16 MSTORE PUSH1 0x21 DUP10 MSTORE DUP11 DUP16 REVERT JUMPDEST DUP9 MLOAD PUSH3 0x461BCD PUSH1 0xE5 SHL DUP2 MSTORE PUSH1 0x20 DUP2 DUP7 ADD MSTORE PUSH1 0xF DUP2 DUP9 ADD MSTORE PUSH15 0x426174636820746F6F206C61726765 PUSH1 0x88 SHL PUSH1 0x44 DUP3 ADD MSTORE PUSH1 0x64 SWAP1 REVERT JUMPDEST DUP10 DUP1 REVERT JUMPDEST DUP7 DUP1 REVERT JUMPDEST DUP5 DUP1 REVERT JUMPDEST POP POP CALLVALUE PUSH2 0x267 JUMPI DUP2 PUSH1 0x3 NOT CALLDATASIZE ADD SLT PUSH2 0x267 JUMPI PUSH1 0x20 SWAP1 PUSH1 0xA SLOAD SWAP1 MLOAD SWAP1 DUP2 MSTORE RETURN JUMPDEST POP POP CALLVALUE PUSH2 0x267 JUMPI DUP2 PUSH1 0x3 NOT CALLDATASIZE ADD SLT PUSH2 0x267 JUMPI PUSH1 0x20 SWAP1 PUSH1 0xFF PUSH1 0x17 SLOAD AND SWAP1 MLOAD SWAP1 ISZERO ISZERO DUP2 MSTORE RETURN JUMPDEST POP POP DUP2 PUSH1 0x3 NOT CALLDATASIZE ADD SLT PUSH2 0x267 JUMPI PUSH2 0xC36 CALLVALUE ISZERO ISZERO PUSH2 0x171B JUMP JUMPDEST MLOAD CALLVALUE DUP2 MSTORE PUSH32 0xB9DB6CD07D4C34464BB104380303BDDD2410E6C5436F03672A9F1E288380C6C7 PUSH1 0x20 CALLER SWAP3 LOG2 DUP1 RETURN JUMPDEST DUP4 DUP4 CALLVALUE PUSH2 0x267 JUMPI PUSH2 0xC73 CALLDATASIZE PUSH2 0x16CF JUMP JUMPDEST SWAP3 SWAP6 PUSH2 0xC80 SWAP3 SWAP2 SWAP3 PUSH2 0x17A2 JUMP JUMPDEST DUP7 ISZERO PUSH2 0xDC0 JUMPI DUP7 DUP3 GT ISZERO PUSH2 0xD89 JUMPI DUP3 ISZERO ISZERO DUP1 PUSH2 0xD7E JUMPI JUMPDEST ISZERO PUSH2 0xD44 JUMPI DUP4 ISZERO ISZERO DUP1 PUSH2 0xD39 JUMPI JUMPDEST ISZERO PUSH2 0xCFA JUMPI POP DUP5 SWAP6 PUSH1 0xF SSTORE PUSH1 0x10 SSTORE PUSH1 0x14 SSTORE PUSH1 0x15 SSTORE PUSH1 0x0 DUP1 MLOAD PUSH1 0x20 PUSH2 0x1982 DUP4 CODECOPY DUP2 MLOAD SWAP2 MSTORE DUP2 MLOAD SWAP2 PUSH32 0xD28FEF99873700106A71D66F0EDD4E28C4571423448166C7AD2EEC3E40EB09F1 DUP4 MSTORE NUMBER PUSH1 0x20 DUP5 ADD MSTORE CALLER SWAP3 LOG3 DUP1 RETURN JUMPDEST PUSH1 0x64 SWAP1 PUSH1 0x20 DUP7 MLOAD SWAP2 PUSH3 0x461BCD PUSH1 0xE5 SHL DUP4 MSTORE DUP3 ADD MSTORE PUSH1 0x19 PUSH1 0x24 DUP3 ADD MSTORE PUSH25 0x496E76616C6964206D617820636F6C6C61626F7261746F7273 PUSH1 0x38 SHL PUSH1 0x44 DUP3 ADD MSTORE REVERT JUMPDEST POP PUSH1 0x14 DUP5 GT ISZERO PUSH2 0xCA5 JUMP JUMPDEST PUSH1 0x64 SWAP1 PUSH1 0x20 DUP7 MLOAD SWAP2 PUSH3 0x461BCD PUSH1 0xE5 SHL DUP4 MSTORE DUP3 ADD MSTORE PUSH1 0x14 PUSH1 0x24 DUP3 ADD MSTORE PUSH20 0x125B9D985B1A59081D5C1B1BD859081B1A5B5A5D PUSH1 0x62 SHL PUSH1 0x44 DUP3 ADD MSTORE REVERT JUMPDEST POP PUSH1 0x32 DUP4 GT ISZERO PUSH2 0xC97 JUMP JUMPDEST PUSH1 0x64 SWAP1 PUSH1 0x20 DUP7 MLOAD SWAP2 PUSH3 0x461BCD PUSH1 0xE5 SHL DUP4 MSTORE DUP3 ADD MSTORE PUSH1 0x11 PUSH1 0x24 DUP3 ADD MSTORE PUSH17 0x496E76616C6964206D6178207072696365 PUSH1 0x78 SHL PUSH1 0x44 DUP3 ADD MSTORE REVERT JUMPDEST PUSH1 0x64 SWAP1 PUSH1 0x20 DUP7 MLOAD SWAP2 PUSH3 0x461BCD PUSH1 0xE5 SHL DUP4 MSTORE DUP3 ADD MSTORE PUSH1 0x11 PUSH1 0x24 DUP3 ADD MSTORE PUSH17 0x496E76616C6964206D696E207072696365 PUSH1 0x78 SHL PUSH1 0x44 DUP3 ADD MSTORE REVERT JUMPDEST POP POP CALLVALUE PUSH2 0x267 JUMPI DUP2 PUSH1 0x3 NOT CALLDATASIZE ADD SLT PUSH2 0x267 JUMPI PUSH1 0x20 SWAP1 PUSH1 0xE SLOAD SWAP1 MLOAD SWAP1 DUP2 MSTORE RETURN JUMPDEST POP POP CALLVALUE PUSH2 0x267 JUMPI DUP2 PUSH1 0x3 NOT CALLDATASIZE ADD SLT PUSH2 0x267 JUMPI PUSH1 0x20 SWAP1 PUSH1 0xD SLOAD SWAP1 MLOAD SWAP1 DUP2 MSTORE RETURN JUMPDEST POP POP CALLVALUE PUSH2 0x267 JUMPI PUSH1 0x20 CALLDATASIZE PUSH1 0x3 NOT ADD SLT PUSH2 0x267 JUMPI PUSH2 0xE50 PUSH2 0x169E JUMP JUMPDEST PUSH2 0xE58 PUSH2 0x17FA JUMP JUMPDEST PUSH1 0x1 PUSH1 0x1 PUSH1 0xA0 SHL SUB AND DUP1 DUP4 MSTORE PUSH1 0x3 PUSH1 0x20 MSTORE DUP2 DUP4 KECCAK256 DUP1 SLOAD PUSH1 0xFF NOT AND SWAP1 SSTORE DUP2 MLOAD SWAP1 SWAP2 PUSH1 0x0 DUP1 MLOAD PUSH1 0x20 PUSH2 0x1982 DUP4 CODECOPY DUP2 MLOAD SWAP2 MSTORE SWAP1 DUP4 PUSH32 0x7409CB8E690BCD1487FD4FD27DAD3FA92388D201BA6F953631D6D6B26299F849 DUP7 DUP1 LOG2 PUSH32 0x3FE0AD2AEA56A8E2A5F72B5BCDA9E0656C92571B92FC3F15DAEA4319415B0FAE DUP4 MSTORE NUMBER PUSH1 0x20 DUP5 ADD MSTORE CALLER SWAP3 LOG3 DUP1 RETURN JUMPDEST POP POP CALLVALUE PUSH2 0x267 JUMPI DUP2 PUSH1 0x3 NOT CALLDATASIZE ADD SLT PUSH2 0x267 JUMPI PUSH1 0x20 SWAP1 PUSH1 0x10 SLOAD SWAP1 MLOAD SWAP1 DUP2 MSTORE RETURN JUMPDEST POP POP CALLVALUE PUSH2 0x267 JUMPI DUP2 PUSH1 0x3 NOT CALLDATASIZE ADD SLT PUSH2 0x267 JUMPI PUSH1 0x20 SWAP1 PUSH1 0x12 SLOAD SWAP1 MLOAD SWAP1 DUP2 MSTORE RETURN JUMPDEST POP POP CALLVALUE PUSH2 0x267 JUMPI DUP2 PUSH1 0x3 NOT CALLDATASIZE ADD SLT PUSH2 0x267 JUMPI PUSH1 0x20 SWAP1 PUSH1 0x13 SLOAD SWAP1 MLOAD SWAP1 DUP2 MSTORE RETURN JUMPDEST DUP4 DUP4 CALLVALUE PUSH2 0x267 JUMPI DUP1 PUSH1 0x3 NOT CALLDATASIZE ADD SLT PUSH2 0x267 JUMPI PUSH2 0xF53 PUSH2 0x16B9 JUMP JUMPDEST SWAP1 CALLER PUSH1 0x1 PUSH1 0x1 PUSH1 0xA0 SHL SUB DUP4 AND SUB PUSH2 0xF70 JUMPI POP PUSH2 0x499 SWAP2 SWAP3 CALLDATALOAD PUSH2 0x18EA JUMP JUMPDEST MLOAD PUSH4 0x334BD919 PUSH1 0xE1 SHL DUP2 MSTORE DUP4 SWAP1 REVERT JUMPDEST DUP4 DUP4 CALLVALUE PUSH2 0x267 JUMPI PUSH2 0xF8F CALLDATASIZE PUSH2 0x16CF JUMP JUMPDEST SWAP3 SWAP6 PUSH2 0xF9C SWAP3 SWAP2 SWAP3 PUSH2 0x17A2 JUMP JUMPDEST PUSH2 0x3E8 DUP8 GT PUSH2 0x10D0 JUMPI PUSH2 0x9C4 DUP3 GT PUSH2 0x1092 JUMPI PUSH2 0x1388 DUP4 GT PUSH2 0x1058 JUMPI PUSH1 0x1 DUP5 LT ISZERO DUP1 PUSH2 0x104D JUMPI JUMPDEST ISZERO PUSH2 0x1017 JUMPI POP DUP5 SWAP6 PUSH1 0xC SSTORE PUSH1 0xD SSTORE PUSH1 0xE SSTORE PUSH1 0x11 SSTORE PUSH1 0x0 DUP1 MLOAD PUSH1 0x20 PUSH2 0x1982 DUP4 CODECOPY DUP2 MLOAD SWAP2 MSTORE DUP2 MLOAD SWAP2 PUSH32 0xE7498543E1230A1B7E29F8BAD7ACF7600045F6502FB2CCAC22F9635970EBA98 DUP4 MSTORE NUMBER PUSH1 0x20 DUP5 ADD MSTORE CALLER SWAP3 LOG3 DUP1 RETURN JUMPDEST PUSH1 0x64 SWAP1 PUSH1 0x20 DUP7 MLOAD SWAP2 PUSH3 0x461BCD PUSH1 0xE5 SHL DUP4 MSTORE DUP3 ADD MSTORE PUSH1 0x10 PUSH1 0x24 DUP3 ADD MSTORE PUSH16 0x24B73B30B634B21031B7B7B63237BBB7 PUSH1 0x81 SHL PUSH1 0x44 DUP3 ADD MSTORE REVERT JUMPDEST POP PUSH1 0x64 DUP5 GT ISZERO PUSH2 0xFC2 JUMP JUMPDEST PUSH1 0x64 SWAP1 PUSH1 0x20 DUP7 MLOAD SWAP2 PUSH3 0x461BCD PUSH1 0xE5 SHL DUP4 MSTORE DUP3 ADD MSTORE PUSH1 0x14 PUSH1 0x24 DUP3 ADD MSTORE PUSH20 0x9AC2F040E4DEF2C2D8E8F240E8DEDE40D0D2CED PUSH1 0x63 SHL PUSH1 0x44 DUP3 ADD MSTORE REVERT JUMPDEST PUSH1 0x64 SWAP1 PUSH1 0x20 DUP7 MLOAD SWAP2 PUSH3 0x461BCD PUSH1 0xE5 SHL DUP4 MSTORE DUP3 ADD MSTORE PUSH1 0x18 PUSH1 0x24 DUP3 ADD MSTORE PUSH24 0x88CACCC2EAD8E840E4DEF2C2D8E8F240E8DEDE40D0D2CED PUSH1 0x43 SHL PUSH1 0x44 DUP3 ADD MSTORE REVERT JUMPDEST PUSH1 0x64 SWAP1 PUSH1 0x20 DUP7 MLOAD SWAP2 PUSH3 0x461BCD PUSH1 0xE5 SHL DUP4 MSTORE DUP3 ADD MSTORE PUSH1 0x15 PUSH1 0x24 DUP3 ADD MSTORE PUSH21 0xA0D8C2E8CCDEE4DA40CCCACA40E8DEDE40D0D2CED PUSH1 0x5B SHL PUSH1 0x44 DUP3 ADD MSTORE REVERT JUMPDEST SWAP2 SWAP1 POP CALLVALUE PUSH2 0x459 JUMPI DUP1 PUSH1 0x3 NOT CALLDATASIZE ADD SLT PUSH2 0x459 JUMPI PUSH2 0x499 SWAP2 CALLDATALOAD PUSH2 0x1130 PUSH1 0x1 PUSH2 0x482 PUSH2 0x16B9 JUMP JUMPDEST PUSH2 0x186A JUMP JUMPDEST POP POP CALLVALUE PUSH2 0x267 JUMPI DUP2 PUSH1 0x3 NOT CALLDATASIZE ADD SLT PUSH2 0x267 JUMPI PUSH1 0x20 SWAP1 MLOAD PUSH1 0x64 DUP2 MSTORE RETURN JUMPDEST DUP4 SWAP2 POP CALLVALUE PUSH2 0x267 JUMPI PUSH1 0x20 SWAP1 DUP2 PUSH1 0x3 NOT CALLDATASIZE ADD SLT PUSH2 0x459 JUMPI DUP1 CALLDATALOAD PUSH2 0x1171 PUSH2 0x17A2 JUMP JUMPDEST PUSH2 0x117C DUP2 ISZERO ISZERO PUSH2 0x171B JUMP JUMPDEST SELFBALANCE DUP2 GT PUSH2 0x126A JUMPI DUP1 SELFBALANCE LT PUSH2 0x124D JUMPI DUP4 DUP1 DUP1 DUP1 SWAP4 CALLER GAS CALL SWAP1 RETURNDATASIZE ISZERO PUSH2 0x1245 JUMPI RETURNDATASIZE SWAP2 PUSH1 0x1 PUSH1 0x1 PUSH1 0x40 SHL SUB DUP4 GT PUSH2 0x1232 JUMPI DUP6 MLOAD SWAP3 PUSH2 0x11BF PUSH1 0x1F DUP3 ADD PUSH1 0x1F NOT AND DUP7 ADD DUP6 PUSH2 0x152F JUMP JUMPDEST DUP4 MSTORE RETURNDATASIZE DUP6 DUP6 DUP6 ADD RETURNDATACOPY JUMPDEST ISZERO PUSH2 0x1211 JUMPI POP POP PUSH1 0x0 DUP1 MLOAD PUSH1 0x20 PUSH2 0x1982 DUP4 CODECOPY DUP2 MLOAD SWAP2 MSTORE DUP4 DUP4 SWAP5 MLOAD SWAP3 PUSH32 0x5C2EED7E29B3502A726FAF503AC4316B7101F3DA813654E8DF02C13449E03DA8 DUP5 MSTORE NUMBER SWAP1 DUP5 ADD MSTORE CALLER SWAP3 LOG3 DUP1 RETURN JUMPDEST DUP2 MLOAD SWAP2 SWAP3 SWAP2 DUP6 SWAP1 ISZERO PUSH2 0x1225 JUMPI POP POP DUP2 MLOAD SWAP2 ADD REVERT JUMPDEST MLOAD PUSH4 0xD6BDA275 PUSH1 0xE0 SHL DUP2 MSTORE REVERT JUMPDEST PUSH4 0x4E487B71 PUSH1 0xE0 SHL DUP6 MSTORE PUSH1 0x41 DUP3 MSTORE PUSH1 0x24 DUP6 REVERT JUMPDEST PUSH1 0x60 SWAP2 PUSH2 0x11C8 JUMP JUMPDEST PUSH1 0x44 SWAP3 POP DUP5 SELFBALANCE SWAP1 MLOAD SWAP3 PUSH4 0xCF479181 PUSH1 0xE0 SHL DUP5 MSTORE DUP4 ADD MSTORE PUSH1 0x24 DUP3 ADD MSTORE REVERT JUMPDEST POP PUSH1 0x64 SWAP2 DUP5 MLOAD SWAP2 PUSH3 0x461BCD PUSH1 0xE5 SHL DUP4 MSTORE DUP3 ADD MSTORE PUSH1 0x14 PUSH1 0x24 DUP3 ADD MSTORE PUSH20 0x496E73756666696369656E742062616C616E6365 PUSH1 0x60 SHL PUSH1 0x44 DUP3 ADD MSTORE REVERT JUMPDEST POP POP CALLVALUE PUSH2 0x267 JUMPI DUP2 PUSH1 0x3 NOT CALLDATASIZE ADD SLT PUSH2 0x267 JUMPI PUSH1 0x20 SWAP1 PUSH1 0x15 SLOAD SWAP1 MLOAD SWAP1 DUP2 MSTORE RETURN JUMPDEST SWAP1 POP CALLVALUE PUSH2 0x459 JUMPI PUSH1 0x20 CALLDATASIZE PUSH1 0x3 NOT ADD SLT PUSH2 0x459 JUMPI DUP2 PUSH1 0x20 SWAP4 PUSH1 0x1 SWAP3 CALLDATALOAD DUP2 MSTORE PUSH1 0x1A DUP6 MSTORE KECCAK256 ADD SLOAD SWAP1 MLOAD SWAP1 DUP2 MSTORE RETURN JUMPDEST POP POP CALLVALUE PUSH2 0x267 JUMPI PUSH1 0x20 CALLDATASIZE PUSH1 0x3 NOT ADD SLT PUSH2 0x267 JUMPI PUSH1 0x20 SWAP2 PUSH1 0xFF SWAP1 DUP3 SWAP1 PUSH1 0x1 PUSH1 0x1 PUSH1 0xA0 SHL SUB PUSH2 0x1318 PUSH2 0x169E JUMP JUMPDEST AND DUP2 MSTORE PUSH1 0x3 DUP6 MSTORE KECCAK256 SLOAD AND SWAP1 MLOAD SWAP1 ISZERO ISZERO DUP2 MSTORE RETURN JUMPDEST POP POP CALLVALUE PUSH2 0x267 JUMPI DUP2 PUSH1 0x3 NOT CALLDATASIZE ADD SLT PUSH2 0x267 JUMPI PUSH1 0x20 SWAP1 MLOAD PUSH1 0x0 DUP1 MLOAD PUSH1 0x20 PUSH2 0x1962 DUP4 CODECOPY DUP2 MLOAD SWAP2 MSTORE DUP2 MSTORE RETURN JUMPDEST POP POP CALLVALUE PUSH2 0x267 JUMPI DUP2 PUSH1 0x3 NOT CALLDATASIZE ADD SLT PUSH2 0x267 JUMPI PUSH1 0x20 SWAP1 PUSH1 0x14 SLOAD SWAP1 MLOAD SWAP1 DUP2 MSTORE RETURN JUMPDEST POP POP CALLVALUE PUSH2 0x267 JUMPI DUP2 PUSH1 0x3 NOT CALLDATASIZE ADD SLT PUSH2 0x267 JUMPI PUSH1 0x20 SWAP1 PUSH1 0xF SLOAD SWAP1 MLOAD SWAP1 DUP2 MSTORE RETURN JUMPDEST DUP3 DUP5 CALLVALUE PUSH2 0x2C0 JUMPI PUSH1 0x20 CALLDATASIZE PUSH1 0x3 NOT ADD SLT PUSH2 0x2C0 JUMPI DUP3 CALLDATALOAD DUP2 MSTORE DUP1 PUSH1 0x20 MSTORE DUP2 DUP2 KECCAK256 DUP1 SLOAD SWAP1 PUSH1 0x1 DUP2 ADD PUSH2 0x13C0 SWAP1 PUSH2 0x1568 JUMP JUMPDEST SWAP4 PUSH2 0x13CD PUSH1 0x2 DUP4 ADD PUSH2 0x1568 JUMP JUMPDEST PUSH1 0x3 DUP4 ADD SLOAD PUSH1 0xFF AND DUP8 DUP5 ADD SLOAD PUSH1 0x5 DUP6 ADD SLOAD PUSH1 0x6 DUP7 ADD SLOAD SWAP1 PUSH1 0x7 DUP8 ADD SLOAD SWAP3 PUSH1 0x1 PUSH1 0xA0 SHL PUSH1 0x1 SWAP1 SUB SWAP5 DUP6 PUSH1 0x8 DUP11 ADD SLOAD AND SWAP7 PUSH1 0x9 DUP11 ADD SLOAD SWAP9 PUSH1 0xA DUP12 ADD SLOAD SWAP11 PUSH1 0xB ADD SLOAD SWAP12 DUP2 MLOAD SWAP15 DUP16 SWAP2 PUSH2 0x1C0 SWAP1 DUP4 MSTORE DUP1 PUSH1 0x20 DUP5 ADD MSTORE DUP3 ADD PUSH2 0x1429 SWAP2 PUSH2 0x163B JUMP JUMPDEST SWAP2 DUP2 DUP4 SUB SWAP2 ADD MSTORE PUSH2 0x1439 SWAP2 PUSH2 0x163B JUMP JUMPDEST SWAP11 PUSH1 0x7 DUP3 LT ISZERO PUSH2 0x14AA JUMPI POP PUSH1 0x60 DUP13 ADD MSTORE PUSH1 0x80 DUP12 ADD MSTORE PUSH1 0xA0 DUP11 ADD MSTORE PUSH1 0xC0 DUP10 ADD MSTORE SWAP7 SWAP8 POP DUP8 SWAP7 PUSH4 0xFFFFFFFF SWAP5 SWAP4 SWAP3 SWAP2 SWAP1 PUSH2 0x1477 PUSH1 0xE0 DUP11 ADD PUSH1 0xFF DUP4 AND PUSH2 0x167B JUMP JUMPDEST PUSH1 0x8 SHR AND PUSH2 0x100 DUP9 ADD MSTORE PUSH2 0x120 DUP8 ADD MSTORE PUSH2 0x140 DUP7 ADD MSTORE DUP2 DUP2 AND PUSH2 0x160 DUP7 ADD MSTORE PUSH1 0x20 SHR AND PUSH2 0x180 DUP5 ADD MSTORE PUSH2 0x1A0 DUP4 ADD MSTORE SUB SWAP1 RETURN JUMPDEST PUSH4 0x4E487B71 PUSH1 0xE0 SHL DUP2 MSTORE PUSH1 0x21 DUP15 MSTORE PUSH1 0x24 SWAP1 REVERT JUMPDEST POP POP CALLVALUE PUSH2 0x267 JUMPI DUP2 PUSH1 0x3 NOT CALLDATASIZE ADD SLT PUSH2 0x267 JUMPI PUSH1 0x20 SWAP1 PUSH1 0x8 SLOAD SWAP1 MLOAD SWAP1 DUP2 MSTORE RETURN JUMPDEST DUP5 SWAP2 CALLVALUE PUSH2 0x459 JUMPI PUSH1 0x20 CALLDATASIZE PUSH1 0x3 NOT ADD SLT PUSH2 0x459 JUMPI CALLDATALOAD PUSH4 0xFFFFFFFF PUSH1 0xE0 SHL DUP2 AND DUP1 SWAP2 SUB PUSH2 0x459 JUMPI PUSH1 0x20 SWAP3 POP PUSH4 0x7965DB0B PUSH1 0xE0 SHL DUP2 EQ SWAP1 DUP2 ISZERO PUSH2 0x151E JUMPI JUMPDEST POP ISZERO ISZERO DUP2 MSTORE RETURN JUMPDEST PUSH4 0x1FFC9A7 PUSH1 0xE0 SHL EQ SWAP1 POP DUP4 PUSH2 0x1517 JUMP JUMPDEST PUSH1 0x1F SWAP1 SWAP2 ADD PUSH1 0x1F NOT AND DUP2 ADD SWAP1 PUSH1 0x1 PUSH1 0x1 PUSH1 0x40 SHL SUB DUP3 GT SWAP1 DUP3 LT OR PUSH2 0x1552 JUMPI PUSH1 0x40 MSTORE JUMP JUMPDEST PUSH4 0x4E487B71 PUSH1 0xE0 SHL PUSH1 0x0 MSTORE PUSH1 0x41 PUSH1 0x4 MSTORE PUSH1 0x24 PUSH1 0x0 REVERT JUMPDEST SWAP1 PUSH1 0x40 MLOAD SWAP1 PUSH1 0x0 DUP4 SLOAD SWAP1 PUSH1 0x1 DUP3 PUSH1 0x1 SHR SWAP1 PUSH1 0x1 DUP5 AND SWAP7 DUP8 ISZERO PUSH2 0x1631 JUMPI JUMPDEST PUSH1 0x20 SWAP5 DUP6 DUP5 LT DUP10 EQ PUSH2 0x161D JUMPI DUP8 SWAP9 DUP5 DUP10 SWAP8 SWAP9 SWAP10 MSTORE SWAP1 DUP2 PUSH1 0x0 EQ PUSH2 0x15FB JUMPI POP PUSH1 0x1 EQ PUSH2 0x15BC JUMPI JUMPDEST POP POP POP PUSH2 0x15BA SWAP3 POP SUB DUP4 PUSH2 0x152F JUMP JUMPDEST JUMP JUMPDEST PUSH1 0x0 SWAP1 DUP2 MSTORE DUP6 DUP2 KECCAK256 SWAP6 SWAP4 POP SWAP2 SWAP1 JUMPDEST DUP2 DUP4 LT PUSH2 0x15E3 JUMPI POP POP PUSH2 0x15BA SWAP4 POP DUP3 ADD ADD CODESIZE DUP1 DUP1 PUSH2 0x15AB JUMP JUMPDEST DUP6 SLOAD DUP9 DUP5 ADD DUP6 ADD MSTORE SWAP5 DUP6 ADD SWAP5 DUP8 SWAP5 POP SWAP2 DUP4 ADD SWAP2 PUSH2 0x15CA JUMP JUMPDEST SWAP3 POP POP POP PUSH2 0x15BA SWAP5 SWAP3 POP PUSH1 0xFF NOT AND DUP3 DUP5 ADD MSTORE ISZERO ISZERO PUSH1 0x5 SHL DUP3 ADD ADD CODESIZE DUP1 DUP1 PUSH2 0x15AB JUMP JUMPDEST PUSH4 0x4E487B71 PUSH1 0xE0 SHL DUP6 MSTORE PUSH1 0x22 PUSH1 0x4 MSTORE PUSH1 0x24 DUP6 REVERT JUMPDEST SWAP2 PUSH1 0x7F AND SWAP2 PUSH2 0x1585 JUMP JUMPDEST SWAP2 SWAP1 DUP3 MLOAD SWAP3 DUP4 DUP3 MSTORE PUSH1 0x0 JUMPDEST DUP5 DUP2 LT PUSH2 0x1667 JUMPI POP POP DUP3 PUSH1 0x0 PUSH1 0x20 DUP1 SWAP5 SWAP6 DUP5 ADD ADD MSTORE PUSH1 0x1F DUP1 NOT SWAP2 ADD AND ADD ADD SWAP1 JUMP JUMPDEST PUSH1 0x20 DUP2 DUP4 ADD DUP2 ADD MLOAD DUP5 DUP4 ADD DUP3 ADD MSTORE ADD PUSH2 0x1646 JUMP JUMPDEST SWAP1 PUSH1 0x3 DUP3 LT ISZERO PUSH2 0x1688 JUMPI MSTORE JUMP JUMPDEST PUSH4 0x4E487B71 PUSH1 0xE0 SHL PUSH1 0x0 MSTORE PUSH1 0x21 PUSH1 0x4 MSTORE PUSH1 0x24 PUSH1 0x0 REVERT JUMPDEST PUSH1 0x4 CALLDATALOAD SWAP1 PUSH1 0x1 PUSH1 0x1 PUSH1 0xA0 SHL SUB DUP3 AND DUP3 SUB PUSH2 0x16B4 JUMPI JUMP JUMPDEST PUSH1 0x0 DUP1 REVERT JUMPDEST PUSH1 0x24 CALLDATALOAD SWAP1 PUSH1 0x1 PUSH1 0x1 PUSH1 0xA0 SHL SUB DUP3 AND DUP3 SUB PUSH2 0x16B4 JUMPI JUMP JUMPDEST PUSH1 0x80 SWAP1 PUSH1 0x3 NOT ADD SLT PUSH2 0x16B4 JUMPI PUSH1 0x4 CALLDATALOAD SWAP1 PUSH1 0x24 CALLDATALOAD SWAP1 PUSH1 0x44 CALLDATALOAD SWAP1 PUSH1 0x64 CALLDATALOAD SWAP1 JUMP JUMPDEST DUP1 SLOAD DUP3 LT ISZERO PUSH2 0x1705 JUMPI PUSH1 0x0 MSTORE PUSH1 0x20 PUSH1 0x0 KECCAK256 ADD SWAP1 PUSH1 0x0 SWAP1 JUMP JUMPDEST PUSH4 0x4E487B71 PUSH1 0xE0 SHL PUSH1 0x0 MSTORE PUSH1 0x32 PUSH1 0x4 MSTORE PUSH1 0x24 PUSH1 0x0 REVERT JUMPDEST ISZERO PUSH2 0x1722 JUMPI JUMP JUMPDEST PUSH1 0x40 MLOAD PUSH3 0x461BCD PUSH1 0xE5 SHL DUP2 MSTORE PUSH1 0x20 PUSH1 0x4 DUP3 ADD MSTORE PUSH1 0xE PUSH1 0x24 DUP3 ADD MSTORE PUSH14 0x125B9D985B1A5908185B5BDD5B9D PUSH1 0x92 SHL PUSH1 0x44 DUP3 ADD MSTORE PUSH1 0x64 SWAP1 REVERT JUMPDEST PUSH1 0x0 NOT DUP2 EQ PUSH2 0x1767 JUMPI PUSH1 0x1 ADD SWAP1 JUMP JUMPDEST PUSH4 0x4E487B71 PUSH1 0xE0 SHL PUSH1 0x0 MSTORE PUSH1 0x11 PUSH1 0x4 MSTORE PUSH1 0x24 PUSH1 0x0 REVERT JUMPDEST DUP1 ISZERO PUSH2 0x1767 JUMPI PUSH1 0x0 NOT ADD SWAP1 JUMP JUMPDEST SWAP1 PUSH1 0x3 DUP2 LT ISZERO PUSH2 0x1688 JUMPI PUSH1 0xFF DUP1 NOT DUP4 SLOAD AND SWAP2 AND OR SWAP1 SSTORE JUMP JUMPDEST CALLER PUSH1 0x0 SWAP1 DUP2 MSTORE PUSH32 0xB75ECC04ED35F89790E98640E901BDA41ECEFF0CB896CF2765FB697680253750 PUSH1 0x20 MSTORE PUSH1 0x40 DUP2 KECCAK256 SLOAD PUSH1 0xFF AND ISZERO PUSH2 0x17DC JUMPI POP JUMP JUMPDEST PUSH1 0x44 SWAP1 PUSH1 0x40 MLOAD SWAP1 PUSH4 0xE2517D3F PUSH1 0xE0 SHL DUP3 MSTORE CALLER PUSH1 0x4 DUP4 ADD MSTORE PUSH1 0x24 DUP3 ADD MSTORE REVERT JUMPDEST CALLER PUSH1 0x0 SWAP1 DUP2 MSTORE PUSH32 0x5B8CCE36A46B87FF4C16B7F875D488CB28C70BA538FDDA7C84B3DB4FE0030ED3 PUSH1 0x20 MSTORE PUSH1 0x40 SWAP1 KECCAK256 SLOAD PUSH1 0x0 DUP1 MLOAD PUSH1 0x20 PUSH2 0x19A2 DUP4 CODECOPY DUP2 MLOAD SWAP2 MSTORE SWAP1 PUSH1 0xFF AND ISZERO PUSH2 0x17DC JUMPI POP JUMP JUMPDEST DUP1 PUSH1 0x0 MSTORE PUSH1 0x1A PUSH1 0x20 MSTORE PUSH1 0x40 PUSH1 0x0 KECCAK256 CALLER PUSH1 0x0 MSTORE PUSH1 0x20 MSTORE PUSH1 0xFF PUSH1 0x40 PUSH1 0x0 KECCAK256 SLOAD AND ISZERO PUSH2 0x17DC JUMPI POP JUMP JUMPDEST SWAP1 PUSH1 0x0 SWAP2 DUP1 DUP4 MSTORE PUSH1 0x1A PUSH1 0x20 MSTORE PUSH1 0x40 DUP4 KECCAK256 SWAP2 PUSH1 0x1 DUP1 PUSH1 0xA0 SHL SUB AND SWAP2 DUP3 DUP5 MSTORE PUSH1 0x20 MSTORE PUSH1 0xFF PUSH1 0x40 DUP5 KECCAK256 SLOAD AND ISZERO PUSH1 0x0 EQ PUSH2 0x18E5 JUMPI DUP1 DUP4 MSTORE PUSH1 0x1A PUSH1 0x20 MSTORE PUSH1 0x40 DUP4 KECCAK256 DUP3 DUP5 MSTORE PUSH1 0x20 MSTORE PUSH1 0x40 DUP4 KECCAK256 PUSH1 0x1 PUSH1 0xFF NOT DUP3 SLOAD AND OR SWAP1 SSTORE PUSH32 0x2F8788117E7EFF1D82E926EC794901D17C78024A50270940304540A733656F0D CALLER SWAP4 DUP1 LOG4 PUSH1 0x1 SWAP1 JUMP JUMPDEST POP POP SWAP1 JUMP JUMPDEST SWAP1 PUSH1 0x0 SWAP2 DUP1 DUP4 MSTORE PUSH1 0x1A PUSH1 0x20 MSTORE PUSH1 0x40 DUP4 KECCAK256 SWAP2 PUSH1 0x1 DUP1 PUSH1 0xA0 SHL SUB AND SWAP2 DUP3 DUP5 MSTORE PUSH1 0x20 MSTORE PUSH1 0xFF PUSH1 0x40 DUP5 KECCAK256 SLOAD AND PUSH1 0x0 EQ PUSH2 0x18E5 JUMPI DUP1 DUP4 MSTORE PUSH1 0x1A PUSH1 0x20 MSTORE PUSH1 0x40 DUP4 KECCAK256 DUP3 DUP5 MSTORE PUSH1 0x20 MSTORE PUSH1 0x40 DUP4 KECCAK256 PUSH1 0xFF NOT DUP2 SLOAD AND SWAP1 SSTORE PUSH32 0xF6391F5C32D9C69D2A47EA670B442974B53935D1EDC7FD64EB21E047A839171B CALLER SWAP4 DUP1 LOG4 PUSH1 0x1 SWAP1 JUMP INVALID 0xBF 0x23 RETURNDATASIZE 0xD2 0xAA INVALID 0xB4 0xD5 ADDMOD PUSH26 0xC4AA5C81E96D92F6E6945C906A58F9F2D1C1631B4B26962BA59D 0xF8 CODESIZE CREATE2 LT PUSH31 0x7F98204A6013F9ED4A5175261F178929BF5AA152761BEE71F3D55856E4058E 0xD0 PUSH15 0xE057D79ADA615F65CDF5F9EE88181B SWAP2 TIMESTAMP 0x25 ADDMOD DUP16 DUP4 0x4F RETURNDATASIZE 0xAC 0xD7 0xD7 MULMOD 0xCE 0xA5 MSIZE 0xC8 0xB4 PREVRANDAO 0xC3 PUSH29 0x27240031885B9F2FECF3772C91C939FC230D81A2646970667358221220 0xFB 0xA7 0x5E 0xAD 0x2E 0xB1 PUSH26 0x7B5E7D1D8F268E525FC1F23A87A14485E17A1CC065C7FB2164 PUSH20 0x6F6C634300081600330000000000000000000000 "},"methodIdentifiers":{"BASIS_POINTS()":"e1f1c4a7","BLOCKS_PER_DAY()":"6bb987fe","CONTENT_MANAGER_ROLE()":"89de5400","DEFAULT_ADMIN_ROLE()":"a217fddf","EMERGENCY_ROLE()":"20df4359","MAX_BATCH_SIZE()":"cfdbf254","MAX_TITLE_LENGTH()":"2ef9a160","MIN_TITLE_LENGTH()":"f7f29f0c","MODERATOR_ROLE()":"797669c9","activateEmergencyStop()":"985957ab","batchModerateContent(uint256[],uint8)":"66a8df0e","blacklistUser(address,bytes32)":"8596d748","blacklistedUsers(address)":"22c0aec7","contentCollaborators(uint256,uint256)":"abc1b50e","contentItems(uint256)":"0e73afdf","creationCooldownBlocks()":"c520571c","creatorContent(address,uint256)":"6a480eb8","creators(address)":"933166e1","dailyUploadLimit()":"18d1c9ee","dailyUploads(address,uint256)":"8f94bc68","defaultRoyaltyPercent()":"4e42f6ae","emergencyStop()":"63a599a4","fundPlatform()":"5dc10431","getRoleAdmin(bytes32)":"248a9ca3","getSecurityStatus()":"73efc9f2","grantRole(bytes32,address)":"2f2ff15d","hasRole(bytes32,address)":"91d14854","maxCollaborators()":"2c557258","maxContentPrice()":"452517c7","maxDescriptionLength()":"3b13d732","maxRoyaltyPercent()":"59941d42","minContentPrice()":"0eea65f8","minDescriptionLength()":"3f8bf086","moderateContent(uint256,uint8)":"dcacf7b5","nextContentId()":"0a248d7f","platformFeePercent()":"8c639a85","purchases(uint256)":"8392fe31","renounceRole(bytes32,address)":"36568abe","resetEmergencyState()":"7556f41b","revokeRole(bytes32,address)":"d547741f","supportsInterface(bytes4)":"01ffc9a7","totalActiveContent()":"a61a9d03","totalRevenue()":"bf2d9e0b","totalSales()":"6605ff66","updatePlatformParameters(uint256,uint256,uint256,uint256)":"2fb6e41d","updateSecurityParameters(uint256,uint256,uint256,uint256)":"5b8815a4","userPurchaseHistory(address,uint256)":"eed3e097","userPurchases(address,uint256)":"cf2c0334","whitelistUser(address)":"4a4c560d","withdraw(uint256)":"2e1a7d4d"}}}}}