{
  "_format": "hh-sol-artifact-1",
  "contractName": "EducationalContentMarketplace",
  "sourceName": "contracts/EducationalContentMarketplace.sol",
  "abi": [
    {
      "inputs": [
        {
          "internalType": "address",
          "name": "initialOwner",
          "type": "address"
        }
      ],
      "stateMutability": "nonpayable",
      "type": "constructor"
    },
    {
      "inputs": [],
      "name": "AccessControlBadConfirmation",
      "type": "error"
    },
    {
      "inputs": [
        {
          "internalType": "address",
          "name": "account",
          "type": "address"
        },
        {
          "internalType": "bytes32",
          "name": "neededRole",
          "type": "bytes32"
        }
      ],
      "name": "AccessControlUnauthorizedAccount",
      "type": "error"
    },
    {
      "inputs": [
        {
          "internalType": "uint256",
          "name": "contentId",
          "type": "uint256"
        }
      ],
      "name": "ContentAlreadyPurchased",
      "type": "error"
    },
    {
      "inputs": [
        {
          "internalType": "uint256",
          "name": "contentId",
          "type": "uint256"
        }
      ],
      "name": "ContentNotActive",
      "type": "error"
    },
    {
      "inputs": [
        {
          "internalType": "uint256",
          "name": "contentId",
          "type": "uint256"
        }
      ],
      "name": "ContentNotFound",
      "type": "error"
    },
    {
      "inputs": [
        {
          "internalType": "uint256",
          "name": "remainingBlocks",
          "type": "uint256"
        }
      ],
      "name": "CreationCooldownActive",
      "type": "error"
    },
    {
      "inputs": [
        {
          "internalType": "uint256",
          "name": "current",
          "type": "uint256"
        },
        {
          "internalType": "uint256",
          "name": "limit",
          "type": "uint256"
        }
      ],
      "name": "DailyLimitExceeded",
      "type": "error"
    },
    {
      "inputs": [],
      "name": "EmergencyStopActive",
      "type": "error"
    },
    {
      "inputs": [],
      "name": "EnforcedPause",
      "type": "error"
    },
    {
      "inputs": [],
      "name": "ExpectedPause",
      "type": "error"
    },
    {
      "inputs": [],
      "name": "FailedCall",
      "type": "error"
    },
    {
      "inputs": [
        {
          "internalType": "uint256",
          "name": "balance",
          "type": "uint256"
        },
        {
          "internalType": "uint256",
          "name": "needed",
          "type": "uint256"
        }
      ],
      "name": "InsufficientBalance",
      "type": "error"
    },
    {
      "inputs": [
        {
          "internalType": "uint256",
          "name": "required",
          "type": "uint256"
        },
        {
          "internalType": "uint256",
          "name": "provided",
          "type": "uint256"
        }
      ],
      "name": "InsufficientPayment",
      "type": "error"
    },
    {
      "inputs": [],
      "name": "InvalidCollaboratorShare",
      "type": "error"
    },
    {
      "inputs": [],
      "name": "InvalidContentData",
      "type": "error"
    },
    {
      "inputs": [
        {
          "internalType": "uint256",
          "name": "price",
          "type": "uint256"
        }
      ],
      "name": "InvalidPrice",
      "type": "error"
    },
    {
      "inputs": [
        {
          "internalType": "uint256",
          "name": "percent",
          "type": "uint256"
        }
      ],
      "name": "InvalidRoyaltyPercent",
      "type": "error"
    },
    {
      "inputs": [
        {
          "internalType": "address",
          "name": "owner",
          "type": "address"
        }
      ],
      "name": "OwnableInvalidOwner",
      "type": "error"
    },
    {
      "inputs": [
        {
          "internalType": "address",
          "name": "account",
          "type": "address"
        }
      ],
      "name": "OwnableUnauthorizedAccount",
      "type": "error"
    },
    {
      "inputs": [],
      "name": "ReentrancyGuardReentrantCall",
      "type": "error"
    },
    {
      "inputs": [],
      "name": "TooManyCollaborators",
      "type": "error"
    },
    {
      "inputs": [],
      "name": "UnauthorizedAccess",
      "type": "error"
    },
    {
      "inputs": [],
      "name": "UserIsBlacklisted",
      "type": "error"
    },
    {
      "anonymous": false,
      "inputs": [
        {
          "indexed": true,
          "internalType": "uint256",
          "name": "contentId",
          "type": "uint256"
        },
        {
          "indexed": true,
          "internalType": "address",
          "name": "collaborator",
          "type": "address"
        },
        {
          "indexed": false,
          "internalType": "uint256",
          "name": "sharePercent",
          "type": "uint256"
        },
        {
          "indexed": false,
          "internalType": "bytes32",
          "name": "roleHash",
          "type": "bytes32"
        }
      ],
      "name": "CollaboratorAdded",
      "type": "event"
    },
    {
      "anonymous": false,
      "inputs": [
        {
          "indexed": true,
          "internalType": "uint256",
          "name": "contentId",
          "type": "uint256"
        },
        {
          "indexed": true,
          "internalType": "address",
          "name": "creator",
          "type": "address"
        },
        {
          "indexed": true,
          "internalType": "bytes32",
          "name": "titleHash",
          "type": "bytes32"
        },
        {
          "indexed": false,
          "internalType": "uint256",
          "name": "price",
          "type": "uint256"
        },
        {
          "indexed": false,
          "internalType": "enum IEducationalMarketplace.ContentCategory",
          "name": "category",
          "type": "uint8"
        },
        {
          "indexed": false,
          "internalType": "uint256",
          "name": "blockNumber",
          "type": "uint256"
        }
      ],
      "name": "ContentCreated",
      "type": "event"
    },
    {
      "anonymous": false,
      "inputs": [
        {
          "indexed": true,
          "internalType": "uint256",
          "name": "contentId",
          "type": "uint256"
        },
        {
          "indexed": false,
          "internalType": "uint256",
          "name": "oldPrice",
          "type": "uint256"
        },
        {
          "indexed": false,
          "internalType": "uint256",
          "name": "newPrice",
          "type": "uint256"
        },
        {
          "indexed": true,
          "internalType": "address",
          "name": "creator",
          "type": "address"
        }
      ],
      "name": "ContentPriceUpdated",
      "type": "event"
    },
    {
      "anonymous": false,
      "inputs": [
        {
          "indexed": true,
          "internalType": "address",
          "name": "buyer",
          "type": "address"
        },
        {
          "indexed": true,
          "internalType": "uint256",
          "name": "contentId",
          "type": "uint256"
        },
        {
          "indexed": true,
          "internalType": "address",
          "name": "seller",
          "type": "address"
        },
        {
          "indexed": false,
          "internalType": "uint256",
          "name": "price",
          "type": "uint256"
        },
        {
          "indexed": false,
          "internalType": "uint256",
          "name": "royaltyPaid",
          "type": "uint256"
        },
        {
          "indexed": false,
          "internalType": "bytes32",
          "name": "purchaseHash",
          "type": "bytes32"
        }
      ],
      "name": "ContentPurchased",
      "type": "event"
    },
    {
      "anonymous": false,
      "inputs": [
        {
          "indexed": true,
          "internalType": "uint256",
          "name": "contentId",
          "type": "uint256"
        },
        {
          "indexed": false,
          "internalType": "enum IEducationalMarketplace.ContentStatus",
          "name": "oldStatus",
          "type": "uint8"
        },
        {
          "indexed": false,
          "internalType": "enum IEducationalMarketplace.ContentStatus",
          "name": "newStatus",
          "type": "uint8"
        },
        {
          "indexed": true,
          "internalType": "address",
          "name": "moderator",
          "type": "address"
        }
      ],
      "name": "ContentStatusChanged",
      "type": "event"
    },
    {
      "anonymous": false,
      "inputs": [
        {
          "indexed": true,
          "internalType": "address",
          "name": "admin",
          "type": "address"
        },
        {
          "indexed": false,
          "internalType": "bytes32",
          "name": "actionHash",
          "type": "bytes32"
        },
        {
          "indexed": true,
          "internalType": "address",
          "name": "target",
          "type": "address"
        },
        {
          "indexed": false,
          "internalType": "uint256",
          "name": "blockNumber",
          "type": "uint256"
        }
      ],
      "name": "EmergencyAction",
      "type": "event"
    },
    {
      "anonymous": false,
      "inputs": [
        {
          "indexed": true,
          "internalType": "address",
          "name": "previousOwner",
          "type": "address"
        },
        {
          "indexed": true,
          "internalType": "address",
          "name": "newOwner",
          "type": "address"
        }
      ],
      "name": "OwnershipTransferred",
      "type": "event"
    },
    {
      "anonymous": false,
      "inputs": [
        {
          "indexed": false,
          "internalType": "address",
          "name": "account",
          "type": "address"
        }
      ],
      "name": "Paused",
      "type": "event"
    },
    {
      "anonymous": false,
      "inputs": [
        {
          "indexed": true,
          "internalType": "address",
          "name": "funder",
          "type": "address"
        },
        {
          "indexed": false,
          "internalType": "uint256",
          "name": "amount",
          "type": "uint256"
        }
      ],
      "name": "PlatformFunded",
      "type": "event"
    },
    {
      "anonymous": false,
      "inputs": [
        {
          "indexed": true,
          "internalType": "bytes32",
          "name": "role",
          "type": "bytes32"
        },
        {
          "indexed": true,
          "internalType": "bytes32",
          "name": "previousAdminRole",
          "type": "bytes32"
        },
        {
          "indexed": true,
          "internalType": "bytes32",
          "name": "newAdminRole",
          "type": "bytes32"
        }
      ],
      "name": "RoleAdminChanged",
      "type": "event"
    },
    {
      "anonymous": false,
      "inputs": [
        {
          "indexed": true,
          "internalType": "bytes32",
          "name": "role",
          "type": "bytes32"
        },
        {
          "indexed": true,
          "internalType": "address",
          "name": "account",
          "type": "address"
        },
        {
          "indexed": true,
          "internalType": "address",
          "name": "sender",
          "type": "address"
        }
      ],
      "name": "RoleGranted",
      "type": "event"
    },
    {
      "anonymous": false,
      "inputs": [
        {
          "indexed": true,
          "internalType": "bytes32",
          "name": "role",
          "type": "bytes32"
        },
        {
          "indexed": true,
          "internalType": "address",
          "name": "account",
          "type": "address"
        },
        {
          "indexed": true,
          "internalType": "address",
          "name": "sender",
          "type": "address"
        }
      ],
      "name": "RoleRevoked",
      "type": "event"
    },
    {
      "anonymous": false,
      "inputs": [
        {
          "indexed": true,
          "internalType": "uint256",
          "name": "contentId",
          "type": "uint256"
        },
        {
          "indexed": true,
          "internalType": "address",
          "name": "recipient",
          "type": "address"
        },
        {
          "indexed": false,
          "internalType": "uint256",
          "name": "amount",
          "type": "uint256"
        },
        {
          "indexed": false,
          "internalType": "bytes32",
          "name": "roleHash",
          "type": "bytes32"
        }
      ],
      "name": "RoyaltyDistributed",
      "type": "event"
    },
    {
      "anonymous": false,
      "inputs": [
        {
          "indexed": false,
          "internalType": "address",
          "name": "account",
          "type": "address"
        }
      ],
      "name": "Unpaused",
      "type": "event"
    },
    {
      "anonymous": false,
      "inputs": [
        {
          "indexed": true,
          "internalType": "address",
          "name": "user",
          "type": "address"
        },
        {
          "indexed": false,
          "internalType": "bytes32",
          "name": "reasonHash",
          "type": "bytes32"
        }
      ],
      "name": "UserBlacklisted",
      "type": "event"
    },
    {
      "anonymous": false,
      "inputs": [
        {
          "indexed": true,
          "internalType": "address",
          "name": "user",
          "type": "address"
        }
      ],
      "name": "UserWhitelisted",
      "type": "event"
    },
    {
      "stateMutability": "nonpayable",
      "type": "fallback"
    },
    {
      "inputs": [],
      "name": "BASIS_POINTS",
      "outputs": [
        {
          "internalType": "uint256",
          "name": "",
          "type": "uint256"
        }
      ],
      "stateMutability": "view",
      "type": "function"
    },
    {
      "inputs": [],
      "name": "BLOCKS_PER_DAY",
      "outputs": [
        {
          "internalType": "uint256",
          "name": "",
          "type": "uint256"
        }
      ],
      "stateMutability": "view",
      "type": "function"
    },
    {
      "inputs": [],
      "name": "CONTENT_MANAGER_ROLE",
      "outputs": [
        {
          "internalType": "bytes32",
          "name": "",
          "type": "bytes32"
        }
      ],
      "stateMutability": "view",
      "type": "function"
    },
    {
      "inputs": [],
      "name": "DEFAULT_ADMIN_ROLE",
      "outputs": [
        {
          "internalType": "bytes32",
          "name": "",
          "type": "bytes32"
        }
      ],
      "stateMutability": "view",
      "type": "function"
    },
    {
      "inputs": [],
      "name": "EMERGENCY_ROLE",
      "outputs": [
        {
          "internalType": "bytes32",
          "name": "",
          "type": "bytes32"
        }
      ],
      "stateMutability": "view",
      "type": "function"
    },
    {
      "inputs": [],
      "name": "MAX_BATCH_SIZE",
      "outputs": [
        {
          "internalType": "uint256",
          "name": "",
          "type": "uint256"
        }
      ],
      "stateMutability": "view",
      "type": "function"
    },
    {
      "inputs": [],
      "name": "MAX_TITLE_LENGTH",
      "outputs": [
        {
          "internalType": "uint256",
          "name": "",
          "type": "uint256"
        }
      ],
      "stateMutability": "view",
      "type": "function"
    },
    {
      "inputs": [],
      "name": "MIN_TITLE_LENGTH",
      "outputs": [
        {
          "internalType": "uint256",
          "name": "",
          "type": "uint256"
        }
      ],
      "stateMutability": "view",
      "type": "function"
    },
    {
      "inputs": [],
      "name": "MODERATOR_ROLE",
      "outputs": [
        {
          "internalType": "bytes32",
          "name": "",
          "type": "bytes32"
        }
      ],
      "stateMutability": "view",
      "type": "function"
    },
    {
      "inputs": [],
      "name": "activateEmergencyStop",
      "outputs": [],
      "stateMutability": "nonpayable",
      "type": "function"
    },
    {
      "inputs": [
        {
          "internalType": "uint256",
          "name": "_contentId",
          "type": "uint256"
        },
        {
          "internalType": "address[]",
          "name": "_collaborators",
          "type": "address[]"
        },
        {
          "internalType": "uint256[]",
          "name": "_sharePercents",
          "type": "uint256[]"
        },
        {
          "internalType": "bytes32[]",
          "name": "_roleHashes",
          "type": "bytes32[]"
        }
      ],
      "name": "addCollaborators",
      "outputs": [],
      "stateMutability": "nonpayable",
      "type": "function"
    },
    {
      "inputs": [
        {
          "internalType": "uint256[]",
          "name": "_contentIds",
          "type": "uint256[]"
        },
        {
          "internalType": "enum IEducationalMarketplace.ContentStatus",
          "name": "_newStatus",
          "type": "uint8"
        }
      ],
      "name": "batchModerateContent",
      "outputs": [],
      "stateMutability": "nonpayable",
      "type": "function"
    },
    {
      "inputs": [
        {
          "internalType": "address",
          "name": "_user",
          "type": "address"
        },
        {
          "internalType": "bytes32",
          "name": "_reasonHash",
          "type": "bytes32"
        }
      ],
      "name": "blacklistUser",
      "outputs": [],
      "stateMutability": "nonpayable",
      "type": "function"
    },
    {
      "inputs": [
        {
          "internalType": "address",
          "name": "",
          "type": "address"
        }
      ],
      "name": "blacklistedUsers",
      "outputs": [
        {
          "internalType": "bool",
          "name": "",
          "type": "bool"
        }
      ],
      "stateMutability": "view",
      "type": "function"
    },
    {
      "inputs": [
        {
          "internalType": "uint256",
          "name": "_contentId",
          "type": "uint256"
        }
      ],
      "name": "calculatePurchasePreview",
      "outputs": [
        {
          "internalType": "uint256",
          "name": "contentPrice",
          "type": "uint256"
        },
        {
          "internalType": "uint256",
          "name": "platformFee",
          "type": "uint256"
        },
        {
          "internalType": "uint256",
          "name": "royaltyAmount",
          "type": "uint256"
        },
        {
          "internalType": "uint256",
          "name": "sellerAmount",
          "type": "uint256"
        },
        {
          "internalType": "uint256",
          "name": "totalRequired",
          "type": "uint256"
        }
      ],
      "stateMutability": "view",
      "type": "function"
    },
    {
      "inputs": [
        {
          "internalType": "address",
          "name": "_user",
          "type": "address"
        }
      ],
      "name": "canUserCreateContent",
      "outputs": [
        {
          "internalType": "bool",
          "name": "canCreate",
          "type": "bool"
        },
        {
          "internalType": "bytes32",
          "name": "statusHash",
          "type": "bytes32"
        }
      ],
      "stateMutability": "view",
      "type": "function"
    },
    {
      "inputs": [
        {
          "internalType": "uint256",
          "name": "",
          "type": "uint256"
        },
        {
          "internalType": "uint256",
          "name": "",
          "type": "uint256"
        }
      ],
      "name": "contentCollaborators",
      "outputs": [
        {
          "internalType": "address",
          "name": "collaboratorAddress",
          "type": "address"
        },
        {
          "internalType": "uint256",
          "name": "sharePercent",
          "type": "uint256"
        },
        {
          "internalType": "bytes32",
          "name": "roleHash",
          "type": "bytes32"
        }
      ],
      "stateMutability": "view",
      "type": "function"
    },
    {
      "inputs": [
        {
          "internalType": "uint256",
          "name": "",
          "type": "uint256"
        }
      ],
      "name": "contentItems",
      "outputs": [
        {
          "internalType": "uint256",
          "name": "contentId",
          "type": "uint256"
        },
        {
          "internalType": "string",
          "name": "title",
          "type": "string"
        },
        {
          "internalType": "string",
          "name": "description",
          "type": "string"
        },
        {
          "internalType": "enum IEducationalMarketplace.ContentCategory",
          "name": "category",
          "type": "uint8"
        },
        {
          "internalType": "bytes32",
          "name": "contentHash",
          "type": "bytes32"
        },
        {
          "internalType": "uint256",
          "name": "price",
          "type": "uint256"
        },
        {
          "internalType": "uint256",
          "name": "royaltyPercent",
          "type": "uint256"
        },
        {
          "internalType": "enum IEducationalMarketplace.ContentStatus",
          "name": "status",
          "type": "uint8"
        },
        {
          "internalType": "address payable",
          "name": "creator",
          "type": "address"
        },
        {
          "internalType": "address payable",
          "name": "currentOwner",
          "type": "address"
        },
        {
          "internalType": "uint256",
          "name": "createdAtBlock",
          "type": "uint256"
        },
        {
          "internalType": "uint32",
          "name": "totalSales",
          "type": "uint32"
        },
        {
          "internalType": "uint32",
          "name": "totalViews",
          "type": "uint32"
        },
        {
          "internalType": "uint256",
          "name": "totalEarnings",
          "type": "uint256"
        }
      ],
      "stateMutability": "view",
      "type": "function"
    },
    {
      "inputs": [
        {
          "internalType": "string",
          "name": "_title",
          "type": "string"
        },
        {
          "internalType": "string",
          "name": "_description",
          "type": "string"
        },
        {
          "internalType": "enum IEducationalMarketplace.ContentCategory",
          "name": "_category",
          "type": "uint8"
        },
        {
          "internalType": "bytes32",
          "name": "_contentHash",
          "type": "bytes32"
        },
        {
          "internalType": "uint256",
          "name": "_price",
          "type": "uint256"
        },
        {
          "internalType": "uint256",
          "name": "_customRoyaltyPercent",
          "type": "uint256"
        }
      ],
      "name": "createContent",
      "outputs": [
        {
          "internalType": "uint256",
          "name": "",
          "type": "uint256"
        }
      ],
      "stateMutability": "nonpayable",
      "type": "function"
    },
    {
      "inputs": [],
      "name": "creationCooldownBlocks",
      "outputs": [
        {
          "internalType": "uint256",
          "name": "",
          "type": "uint256"
        }
      ],
      "stateMutability": "view",
      "type": "function"
    },
    {
      "inputs": [
        {
          "internalType": "address",
          "name": "",
          "type": "address"
        },
        {
          "internalType": "uint256",
          "name": "",
          "type": "uint256"
        }
      ],
      "name": "creatorContent",
      "outputs": [
        {
          "internalType": "uint256",
          "name": "",
          "type": "uint256"
        }
      ],
      "stateMutability": "view",
      "type": "function"
    },
    {
      "inputs": [
        {
          "internalType": "address",
          "name": "",
          "type": "address"
        }
      ],
      "name": "creators",
      "outputs": [
        {
          "internalType": "uint256",
          "name": "totalContent",
          "type": "uint256"
        },
        {
          "internalType": "uint256",
          "name": "totalSales",
          "type": "uint256"
        },
        {
          "internalType": "uint256",
          "name": "totalEarnings",
          "type": "uint256"
        },
        {
          "internalType": "uint256",
          "name": "averageRating",
          "type": "uint256"
        },
        {
          "internalType": "uint256",
          "name": "lastContentBlock",
          "type": "uint256"
        }
      ],
      "stateMutability": "view",
      "type": "function"
    },
    {
      "inputs": [],
      "name": "dailyUploadLimit",
      "outputs": [
        {
          "internalType": "uint256",
          "name": "",
          "type": "uint256"
        }
      ],
      "stateMutability": "view",
      "type": "function"
    },
    {
      "inputs": [
        {
          "internalType": "address",
          "name": "",
          "type": "address"
        },
        {
          "internalType": "uint256",
          "name": "",
          "type": "uint256"
        }
      ],
      "name": "dailyUploads",
      "outputs": [
        {
          "internalType": "uint256",
          "name": "",
          "type": "uint256"
        }
      ],
      "stateMutability": "view",
      "type": "function"
    },
    {
      "inputs": [],
      "name": "defaultRoyaltyPercent",
      "outputs": [
        {
          "internalType": "uint256",
          "name": "",
          "type": "uint256"
        }
      ],
      "stateMutability": "view",
      "type": "function"
    },
    {
      "inputs": [],
      "name": "emergencyStop",
      "outputs": [
        {
          "internalType": "bool",
          "name": "",
          "type": "bool"
        }
      ],
      "stateMutability": "view",
      "type": "function"
    },
    {
      "inputs": [],
      "name": "fundPlatform",
      "outputs": [],
      "stateMutability": "payable",
      "type": "function"
    },
    {
      "inputs": [
        {
          "internalType": "address",
          "name": "_creator",
          "type": "address"
        },
        {
          "internalType": "string",
          "name": "_title",
          "type": "string"
        },
        {
          "internalType": "string",
          "name": "_description",
          "type": "string"
        },
        {
          "internalType": "uint256",
          "name": "_timestamp",
          "type": "uint256"
        }
      ],
      "name": "generateContentHash",
      "outputs": [
        {
          "internalType": "bytes32",
          "name": "",
          "type": "bytes32"
        }
      ],
      "stateMutability": "pure",
      "type": "function"
    },
    {
      "inputs": [
        {
          "internalType": "uint256",
          "name": "_offset",
          "type": "uint256"
        },
        {
          "internalType": "uint256",
          "name": "_limit",
          "type": "uint256"
        }
      ],
      "name": "getActiveContentIds",
      "outputs": [
        {
          "internalType": "uint256[]",
          "name": "contentIds",
          "type": "uint256[]"
        },
        {
          "internalType": "uint256",
          "name": "totalActive",
          "type": "uint256"
        }
      ],
      "stateMutability": "view",
      "type": "function"
    },
    {
      "inputs": [
        {
          "internalType": "uint256[]",
          "name": "_contentIds",
          "type": "uint256[]"
        }
      ],
      "name": "getContentBatch",
      "outputs": [
        {
          "internalType": "bytes32[]",
          "name": "titleHashes",
          "type": "bytes32[]"
        },
        {
          "internalType": "uint256[]",
          "name": "prices",
          "type": "uint256[]"
        },
        {
          "internalType": "enum IEducationalMarketplace.ContentCategory[]",
          "name": "categories",
          "type": "uint8[]"
        },
        {
          "internalType": "enum IEducationalMarketplace.ContentStatus[]",
          "name": "statuses",
          "type": "uint8[]"
        }
      ],
      "stateMutability": "view",
      "type": "function"
    },
    {
      "inputs": [
        {
          "internalType": "enum IEducationalMarketplace.ContentCategory",
          "name": "_category",
          "type": "uint8"
        },
        {
          "internalType": "uint256",
          "name": "_offset",
          "type": "uint256"
        },
        {
          "internalType": "uint256",
          "name": "_limit",
          "type": "uint256"
        }
      ],
      "name": "getContentByCategory",
      "outputs": [
        {
          "internalType": "uint256[]",
          "name": "contentIds",
          "type": "uint256[]"
        },
        {
          "internalType": "uint256",
          "name": "totalMatching",
          "type": "uint256"
        }
      ],
      "stateMutability": "view",
      "type": "function"
    },
    {
      "inputs": [
        {
          "internalType": "uint256",
          "name": "_minPrice",
          "type": "uint256"
        },
        {
          "internalType": "uint256",
          "name": "_maxPrice",
          "type": "uint256"
        },
        {
          "internalType": "uint256",
          "name": "_offset",
          "type": "uint256"
        },
        {
          "internalType": "uint256",
          "name": "_limit",
          "type": "uint256"
        }
      ],
      "name": "getContentByPriceRange",
      "outputs": [
        {
          "internalType": "uint256[]",
          "name": "contentIds",
          "type": "uint256[]"
        },
        {
          "internalType": "uint256",
          "name": "totalMatching",
          "type": "uint256"
        }
      ],
      "stateMutability": "view",
      "type": "function"
    },
    {
      "inputs": [
        {
          "internalType": "uint256",
          "name": "_contentId",
          "type": "uint256"
        }
      ],
      "name": "getContentCollaborators",
      "outputs": [
        {
          "internalType": "address[]",
          "name": "collaboratorAddresses",
          "type": "address[]"
        },
        {
          "internalType": "uint256[]",
          "name": "sharePercents",
          "type": "uint256[]"
        },
        {
          "internalType": "bytes32[]",
          "name": "roleHashes",
          "type": "bytes32[]"
        }
      ],
      "stateMutability": "view",
      "type": "function"
    },
    {
      "inputs": [
        {
          "internalType": "uint256",
          "name": "_contentId",
          "type": "uint256"
        }
      ],
      "name": "getContentDetails",
      "outputs": [
        {
          "internalType": "string",
          "name": "title",
          "type": "string"
        },
        {
          "internalType": "string",
          "name": "description",
          "type": "string"
        },
        {
          "internalType": "enum IEducationalMarketplace.ContentCategory",
          "name": "category",
          "type": "uint8"
        },
        {
          "internalType": "bytes32",
          "name": "contentHash",
          "type": "bytes32"
        },
        {
          "internalType": "uint256",
          "name": "price",
          "type": "uint256"
        },
        {
          "internalType": "uint256",
          "name": "royaltyPercent",
          "type": "uint256"
        },
        {
          "internalType": "enum IEducationalMarketplace.ContentStatus",
          "name": "status",
          "type": "uint8"
        },
        {
          "internalType": "address",
          "name": "creator",
          "type": "address"
        },
        {
          "internalType": "address",
          "name": "currentOwner",
          "type": "address"
        },
        {
          "internalType": "uint32",
          "name": "totalSales",
          "type": "uint32"
        },
        {
          "internalType": "uint256",
          "name": "createdAt",
          "type": "uint256"
        }
      ],
      "stateMutability": "view",
      "type": "function"
    },
    {
      "inputs": [
        {
          "internalType": "uint256",
          "name": "_contentId",
          "type": "uint256"
        }
      ],
      "name": "getContentHash",
      "outputs": [
        {
          "internalType": "bytes32",
          "name": "",
          "type": "bytes32"
        }
      ],
      "stateMutability": "view",
      "type": "function"
    },
    {
      "inputs": [
        {
          "internalType": "uint256",
          "name": "_contentId",
          "type": "uint256"
        }
      ],
      "name": "getContentStats",
      "outputs": [
        {
          "internalType": "uint32",
          "name": "totalSales",
          "type": "uint32"
        },
        {
          "internalType": "uint32",
          "name": "totalViews",
          "type": "uint32"
        },
        {
          "internalType": "uint256",
          "name": "totalEarnings",
          "type": "uint256"
        },
        {
          "internalType": "uint256",
          "name": "createdAt",
          "type": "uint256"
        },
        {
          "internalType": "enum IEducationalMarketplace.ContentStatus",
          "name": "status",
          "type": "uint8"
        },
        {
          "internalType": "address",
          "name": "creator",
          "type": "address"
        }
      ],
      "stateMutability": "view",
      "type": "function"
    },
    {
      "inputs": [
        {
          "internalType": "address",
          "name": "_creator",
          "type": "address"
        }
      ],
      "name": "getCreatorContent",
      "outputs": [
        {
          "internalType": "uint256[]",
          "name": "",
          "type": "uint256[]"
        }
      ],
      "stateMutability": "view",
      "type": "function"
    },
    {
      "inputs": [
        {
          "internalType": "address",
          "name": "_creator",
          "type": "address"
        }
      ],
      "name": "getCreatorMetrics",
      "outputs": [
        {
          "internalType": "uint256",
          "name": "totalContentCreated",
          "type": "uint256"
        },
        {
          "internalType": "uint256",
          "name": "totalSalesCount",
          "type": "uint256"
        },
        {
          "internalType": "uint256",
          "name": "totalEarningsAmount",
          "type": "uint256"
        },
        {
          "internalType": "uint256",
          "name": "averageContentPrice",
          "type": "uint256"
        },
        {
          "internalType": "uint256",
          "name": "todayUploads",
          "type": "uint256"
        }
      ],
      "stateMutability": "view",
      "type": "function"
    },
    {
      "inputs": [
        {
          "internalType": "address",
          "name": "_creator",
          "type": "address"
        }
      ],
      "name": "getCreatorStats",
      "outputs": [
        {
          "internalType": "uint256",
          "name": "totalContent",
          "type": "uint256"
        },
        {
          "internalType": "uint256",
          "name": "totalSales",
          "type": "uint256"
        },
        {
          "internalType": "uint256",
          "name": "totalEarnings",
          "type": "uint256"
        },
        {
          "internalType": "uint256",
          "name": "averageRating",
          "type": "uint256"
        },
        {
          "internalType": "uint256",
          "name": "lastContentBlock",
          "type": "uint256"
        }
      ],
      "stateMutability": "view",
      "type": "function"
    },
    {
      "inputs": [
        {
          "internalType": "address",
          "name": "_user",
          "type": "address"
        }
      ],
      "name": "getDailyUploadStatus",
      "outputs": [
        {
          "internalType": "uint256",
          "name": "todayUploads",
          "type": "uint256"
        },
        {
          "internalType": "uint256",
          "name": "remainingUploads",
          "type": "uint256"
        }
      ],
      "stateMutability": "view",
      "type": "function"
    },
    {
      "inputs": [],
      "name": "getMarketplaceStats",
      "outputs": [
        {
          "internalType": "uint256",
          "name": "totalContent",
          "type": "uint256"
        },
        {
          "internalType": "uint256",
          "name": "activeContent",
          "type": "uint256"
        },
        {
          "internalType": "uint256",
          "name": "totalSalesCount",
          "type": "uint256"
        },
        {
          "internalType": "uint256",
          "name": "totalRevenueAmount",
          "type": "uint256"
        },
        {
          "internalType": "uint256",
          "name": "currentBlock",
          "type": "uint256"
        }
      ],
      "stateMutability": "view",
      "type": "function"
    },
    {
      "inputs": [
        {
          "internalType": "bytes32",
          "name": "_purchaseHash",
          "type": "bytes32"
        }
      ],
      "name": "getPurchaseByHash",
      "outputs": [
        {
          "internalType": "address",
          "name": "buyer",
          "type": "address"
        },
        {
          "internalType": "uint256",
          "name": "contentId",
          "type": "uint256"
        },
        {
          "internalType": "uint256",
          "name": "blockNumber",
          "type": "uint256"
        },
        {
          "internalType": "uint256",
          "name": "pricePaid",
          "type": "uint256"
        },
        {
          "internalType": "bool",
          "name": "found",
          "type": "bool"
        }
      ],
      "stateMutability": "view",
      "type": "function"
    },
    {
      "inputs": [
        {
          "internalType": "uint256",
          "name": "_offset",
          "type": "uint256"
        },
        {
          "internalType": "uint256",
          "name": "_limit",
          "type": "uint256"
        }
      ],
      "name": "getRecentPurchases",
      "outputs": [
        {
          "components": [
            {
              "internalType": "address",
              "name": "buyer",
              "type": "address"
            },
            {
              "internalType": "uint256",
              "name": "contentId",
              "type": "uint256"
            },
            {
              "internalType": "uint256",
              "name": "blockNumber",
              "type": "uint256"
            },
            {
              "internalType": "uint256",
              "name": "pricePaid",
              "type": "uint256"
            },
            {
              "internalType": "uint256",
              "name": "royaltyPaid",
              "type": "uint256"
            },
            {
              "internalType": "uint256",
              "name": "platformFeePaid",
              "type": "uint256"
            },
            {
              "internalType": "bytes32",
              "name": "purchaseHash",
              "type": "bytes32"
            }
          ],
          "internalType": "struct IEducationalMarketplace.Purchase[]",
          "name": "recentPurchases",
          "type": "tuple[]"
        }
      ],
      "stateMutability": "view",
      "type": "function"
    },
    {
      "inputs": [
        {
          "internalType": "bytes32",
          "name": "role",
          "type": "bytes32"
        }
      ],
      "name": "getRoleAdmin",
      "outputs": [
        {
          "internalType": "bytes32",
          "name": "",
          "type": "bytes32"
        }
      ],
      "stateMutability": "view",
      "type": "function"
    },
    {
      "inputs": [],
      "name": "getSecurityStatus",
      "outputs": [
        {
          "internalType": "bool",
          "name": "emergencyActive",
          "type": "bool"
        },
        {
          "internalType": "uint256",
          "name": "platformBalance",
          "type": "uint256"
        },
        {
          "internalType": "uint256",
          "name": "totalActiveContentCount",
          "type": "uint256"
        },
        {
          "internalType": "uint256",
          "name": "currentBlock",
          "type": "uint256"
        }
      ],
      "stateMutability": "view",
      "type": "function"
    },
    {
      "inputs": [
        {
          "internalType": "uint256",
          "name": "_limit",
          "type": "uint256"
        }
      ],
      "name": "getTrendingContentIds",
      "outputs": [
        {
          "internalType": "uint256[]",
          "name": "contentIds",
          "type": "uint256[]"
        }
      ],
      "stateMutability": "view",
      "type": "function"
    },
    {
      "inputs": [
        {
          "internalType": "address",
          "name": "_user",
          "type": "address"
        }
      ],
      "name": "getUserCooldown",
      "outputs": [
        {
          "internalType": "uint256",
          "name": "blocksRemaining",
          "type": "uint256"
        },
        {
          "internalType": "bool",
          "name": "canCreate",
          "type": "bool"
        }
      ],
      "stateMutability": "view",
      "type": "function"
    },
    {
      "inputs": [
        {
          "internalType": "address",
          "name": "_user",
          "type": "address"
        }
      ],
      "name": "getUserPurchaseHistory",
      "outputs": [
        {
          "internalType": "uint256[]",
          "name": "contentIds",
          "type": "uint256[]"
        }
      ],
      "stateMutability": "view",
      "type": "function"
    },
    {
      "inputs": [
        {
          "internalType": "bytes32",
          "name": "role",
          "type": "bytes32"
        },
        {
          "internalType": "address",
          "name": "account",
          "type": "address"
        }
      ],
      "name": "grantRole",
      "outputs": [],
      "stateMutability": "nonpayable",
      "type": "function"
    },
    {
      "inputs": [
        {
          "internalType": "address",
          "name": "_user",
          "type": "address"
        },
        {
          "internalType": "uint256",
          "name": "_contentId",
          "type": "uint256"
        }
      ],
      "name": "hasPurchased",
      "outputs": [
        {
          "internalType": "bool",
          "name": "",
          "type": "bool"
        }
      ],
      "stateMutability": "view",
      "type": "function"
    },
    {
      "inputs": [
        {
          "internalType": "bytes32",
          "name": "role",
          "type": "bytes32"
        },
        {
          "internalType": "address",
          "name": "account",
          "type": "address"
        }
      ],
      "name": "hasRole",
      "outputs": [
        {
          "internalType": "bool",
          "name": "",
          "type": "bool"
        }
      ],
      "stateMutability": "view",
      "type": "function"
    },
    {
      "inputs": [],
      "name": "maxCollaborators",
      "outputs": [
        {
          "internalType": "uint256",
          "name": "",
          "type": "uint256"
        }
      ],
      "stateMutability": "view",
      "type": "function"
    },
    {
      "inputs": [],
      "name": "maxContentPrice",
      "outputs": [
        {
          "internalType": "uint256",
          "name": "",
          "type": "uint256"
        }
      ],
      "stateMutability": "view",
      "type": "function"
    },
    {
      "inputs": [],
      "name": "maxDescriptionLength",
      "outputs": [
        {
          "internalType": "uint256",
          "name": "",
          "type": "uint256"
        }
      ],
      "stateMutability": "view",
      "type": "function"
    },
    {
      "inputs": [],
      "name": "maxRoyaltyPercent",
      "outputs": [
        {
          "internalType": "uint256",
          "name": "",
          "type": "uint256"
        }
      ],
      "stateMutability": "view",
      "type": "function"
    },
    {
      "inputs": [],
      "name": "minContentPrice",
      "outputs": [
        {
          "internalType": "uint256",
          "name": "",
          "type": "uint256"
        }
      ],
      "stateMutability": "view",
      "type": "function"
    },
    {
      "inputs": [],
      "name": "minDescriptionLength",
      "outputs": [
        {
          "internalType": "uint256",
          "name": "",
          "type": "uint256"
        }
      ],
      "stateMutability": "view",
      "type": "function"
    },
    {
      "inputs": [
        {
          "internalType": "uint256",
          "name": "_contentId",
          "type": "uint256"
        },
        {
          "internalType": "enum IEducationalMarketplace.ContentStatus",
          "name": "_newStatus",
          "type": "uint8"
        }
      ],
      "name": "moderateContent",
      "outputs": [],
      "stateMutability": "nonpayable",
      "type": "function"
    },
    {
      "inputs": [],
      "name": "nextContentId",
      "outputs": [
        {
          "internalType": "uint256",
          "name": "",
          "type": "uint256"
        }
      ],
      "stateMutability": "view",
      "type": "function"
    },
    {
      "inputs": [],
      "name": "owner",
      "outputs": [
        {
          "internalType": "address",
          "name": "",
          "type": "address"
        }
      ],
      "stateMutability": "view",
      "type": "function"
    },
    {
      "inputs": [],
      "name": "pause",
      "outputs": [],
      "stateMutability": "nonpayable",
      "type": "function"
    },
    {
      "inputs": [],
      "name": "paused",
      "outputs": [
        {
          "internalType": "bool",
          "name": "",
          "type": "bool"
        }
      ],
      "stateMutability": "view",
      "type": "function"
    },
    {
      "inputs": [],
      "name": "platformFeePercent",
      "outputs": [
        {
          "internalType": "uint256",
          "name": "",
          "type": "uint256"
        }
      ],
      "stateMutability": "view",
      "type": "function"
    },
    {
      "inputs": [
        {
          "internalType": "uint256",
          "name": "_contentId",
          "type": "uint256"
        }
      ],
      "name": "purchaseContent",
      "outputs": [],
      "stateMutability": "payable",
      "type": "function"
    },
    {
      "inputs": [
        {
          "internalType": "uint256",
          "name": "",
          "type": "uint256"
        }
      ],
      "name": "purchases",
      "outputs": [
        {
          "internalType": "address",
          "name": "buyer",
          "type": "address"
        },
        {
          "internalType": "uint256",
          "name": "contentId",
          "type": "uint256"
        },
        {
          "internalType": "uint256",
          "name": "blockNumber",
          "type": "uint256"
        },
        {
          "internalType": "uint256",
          "name": "pricePaid",
          "type": "uint256"
        },
        {
          "internalType": "uint256",
          "name": "royaltyPaid",
          "type": "uint256"
        },
        {
          "internalType": "uint256",
          "name": "platformFeePaid",
          "type": "uint256"
        },
        {
          "internalType": "bytes32",
          "name": "purchaseHash",
          "type": "bytes32"
        }
      ],
      "stateMutability": "view",
      "type": "function"
    },
    {
      "inputs": [],
      "name": "renounceOwnership",
      "outputs": [],
      "stateMutability": "nonpayable",
      "type": "function"
    },
    {
      "inputs": [
        {
          "internalType": "bytes32",
          "name": "role",
          "type": "bytes32"
        },
        {
          "internalType": "address",
          "name": "callerConfirmation",
          "type": "address"
        }
      ],
      "name": "renounceRole",
      "outputs": [],
      "stateMutability": "nonpayable",
      "type": "function"
    },
    {
      "inputs": [],
      "name": "resetEmergencyState",
      "outputs": [],
      "stateMutability": "nonpayable",
      "type": "function"
    },
    {
      "inputs": [
        {
          "internalType": "bytes32",
          "name": "role",
          "type": "bytes32"
        },
        {
          "internalType": "address",
          "name": "account",
          "type": "address"
        }
      ],
      "name": "revokeRole",
      "outputs": [],
      "stateMutability": "nonpayable",
      "type": "function"
    },
    {
      "inputs": [
        {
          "internalType": "bytes4",
          "name": "interfaceId",
          "type": "bytes4"
        }
      ],
      "name": "supportsInterface",
      "outputs": [
        {
          "internalType": "bool",
          "name": "",
          "type": "bool"
        }
      ],
      "stateMutability": "view",
      "type": "function"
    },
    {
      "inputs": [
        {
          "internalType": "uint256",
          "name": "_contentId",
          "type": "uint256"
        }
      ],
      "name": "toggleContentStatus",
      "outputs": [],
      "stateMutability": "nonpayable",
      "type": "function"
    },
    {
      "inputs": [],
      "name": "totalActiveContent",
      "outputs": [
        {
          "internalType": "uint256",
          "name": "",
          "type": "uint256"
        }
      ],
      "stateMutability": "view",
      "type": "function"
    },
    {
      "inputs": [],
      "name": "totalRevenue",
      "outputs": [
        {
          "internalType": "uint256",
          "name": "",
          "type": "uint256"
        }
      ],
      "stateMutability": "view",
      "type": "function"
    },
    {
      "inputs": [],
      "name": "totalSales",
      "outputs": [
        {
          "internalType": "uint256",
          "name": "",
          "type": "uint256"
        }
      ],
      "stateMutability": "view",
      "type": "function"
    },
    {
      "inputs": [
        {
          "internalType": "address",
          "name": "newOwner",
          "type": "address"
        }
      ],
      "name": "transferOwnership",
      "outputs": [],
      "stateMutability": "nonpayable",
      "type": "function"
    },
    {
      "inputs": [],
      "name": "unpause",
      "outputs": [],
      "stateMutability": "nonpayable",
      "type": "function"
    },
    {
      "inputs": [
        {
          "internalType": "uint256",
          "name": "_contentId",
          "type": "uint256"
        },
        {
          "internalType": "uint256",
          "name": "_newPrice",
          "type": "uint256"
        }
      ],
      "name": "updateContentPrice",
      "outputs": [],
      "stateMutability": "nonpayable",
      "type": "function"
    },
    {
      "inputs": [
        {
          "internalType": "uint256",
          "name": "_platformFeePercent",
          "type": "uint256"
        },
        {
          "internalType": "uint256",
          "name": "_defaultRoyaltyPercent",
          "type": "uint256"
        },
        {
          "internalType": "uint256",
          "name": "_maxRoyaltyPercent",
          "type": "uint256"
        },
        {
          "internalType": "uint256",
          "name": "_creationCooldownBlocks",
          "type": "uint256"
        }
      ],
      "name": "updatePlatformParameters",
      "outputs": [],
      "stateMutability": "nonpayable",
      "type": "function"
    },
    {
      "inputs": [
        {
          "internalType": "uint256",
          "name": "_minContentPrice",
          "type": "uint256"
        },
        {
          "internalType": "uint256",
          "name": "_maxContentPrice",
          "type": "uint256"
        },
        {
          "internalType": "uint256",
          "name": "_dailyUploadLimit",
          "type": "uint256"
        },
        {
          "internalType": "uint256",
          "name": "_maxCollaborators",
          "type": "uint256"
        }
      ],
      "name": "updateSecurityParameters",
      "outputs": [],
      "stateMutability": "nonpayable",
      "type": "function"
    },
    {
      "inputs": [
        {
          "internalType": "address",
          "name": "",
          "type": "address"
        },
        {
          "internalType": "uint256",
          "name": "",
          "type": "uint256"
        }
      ],
      "name": "userPurchaseHistory",
      "outputs": [
        {
          "internalType": "uint256",
          "name": "",
          "type": "uint256"
        }
      ],
      "stateMutability": "view",
      "type": "function"
    },
    {
      "inputs": [
        {
          "internalType": "address",
          "name": "",
          "type": "address"
        },
        {
          "internalType": "uint256",
          "name": "",
          "type": "uint256"
        }
      ],
      "name": "userPurchases",
      "outputs": [
        {
          "internalType": "bool",
          "name": "",
          "type": "bool"
        }
      ],
      "stateMutability": "view",
      "type": "function"
    },
    {
      "inputs": [
        {
          "internalType": "uint256",
          "name": "_contentId",
          "type": "uint256"
        },
        {
          "internalType": "bytes32",
          "name": "_expectedHash",
          "type": "bytes32"
        }
      ],
      "name": "verifyContentIntegrity",
      "outputs": [
        {
          "internalType": "bool",
          "name": "isValid",
          "type": "bool"
        }
      ],
      "stateMutability": "view",
      "type": "function"
    },
    {
      "inputs": [
        {
          "internalType": "address",
          "name": "_user",
          "type": "address"
        }
      ],
      "name": "whitelistUser",
      "outputs": [],
      "stateMutability": "nonpayable",
      "type": "function"
    },
    {
      "inputs": [
        {
          "internalType": "uint256",
          "name": "_amount",
          "type": "uint256"
        }
      ],
      "name": "withdraw",
      "outputs": [],
      "stateMutability": "nonpayable",
      "type": "function"
    },
    {
      "stateMutability": "payable",
      "type": "receive"
    }
  ],
  "bytecode": "0x6080346200014057601f6200507f38819003918201601f19168301916001600160401b0383118484101762000145578084926020946040528339810103126200014057516001600160a01b0390818116808203620001405760fa600c556103e880600d55611388600e5566038d7ea4c68000600f55678ac7230489e80000601055600a6011556032601255601355600a601455600a60155560ff196017541660175580156200012757601a80546001600160a01b0319811683179091556200011693167f8be0079c531659141344cd1fd0a4f28419497f9722a3daafe3b4186f6b6457e0600080a36001601b55620000f7816200015b565b506200010381620001dc565b506200010f816200027f565b506200031d565b50604051614ca39081620003bc8239f35b604051631e4fbdf760e01b815260006004820152602490fd5b600080fd5b634e487b7160e01b600052604160045260246000fd5b6001600160a01b031660008181527f0a51588b1664495f089dd83d2d26f247920f94a57a4a09f20cf068efc8f82bd4602052604081205490919060ff16620001d857818052601d6020526040822081835260205260408220600160ff1982541617905533916000805160206200505f8339815191528180a4600190565b5090565b6001600160a01b031660008181527f86bcecf9fd371e3b84a9388a547ab20d0a0e23adeded334f74b30c23a98a8d6c60205260408120549091907f71f3d55856e4058ed06ee057d79ada615f65cdf5f9ee88181b914225088f834f9060ff166200027a57808352601d6020526040832082845260205260408320600160ff198254161790556000805160206200505f833981519152339380a4600190565b505090565b6001600160a01b031660008181527f9f9b7692ea0734315fe23237d4e81500af36dfaeae844d545a4d6c75976544c660205260408120549091907f39db794a90dad1f6f1eb43938a38164ffcb808bce7e11fb138c898d32d58d6d79060ff166200027a57808352601d6020526040832082845260205260408320600160ff198254161790556000805160206200505f833981519152339380a4600190565b6001600160a01b031660008181527f049d714867a6a305fda778c732ea4560662689356ab93546242022a3584fa53060205260408120549091907fbf233dd2aafeb4d50879c4aa5c81e96d92f6e6945c906a58f9f2d1c1631b4b269060ff166200027a57808352601d6020526040832082845260205260408320600160ff198254161790556000805160206200505f833981519152339380a460019056fe6080806040526004361015610088575b50361561005a57346100555760405162461bcd60e51b8152602060048201526012602482015271119d5b98dd1a5bdb881b9bdd08199bdd5b9960721b6044820152606490fd5b600080fd5b6040513481527fb9db6cd07d4c34464bb104380303bddd2410e6c5436f03672a9f1e288380c6c760203392a2005b60003560e01c908163011c675614613f8c5750806301ffc9a714613f365780630a248d7f14613f185780630e73afdf14613dfd5780630eea65f814613ddf5780631192313214610a185780631725ae7d1461371257806318d1c9ee146136f457806320df4359146136cb57806321924e5d1461362157806322c0aec7146135e2578063248a9ca3146135b357806328f2ac2814612eae5780632c55725814612e905780632cd3bea614612d515780632e1a7d4d14612c995780632ef9a16014612c7d5780632f2ff15d14612c3e5780632fb6e41d14612aad57806331b6c572146128f357806335c38d1e1461286857806336568abe1461282157806337803e39146126e257806338472598146126475780633b13d732146126295780633f4ba83a146125bf5780633f8bf086146125a1578063452517c7146125835780634a4c560d146124db5780634e42f6ae146124bd5780635048b1c114612476578063542ddce81461211557806359941d42146120f75780635b8815a414611f5e5780635c975abb14611f3b5780635dc1043114611f2457806362581c7714611de357806363a599a414611dc0578063643808a814611d515780636605ff6614611d3357806366a8df0e14611b7d5780636a480eb814611b335780636bb987fe14611b16578063708b71eb1461180a578063715018a6146117bf57806373efc9f2146117875780637556f41b14611720578063786cebe914611648578063797669c91461161f5780637d08e16d1461148d578063812d966a1461145e5780638392fe31146113e25780638456cb59146113885780638596d748146112f457806387a38dbe146111ff57806389de5400146111c45780638c639a85146111a65780638da5cb5b1461117d5780638f94bc681461113557806391d14854146110e8578063933166e114610c71578063969ee14d14610f6b578063985957ab14610ea45780639dc3960b14610ccc5780639f82d47214610c71578063a217fddf14610c55578063a61a9d0314610c37578063a8e380f114610c06578063abc1b50e14610bac578063bef14aab14610aa1578063bf2d9e0b14610a83578063c520571c14610a65578063cf2c033414610a18578063cfdbf254146109fc578063d547741f146109bb578063dcacf7b51461086b578063e1f1c4a71461084e578063eed3e097146107f6578063f2fde38b14610780578063f32beaa614610755578063f595b55f14610600578063f7f29f0c146105e4578063fad504ff146105b35763ffbdc8cb14610431573861000f565b34610055576020806003193601126100555760043560085481101561059b5780600052600082526040600020906040519161046b83614098565b8054835261047b6001820161410d565b8484015261048b6002820161410d565b60408401526104a460ff60038301541660608501614435565b60048101549260808101938452600582015460a0820152600682015460c08201526007820154926104db60ff851660e08401614441565b60018060a01b03918261010082019560081c1685526101a0600b846008870154169561012084019687526009810154610140850152600a81015463ffffffff908181166101608701528b1c1661018085015201549101523360005260028652604060002090600052855260ff6040600020541615928361058d575b508261057e575b505061056c5751604051908152f35b604051631a27eac360e11b8152600490fd5b9051163314159050388061055d565b518116331415925038610556565b60249060405190631c1269f360e21b82526004820152fd5b346100555760203660031901126100555760406105d66105d1613ffe565b614808565b825191825215156020820152f35b3461005557600036600319011261005557602060405160058152f35b346100555760203660031901126100555760043560085481101561059b576000526000602052604060002060405161063781614098565b815481526106476001830161410d565b60208201526106586002830161410d565b604082015261067160ff60038401541660608301614435565b60048201546080820152600582015460a0820152600682015460c082015260078201549160e08201926106a760ff821685614441565b6101a060018060a01b03948561010086019360081c1683528560088501541661012086015260098401549081610140870152600a85015495600b63ffffffff808916988961016085015260201c169687610180840152015493849101525191600383101561073f5760c096610738945116946040519687526020870152604086015260608501526080840190614207565b60a0820152f35b634e487b7160e01b600052602160045260246000fd5b346100555760403660031901126100555760206107766024356004356147e2565b6040519015158152f35b3461005557602036600319011261005557610799613ffe565b6107a1614b4d565b6001600160a01b039081169081156107dd57601a80546001600160a01b03198116841790915516600080516020614c2e833981519152600080a3005b604051631e4fbdf760e01b815260006004820152602490fd5b346100555760403660031901126100555761080f613ffe565b6001600160a01b031660009081526006602052604090208054602435919082101561005557602091610840916142fd565b90546040519160031b1c8152f35b346100555760003660031901126100555760206040516127108152f35b34610055576040366003190112610055576004356024356003811015908161005557610895614953565b6008548310156109a25782600052600060205260076040600020019060ff82541692600384101561073f5783158080610995575b156109655750506108eb81610902936108e360095461468f565b60095561469c565b6108f86040518094614207565b6020830190614207565b81600080516020614c4e83398151915260403393a3604080517f3a26d1fb758531ff7b353755dead133d15e5f0d05dd872ef34695c74cac7d5f381524360208201526001600160a01b03909216913391600080516020614bee83398151915291a3005b159081610987575b5081610902936108eb921561469c576108e36009546143d5565b905061073f5780158161096d565b50600091508215156108c9565b604051631c1269f360e21b815260048101849052602490fd5b34610055576040366003190112610055576109fa6004356109da614014565b9080600052601d6020526109f560016040600020015461499d565b614ad6565b005b3461005557600036600319011261005557602060405160148152f35b34610055576040366003190112610055576001600160a01b03610a39613ffe565b1660005260026020526040600020602435600052602052602060ff604060002054166040519015158152f35b34610055576000366003190112610055576020601154604051908152f35b34610055576000366003190112610055576020600b54604051908152f35b3461005557610aaf366142b7565b610ab8816143a3565b91600092600090600093600854945b85811080610ba3575b15610b4a5780600052600060205260ff60076040600020015416600381101561073f5715610b07575b610b02906143d5565b610ac7565b9284811015610b25575b610b1d610b02916143d5565b939050610af9565b95610b1d610b418286610b3b610b0295886143e4565b526143d5565b97915050610b11565b828785610b56826143a3565b9160005b818110610b8457610b7a848460405192839260408452604084019061402a565b9060208301520390f35b80610b91600192876143e4565b51610b9c82876143e4565b5201610b5a565b50818710610ad0565b3461005557610bba366142b7565b9060005260046020526040600020805482101561005557606091610bdd91614363565b5060018060a01b0381541690600260018201549101549060405192835260208301526040820152f35b34610055576020366003190112610055576040610c29610c24613ffe565b6146b4565b825191151582526020820152f35b34610055576000366003190112610055576020600954604051908152f35b3461005557600036600319011261005557602060405160008152f35b34610055576020366003190112610055576001600160a01b03610c92613ffe565b16600052600160205260406000208054610cc8600183015492600281015490600460038201549101549160405195869586614293565b0390f35b346100555760203660031901126100555760043560085481101561059b5760005260006020526040600020600b60405191610d0683614098565b80548352610d166001820161410d565b6020840152610d276002820161410d565b6040840152610d4060ff60038301541660608501614435565b60048101546080840152600581015460a0840152600681015460c08401526007810154610d7360ff821660e08601614441565b6001600160a01b03600891821c811661010086015290820154166101208401526009810154610140840152600a81015463ffffffff808216610160860152602091821c166101808501529101546101a083015281015160408201516060830151909291600782101561073f5760808301519260a08101519360c08201519460e083015195600387101561073f57610e5796610e899160018060a01b03610100870151169360018060a01b036101208801511695610e70610e6561014063ffffffff6101608c0151169a01519a6040519e8f9e8f9261016084526101608401906141d5565b9160208184039101526141d5565b9a60408d01906141fa565b60608b015260808a015260a089015260c0880190614207565b60e08601526101008501526101208401526101408301520390f35b34610055576000366003190112610055573360009081527f049d714867a6a305fda778c732ea4560662689356ab93546242022a3584fa5306020526040902054600080516020614bae8339815191529060ff1615610f4d57600160ff19601754161760175560006040517f2b360512be00a461d38b01f2225a8a63b3f66a627fc69e02c0205598890af54d8152436020820152600080516020614bee83398151915260403392a3005b6044906040519063e2517d3f60e01b82523360048301526024820152fd5b3461005557602080600319360112610055576001600160a01b03610f8d613ffe565b169081600052600190818152604060002092600591600581526040600020604051808284829454938481520190600052846000209260005b89878383106110d35750505050610fde925003826140ea565b846000946000926000925b61105d575b5050811590508061104e5761103857610cc89304915b6000526016815260406000209061168043046000525260406000205490600285549486015495015460405195869586614293565b634e487b7160e01b600052601260045260246000fd5b5050610cc89250600091611004565b80518310156110ce5761107083826143e4565b5192836000526000865260ff6007604060002001541693600385101561073f578994156110a1575b50830192610fe9565b6110c1859296996110c79260005260008952856040600020015490614460565b986143d5565b9490611098565b610fee565b86548552958101958795509093019201610fc5565b3461005557604036600319011261005557611101614014565b600435600052601d60205260406000209060018060a01b0316600052602052602060ff604060002054166040519015158152f35b34610055576040366003190112610055576001600160a01b03611156613ffe565b16600052601660205260406000206024356000526020526020604060002054604051908152f35b3461005557600036600319011261005557601a546040516001600160a01b039091168152602090f35b34610055576000366003190112610055576020600c54604051908152f35b346100555760003660031901126100555760206040517f39db794a90dad1f6f1eb43938a38164ffcb808bce7e11fb138c898d32d58d6d78152f35b346100555761120d366142b7565b9060085481101561059b5780600052600060205260ff60076040600020015416600381101561073f576112dc5760008181526020819052604090206007015460081c6001600160a01b0316330361056c57600f54821080156112d1575b6112b857806000526000602052600560406000200191808354935560405192835260208301527fc1ec60939f904e35a8ed42256ffa5b2970debdefe361153dee8cabf3a258694360403393a3005b604051637cb1974360e11b815260048101839052602490fd5b50601054821161126a565b60249060405190633278696760e21b82526004820152fd5b346100555760403660031901126100555761130d613ffe565b60243590611319614953565b60018060a01b0316908160005260036020526040600020600160ff19825416179055817ff3180b5fa328e1ec92ac05766351de4a83f72e55569a638fe62a6d225dcd50446020604051848152a2604051908152436020820152600080516020614bee83398151915260403392a3005b34610055576000366003190112610055576113a1614b4d565b6113a9614874565b600160ff19601c541617601c557f62e78cea01bee320cd4e420270b5ea74000d11b0c9f74754ebdbfc544b05a2586020604051338152a1005b34610055576020366003190112610055576004356007548110156100555761140b60e09161432b565b5060018060a01b0381541690600181015490600281015460038201546004830154916006600585015494015494604051968752602087015260408601526060850152608084015260a083015260c0820152f35b3461005557600036600319011261005557600854600954610cc8600a5492600b54604051948594439386614293565b346100555760208060031936011261005557600435906114ae6009546143a3565b916000906000600854905b8181106115da57505060005b82811061152857508181111561152157505b6114e0816143a3565b9260005b82811061150257505050610cc860405192828493845283019061402a565b8061150f600192846143e4565b5161151a82886143e4565b52016114e4565b90506114d7565b60018082018083116115c4575b8481106115465750506001016114c5565b819061155284896143e4565b516000526000875263ffffffff600a908082604060002001541691611577848c6143e4565b5160005260008a52604060002001541611611593575b01611535565b61159d84896143e4565b516115a8828a6143e4565b516115b3868b6143e4565b526115be828a6143e4565b5261158d565b634e487b7160e01b600052601160045260246000fd5b806000526000855260ff60076040600020015416600381101561073f5715611605575b6001016114b9565b926116178185610b3b6001948a6143e4565b9390506115fd565b34610055576000366003190112610055576020604051600080516020614c0e8339815191528152f35b346100555760203660031901126100555760043560008181526020819052604090206007015460081c6001600160a01b0316330361056c5780600052600060205260076040600020019081549160ff831692600384101561073f576116e29160ff91856116f85750600182198254161781556116c560095461468f565b6009555b54166116d86040518095614207565b6020840190614207565b600080516020614c4e83398151915260403393a3005b60018614611707575b506116c9565b82191681556117176009546143d5565b60095585611701565b3461005557600036600319011261005557611739614919565b60ff196017541660175560006040517fa448aa3f2acc158c0ababf575e87e74d1cfa11f3d84ad26d32ee02e7bbcc8d708152436020820152600080516020614bee83398151915260403392a3005b3461005557600036600319011261005557608060ff601754164760095490604051921515835260208301526040820152436060820152f35b34610055576000366003190112610055576117d8614b4d565b601a80546001600160a01b031981169091556000906001600160a01b0316600080516020614c2e8339815191528280a3005b3461005557602080600319360112610055576004356001600160401b0381116100555761183b9036906004016142cd565b611847819392936143a3565b91611851826143a3565b9161185b8161438c565b61186860405191826140ea565b8181526118748261438c565b81840196601f199591860136893761188b8461438c565b9361189960405195866140ea565b8085526118a58161438c565b85870197013688376000600891600854915b81811061197a576118e08b8b8b8f8c8c836118ed8e604051998a9960808b5260808b019061425f565b90898203848b015261402a565b918783036040890152519182815201929060005b81811061195457505050848203606086015251808252908201929160005b82811061192e57505050500390f35b9193839550908082611944600194839751614207565b019501910191859493919261191f565b91959650919284808261196a6001948a516141fa565b0196019101918796959392611901565b998a61198a829d9b9c848861467f565b358481106119a2575b5060019150019a99989a6118b7565b60005260008a5289856040600020604051906119bd82614098565b80548252846119ce6001830161410d565b838601908152966119e16002840161410d565b604085015260ff95600398878a86015416956060810196611a029088614435565b6004860154608082015260058601549560a08201968752600681015460c0830152600798898201549060e084019b8216611a3c908d614441565b6001600160a01b0391811c8216610100850152820154166101208301526009810154610140830152600a81015463ffffffff80821661016085015290851c16610180830152600b01546101a090910152516040518151818401939192839190611aaa908290879086016141b2565b81010380835201611abb90826140ea565b51902091611ac8916143e4565b5251611ad4858c6143e4565b52519081101561073f57611af190611aec848c6143e4565b614435565b519182101561073f57611b0f600192611b0a838c6143e4565b614441565b8c91611993565b346100555760003660031901126100555760206040516116808152f35b3461005557604036600319011261005557611b4c613ffe565b6001600160a01b031660009081526005602052604090208054602435919082101561005557602091610840916142fd565b34610055576040366003190112610055576004356001600160401b03811161005557611bad9036906004016142cd565b90602491602435926003916003851015908161005557611bcb614953565b60148111611cfc5760005b818110611bdf57005b611bea81838861467f565b356008548110611bfe575b50600101611bd6565b806000526020906000825260076040600020019160ff8354169288841015611cbe578a908785158080611cd3575b15611c8357505091611c54611c69926001979695946009611c4d815461468f565b905561469c565b611c616040518095614207565b83018b614207565b600080516020614c4e83398151915260403393a390611bf5565b159081611cac575b50611c699260019796959492611c54921561469c576009611c4d81546143d5565b91925050611cbe578a90811588611c8b565b87634e487b7160e01b60005260216004526000fd5b50919250611ce75790878c92831515611c2c565b88634e487b7160e01b60005260216004526000fd5b60405162461bcd60e51b815260206004820152600f60248201526e426174636820746f6f206c6172676560881b6044820152606490fd5b34610055576000366003190112610055576020600a54604051908152f35b34610055576020366003190112610055576001600160a01b03611d72613ffe565b16600052601660205260406000206116804304600052602052604080600020546014548181811015600014611db257505060005b82519182526020820152f35b611dbb9161437f565b611da6565b3461005557600036600319011261005557602060ff601754166040519015158152f35b34610055576060366003190112610055576007600435101561005557611e0a6044356143a3565b600854600080805b83811080611f19575b15611eca5780600052600060205260ff60076040600020015416600381101561073f571580611e97575b611e58575b611e53906143d5565b611e12565b90602435811015611e78575b611e70611e53916143d5565b919050611e4a565b91611e70611e8e8284610b3b611e53958a6143e4565b93915050611e64565b5080600052600060205260ff600360406000200154166007600435101561073f57600781101561073f5760043514611e45565b848383611ed6826143a3565b9160005b818110611efa57610b7a848460405192839260408452604084019061402a565b80611f07600192876143e4565b51611f1282876143e4565b5201611eda565b506044358310611e1b565b60003660031901126100555761005a3415156143f8565b3461005557600036600319011261005557602060ff601c54166040519015158152f35b3461005557611f6c36614241565b92611f78929192614919565b80156120be5780821115612085578215158061207a575b1561203e5783151580612033575b15611ff257600f5560105560145560155560006040517fd28fef99873700106a71d66f0edd4e28c4571423448166c7ad2eec3e40eb09f18152436020820152600080516020614bee83398151915260403392a3005b60405162461bcd60e51b8152602060048201526019602482015278496e76616c6964206d617820636f6c6c61626f7261746f727360381b6044820152606490fd5b506014841115611f9d565b60405162461bcd60e51b8152602060048201526014602482015273125b9d985b1a59081d5c1b1bd859081b1a5b5a5d60621b6044820152606490fd5b506032831115611f8f565b60405162461bcd60e51b8152602060048201526011602482015270496e76616c6964206d617820707269636560781b6044820152606490fd5b60405162461bcd60e51b8152602060048201526011602482015270496e76616c6964206d696e20707269636560781b6044820152606490fd5b34610055576000366003190112610055576020600e54604051908152f35b34610055576080366003190112610055576001600160401b03602435818111610055576121469036906004016142cd565b604492919235828111610055576121619036906004016142cd565b9390926064359081116100555761217c9036906004016142cd565b939091600854600435101561245d57600435600052600060205260ff60076040600020015416600390600381101561073f576124445760043560009081526020819052604090206007015460081c6001600160a01b0316330361056c5786851480159061243a575b612428576015548511612416576004356000526004602052604060002080549060008155816123d9575b505050939291906000946000945b84861061224057612710871161222e57005b604051636d7903a960e11b8152600490fd5b90919293949560018060a01b0361226061225b89898761467f565b614b79565b161580156123c6575b61222e576004356000526004602052604060002061228b61225b89898761467f565b90612297898b8861467f565b356122a38a868a61467f565b3590604051936122b2856140cf565b6001600160a01b03168452602084015260408301528054600160401b8110156123b0576122e491600182018155614363565b92909261239a576001926002604061232c94868060a01b03815116878060a01b03198554161784556020810151878501550151910155612325898b8861467f565b3590614460565b9661233b61225b82898761467f565b612346828b8861467f565b359061235383868a61467f565b356040519283526020830152838060a01b0316907f7c3bcea2cc66defa7d3493a5b9546405b4ecf9860d8ee553352658c2a221fb22604060043592a301949392919061221c565b634e487b7160e01b600052600060045260246000fd5b634e487b7160e01b600052604160045260246000fd5b506123d287898661467f565b3515612269565b816003029160038304036115c4576000526020600020908101905b8181101561220e578060008492556000600182015560006002820155016123f4565b60405163f9232cc560e01b8152600490fd5b604051631688814960e11b8152600490fd5b50858514156121e4565b6024604051633278696760e21b81526004356004820152fd5b6024604051631c1269f360e21b81526004356004820152fd5b346100555760203660031901126100555760a061249460043561460b565b9260409291925194600180881b0316855260208501526040840152606083015215156080820152f35b34610055576000366003190112610055576020600d54604051908152f35b34610055576020366003190112610055576124f4613ffe565b6124fc614953565b6001600160a01b0316600081815260036020526040808220805460ff19169055519082907f7409cb8e690bcd1487fd4fd27dad3fa92388d201ba6f953631d6d6b26299f8499080a27f3fe0ad2aea56a8e2a5f72b5bcda9e0656c92571b92fc3f15daea4319415b0fae8152436020820152600080516020614bee83398151915260403392a3005b34610055576000366003190112610055576020601054604051908152f35b34610055576000366003190112610055576020601254604051908152f35b34610055576000366003190112610055576125d8614b4d565b601c5460ff8116156126175760ff1916601c557f5db9ee0a495bf2e6ff9c91a7834c1ba4fdd244a5e8aa4e537bd38aeae4b073aa6020604051338152a1005b604051638dfc202b60e01b8152600490fd5b34610055576000366003190112610055576020601354604051908152f35b346100555761265e612658366142b7565b906144c6565b6040516020918282018383528151809152836040840192019360005b8281106126875784840385f35b855180516001600160a01b03168552808301518584015260408082015190860152606080820151908601526080808201519086015260a0808201519086015260c090810151908501529481019460e09093019260010161267a565b346100555760203660031901126100555760043560085481101561059b576000526000602052604060002060405161271981614098565b815481526127296001830161410d565b602082015261273a6002830161410d565b604082015261275360ff60038401541660608301614435565b6004820154608082015260058201549060a081019182526101a0600b60068501549460c08401958652600781015461279160ff821660e08701614441565b60018060a01b03809160081c166101008601526008820154166101208501526009810154610140850152600a81015463ffffffff9081811661016087015260201c1661018085015201549101525190610cc86127106127ff816127f6600c548761444d565b0493518561444d565b04926128148461280f858461437f565b61437f565b6040519485948386614293565b346100555760403660031901126100555761283a614014565b336001600160a01b03821603612856576109fa90600435614ad6565b60405163334bd91960e11b8152600490fd5b3461005557602080600319360112610055576001600160a01b0361288a613ffe565b1660005260068152604060002090604051808383829554938481520190600052836000209260005b858282106128dd575050506128c9925003836140ea565b610cc860405192828493845283019061402a565b85548452600195860195889550930192016128b2565b34610055576020806003193601126100555760043560085481101561059b5760005260048152604060002090815461292a8161438c565b9261293860405194856140ea565b8184526000908152828120838086015b848410612a6e578682815161297561295f8261438c565b9161296d60405193846140ea565b80835261438c565b8183019290601f190136843761298b84516143a3565b9061299685516143a3565b9260005b86518110156129ff576001906001600160a01b036129b8828a6143e4565b5151166129c582856143e4565b52836129d1828a6143e4565b5101516129de82876143e4565b5260406129eb828a6143e4565b5101516129f882886143e4565b520161299a565b5092919390936040519485946060860190606087525180915260808601939060005b818110612a4e5750505084830390850152610cc89291612a409161402a565b90838203604085015261425f565b82516001600160a01b031686528897509483019491830191600101612a21565b600191600391604051612a80816140cf565b848060a01b0386541681528486015483820152600286015460408201528152019201920191908490612948565b3461005557612abb36614241565b92612ac7929192614919565b6103e88111612c01576109c48211612bc1576113888311612b8557600184101580612b7a575b15612b4257600c55600d55600e5560115560006040517f0e7498543e1230a1b7e29f8bad7acf7600045f6502fb2ccac22f9635970eba988152436020820152600080516020614bee83398151915260403392a3005b60405162461bcd60e51b815260206004820152601060248201526f24b73b30b634b21031b7b7b63237bbb760811b6044820152606490fd5b506064841115612aed565b60405162461bcd60e51b815260206004820152601460248201527309ac2f040e4def2c2d8e8f240e8dede40d0d2ced60631b6044820152606490fd5b60405162461bcd60e51b8152602060048201526018602482015277088caccc2ead8e840e4def2c2d8e8f240e8dede40d0d2ced60431b6044820152606490fd5b60405162461bcd60e51b81526020600482015260156024820152740a0d8c2e8ccdee4da40cccaca40e8dede40d0d2ced605b1b6044820152606490fd5b34610055576040366003190112610055576109fa600435612c5d614014565b9080600052601d602052612c7860016040600020015461499d565b614a56565b3461005557600036600319011261005557602060405160648152f35b3461005557602036600319011261005557600435612cb5614919565b612cc08115156143f8565b478111612d1557612cd190336149c3565b60006040517f5c2eed7e29b3502a726faf503ac4316b7101f3da813654e8df02c13449e03da88152436020820152600080516020614bee83398151915260403392a3005b60405162461bcd60e51b8152602060048201526014602482015273496e73756666696369656e742062616c616e636560601b6044820152606490fd5b3461005557612d5f36614241565b91612d69836143a3565b60008092600095600854965b87811080612e87575b15612e37578060005260206000815260ff60076040600020015416600381101561073f57159081612e1b575b81612e01575b50612dc4575b612dbf906143d5565b612d75565b9486811015612de2575b612dda612dbf916143d5565b959050612db6565b92612dda612df88288610b3b612dbf958a6143e4565b94915050612dce565b60009150828252528260056040600020015411158a612db0565b9050816000526000815289600560406000200154101590612daa565b50505082612e44826143a3565b9160005b818110612e6857610b7a848460405192839260408452604084019061402a565b80612e75600192876143e4565b51612e8082876143e4565b5201612e48565b50818410612d7e565b34610055576000366003190112610055576020601554604051908152f35b602036600319011261005557612ec2614851565b612eca614874565b600854600435101561245d57600435600052600060205260ff60076040600020015416600381101561073f576124445733600052600360205260ff604060002054166135a15760ff6017541661358f5760043560005260006020526040600020336000526002602052604060002060043560005260205260ff6040600020541661357657600581015480341061355857612710612f69600c548361444d565b04612710612f7b60068501548461444d565b0492612f8b8461280f848661437f565b33600052600260205260406000206004356000526020526040600020600160ff19825416179055336000526006602052612fcb60043560406000206148e4565b600a82015463ffffffff808216146115c45763ffffffff600181831601169063ffffffff191617600a830155600b8201613006858254614460565b9055613013600a546143d5565b600a5561302284600b54614460565b600b5560018060a01b03600783015460081c166000526001602052600160406000200161304f81546143d5565b905561305b8582614460565b60018060a01b03600784015460081c1660005260016020526130866002604060002001918254614460565b90556040513360601b60208201526004356034820152436054820152846074820152446094820152609481528060c081011060018060401b0360c0830111176123b05760c0810160405280516020820120936130e460c083016140b4565b3360c083015260043560e083015243610100830152856101208301528661014083015261016082015283610180820152600754600160401b8110156123b057806001613133920160075561432b565b91909161239a5761018060069160018060a01b0360c08201511660018060a01b031985541617845560e081015160018501556101008101516002850155610120810151600385015561014081015160048501556101608101516005850155015191015560043560005260006020526040600020600b604051916131b583614098565b805483526131c56001820161410d565b60208401526131d66002820161410d565b60408401526131ef60ff60038301541660608501614435565b60048101546080840152600581015460a0840152600681015460c0840152600781015461322260ff821660e08601614441565b6001600160a01b03600891821c811661010086015290820154166101208401526009810154610140840152600a81015463ffffffff808216610160860152602091821c166101808501529101546101a0830152600480356000908152915260409020805461328f8161438c565b9161329d60405193846140ea565b818352602083019060005260206000206000915b83831061351a57505050508051156000146133c1575085613363575b505b80613345575b5082341161332d575b600860018060a01b03910154169260405192835260208301526040820152600435907fcce78cd734134ee2c4e5032fb78537e08d528a411c79dde2b4f76fa7e8f4448160603392a46001601b55005b61334061333a843461437f565b336149c3565b6132de565b600882015461335d91906001600160a01b03166149c3565b846132d5565b61010081015161337d9087906001600160a01b03166149c3565b61010060018060a01b0391015116604051868152600080516020614b8e8339815191526020820152600080516020614bce833981519152604060043592a3856132cd565b9390949195926000966000975b8651891015613486576134166001918a6127106133f960206133f0848e6143e4565b5101518b61444d565b048061341e575b5061340d6020918b6143e4565b51015190614460565b9801976133ce565b61343b818c61343385898060a01b03926143e4565b5151166149c3565b604061345b8c61345185898060a01b03926143e4565b515116938d6143e4565b5101516040519182526020820152600080516020614bce833981519152604060043592a38a8c613400565b9194975092959194506127100361271081116115c4576134a9612710918861444d565b0490816134b8575b50506132cf565b6101008101516134d29083906001600160a01b03166149c3565b610100015160408051928352600080516020614b8e83398151915260208401526001600160a01b039091169160043591600080516020614bce83398151915291a385806134b1565b6003602060019260405161352d816140cf565b848060a01b0386541681528486015483820152600286015460408201528152019201920191906132b1565b6044906040519063b99e2ab760e01b82526004820152346024820152fd5b6024604051634284404160e11b81526004356004820152fd5b604051630eff07c160e21b8152600490fd5b60405163ebb6f34b60e01b8152600490fd5b3461005557602036600319011261005557600435600052601d6020526020600160406000200154604051908152f35b34610055576020366003190112610055576001600160a01b03613603613ffe565b166000526003602052602060ff604060002054166040519015158152f35b346100555760803660031901126100555761363a613ffe565b6001600160401b03906024358281116100555761365b903690600401614214565b906044359384116100555760546136c09161367c6020963690600401614214565b9081866040519788958b87019a60018060601b03199060601b168b5260348701378401916034830160008152370160643560348201520360348101845201826140ea565b519020604051908152f35b34610055576000366003190112610055576020604051600080516020614bae8339815191528152f35b34610055576000366003190112610055576020601454604051908152f35b346100555760c0366003190112610055576004356001600160401b03811161005557613742903690600401614214565b6024356001600160401b03811161005557613761903690600401614214565b9290916007604435101561005557613777614851565b61377f614874565b33600052600360205260ff604060002054166135a15760ff6017541661358f573360005260016020526137ba6004604060002001544361437f565b601154808210613dbe575050600581108015613db4575b6124285760125484108015613da9575b61242857600f54608435108015613d9c575b613d8257600e5460a43511613d68573360005260166020526040600020611680430460005260205260406000205460145480821015613d4a5750506008549261383b846143d5565b60085560a43515613d3e5761387560a435915b6040519661385b88614098565b8688526138693686886148ad565b602089015236916148ad565b604086015261388960443560608701614435565b606435608086015260843560a086015260c0850152600060e08501523361010085015233610120850152436101408501526000610160850152600061018085015260006101a0850152826000526000602052604060002084518155602085015180519060018060401b0382116123b0578190613908600185015461405e565b601f8111613ceb575b50602090601f8311600114613c7957600092613c6e575b50508160011b916000199060031b1c19161760018201555b60408501518051906001600160401b0382116123b0578190613965600285015461405e565b601f8111613c1b575b50602090601f8311600114613ba957600092613b9e575b50508160011b916000199060031b1c19161760028201555b6060850151600781101561073f5760ff801960038401541691161760038201556080850151600482015560a0850151600582015560c0850151600682015560e085015194600386101561073f576101a0600b916139ff6020986007860161469c565b610100810151600785018054610100600160a81b031916600892831b610100600160a81b031617905561012082015190850180546001600160a01b0319166001600160a01b03929092169190911790556101408101516009850155610160810151600a850180546101808401516001600160401b031990911663ffffffff9384161792168a1b919091179055015191015533600090815260018552604090208054613aa9906143d5565b90553360005260018452436004604060002001556018845260406000208360005284526040600020600160ff198254161790553360005260058452613af28360406000206148e4565b613afd6009546143d5565b60095533600052601684526040600020611680430460005284526040600020613b2681546143d5565b9055613b4b8460405183819483830196873781016000838201520380845201826140ea565b5190206040516084358152613b648482016044356141fa565b436040820152827f3fc3fe3e3ec42e4b312d04b369d66fdc3deab34ba669557232ce24f8bc9fd6ef60603393a46001601b55604051908152f35b015190508780613985565b9250600284016000526020600020906000935b601f1984168510613c00576001945083601f19811610613be7575b505050811b01600282015561399d565b015160001960f88460031b161c19169055878080613bd7565b81810151835560209485019460019093019290910190613bbc565b909150600284016000526020600020601f840160051c810160208510613c67575b90849392915b601f830160051c82018110613c5857505061396e565b60008155859450600101613c42565b5080613c3c565b015190508780613928565b9250600184016000526020600020906000935b601f1984168510613cd0576001945083601f19811610613cb7575b505050811b016001820155613940565b015160001960f88460031b161c19169055878080613ca7565b81810151835560209485019460019093019290910190613c8c565b909150600184016000526020600020601f840160051c810160208510613d37575b90849392915b601f830160051c82018110613d28575050613911565b60008155859450600101613d12565b5080613d0c565b613875600d549161384e565b60449250604051916377b326b560e11b835260048301526024820152fd5b6040516377353d4960e01b815260a4356004820152602490fd5b604051637cb1974360e11b81526084356004820152602490fd5b50601054608435116137f3565b5060135484116137e1565b50606481116137d1565b602491613dca9161437f565b6040519063044780df60e51b82526004820152fd5b34610055576000366003190112610055576020600f54604051908152f35b346100555760203660031901126100555760043560005260006020526040600020805460018201613e2d9061410d565b91613e3a6002820161410d565b600382015460ff1691600481015460058201546006830154600784015490600160a01b6001900360088601541692600986015494600a87015496600b0154976040519b8c809c6101c09182918152602001528c01613e97916141d5565b8b810360408d0152613ea8916141d5565b9860608b01613eb6916141fa565b60808a015260a089015260c0880152613ed560e0880160ff8316614207565b60081c6001600160a01b031661010087015261012086015261014085015263ffffffff81811661016086015260209190911c166101808401526101a08301520390f35b34610055576000366003190112610055576020600854604051908152f35b346100555760203660031901126100555760043563ffffffff60e01b811680910361005557602090637965db0b60e01b8114908115613f7b575b506040519015158152f35b6301ffc9a760e01b14905082613f70565b3461005557602080600319360112610055576001600160a01b03613fae613ffe565b166000526005815260406000208281549182825283820190600052836000209260005b85828210613fe8575050506128c9925003836140ea565b8554845260019586019588955093019201613fd1565b600435906001600160a01b038216820361005557565b602435906001600160a01b038216820361005557565b90815180825260208080930193019160005b82811061404a575050505090565b83518552938101939281019260010161403c565b90600182811c9216801561408e575b602083101461407857565b634e487b7160e01b600052602260045260246000fd5b91607f169161406d565b6101c081019081106001600160401b038211176123b057604052565b60e081019081106001600160401b038211176123b057604052565b606081019081106001600160401b038211176123b057604052565b601f909101601f19168101906001600160401b038211908210176123b057604052565b906040519182600082546141208161405e565b908184526020946001916001811690816000146141905750600114614151575b50505061414f925003836140ea565b565b600090815285812095935091905b81831061417857505061414f9350820101388080614140565b8554888401850152948501948794509183019161415f565b9250505061414f94925060ff191682840152151560051b820101388080614140565b60005b8381106141c55750506000910152565b81810151838201526020016141b5565b906020916141ee815180928185528580860191016141b2565b601f01601f1916010190565b90600782101561073f5752565b90600382101561073f5752565b9181601f84011215610055578235916001600160401b038311610055576020838186019501011161005557565b60809060031901126100555760043590602435906044359060643590565b90815180825260208080930193019160005b82811061427f575050505090565b835185529381019392810192600101614271565b9192608093969594919660a084019784526020840152604083015260608201520152565b6040906003190112610055576004359060243590565b9181601f84011215610055578235916001600160401b038311610055576020808501948460051b01011161005557565b80548210156143155760005260206000200190600090565b634e487b7160e01b600052603260045260246000fd5b600754811015614315576007600081815291027fa66cc928b5edb82af9bd49922954155ab7b0942694bea4ce44661d9a8736c6880191565b8054821015614315576000526003602060002091020190600090565b919082039182116115c457565b6001600160401b0381116123b05760051b60200190565b906143ad8261438c565b6143ba60405191826140ea565b82815280926143cb601f199161438c565b0190602036910137565b60001981146115c45760010190565b80518210156143155760209160051b010190565b156143ff57565b60405162461bcd60e51b815260206004820152600e60248201526d125b9d985b1a5908185b5bdd5b9d60921b6044820152606490fd5b600782101561073f5752565b600382101561073f5752565b818102929181159184041417156115c457565b919082018092116115c457565b9060405161447a816140b4565b82546001600160a01b0316815260018301546020820152600283015460408201526003830154606082015260048301546080820152600583015460a082015260069092015460c0830152565b91906007549081158015614601575b6145d9576144e39084614460565b838282116145d1575b6144f59161437f565b6144fe8161438c565b91604061450e60405194856140ea565b828452601f1961451d8461438c565b019060005b82811061458b575050508294600080198301928311905b84811061454857505050505050565b816115c4578061456f61456961456460019461280f888a61437f565b61432b565b5061446d565b61457982896143e4565b5261458481886143e4565b5001614539565b6020908251614599816140b4565b60008152826000818301526000858301526000606083015260006080830152600060a0830152600060c0830152828901015201614522565b8291506144ec565b5050604051909150602081016001600160401b038111828210176123b0576040526000815290565b50818410156144d5565b6007549060005b82811061462d57505050600090600090600090600090600090565b8160066146398361432b565b5001541461464957600101614612565b6146589250614569915061432b565b8051602082015160408301516060909301516001600160a01b039092169390929190600190565b91908110156143155760051b0190565b80156115c4576000190190565b90600381101561073f5760ff80198354169116179055565b60ff601754166147ba576001600160a01b031660008181526003602052604081205490919060ff166147945760016020526146f660046040842001544361437f565b6011541161476e578152601660205260408120611680430482526020526040812054601454111561474957506001907fce5ceceb3b018dc53cd7e23daa9f08f268ec71a6dd745acc69b20cd937af550390565b907f891a3c2aae4b7e19c81c920e84ed0d4cfba7d3f4fd1ea26206fd45e59989ecfa90565b50907f9dc7cae0428a4481c8b454da165b0ac10c9a4e6bb5c5edb9a3a2bf0e0fa36bcf90565b50907f8680108df3f92337e086d074e9b72f70c5f03505474ea9f5c44282227b961ecb90565b506000907f641d89b682f2f02191994ac3c66b0b38941bdc138e6f3f87c53261cc39048d8c90565b6008548110156148015760005260006020526004604060002001541490565b5050600090565b6001600160a01b031660009081526001602052604090206004015461482d904361437f565b60115490818110614842575050600090600190565b61484b9161437f565b90600090565b6002601b5414614862576002601b55565b604051633ee5aeb560e01b8152600490fd5b60ff601c541661488057565b60405163d93c066560e01b8152600490fd5b6001600160401b0381116123b057601f01601f191660200190565b9291926148b982614892565b916148c760405193846140ea565b829481845281830111610055578281602093846000960137010152565b8054600160401b8110156123b057614901916001820181556142fd565b819291549060031b91821b91600019901b1916179055565b3360009081527f0a51588b1664495f089dd83d2d26f247920f94a57a4a09f20cf068efc8f82bd4602052604081205460ff1615610f4d5750565b3360009081527f86bcecf9fd371e3b84a9388a547ab20d0a0e23adeded334f74b30c23a98a8d6c6020526040902054600080516020614c0e8339815191529060ff1615610f4d5750565b80600052601d60205260406000203360005260205260ff6040600020541615610f4d5750565b814710614a3757600080808094819460018060a01b03165af13d15614a2e573d6149ec81614892565b906149fa60405192836140ea565b8152809260203d92013e5b15614a0d5750565b805115614a1c57602081519101fd5b60405163d6bda27560e01b8152600490fd5b60609150614a05565b60405163cf47918160e01b815247600482015260248101839052604490fd5b90600091808352601d602052604083209160018060a01b03169182845260205260ff60408420541615600014614ad157808352601d6020526040832082845260205260408320600160ff198254161790557f2f8788117e7eff1d82e926ec794901d17c78024a50270940304540a733656f0d339380a4600190565b505090565b90600091808352601d602052604083209160018060a01b03169182845260205260ff604084205416600014614ad157808352601d602052604083208284526020526040832060ff1981541690557ff6391f5c32d9c69d2a47ea670b442974b53935d1edc7fd64eb21e047a839171b339380a4600190565b601a546001600160a01b03163303614b6157565b60405163118cdaa760e01b8152336004820152602490fd5b356001600160a01b0381168103610055579056fe5edda73b91bedfc3c4050ba08a79bcdad8ca58bfe7bc1df02a8f520b50502b27bf233dd2aafeb4d50879c4aa5c81e96d92f6e6945c906a58f9f2d1c1631b4b26b032dceb2216a55c82f3918716dbf64ab79ea8d96ab394ef64693a703043eeea962ba59df838f5107e7f98204a6013f9ed4a5175261f178929bf5aa152761bee71f3d55856e4058ed06ee057d79ada615f65cdf5f9ee88181b914225088f834f8be0079c531659141344cd1fd0a4f28419497f9722a3daafe3b4186f6b6457e03dacd7d709cea559c8b444c37c27240031885b9f2fecf3772c91c939fc230d81a2646970667358221220b9576dff011f8dc5f3b9abeeab2f82de3fcde606cbb01fd403e5fa012e8a638364736f6c634300081600332f8788117e7eff1d82e926ec794901d17c78024a50270940304540a733656f0d",
  "linkReferences": {},
  "deployedLinkReferences": {}
}