{
  "_format": "hh-sol-artifact-1",
  "contractName": "MarketplaceCore",
  "sourceName": "contracts/MarketplaceCore.sol",
  "abi": [
    {
      "inputs": [
        {
          "internalType": "uint256",
          "name": "contentId",
          "type": "uint256"
        }
      ],
      "name": "ContentAlreadyPurchased",
      "type": "error"
    },
    {
      "inputs": [
        {
          "internalType": "uint256",
          "name": "contentId",
          "type": "uint256"
        }
      ],
      "name": "ContentNotActive",
      "type": "error"
    },
    {
      "inputs": [
        {
          "internalType": "uint256",
          "name": "contentId",
          "type": "uint256"
        }
      ],
      "name": "ContentNotFound",
      "type": "error"
    },
    {
      "inputs": [
        {
          "internalType": "uint256",
          "name": "remainingBlocks",
          "type": "uint256"
        }
      ],
      "name": "CreationCooldownActive",
      "type": "error"
    },
    {
      "inputs": [
        {
          "internalType": "uint256",
          "name": "current",
          "type": "uint256"
        },
        {
          "internalType": "uint256",
          "name": "limit",
          "type": "uint256"
        }
      ],
      "name": "DailyLimitExceeded",
      "type": "error"
    },
    {
      "inputs": [],
      "name": "EmergencyStopActive",
      "type": "error"
    },
    {
      "inputs": [
        {
          "internalType": "uint256",
          "name": "required",
          "type": "uint256"
        },
        {
          "internalType": "uint256",
          "name": "provided",
          "type": "uint256"
        }
      ],
      "name": "InsufficientPayment",
      "type": "error"
    },
    {
      "inputs": [],
      "name": "InvalidCollaboratorShare",
      "type": "error"
    },
    {
      "inputs": [],
      "name": "InvalidContentData",
      "type": "error"
    },
    {
      "inputs": [
        {
          "internalType": "uint256",
          "name": "price",
          "type": "uint256"
        }
      ],
      "name": "InvalidPrice",
      "type": "error"
    },
    {
      "inputs": [
        {
          "internalType": "uint256",
          "name": "percent",
          "type": "uint256"
        }
      ],
      "name": "InvalidRoyaltyPercent",
      "type": "error"
    },
    {
      "inputs": [],
      "name": "TooManyCollaborators",
      "type": "error"
    },
    {
      "inputs": [],
      "name": "UnauthorizedAccess",
      "type": "error"
    },
    {
      "inputs": [],
      "name": "UserIsBlacklisted",
      "type": "error"
    },
    {
      "anonymous": false,
      "inputs": [
        {
          "indexed": true,
          "internalType": "uint256",
          "name": "contentId",
          "type": "uint256"
        },
        {
          "indexed": true,
          "internalType": "address",
          "name": "collaborator",
          "type": "address"
        },
        {
          "indexed": false,
          "internalType": "uint256",
          "name": "sharePercent",
          "type": "uint256"
        },
        {
          "indexed": false,
          "internalType": "bytes32",
          "name": "roleHash",
          "type": "bytes32"
        }
      ],
      "name": "CollaboratorAdded",
      "type": "event"
    },
    {
      "anonymous": false,
      "inputs": [
        {
          "indexed": true,
          "internalType": "uint256",
          "name": "contentId",
          "type": "uint256"
        },
        {
          "indexed": true,
          "internalType": "address",
          "name": "creator",
          "type": "address"
        },
        {
          "indexed": true,
          "internalType": "bytes32",
          "name": "titleHash",
          "type": "bytes32"
        },
        {
          "indexed": false,
          "internalType": "uint256",
          "name": "price",
          "type": "uint256"
        },
        {
          "indexed": false,
          "internalType": "enum IEducationalMarketplace.ContentCategory",
          "name": "category",
          "type": "uint8"
        },
        {
          "indexed": false,
          "internalType": "uint256",
          "name": "blockNumber",
          "type": "uint256"
        }
      ],
      "name": "ContentCreated",
      "type": "event"
    },
    {
      "anonymous": false,
      "inputs": [
        {
          "indexed": true,
          "internalType": "address",
          "name": "buyer",
          "type": "address"
        },
        {
          "indexed": true,
          "internalType": "uint256",
          "name": "contentId",
          "type": "uint256"
        },
        {
          "indexed": true,
          "internalType": "address",
          "name": "seller",
          "type": "address"
        },
        {
          "indexed": false,
          "internalType": "uint256",
          "name": "price",
          "type": "uint256"
        },
        {
          "indexed": false,
          "internalType": "uint256",
          "name": "royaltyPaid",
          "type": "uint256"
        },
        {
          "indexed": false,
          "internalType": "bytes32",
          "name": "purchaseHash",
          "type": "bytes32"
        }
      ],
      "name": "ContentPurchased",
      "type": "event"
    },
    {
      "anonymous": false,
      "inputs": [
        {
          "indexed": true,
          "internalType": "uint256",
          "name": "contentId",
          "type": "uint256"
        },
        {
          "indexed": true,
          "internalType": "address",
          "name": "recipient",
          "type": "address"
        },
        {
          "indexed": false,
          "internalType": "uint256",
          "name": "amount",
          "type": "uint256"
        },
        {
          "indexed": false,
          "internalType": "bytes32",
          "name": "roleHash",
          "type": "bytes32"
        }
      ],
      "name": "RoyaltyDistributed",
      "type": "event"
    },
    {
      "inputs": [],
      "name": "BASIS_POINTS",
      "outputs": [
        {
          "internalType": "uint256",
          "name": "",
          "type": "uint256"
        }
      ],
      "stateMutability": "view",
      "type": "function"
    },
    {
      "inputs": [],
      "name": "BLOCKS_PER_DAY",
      "outputs": [
        {
          "internalType": "uint256",
          "name": "",
          "type": "uint256"
        }
      ],
      "stateMutability": "view",
      "type": "function"
    },
    {
      "inputs": [],
      "name": "CONTENT_MANAGER_ROLE",
      "outputs": [
        {
          "internalType": "bytes32",
          "name": "",
          "type": "bytes32"
        }
      ],
      "stateMutability": "view",
      "type": "function"
    },
    {
      "inputs": [],
      "name": "EMERGENCY_ROLE",
      "outputs": [
        {
          "internalType": "bytes32",
          "name": "",
          "type": "bytes32"
        }
      ],
      "stateMutability": "view",
      "type": "function"
    },
    {
      "inputs": [],
      "name": "MAX_BATCH_SIZE",
      "outputs": [
        {
          "internalType": "uint256",
          "name": "",
          "type": "uint256"
        }
      ],
      "stateMutability": "view",
      "type": "function"
    },
    {
      "inputs": [],
      "name": "MAX_TITLE_LENGTH",
      "outputs": [
        {
          "internalType": "uint256",
          "name": "",
          "type": "uint256"
        }
      ],
      "stateMutability": "view",
      "type": "function"
    },
    {
      "inputs": [],
      "name": "MIN_TITLE_LENGTH",
      "outputs": [
        {
          "internalType": "uint256",
          "name": "",
          "type": "uint256"
        }
      ],
      "stateMutability": "view",
      "type": "function"
    },
    {
      "inputs": [],
      "name": "MODERATOR_ROLE",
      "outputs": [
        {
          "internalType": "bytes32",
          "name": "",
          "type": "bytes32"
        }
      ],
      "stateMutability": "view",
      "type": "function"
    },
    {
      "inputs": [
        {
          "internalType": "address",
          "name": "",
          "type": "address"
        }
      ],
      "name": "blacklistedUsers",
      "outputs": [
        {
          "internalType": "bool",
          "name": "",
          "type": "bool"
        }
      ],
      "stateMutability": "view",
      "type": "function"
    },
    {
      "inputs": [
        {
          "internalType": "uint256",
          "name": "",
          "type": "uint256"
        },
        {
          "internalType": "uint256",
          "name": "",
          "type": "uint256"
        }
      ],
      "name": "contentCollaborators",
      "outputs": [
        {
          "internalType": "address",
          "name": "collaboratorAddress",
          "type": "address"
        },
        {
          "internalType": "uint256",
          "name": "sharePercent",
          "type": "uint256"
        },
        {
          "internalType": "bytes32",
          "name": "roleHash",
          "type": "bytes32"
        }
      ],
      "stateMutability": "view",
      "type": "function"
    },
    {
      "inputs": [
        {
          "internalType": "uint256",
          "name": "",
          "type": "uint256"
        }
      ],
      "name": "contentItems",
      "outputs": [
        {
          "internalType": "uint256",
          "name": "contentId",
          "type": "uint256"
        },
        {
          "internalType": "string",
          "name": "title",
          "type": "string"
        },
        {
          "internalType": "string",
          "name": "description",
          "type": "string"
        },
        {
          "internalType": "enum IEducationalMarketplace.ContentCategory",
          "name": "category",
          "type": "uint8"
        },
        {
          "internalType": "bytes32",
          "name": "contentHash",
          "type": "bytes32"
        },
        {
          "internalType": "uint256",
          "name": "price",
          "type": "uint256"
        },
        {
          "internalType": "uint256",
          "name": "royaltyPercent",
          "type": "uint256"
        },
        {
          "internalType": "enum IEducationalMarketplace.ContentStatus",
          "name": "status",
          "type": "uint8"
        },
        {
          "internalType": "address payable",
          "name": "creator",
          "type": "address"
        },
        {
          "internalType": "address payable",
          "name": "currentOwner",
          "type": "address"
        },
        {
          "internalType": "uint256",
          "name": "createdAtBlock",
          "type": "uint256"
        },
        {
          "internalType": "uint32",
          "name": "totalSales",
          "type": "uint32"
        },
        {
          "internalType": "uint32",
          "name": "totalViews",
          "type": "uint32"
        },
        {
          "internalType": "uint256",
          "name": "totalEarnings",
          "type": "uint256"
        }
      ],
      "stateMutability": "view",
      "type": "function"
    },
    {
      "inputs": [],
      "name": "creationCooldownBlocks",
      "outputs": [
        {
          "internalType": "uint256",
          "name": "",
          "type": "uint256"
        }
      ],
      "stateMutability": "view",
      "type": "function"
    },
    {
      "inputs": [
        {
          "internalType": "address",
          "name": "",
          "type": "address"
        },
        {
          "internalType": "uint256",
          "name": "",
          "type": "uint256"
        }
      ],
      "name": "creatorContent",
      "outputs": [
        {
          "internalType": "uint256",
          "name": "",
          "type": "uint256"
        }
      ],
      "stateMutability": "view",
      "type": "function"
    },
    {
      "inputs": [
        {
          "internalType": "address",
          "name": "",
          "type": "address"
        }
      ],
      "name": "creators",
      "outputs": [
        {
          "internalType": "uint256",
          "name": "totalContent",
          "type": "uint256"
        },
        {
          "internalType": "uint256",
          "name": "totalSales",
          "type": "uint256"
        },
        {
          "internalType": "uint256",
          "name": "totalEarnings",
          "type": "uint256"
        },
        {
          "internalType": "uint256",
          "name": "averageRating",
          "type": "uint256"
        },
        {
          "internalType": "uint256",
          "name": "lastContentBlock",
          "type": "uint256"
        }
      ],
      "stateMutability": "view",
      "type": "function"
    },
    {
      "inputs": [],
      "name": "dailyUploadLimit",
      "outputs": [
        {
          "internalType": "uint256",
          "name": "",
          "type": "uint256"
        }
      ],
      "stateMutability": "view",
      "type": "function"
    },
    {
      "inputs": [
        {
          "internalType": "address",
          "name": "",
          "type": "address"
        },
        {
          "internalType": "uint256",
          "name": "",
          "type": "uint256"
        }
      ],
      "name": "dailyUploads",
      "outputs": [
        {
          "internalType": "uint256",
          "name": "",
          "type": "uint256"
        }
      ],
      "stateMutability": "view",
      "type": "function"
    },
    {
      "inputs": [],
      "name": "defaultRoyaltyPercent",
      "outputs": [
        {
          "internalType": "uint256",
          "name": "",
          "type": "uint256"
        }
      ],
      "stateMutability": "view",
      "type": "function"
    },
    {
      "inputs": [],
      "name": "emergencyStop",
      "outputs": [
        {
          "internalType": "bool",
          "name": "",
          "type": "bool"
        }
      ],
      "stateMutability": "view",
      "type": "function"
    },
    {
      "inputs": [],
      "name": "maxCollaborators",
      "outputs": [
        {
          "internalType": "uint256",
          "name": "",
          "type": "uint256"
        }
      ],
      "stateMutability": "view",
      "type": "function"
    },
    {
      "inputs": [],
      "name": "maxContentPrice",
      "outputs": [
        {
          "internalType": "uint256",
          "name": "",
          "type": "uint256"
        }
      ],
      "stateMutability": "view",
      "type": "function"
    },
    {
      "inputs": [],
      "name": "maxDescriptionLength",
      "outputs": [
        {
          "internalType": "uint256",
          "name": "",
          "type": "uint256"
        }
      ],
      "stateMutability": "view",
      "type": "function"
    },
    {
      "inputs": [],
      "name": "maxRoyaltyPercent",
      "outputs": [
        {
          "internalType": "uint256",
          "name": "",
          "type": "uint256"
        }
      ],
      "stateMutability": "view",
      "type": "function"
    },
    {
      "inputs": [],
      "name": "minContentPrice",
      "outputs": [
        {
          "internalType": "uint256",
          "name": "",
          "type": "uint256"
        }
      ],
      "stateMutability": "view",
      "type": "function"
    },
    {
      "inputs": [],
      "name": "minDescriptionLength",
      "outputs": [
        {
          "internalType": "uint256",
          "name": "",
          "type": "uint256"
        }
      ],
      "stateMutability": "view",
      "type": "function"
    },
    {
      "inputs": [],
      "name": "nextContentId",
      "outputs": [
        {
          "internalType": "uint256",
          "name": "",
          "type": "uint256"
        }
      ],
      "stateMutability": "view",
      "type": "function"
    },
    {
      "inputs": [],
      "name": "platformFeePercent",
      "outputs": [
        {
          "internalType": "uint256",
          "name": "",
          "type": "uint256"
        }
      ],
      "stateMutability": "view",
      "type": "function"
    },
    {
      "inputs": [
        {
          "internalType": "uint256",
          "name": "",
          "type": "uint256"
        }
      ],
      "name": "purchases",
      "outputs": [
        {
          "internalType": "address",
          "name": "buyer",
          "type": "address"
        },
        {
          "internalType": "uint256",
          "name": "contentId",
          "type": "uint256"
        },
        {
          "internalType": "uint256",
          "name": "blockNumber",
          "type": "uint256"
        },
        {
          "internalType": "uint256",
          "name": "pricePaid",
          "type": "uint256"
        },
        {
          "internalType": "uint256",
          "name": "royaltyPaid",
          "type": "uint256"
        },
        {
          "internalType": "uint256",
          "name": "platformFeePaid",
          "type": "uint256"
        },
        {
          "internalType": "bytes32",
          "name": "purchaseHash",
          "type": "bytes32"
        }
      ],
      "stateMutability": "view",
      "type": "function"
    },
    {
      "inputs": [],
      "name": "totalActiveContent",
      "outputs": [
        {
          "internalType": "uint256",
          "name": "",
          "type": "uint256"
        }
      ],
      "stateMutability": "view",
      "type": "function"
    },
    {
      "inputs": [],
      "name": "totalRevenue",
      "outputs": [
        {
          "internalType": "uint256",
          "name": "",
          "type": "uint256"
        }
      ],
      "stateMutability": "view",
      "type": "function"
    },
    {
      "inputs": [],
      "name": "totalSales",
      "outputs": [
        {
          "internalType": "uint256",
          "name": "",
          "type": "uint256"
        }
      ],
      "stateMutability": "view",
      "type": "function"
    },
    {
      "inputs": [
        {
          "internalType": "address",
          "name": "",
          "type": "address"
        },
        {
          "internalType": "uint256",
          "name": "",
          "type": "uint256"
        }
      ],
      "name": "userPurchaseHistory",
      "outputs": [
        {
          "internalType": "uint256",
          "name": "",
          "type": "uint256"
        }
      ],
      "stateMutability": "view",
      "type": "function"
    },
    {
      "inputs": [
        {
          "internalType": "address",
          "name": "",
          "type": "address"
        },
        {
          "internalType": "uint256",
          "name": "",
          "type": "uint256"
        }
      ],
      "name": "userPurchases",
      "outputs": [
        {
          "internalType": "bool",
          "name": "",
          "type": "bool"
        }
      ],
      "stateMutability": "view",
      "type": "function"
    }
  ],
  "bytecode": "0x608080604052346100605760fa600c556103e880600d55611388600e5566038d7ea4c68000600f55678ac7230489e80000601055600a6011556032601255601355600a601455600a60155560ff1960175416601755610a4290816100668239f35b600080fdfe60808060405260048036101561001457600080fd5b60003560e01c9182630a248d7f1461087b575081630e73afdf146107325781630eea65f81461071457816318d1c9ee146106f657816320df4359146106bb57816322c0aec71461067c5781632c5572581461065e5781632ef9a160146106425781633b13d732146106245781633f8bf08614610606578163452517c7146105e85781634e42f6ae146105ca57816359941d42146105ac57816363a599a4146105895781636605ff661461056b5781636a480eb8146105215781636bb987fe14610504578163797669c9146104c95781638392fe311461044657816389de54001461040b5781638c639a85146103ed5781638f94bc68146103a5578163933166e11461033e578163a61a9d0314610320578163abc1b50e146102bc57508063bf2d9e0b1461029e578063c520571c14610280578063cf2c033414610233578063cfdbf25414610217578063e1f1c4a7146101fa578063eed3e097146101a25763f7f29f0c1461018157600080fd5b3461019d57600036600319011261019d57602060405160058152f35b600080fd5b3461019d57604036600319011261019d576101bb6109c8565b6001600160a01b031660009081526006602052604090208054602435919082101561019d576020916101ec916109de565b90546040519160031b1c8152f35b3461019d57600036600319011261019d5760206040516127108152f35b3461019d57600036600319011261019d57602060405160148152f35b3461019d57604036600319011261019d576001600160a01b036102546109c8565b1660005260026020526040600020602435600052602052602060ff604060002054166040519015158152f35b3461019d57600036600319011261019d576020601154604051908152f35b3461019d57600036600319011261019d576020600b54604051908152f35b3461019d57604036600319011261019d57602435908035600052602052604060002090815481101561019d576060916000526003602060002091020160018060a01b0381541690600260018201549101549060405192835260208301526040820152f35b3461019d57600036600319011261019d576020600954604051908152f35b3461019d57602036600319011261019d5760a0906001600160a01b036103626109c8565b1660005260016020526040600020908154916001810154916002820154906003830154920154926040519485526020850152604084015260608301526080820152f35b3461019d57604036600319011261019d576001600160a01b036103c66109c8565b16600052601660205260406000206024356000526020526020604060002054604051908152f35b3461019d57600036600319011261019d576020600c54604051908152f35b3461019d57600036600319011261019d5760206040517f39db794a90dad1f6f1eb43938a38164ffcb808bce7e11fb138c898d32d58d6d78152f35b3461019d57602036600319011261019d5780359060075482101561019d5760e0916007600052600760206000209102019060018060a01b0382541691600181015491600282015490600383015490830154916006600585015494015494604051968752602087015260408601526060850152608084015260a083015260c0820152f35b3461019d57600036600319011261019d5760206040517f71f3d55856e4058ed06ee057d79ada615f65cdf5f9ee88181b914225088f834f8152f35b3461019d57600036600319011261019d5760206040516116808152f35b3461019d57604036600319011261019d5761053a6109c8565b6001600160a01b031660009081526005602052604090208054602435919082101561019d576020916101ec916109de565b3461019d57600036600319011261019d576020600a54604051908152f35b3461019d57600036600319011261019d57602060ff601754166040519015158152f35b3461019d57600036600319011261019d576020600e54604051908152f35b3461019d57600036600319011261019d576020600d54604051908152f35b3461019d57600036600319011261019d576020601054604051908152f35b3461019d57600036600319011261019d576020601254604051908152f35b3461019d57600036600319011261019d576020601354604051908152f35b3461019d57600036600319011261019d57602060405160648152f35b3461019d57600036600319011261019d576020601554604051908152f35b3461019d57602036600319011261019d576001600160a01b0361069d6109c8565b166000526003602052602060ff604060002054166040519015158152f35b3461019d57600036600319011261019d5760206040517fbf233dd2aafeb4d50879c4aa5c81e96d92f6e6945c906a58f9f2d1c1631b4b268152f35b3461019d57600036600319011261019d576020601454604051908152f35b3461019d57600036600319011261019d576020600f54604051908152f35b3461019d57602036600319011261019d578035600052600060205260406000209081549061076260018401610896565b8361076f60028201610896565b60ff60038301541693808301549060058401546006850154906007860154936107d860018060a01b03600889015416966107ca600b600a60098c01549b01549e01549a6040519d8e6101c09181528160208201520190610988565b8c810360408e015290610988565b9860078110156108665760608b015260808a015260a089015260c0880152600360ff831610156108515750918596918360ff63ffffffff951660e089015260018060a01b039060081c1661010088015261012087015261014086015281811661016086015260201c166101808401526101a08301520390f35b602190634e487b7160e01b6000525260246000fd5b602185634e487b7160e01b6000525260246000fd5b3461019d57600036600319011261019d576020906008548152f35b906040519160009080549060018260011c916001841693841561097e575b602094858510811461096a5784895290811561094c5750600114610910575b50505050829003601f01601f191682016001600160401b038111838210176108fa57604052565b634e487b7160e01b600052604160045260246000fd5b909293506000528260002091836000935b8385106109385750505050830101388080806108d3565b805488860183015293019284908201610921565b60ff191688860152505050151560051b8401019050388080806108d3565b634e487b7160e01b87526022600452602487fd5b92607f16926108b4565b919082519283825260005b8481106109b4575050826000602080949584010152601f8019910116010190565b602081830181015184830182015201610993565b600435906001600160a01b038216820361019d57565b80548210156109f65760005260206000200190600090565b634e487b7160e01b600052603260045260246000fdfea264697066735822122063eb3bd0ae7caa5f2fcddb80ee541fabbe7da71ce16d8ebb26c5e395171a122364736f6c63430008160033",
  "linkReferences": {},
  "deployedLinkReferences": {}
}